{
	"access/Ownable.sol": {
		"Ownable": {
			"abi": [
				{
					"inputs": [],
					"stateMutability": "nonpayable",
					"type": "constructor"
				},
				{
					"anonymous": false,
					"inputs": [
						{
							"indexed": true,
							"internalType": "address",
							"name": "owner",
							"type": "address"
						},
						{
							"indexed": true,
							"internalType": "uint256",
							"name": "proposalId",
							"type": "uint256"
						}
					],
					"name": "ApproveProposal",
					"type": "event"
				},
				{
					"anonymous": false,
					"inputs": [
						{
							"indexed": true,
							"internalType": "address",
							"name": "sender",
							"type": "address"
						},
						{
							"indexed": false,
							"internalType": "uint256",
							"name": "amount",
							"type": "uint256"
						}
					],
					"name": "DepositProposal",
					"type": "event"
				},
				{
					"anonymous": false,
					"inputs": [
						{
							"indexed": true,
							"internalType": "address",
							"name": "previousOwner",
							"type": "address"
						},
						{
							"indexed": true,
							"internalType": "address",
							"name": "newOwner",
							"type": "address"
						}
					],
					"name": "OwnershipTransferred",
					"type": "event"
				},
				{
					"anonymous": false,
					"inputs": [
						{
							"indexed": true,
							"internalType": "address",
							"name": "owner",
							"type": "address"
						},
						{
							"indexed": true,
							"internalType": "uint256",
							"name": "proposalId",
							"type": "uint256"
						}
					],
					"name": "RevokeProposal",
					"type": "event"
				},
				{
					"anonymous": false,
					"inputs": [
						{
							"indexed": true,
							"internalType": "uint256",
							"name": "proposalId",
							"type": "uint256"
						}
					],
					"name": "SubmitProposal",
					"type": "event"
				},
				{
					"inputs": [],
					"name": "owner",
					"outputs": [
						{
							"internalType": "address",
							"name": "",
							"type": "address"
						}
					],
					"stateMutability": "view",
					"type": "function"
				},
				{
					"inputs": [
						{
							"internalType": "uint256",
							"name": "",
							"type": "uint256"
						}
					],
					"name": "proposals",
					"outputs": [
						{
							"internalType": "address",
							"name": "author",
							"type": "address"
						},
						{
							"internalType": "bool",
							"name": "executed",
							"type": "bool"
						},
						{
							"internalType": "bool",
							"name": "updateSalesStatus",
							"type": "bool"
						},
						{
							"internalType": "bool",
							"name": "salesEnabled",
							"type": "bool"
						},
						{
							"internalType": "bool",
							"name": "swapAndAddLiquidity",
							"type": "bool"
						},
						{
							"internalType": "bool",
							"name": "updateWithdrawOptions",
							"type": "bool"
						},
						{
							"internalType": "uint256",
							"name": "withdrawPrice",
							"type": "uint256"
						},
						{
							"internalType": "bool",
							"name": "updateTaxesFees",
							"type": "bool"
						},
						{
							"internalType": "uint256",
							"name": "heisenVerseTaxFee",
							"type": "uint256"
						},
						{
							"internalType": "uint256",
							"name": "marketingTaxFee",
							"type": "uint256"
						},
						{
							"internalType": "uint256",
							"name": "teamTaxFee",
							"type": "uint256"
						},
						{
							"internalType": "uint256",
							"name": "liquidityTaxFee",
							"type": "uint256"
						},
						{
							"internalType": "bool",
							"name": "transferBackend",
							"type": "bool"
						},
						{
							"internalType": "address",
							"name": "backendAddress",
							"type": "address"
						}
					],
					"stateMutability": "view",
					"type": "function"
				}
			],
			"devdoc": {
				"details": "Contract module which provides a basic access control mechanism, where there is an account (an owner) that can be granted exclusive access to specific functions. By default, the owner account will be the one that deploys the contract. This can later be changed with {transferOwnership}. This module is used through inheritance. It will make available the modifier `onlyOwner`, which can be applied to your functions to restrict their use to the owner.",
				"kind": "dev",
				"methods": {
					"constructor": {
						"details": "Initializes the contract setting the deployer as the initial owner."
					},
					"owner()": {
						"details": "Returns the address of the current owner."
					}
				},
				"version": 1
			},
			"evm": {
				"assembly": "    /* \"access/Ownable.sol\":686:3275  contract Ownable is Context, MultiSignature {... */\n  0x80\n  dup1\n  0x40\n  mstore\n  jumpi(tag_1, callvalue)\n    /* \"access/Ownable.sol\":1136:1154  _owner = msgSender */\n  0x03\n    /* \"access/Ownable.sol\":686:3275  contract Ownable is Context, MultiSignature {... */\n  dup1\n  sload\n  not(sub(exp(0x02, 0xa0), 0x01))\n  and\n    /* \"utils/Context.sol\":736:746  msg.sender */\n  caller\n    /* \"access/Ownable.sol\":686:3275  contract Ownable is Context, MultiSignature {... */\n  swap1\n  dup2\n  or\n  swap1\n  swap2\n  sstore\n  0x00\n    /* \"access/Ownable.sol\":1170:1213  OwnershipTransferred(address(0), msgSender) */\n  0x8be0079c531659141344cd1fd0a4f28419497f9722a3daafe3b4186f6b6457e0\n  dup2\n  dup1\n  log3\n    /* \"access/Ownable.sol\":686:3275  contract Ownable is Context, MultiSignature {... */\n  dataSize(sub_0)\n  swap1\n  dup2\n  dataOffset(sub_0)\n  dup3\n  codecopy\n  return\ntag_1:\n  0x00\n  dup1\n  revert\nstop\n\nsub_0: assembly {\n        /* \"access/Ownable.sol\":686:3275  contract Ownable is Context, MultiSignature {... */\n      0x80\n      dup1\n      0x40\n      mstore\n      jumpi(tag_1, iszero(lt(calldatasize, 0x04)))\n      0x00\n      dup1\n      revert\n    tag_1:\n      0x00\n      swap1\n      0x0100000000000000000000000000000000000000000000000000000000\n      dup3\n      calldataload\n      div\n      swap1\n      dup2\n      0x013cf08b\n      eq\n      tag_3\n      jumpi\n      pop\n      0x8da5cb5b\n      eq\n      tag_5\n      jumpi\n      0x00\n      dup1\n      revert\n    tag_5:\n      jumpi(tag_9, callvalue)\n      dup1\n      add(calldatasize, not(0x03))\n      slt\n      tag_9\n      jumpi\n      0x20\n      and(sload(0x03), 0xffffffffffffffffffffffffffffffffffffffff)\n      mload(0x40)\n      swap1\n      dup2\n      mstore\n      return\n    tag_9:\n      dup1\n      revert\n    tag_3:\n      swap1\n      pop\n      jumpi(tag_13, callvalue)\n      jumpi(tag_13, slt(add(not(0x03), calldatasize), 0x20))\n      calldataload(0x04)\n      dup3\n      sload\n        /* \"utils/MultiSignature.sol\":887:914  Proposal[] public proposals */\n      dup2\n      lt\n      iszero\n      tag_15\n      jumpi\n        /* \"access/Ownable.sol\":686:3275  contract Ownable is Context, MultiSignature {... */\n      0x08\n      swap1\n      dup4\n      0x01c0\n      swap5\n      mstore\n      mul\n      dup1\n      0x290decd9548b62a8d60345a988386fc84ba6bc95484008f6362f93160ef3e563\n      add\n      sload\n        /* \"utils/MultiSignature.sol\":887:914  Proposal[] public proposals */\n      swap1\n      0x290decd9548b62a8d60345a988386fc84ba6bc95484008f6362f93160ef3e564\n      dup2\n      add\n        /* \"access/Ownable.sol\":686:3275  contract Ownable is Context, MultiSignature {... */\n      sload\n      0xff\n        /* \"utils/MultiSignature.sol\":887:914  Proposal[] public proposals */\n      dup1\n      0x290decd9548b62a8d60345a988386fc84ba6bc95484008f6362f93160ef3e565\n      dup5\n      add\n        /* \"access/Ownable.sol\":686:3275  contract Ownable is Context, MultiSignature {... */\n      sload\n      and\n        /* \"utils/MultiSignature.sol\":887:914  Proposal[] public proposals */\n      swap3\n      0x290decd9548b62a8d60345a988386fc84ba6bc95484008f6362f93160ef3e566\n      dup2\n      add\n        /* \"access/Ownable.sol\":686:3275  contract Ownable is Context, MultiSignature {... */\n      sload\n        /* \"utils/MultiSignature.sol\":887:914  Proposal[] public proposals */\n      swap4\n      0x290decd9548b62a8d60345a988386fc84ba6bc95484008f6362f93160ef3e567\n      dup3\n      add\n        /* \"access/Ownable.sol\":686:3275  contract Ownable is Context, MultiSignature {... */\n      sload\n        /* \"utils/MultiSignature.sol\":887:914  Proposal[] public proposals */\n      0x290decd9548b62a8d60345a988386fc84ba6bc95484008f6362f93160ef3e568\n      dup4\n      add\n        /* \"access/Ownable.sol\":686:3275  contract Ownable is Context, MultiSignature {... */\n      sload\n        /* \"utils/MultiSignature.sol\":887:914  Proposal[] public proposals */\n      swap2\n      0x290decd9548b62a8d60345a988386fc84ba6bc95484008f6362f93160ef3e56a\n      0x290decd9548b62a8d60345a988386fc84ba6bc95484008f6362f93160ef3e569\n      dup6\n      add\n        /* \"access/Ownable.sol\":686:3275  contract Ownable is Context, MultiSignature {... */\n      sload\n        /* \"utils/MultiSignature.sol\":887:914  Proposal[] public proposals */\n      swap5\n      add\n        /* \"access/Ownable.sol\":686:3275  contract Ownable is Context, MultiSignature {... */\n      sload\n      swap6\n      dup6\n      0x01000000000000000000000000000000000000000000000000\n      0xffffffffffffffffffffffffffffffffffffffff\n      swap11\n      dup12\n      dup2\n      and\n      dup14\n      mstore\n      dup13\n      0x20\n      dup5\n      0x010000000000000000000000000000000000000000\n      dup5\n      div\n      and\n      iszero\n      iszero\n      swap2\n      add\n      mstore\n      dup13\n      0x40\n      dup5\n      0x01000000000000000000000000000000000000000000\n      dup5\n      div\n      and\n      iszero\n      iszero\n      swap2\n      add\n      mstore\n      dup13\n      0x60\n      dup5\n      0x0100000000000000000000000000000000000000000000\n      dup5\n      div\n      and\n      iszero\n      iszero\n      swap2\n      add\n      mstore\n      dup13\n      0x80\n      dup5\n      0x010000000000000000000000000000000000000000000000\n      dup5\n      div\n      and\n      iszero\n      iszero\n      swap2\n      add\n      mstore\n      div\n      and\n      iszero\n      iszero\n      0xa0\n      dup12\n      add\n      mstore\n      0xc0\n      dup11\n      add\n      mstore\n      iszero\n      iszero\n      0xe0\n      dup10\n      add\n      mstore\n      0x0100\n      swap6\n      dup7\n      dup10\n      add\n      mstore\n      0x0120\n      dup9\n      add\n      mstore\n      0x0140\n      dup8\n      add\n      mstore\n      0x0160\n      dup7\n      add\n      mstore\n      dup2\n      and\n      iszero\n      iszero\n      0x0180\n      dup6\n      add\n      mstore\n      div\n      and\n      0x01a0\n      dup3\n      add\n      mstore\n      return\n        /* \"utils/MultiSignature.sol\":887:914  Proposal[] public proposals */\n    tag_15:\n      dup3\n      dup1\n      revert\n        /* \"access/Ownable.sol\":686:3275  contract Ownable is Context, MultiSignature {... */\n    tag_13:\n      pop\n      dup1\n      revert\n\n    auxdata: 0xa26469706673582212207f2912f00834417f8c6a6431d2305fdc3800727f15ddd7360a040e2d248f2d7d64736f6c63430008110033\n}\n",
				"bytecode": {
					"linkReferences": {},
					"object": "608080604052346100515760038054600160a060020a0319163390811790915560007f8be0079c531659141344cd1fd0a4f28419497f9722a3daafe3b4186f6b6457e08180a361032090816100578239f35b600080fdfe608080604052600436101561001357600080fd5b6000907c0100000000000000000000000000000000000000000000000000000000823504908163013cf08b146100895750638da5cb5b1461005357600080fd5b34610086578060031936011261008657602073ffffffffffffffffffffffffffffffffffffffff60035416604051908152f35b80fd5b9050346102e65760203660031901126102e65760043582548110156102e257600890836101c0945202807f290decd9548b62a8d60345a988386fc84ba6bc95484008f6362f93160ef3e5630154907f290decd9548b62a8d60345a988386fc84ba6bc95484008f6362f93160ef3e56481015460ff807f290decd9548b62a8d60345a988386fc84ba6bc95484008f6362f93160ef3e56584015416927f290decd9548b62a8d60345a988386fc84ba6bc95484008f6362f93160ef3e566810154937f290decd9548b62a8d60345a988386fc84ba6bc95484008f6362f93160ef3e5678201547f290decd9548b62a8d60345a988386fc84ba6bc95484008f6362f93160ef3e568830154917f290decd9548b62a8d60345a988386fc84ba6bc95484008f6362f93160ef3e56a7f290decd9548b62a8d60345a988386fc84ba6bc95484008f6362f93160ef3e5698501549401549585780100000000000000000000000000000000000000000000000073ffffffffffffffffffffffffffffffffffffffff9a8b81168d528c6020847401000000000000000000000000000000000000000084041615159101528c604084750100000000000000000000000000000000000000000084041615159101528c60608476010000000000000000000000000000000000000000000084041615159101528c6080847701000000000000000000000000000000000000000000000084041615159101520416151560a08b015260c08a0152151560e089015261010095868901526101208801526101408701526101608601528116151561018085015204166101a0820152f35b8280fd5b5080fdfea26469706673582212207f2912f00834417f8c6a6431d2305fdc3800727f15ddd7360a040e2d248f2d7d64736f6c63430008110033",
					"opcodes": "PUSH1 0x80 DUP1 PUSH1 0x40 MSTORE CALLVALUE PUSH2 0x51 JUMPI PUSH1 0x3 DUP1 SLOAD PUSH1 0x1 PUSH1 0xA0 PUSH1 0x2 EXP SUB NOT AND CALLER SWAP1 DUP2 OR SWAP1 SWAP2 SSTORE PUSH1 0x0 PUSH32 0x8BE0079C531659141344CD1FD0A4F28419497F9722A3DAAFE3B4186F6B6457E0 DUP2 DUP1 LOG3 PUSH2 0x320 SWAP1 DUP2 PUSH2 0x57 DUP3 CODECOPY RETURN JUMPDEST PUSH1 0x0 DUP1 REVERT INVALID PUSH1 0x80 DUP1 PUSH1 0x40 MSTORE PUSH1 0x4 CALLDATASIZE LT ISZERO PUSH2 0x13 JUMPI PUSH1 0x0 DUP1 REVERT JUMPDEST PUSH1 0x0 SWAP1 PUSH29 0x100000000000000000000000000000000000000000000000000000000 DUP3 CALLDATALOAD DIV SWAP1 DUP2 PUSH4 0x13CF08B EQ PUSH2 0x89 JUMPI POP PUSH4 0x8DA5CB5B EQ PUSH2 0x53 JUMPI PUSH1 0x0 DUP1 REVERT JUMPDEST CALLVALUE PUSH2 0x86 JUMPI DUP1 PUSH1 0x3 NOT CALLDATASIZE ADD SLT PUSH2 0x86 JUMPI PUSH1 0x20 PUSH20 0xFFFFFFFFFFFFFFFFFFFFFFFFFFFFFFFFFFFFFFFF PUSH1 0x3 SLOAD AND PUSH1 0x40 MLOAD SWAP1 DUP2 MSTORE RETURN JUMPDEST DUP1 REVERT JUMPDEST SWAP1 POP CALLVALUE PUSH2 0x2E6 JUMPI PUSH1 0x20 CALLDATASIZE PUSH1 0x3 NOT ADD SLT PUSH2 0x2E6 JUMPI PUSH1 0x4 CALLDATALOAD DUP3 SLOAD DUP2 LT ISZERO PUSH2 0x2E2 JUMPI PUSH1 0x8 SWAP1 DUP4 PUSH2 0x1C0 SWAP5 MSTORE MUL DUP1 PUSH32 0x290DECD9548B62A8D60345A988386FC84BA6BC95484008F6362F93160EF3E563 ADD SLOAD SWAP1 PUSH32 0x290DECD9548B62A8D60345A988386FC84BA6BC95484008F6362F93160EF3E564 DUP2 ADD SLOAD PUSH1 0xFF DUP1 PUSH32 0x290DECD9548B62A8D60345A988386FC84BA6BC95484008F6362F93160EF3E565 DUP5 ADD SLOAD AND SWAP3 PUSH32 0x290DECD9548B62A8D60345A988386FC84BA6BC95484008F6362F93160EF3E566 DUP2 ADD SLOAD SWAP4 PUSH32 0x290DECD9548B62A8D60345A988386FC84BA6BC95484008F6362F93160EF3E567 DUP3 ADD SLOAD PUSH32 0x290DECD9548B62A8D60345A988386FC84BA6BC95484008F6362F93160EF3E568 DUP4 ADD SLOAD SWAP2 PUSH32 0x290DECD9548B62A8D60345A988386FC84BA6BC95484008F6362F93160EF3E56A PUSH32 0x290DECD9548B62A8D60345A988386FC84BA6BC95484008F6362F93160EF3E569 DUP6 ADD SLOAD SWAP5 ADD SLOAD SWAP6 DUP6 PUSH25 0x1000000000000000000000000000000000000000000000000 PUSH20 0xFFFFFFFFFFFFFFFFFFFFFFFFFFFFFFFFFFFFFFFF SWAP11 DUP12 DUP2 AND DUP14 MSTORE DUP13 PUSH1 0x20 DUP5 PUSH21 0x10000000000000000000000000000000000000000 DUP5 DIV AND ISZERO ISZERO SWAP2 ADD MSTORE DUP13 PUSH1 0x40 DUP5 PUSH22 0x1000000000000000000000000000000000000000000 DUP5 DIV AND ISZERO ISZERO SWAP2 ADD MSTORE DUP13 PUSH1 0x60 DUP5 PUSH23 0x100000000000000000000000000000000000000000000 DUP5 DIV AND ISZERO ISZERO SWAP2 ADD MSTORE DUP13 PUSH1 0x80 DUP5 PUSH24 0x10000000000000000000000000000000000000000000000 DUP5 DIV AND ISZERO ISZERO SWAP2 ADD MSTORE DIV AND ISZERO ISZERO PUSH1 0xA0 DUP12 ADD MSTORE PUSH1 0xC0 DUP11 ADD MSTORE ISZERO ISZERO PUSH1 0xE0 DUP10 ADD MSTORE PUSH2 0x100 SWAP6 DUP7 DUP10 ADD MSTORE PUSH2 0x120 DUP9 ADD MSTORE PUSH2 0x140 DUP8 ADD MSTORE PUSH2 0x160 DUP7 ADD MSTORE DUP2 AND ISZERO ISZERO PUSH2 0x180 DUP6 ADD MSTORE DIV AND PUSH2 0x1A0 DUP3 ADD MSTORE RETURN JUMPDEST DUP3 DUP1 REVERT JUMPDEST POP DUP1 REVERT INVALID LOG2 PUSH5 0x6970667358 0x22 SLT KECCAK256 PUSH32 0x2912F00834417F8C6A6431D2305FDC3800727F15DDD7360A040E2D248F2D7D64 PUSH20 0x6F6C634300081100330000000000000000000000 "
				},
				"gasEstimates": {
					"creation": {
						"codeDepositCost": "160000",
						"executionCost": "22021",
						"totalCost": "182021"
					},
					"external": {
						"owner()": "391",
						"proposals(uint256)": "2470"
					},
					"internal": {
						"_addOwner(address)": "infinite",
						"_transferBackend(address)": "infinite",
						"backend()": "infinite",
						"getOwner(uint256)": "infinite",
						"isAnOwner(address)": "infinite",
						"requiredConfirmations()": "infinite"
					}
				},
				"methodIdentifiers": {
					"owner()": "8da5cb5b",
					"proposals(uint256)": "013cf08b"
				}
			},
			"storageLayout": {
				"storage": [
					{
						"astId": 3042,
						"contract": "access/Ownable.sol:Ownable",
						"label": "proposals",
						"offset": 0,
						"slot": "0",
						"type": "t_array(t_struct(Proposal)3038_storage)dyn_storage"
					},
					{
						"astId": 3048,
						"contract": "access/Ownable.sol:Ownable",
						"label": "proposalApproved",
						"offset": 0,
						"slot": "1",
						"type": "t_mapping(t_uint256,t_mapping(t_address,t_bool))"
					},
					{
						"astId": 1403,
						"contract": "access/Ownable.sol:Ownable",
						"label": "_backend",
						"offset": 0,
						"slot": "2",
						"type": "t_address"
					},
					{
						"astId": 1405,
						"contract": "access/Ownable.sol:Ownable",
						"label": "_owner",
						"offset": 0,
						"slot": "3",
						"type": "t_address"
					},
					{
						"astId": 1408,
						"contract": "access/Ownable.sol:Ownable",
						"label": "_owners",
						"offset": 0,
						"slot": "4",
						"type": "t_array(t_address)dyn_storage"
					},
					{
						"astId": 1412,
						"contract": "access/Ownable.sol:Ownable",
						"label": "isOwner",
						"offset": 0,
						"slot": "5",
						"type": "t_mapping(t_address,t_bool)"
					}
				],
				"types": {
					"t_address": {
						"encoding": "inplace",
						"label": "address",
						"numberOfBytes": "20"
					},
					"t_array(t_address)dyn_storage": {
						"base": "t_address",
						"encoding": "dynamic_array",
						"label": "address[]",
						"numberOfBytes": "32"
					},
					"t_array(t_struct(Proposal)3038_storage)dyn_storage": {
						"base": "t_struct(Proposal)3038_storage",
						"encoding": "dynamic_array",
						"label": "struct MultiSignature.Proposal[]",
						"numberOfBytes": "32"
					},
					"t_bool": {
						"encoding": "inplace",
						"label": "bool",
						"numberOfBytes": "1"
					},
					"t_mapping(t_address,t_bool)": {
						"encoding": "mapping",
						"key": "t_address",
						"label": "mapping(address => bool)",
						"numberOfBytes": "32",
						"value": "t_bool"
					},
					"t_mapping(t_uint256,t_mapping(t_address,t_bool))": {
						"encoding": "mapping",
						"key": "t_uint256",
						"label": "mapping(uint256 => mapping(address => bool))",
						"numberOfBytes": "32",
						"value": "t_mapping(t_address,t_bool)"
					},
					"t_struct(Proposal)3038_storage": {
						"encoding": "inplace",
						"label": "struct MultiSignature.Proposal",
						"members": [
							{
								"astId": 3011,
								"contract": "access/Ownable.sol:Ownable",
								"label": "author",
								"offset": 0,
								"slot": "0",
								"type": "t_address"
							},
							{
								"astId": 3013,
								"contract": "access/Ownable.sol:Ownable",
								"label": "executed",
								"offset": 20,
								"slot": "0",
								"type": "t_bool"
							},
							{
								"astId": 3015,
								"contract": "access/Ownable.sol:Ownable",
								"label": "updateSalesStatus",
								"offset": 21,
								"slot": "0",
								"type": "t_bool"
							},
							{
								"astId": 3017,
								"contract": "access/Ownable.sol:Ownable",
								"label": "salesEnabled",
								"offset": 22,
								"slot": "0",
								"type": "t_bool"
							},
							{
								"astId": 3019,
								"contract": "access/Ownable.sol:Ownable",
								"label": "swapAndAddLiquidity",
								"offset": 23,
								"slot": "0",
								"type": "t_bool"
							},
							{
								"astId": 3021,
								"contract": "access/Ownable.sol:Ownable",
								"label": "updateWithdrawOptions",
								"offset": 24,
								"slot": "0",
								"type": "t_bool"
							},
							{
								"astId": 3023,
								"contract": "access/Ownable.sol:Ownable",
								"label": "withdrawPrice",
								"offset": 0,
								"slot": "1",
								"type": "t_uint256"
							},
							{
								"astId": 3025,
								"contract": "access/Ownable.sol:Ownable",
								"label": "updateTaxesFees",
								"offset": 0,
								"slot": "2",
								"type": "t_bool"
							},
							{
								"astId": 3027,
								"contract": "access/Ownable.sol:Ownable",
								"label": "heisenVerseTaxFee",
								"offset": 0,
								"slot": "3",
								"type": "t_uint256"
							},
							{
								"astId": 3029,
								"contract": "access/Ownable.sol:Ownable",
								"label": "marketingTaxFee",
								"offset": 0,
								"slot": "4",
								"type": "t_uint256"
							},
							{
								"astId": 3031,
								"contract": "access/Ownable.sol:Ownable",
								"label": "teamTaxFee",
								"offset": 0,
								"slot": "5",
								"type": "t_uint256"
							},
							{
								"astId": 3033,
								"contract": "access/Ownable.sol:Ownable",
								"label": "liquidityTaxFee",
								"offset": 0,
								"slot": "6",
								"type": "t_uint256"
							},
							{
								"astId": 3035,
								"contract": "access/Ownable.sol:Ownable",
								"label": "transferBackend",
								"offset": 0,
								"slot": "7",
								"type": "t_bool"
							},
							{
								"astId": 3037,
								"contract": "access/Ownable.sol:Ownable",
								"label": "backendAddress",
								"offset": 1,
								"slot": "7",
								"type": "t_address"
							}
						],
						"numberOfBytes": "256"
					},
					"t_uint256": {
						"encoding": "inplace",
						"label": "uint256",
						"numberOfBytes": "32"
					}
				}
			},
			"userdoc": {
				"kind": "user",
				"methods": {},
				"version": 1
			}
		}
	}
}