{
	"SwishFishToken.sol": {
		"SwishFish": {
			"abi": [
				{
					"inputs": [
						{
							"internalType": "address",
							"name": "_owner1",
							"type": "address"
						},
						{
							"internalType": "address",
							"name": "_owner2",
							"type": "address"
						},
						{
							"internalType": "address",
							"name": "_owner3",
							"type": "address"
						},
						{
							"internalType": "address",
							"name": "_backend",
							"type": "address"
						}
					],
					"stateMutability": "nonpayable",
					"type": "constructor"
				},
				{
					"anonymous": false,
					"inputs": [
						{
							"indexed": true,
							"internalType": "address",
							"name": "owner",
							"type": "address"
						},
						{
							"indexed": true,
							"internalType": "address",
							"name": "spender",
							"type": "address"
						},
						{
							"indexed": false,
							"internalType": "uint256",
							"name": "value",
							"type": "uint256"
						}
					],
					"name": "Approval",
					"type": "event"
				},
				{
					"anonymous": false,
					"inputs": [
						{
							"indexed": true,
							"internalType": "address",
							"name": "owner",
							"type": "address"
						},
						{
							"indexed": true,
							"internalType": "uint256",
							"name": "proposalId",
							"type": "uint256"
						}
					],
					"name": "ApproveProposal",
					"type": "event"
				},
				{
					"anonymous": false,
					"inputs": [],
					"name": "BuyEgg",
					"type": "event"
				},
				{
					"anonymous": false,
					"inputs": [
						{
							"indexed": true,
							"internalType": "address",
							"name": "sender",
							"type": "address"
						},
						{
							"indexed": false,
							"internalType": "uint256",
							"name": "amount",
							"type": "uint256"
						}
					],
					"name": "Deposit",
					"type": "event"
				},
				{
					"anonymous": false,
					"inputs": [
						{
							"indexed": true,
							"internalType": "address",
							"name": "sender",
							"type": "address"
						},
						{
							"indexed": false,
							"internalType": "uint256",
							"name": "amount",
							"type": "uint256"
						}
					],
					"name": "DepositProposal",
					"type": "event"
				},
				{
					"anonymous": false,
					"inputs": [
						{
							"indexed": false,
							"internalType": "uint256",
							"name": "bnb",
							"type": "uint256"
						}
					],
					"name": "FirstLiquidityAdded",
					"type": "event"
				},
				{
					"anonymous": false,
					"inputs": [
						{
							"indexed": false,
							"internalType": "uint256",
							"name": "bnb",
							"type": "uint256"
						}
					],
					"name": "LiquidityAdded",
					"type": "event"
				},
				{
					"anonymous": false,
					"inputs": [
						{
							"indexed": true,
							"internalType": "address",
							"name": "previousOwner",
							"type": "address"
						},
						{
							"indexed": true,
							"internalType": "address",
							"name": "newOwner",
							"type": "address"
						}
					],
					"name": "OwnershipTransferred",
					"type": "event"
				},
				{
					"anonymous": false,
					"inputs": [
						{
							"indexed": true,
							"internalType": "address",
							"name": "owner",
							"type": "address"
						},
						{
							"indexed": true,
							"internalType": "uint256",
							"name": "proposalId",
							"type": "uint256"
						}
					],
					"name": "RevokeProposal",
					"type": "event"
				},
				{
					"anonymous": false,
					"inputs": [
						{
							"indexed": false,
							"internalType": "bool",
							"name": "status",
							"type": "bool"
						}
					],
					"name": "SalesState",
					"type": "event"
				},
				{
					"anonymous": false,
					"inputs": [
						{
							"indexed": true,
							"internalType": "uint256",
							"name": "proposalId",
							"type": "uint256"
						}
					],
					"name": "SubmitProposal",
					"type": "event"
				},
				{
					"anonymous": false,
					"inputs": [
						{
							"indexed": false,
							"internalType": "uint256",
							"name": "amount",
							"type": "uint256"
						}
					],
					"name": "TeamPayment",
					"type": "event"
				},
				{
					"anonymous": false,
					"inputs": [
						{
							"indexed": true,
							"internalType": "address",
							"name": "from",
							"type": "address"
						},
						{
							"indexed": true,
							"internalType": "address",
							"name": "to",
							"type": "address"
						},
						{
							"indexed": false,
							"internalType": "uint256",
							"name": "value",
							"type": "uint256"
						}
					],
					"name": "Transfer",
					"type": "event"
				},
				{
					"anonymous": false,
					"inputs": [
						{
							"indexed": false,
							"internalType": "uint256",
							"name": "taxFeeHeisenDev",
							"type": "uint256"
						},
						{
							"indexed": false,
							"internalType": "uint256",
							"name": "taxFeeMarketing",
							"type": "uint256"
						},
						{
							"indexed": false,
							"internalType": "uint256",
							"name": "taxFeeTeam",
							"type": "uint256"
						},
						{
							"indexed": false,
							"internalType": "uint256",
							"name": "taxFeeLiquidity",
							"type": "uint256"
						}
					],
					"name": "UpdateTaxesFees",
					"type": "event"
				},
				{
					"anonymous": false,
					"inputs": [
						{
							"indexed": false,
							"internalType": "uint256",
							"name": "withdrawPrice",
							"type": "uint256"
						}
					],
					"name": "UpdateWithdrawOptions",
					"type": "event"
				},
				{
					"anonymous": false,
					"inputs": [
						{
							"indexed": false,
							"internalType": "uint256",
							"name": "amount",
							"type": "uint256"
						}
					],
					"name": "Withdraw",
					"type": "event"
				},
				{
					"inputs": [],
					"name": "_poolHeisenDev",
					"outputs": [
						{
							"internalType": "uint256",
							"name": "",
							"type": "uint256"
						}
					],
					"stateMutability": "view",
					"type": "function"
				},
				{
					"inputs": [],
					"name": "_poolLiquidity",
					"outputs": [
						{
							"internalType": "uint256",
							"name": "",
							"type": "uint256"
						}
					],
					"stateMutability": "view",
					"type": "function"
				},
				{
					"inputs": [],
					"name": "_poolMarketing",
					"outputs": [
						{
							"internalType": "uint256",
							"name": "",
							"type": "uint256"
						}
					],
					"stateMutability": "view",
					"type": "function"
				},
				{
					"inputs": [],
					"name": "_poolTeam",
					"outputs": [
						{
							"internalType": "uint256",
							"name": "",
							"type": "uint256"
						}
					],
					"stateMutability": "view",
					"type": "function"
				},
				{
					"inputs": [],
					"name": "addressHeisenDev",
					"outputs": [
						{
							"internalType": "address payable",
							"name": "",
							"type": "address"
						}
					],
					"stateMutability": "view",
					"type": "function"
				},
				{
					"inputs": [],
					"name": "addressMarketing",
					"outputs": [
						{
							"internalType": "address payable",
							"name": "",
							"type": "address"
						}
					],
					"stateMutability": "view",
					"type": "function"
				},
				{
					"inputs": [],
					"name": "addressTeam",
					"outputs": [
						{
							"internalType": "address payable",
							"name": "",
							"type": "address"
						}
					],
					"stateMutability": "view",
					"type": "function"
				},
				{
					"inputs": [
						{
							"internalType": "address",
							"name": "owner",
							"type": "address"
						},
						{
							"internalType": "address",
							"name": "spender",
							"type": "address"
						}
					],
					"name": "allowance",
					"outputs": [
						{
							"internalType": "uint256",
							"name": "",
							"type": "uint256"
						}
					],
					"stateMutability": "view",
					"type": "function"
				},
				{
					"inputs": [
						{
							"internalType": "address",
							"name": "spender",
							"type": "address"
						},
						{
							"internalType": "uint256",
							"name": "amount",
							"type": "uint256"
						}
					],
					"name": "approve",
					"outputs": [
						{
							"internalType": "bool",
							"name": "",
							"type": "bool"
						}
					],
					"stateMutability": "nonpayable",
					"type": "function"
				},
				{
					"inputs": [
						{
							"internalType": "uint256",
							"name": "_proposalId",
							"type": "uint256"
						}
					],
					"name": "approveProposal",
					"outputs": [],
					"stateMutability": "nonpayable",
					"type": "function"
				},
				{
					"inputs": [
						{
							"internalType": "address",
							"name": "account",
							"type": "address"
						}
					],
					"name": "balanceOf",
					"outputs": [
						{
							"internalType": "uint256",
							"name": "",
							"type": "uint256"
						}
					],
					"stateMutability": "view",
					"type": "function"
				},
				{
					"inputs": [],
					"name": "buy",
					"outputs": [],
					"stateMutability": "payable",
					"type": "function"
				},
				{
					"inputs": [],
					"name": "decimals",
					"outputs": [
						{
							"internalType": "uint8",
							"name": "",
							"type": "uint8"
						}
					],
					"stateMutability": "view",
					"type": "function"
				},
				{
					"inputs": [
						{
							"internalType": "address",
							"name": "spender",
							"type": "address"
						},
						{
							"internalType": "uint256",
							"name": "subtractedValue",
							"type": "uint256"
						}
					],
					"name": "decreaseAllowance",
					"outputs": [
						{
							"internalType": "bool",
							"name": "",
							"type": "bool"
						}
					],
					"stateMutability": "nonpayable",
					"type": "function"
				},
				{
					"inputs": [
						{
							"internalType": "uint256",
							"name": "_proposalId",
							"type": "uint256"
						}
					],
					"name": "executeProposal",
					"outputs": [],
					"stateMutability": "nonpayable",
					"type": "function"
				},
				{
					"inputs": [
						{
							"internalType": "uint256",
							"name": "tokens",
							"type": "uint256"
						}
					],
					"name": "firstLiquidity",
					"outputs": [],
					"stateMutability": "payable",
					"type": "function"
				},
				{
					"inputs": [
						{
							"internalType": "address",
							"name": "spender",
							"type": "address"
						},
						{
							"internalType": "uint256",
							"name": "addedValue",
							"type": "uint256"
						}
					],
					"name": "increaseAllowance",
					"outputs": [
						{
							"internalType": "bool",
							"name": "",
							"type": "bool"
						}
					],
					"stateMutability": "nonpayable",
					"type": "function"
				},
				{
					"inputs": [],
					"name": "name",
					"outputs": [
						{
							"internalType": "string",
							"name": "",
							"type": "string"
						}
					],
					"stateMutability": "view",
					"type": "function"
				},
				{
					"inputs": [],
					"name": "owner",
					"outputs": [
						{
							"internalType": "address",
							"name": "",
							"type": "address"
						}
					],
					"stateMutability": "view",
					"type": "function"
				},
				{
					"inputs": [
						{
							"internalType": "uint256",
							"name": "",
							"type": "uint256"
						}
					],
					"name": "proposals",
					"outputs": [
						{
							"internalType": "address",
							"name": "author",
							"type": "address"
						},
						{
							"internalType": "bool",
							"name": "executed",
							"type": "bool"
						},
						{
							"internalType": "bool",
							"name": "updateSalesStatus",
							"type": "bool"
						},
						{
							"internalType": "bool",
							"name": "salesEnabled",
							"type": "bool"
						},
						{
							"internalType": "bool",
							"name": "swapAndAddLiquidity",
							"type": "bool"
						},
						{
							"internalType": "bool",
							"name": "updateWithdrawOptions",
							"type": "bool"
						},
						{
							"internalType": "uint256",
							"name": "withdrawPrice",
							"type": "uint256"
						},
						{
							"internalType": "bool",
							"name": "updateTaxesFees",
							"type": "bool"
						},
						{
							"internalType": "uint256",
							"name": "heisenVerseTaxFee",
							"type": "uint256"
						},
						{
							"internalType": "uint256",
							"name": "marketingTaxFee",
							"type": "uint256"
						},
						{
							"internalType": "uint256",
							"name": "teamTaxFee",
							"type": "uint256"
						},
						{
							"internalType": "uint256",
							"name": "liquidityTaxFee",
							"type": "uint256"
						},
						{
							"internalType": "bool",
							"name": "transferBackend",
							"type": "bool"
						},
						{
							"internalType": "address",
							"name": "backendAddress",
							"type": "address"
						}
					],
					"stateMutability": "view",
					"type": "function"
				},
				{
					"inputs": [
						{
							"internalType": "uint256",
							"name": "_proposalId",
							"type": "uint256"
						}
					],
					"name": "revokeProposal",
					"outputs": [],
					"stateMutability": "nonpayable",
					"type": "function"
				},
				{
					"inputs": [],
					"name": "salesEnabled",
					"outputs": [
						{
							"internalType": "bool",
							"name": "",
							"type": "bool"
						}
					],
					"stateMutability": "view",
					"type": "function"
				},
				{
					"inputs": [
						{
							"internalType": "bool",
							"name": "_updateEggSales",
							"type": "bool"
						},
						{
							"internalType": "bool",
							"name": "_salesEnabled",
							"type": "bool"
						},
						{
							"internalType": "bool",
							"name": "_swapAndAddLiquidity",
							"type": "bool"
						},
						{
							"internalType": "bool",
							"name": "_updateWithdrawOptions",
							"type": "bool"
						},
						{
							"internalType": "uint256",
							"name": "_withdrawPrice",
							"type": "uint256"
						},
						{
							"internalType": "bool",
							"name": "_updateTaxesFees",
							"type": "bool"
						},
						{
							"internalType": "uint256",
							"name": "_heisenVerseTaxFee",
							"type": "uint256"
						},
						{
							"internalType": "uint256",
							"name": "_marketingTaxFee",
							"type": "uint256"
						},
						{
							"internalType": "uint256",
							"name": "_teamTaxFee",
							"type": "uint256"
						},
						{
							"internalType": "uint256",
							"name": "_liquidityTaxFee",
							"type": "uint256"
						},
						{
							"internalType": "bool",
							"name": "_transferBackend",
							"type": "bool"
						},
						{
							"internalType": "address",
							"name": "_backendAddress",
							"type": "address"
						}
					],
					"name": "submitProposal",
					"outputs": [],
					"stateMutability": "nonpayable",
					"type": "function"
				},
				{
					"inputs": [],
					"name": "symbol",
					"outputs": [
						{
							"internalType": "string",
							"name": "",
							"type": "string"
						}
					],
					"stateMutability": "view",
					"type": "function"
				},
				{
					"inputs": [],
					"name": "taxFeeHeisenDev",
					"outputs": [
						{
							"internalType": "uint256",
							"name": "",
							"type": "uint256"
						}
					],
					"stateMutability": "view",
					"type": "function"
				},
				{
					"inputs": [],
					"name": "taxFeeLiquidity",
					"outputs": [
						{
							"internalType": "uint256",
							"name": "",
							"type": "uint256"
						}
					],
					"stateMutability": "view",
					"type": "function"
				},
				{
					"inputs": [],
					"name": "taxFeeMarketing",
					"outputs": [
						{
							"internalType": "uint256",
							"name": "",
							"type": "uint256"
						}
					],
					"stateMutability": "view",
					"type": "function"
				},
				{
					"inputs": [],
					"name": "taxFeeTeam",
					"outputs": [
						{
							"internalType": "uint256",
							"name": "",
							"type": "uint256"
						}
					],
					"stateMutability": "view",
					"type": "function"
				},
				{
					"inputs": [],
					"name": "teamPayment",
					"outputs": [],
					"stateMutability": "nonpayable",
					"type": "function"
				},
				{
					"inputs": [],
					"name": "totalSupply",
					"outputs": [
						{
							"internalType": "uint256",
							"name": "",
							"type": "uint256"
						}
					],
					"stateMutability": "view",
					"type": "function"
				},
				{
					"inputs": [
						{
							"internalType": "address",
							"name": "to",
							"type": "address"
						},
						{
							"internalType": "uint256",
							"name": "amount",
							"type": "uint256"
						}
					],
					"name": "transfer",
					"outputs": [
						{
							"internalType": "bool",
							"name": "",
							"type": "bool"
						}
					],
					"stateMutability": "nonpayable",
					"type": "function"
				},
				{
					"inputs": [
						{
							"internalType": "address",
							"name": "from",
							"type": "address"
						},
						{
							"internalType": "address",
							"name": "to",
							"type": "address"
						},
						{
							"internalType": "uint256",
							"name": "amount",
							"type": "uint256"
						}
					],
					"name": "transferFrom",
					"outputs": [
						{
							"internalType": "bool",
							"name": "",
							"type": "bool"
						}
					],
					"stateMutability": "nonpayable",
					"type": "function"
				},
				{
					"inputs": [],
					"name": "uniswapV2Router",
					"outputs": [
						{
							"internalType": "contract IUniswapV2Router02",
							"name": "",
							"type": "address"
						}
					],
					"stateMutability": "view",
					"type": "function"
				},
				{
					"inputs": [],
					"name": "withdraw",
					"outputs": [],
					"stateMutability": "payable",
					"type": "function"
				},
				{
					"inputs": [
						{
							"internalType": "address",
							"name": "account",
							"type": "address"
						}
					],
					"name": "withdrawAllowance",
					"outputs": [
						{
							"internalType": "uint256",
							"name": "",
							"type": "uint256"
						}
					],
					"stateMutability": "view",
					"type": "function"
				},
				{
					"inputs": [
						{
							"internalType": "address",
							"name": "to",
							"type": "address"
						},
						{
							"internalType": "uint256",
							"name": "amount",
							"type": "uint256"
						},
						{
							"internalType": "uint256",
							"name": "fee",
							"type": "uint256"
						}
					],
					"name": "withdrawAuthorization",
					"outputs": [],
					"stateMutability": "nonpayable",
					"type": "function"
				},
				{
					"inputs": [],
					"name": "withdrawPrice",
					"outputs": [
						{
							"internalType": "uint256",
							"name": "",
							"type": "uint256"
						}
					],
					"stateMutability": "view",
					"type": "function"
				},
				{
					"stateMutability": "payable",
					"type": "receive"
				}
			],
			"devdoc": {
				"author": "HeisenDev",
				"kind": "dev",
				"methods": {
					"allowance(address,address)": {
						"details": "See {IERC20-allowance}."
					},
					"approve(address,uint256)": {
						"details": "See {IERC20-approve}. NOTE: If `amount` is the maximum `uint256`, the allowance is not updated on `transferFrom`. This is semantically equivalent to an infinite approval. Requirements: - `spender` cannot be the zero address."
					},
					"balanceOf(address)": {
						"details": "See {IERC20-balanceOf}."
					},
					"decimals()": {
						"details": "Returns the number of decimals used to get its user representation. For example, if `decimals` equals `2`, a balance of `505` tokens should be displayed to a user as `5.05` (`505 / 10 ** 2`). Tokens usually opt for a value of 18, imitating the relationship between Ether and Wei. This is the value {ERC20} uses, unless this function is overridden; NOTE: This information is only used for _display_ purposes: it in no way affects any of the arithmetic of the contract, including {IERC20-balanceOf} and {IERC20-transfer}."
					},
					"decreaseAllowance(address,uint256)": {
						"details": "Atomically decreases the allowance granted to `spender` by the caller. This is an alternative to {approve} that can be used as a mitigation for problems described in {IERC20-approve}. Emits an {Approval} event indicating the updated allowance. Requirements: - `spender` cannot be the zero address. - `spender` must have allowance for the caller of at least `subtractedValue`."
					},
					"increaseAllowance(address,uint256)": {
						"details": "Atomically increases the allowance granted to `spender` by the caller. This is an alternative to {approve} that can be used as a mitigation for problems described in {IERC20-approve}. Emits an {Approval} event indicating the updated allowance. Requirements: - `spender` cannot be the zero address."
					},
					"name()": {
						"details": "Returns the name of the token."
					},
					"owner()": {
						"details": "Returns the address of the current owner."
					},
					"symbol()": {
						"details": "Returns the symbol of the token, usually a shorter version of the name."
					},
					"totalSupply()": {
						"details": "See {IERC20-totalSupply}."
					},
					"transfer(address,uint256)": {
						"details": "See {IERC20-transfer}. Requirements: - `to` cannot be the zero address. - the caller must have a balance of at least `amount`."
					},
					"transferFrom(address,address,uint256)": {
						"details": "See {IERC20-transferFrom}. Emits an {Approval} event indicating the updated allowance. This is not required by the EIP. See the note at the beginning of {ERC20}. NOTE: Does not update the allowance if the current allowance is the maximum `uint256`. Requirements: - `from` and `to` cannot be the zero address. - `from` must have a balance of at least `amount`. - the caller must have allowance for ``from``'s tokens of at least `amount`."
					}
				},
				"title": "SwishFish Contract for SwishFish Token",
				"version": 1
			},
			"evm": {
				"assembly": "    /* \"SwishFishToken.sol\":348:15793  contract SwishFish is ERC20, Ownable {... */\n  0x80\n  0x40\n  swap1\n  dup1\n  dup3\n  mstore\n  jumpi(tag_9, callvalue)\n  0x80\n  dup2\n  bytecodeSize\n  dup1\n  codesize\n  sub\n  dup1\n  swap2\n  tag_8\n  dup3\n  dup6\n  tag_1\n  jump\t// in\ntag_8:\n  dup4\n  codecopy\n  dup2\n  add\n  sub\n  slt\n  tag_9\n  jumpi\n  tag_11\n  dup2\n  tag_2\n  jump\t// in\ntag_11:\n  0x20\n  tag_12\n  dup2\n  dup5\n  add\n  tag_2\n  jump\t// in\ntag_12:\n  swap2\n  tag_13\n  0x60\n  tag_14\n  dup8\n  dup8\n  add\n  tag_2\n  jump\t// in\ntag_14:\n  swap6\n  add\n  tag_2\n  jump\t// in\ntag_13:\n  tag_15\n    /* \"contracts/ERC20.sol\":2136:2155  _name = \"SwishFish\" */\n  0x03\n    /* \"SwishFishToken.sol\":348:15793  contract SwishFish is ERC20, Ownable {... */\n  sload\n  tag_3\n  jump\t// in\ntag_15:\n  swap1\n  0x1f\n  swap2\n  dup3\n  dup2\n  gt\n  tag_16\n  jumpi\ntag_17:\n  pop\n  add(0x5377697368466973680000000000000000000000000000000000000000000000, 0x12)\n    /* \"contracts/ERC20.sol\":2136:2155  _name = \"SwishFish\" */\n  0x03\n    /* \"SwishFishToken.sol\":348:15793  contract SwishFish is ERC20, Ownable {... */\n  sstore\n    /* \"contracts/ERC20.sol\":2166:2181  _symbol = \"SFH\" */\n  0x04\n    /* \"SwishFishToken.sol\":348:15793  contract SwishFish is ERC20, Ownable {... */\n  swap6\n  tag_18\n  dup8\n  sload\n  tag_3\n  jump\t// in\ntag_18:\n  dup4\n  dup2\n  gt\n  tag_19\n  jumpi\ntag_20:\n  pop\n  add(0x5346480000000000000000000000000000000000000000000000000000000000, 0x06)\n  dup8\n  sstore\n  not(sub(exp(0x02, 0xa0), 0x01))\n    /* \"utils/Context.sol\":736:746  msg.sender */\n  swap2\n  caller\n    /* \"SwishFishToken.sol\":348:15793  contract SwishFish is ERC20, Ownable {... */\n  dup4\n    /* \"access/Ownable.sol\":1136:1154  _owner = msgSender */\n  0x08\n    /* \"SwishFishToken.sol\":348:15793  contract SwishFish is ERC20, Ownable {... */\n  sload\n  and\n  or\n    /* \"access/Ownable.sol\":1136:1154  _owner = msgSender */\n  0x08\n    /* \"SwishFishToken.sol\":348:15793  contract SwishFish is ERC20, Ownable {... */\n  sstore\n  dup9\n  mload\n  swap2\n  0x00\n    /* \"access/Ownable.sol\":1170:1213  OwnershipTransferred(address(0), msgSender) */\n  swap8\n  0x00\n  dup1\n  mload\n  0x20\n  data_9c064737b570a74c2bac5d21056d93ac53115214216cd14d4a0fc9b60be81231\n  dup4\n  codecopy\n  dup2\n  mload\n  swap2\n  mstore\n    /* \"utils/Context.sol\":736:746  msg.sender */\n  swap7\n  caller\n    /* \"access/Ownable.sol\":1170:1213  OwnershipTransferred(address(0), msgSender) */\n  dup11\n  dup10\n  dup2\n  dup1\n  log3\n    /* \"SwishFishToken.sol\":569:590  1000000000 * 10 ** 18 */\n  0x033b2e3c9fd0803ce8000000\n  0x0c\n    /* \"SwishFishToken.sol\":348:15793  contract SwishFish is ERC20, Ownable {... */\n  sstore\n  0x0100\n  not(0xffff)\n    /* \"SwishFishToken.sol\":626:631  false */\n  0x0d\n    /* \"SwishFishToken.sol\":348:15793  contract SwishFish is ERC20, Ownable {... */\n  sload\n  and\n  or\n    /* \"SwishFishToken.sol\":626:631  false */\n  0x0d\n    /* \"SwishFishToken.sol\":348:15793  contract SwishFish is ERC20, Ownable {... */\n  sstore\n    /* \"SwishFishToken.sol\":1049:1060  0.005 ether */\n  0x11c37937e08000\n  0x13\n    /* \"SwishFishToken.sol\":348:15793  contract SwishFish is ERC20, Ownable {... */\n  sstore\n  0x01\n  dup1\n    /* \"SwishFishToken.sol\":1106:1107  1 */\n  0x14\n    /* \"SwishFishToken.sol\":348:15793  contract SwishFish is ERC20, Ownable {... */\n  sstore\n  dup1\n    /* \"SwishFishToken.sol\":1152:1153  1 */\n  0x15\n    /* \"SwishFishToken.sol\":348:15793  contract SwishFish is ERC20, Ownable {... */\n  sstore\n    /* \"SwishFishToken.sol\":1208:1220  100000 ether */\n  0x152d02c7e14af6800000\n  0x16\n    /* \"SwishFishToken.sol\":348:15793  contract SwishFish is ERC20, Ownable {... */\n  sstore\n    /* \"SwishFishToken.sol\":1697:1739  0xEDa73409d4bBD147f4E1295A73a2Ca243a529338 */\n  0xeda73409d4bbd147f4e1295a73a2ca243a529338\n    /* \"SwishFishToken.sol\":348:15793  contract SwishFish is ERC20, Ownable {... */\n  dup8\n    /* \"SwishFishToken.sol\":1689:1740  payable(0xEDa73409d4bBD147f4E1295A73a2Ca243a529338) */\n  0x17\n    /* \"SwishFishToken.sol\":348:15793  contract SwishFish is ERC20, Ownable {... */\n  sload\n  and\n  or\n    /* \"SwishFishToken.sol\":1689:1740  payable(0xEDa73409d4bBD147f4E1295A73a2Ca243a529338) */\n  0x17\n    /* \"SwishFishToken.sol\":348:15793  contract SwishFish is ERC20, Ownable {... */\n  sstore\n    /* \"SwishFishToken.sol\":1797:1839  0x3c1Cd83D8850803C9c42fF5083F56b66b00FBD61 */\n  0x3c1cd83d8850803c9c42ff5083f56b66b00fbd61\n    /* \"SwishFishToken.sol\":348:15793  contract SwishFish is ERC20, Ownable {... */\n  dup8\n    /* \"SwishFishToken.sol\":1789:1840  payable(0x3c1Cd83D8850803C9c42fF5083F56b66b00FBD61) */\n  0x18\n    /* \"SwishFishToken.sol\":348:15793  contract SwishFish is ERC20, Ownable {... */\n  sload\n  and\n  or\n    /* \"SwishFishToken.sol\":1789:1840  payable(0x3c1Cd83D8850803C9c42fF5083F56b66b00FBD61) */\n  0x18\n    /* \"SwishFishToken.sol\":348:15793  contract SwishFish is ERC20, Ownable {... */\n  sstore\n    /* \"SwishFishToken.sol\":1892:1934  0x63024aC73FE77427F20e8247FA26F470C0D9700B */\n  0x63024ac73fe77427f20e8247fa26f470c0d9700b\n    /* \"SwishFishToken.sol\":348:15793  contract SwishFish is ERC20, Ownable {... */\n  dup8\n    /* \"SwishFishToken.sol\":1884:1935  payable(0x63024aC73FE77427F20e8247FA26F470C0D9700B) */\n  0x19\n    /* \"SwishFishToken.sol\":348:15793  contract SwishFish is ERC20, Ownable {... */\n  sload\n  and\n  or\n    /* \"SwishFishToken.sol\":1884:1935  payable(0x63024aC73FE77427F20e8247FA26F470C0D9700B) */\n  0x19\n    /* \"SwishFishToken.sol\":348:15793  contract SwishFish is ERC20, Ownable {... */\n  sstore\n  0x02\n    /* \"SwishFishToken.sol\":2348:2349  2 */\n  0x1a\n    /* \"SwishFishToken.sol\":348:15793  contract SwishFish is ERC20, Ownable {... */\n  sstore\n    /* \"contracts/ERC20.sol\":2136:2155  _name = \"SwishFish\" */\n  0x03\n    /* \"SwishFishToken.sol\":2389:2390  3 */\n  0x1b\n    /* \"SwishFishToken.sol\":348:15793  contract SwishFish is ERC20, Ownable {... */\n  sstore\n    /* \"contracts/ERC20.sol\":2136:2155  _name = \"SwishFish\" */\n  0x03\n    /* \"SwishFishToken.sol\":2425:2426  3 */\n  0x1c\n    /* \"SwishFishToken.sol\":348:15793  contract SwishFish is ERC20, Ownable {... */\n  sstore\n  0x02\n    /* \"SwishFishToken.sol\":2466:2467  2 */\n  0x1d\n    /* \"SwishFishToken.sol\":348:15793  contract SwishFish is ERC20, Ownable {... */\n  sstore\n  dup11\n    /* \"SwishFishToken.sol\":2649:2650  0 */\n  0x1e\n    /* \"SwishFishToken.sol\":348:15793  contract SwishFish is ERC20, Ownable {... */\n  sstore\n  dup11\n  dup9\n  sstore\n  dup11\n  dup11\n  sstore\n  dup11\n    /* \"SwishFishToken.sol\":2764:2765  0 */\n  0x21\n    /* \"SwishFishToken.sol\":348:15793  contract SwishFish is ERC20, Ownable {... */\n  sstore\n  0xc45a015500000000000000000000000000000000000000000000000000000000\n    /* \"SwishFishToken.sol\":3748:3774  _uniswapV2Router.factory() */\n  dup7\n  mstore\n    /* \"SwishFishToken.sol\":3651:3693  0x9Ac64Cc6e4415144C455BD8E4837Fea55603e5c3 */\n  dup12\n  dup11\n  dup8\n  0x9ac64cc6e4415144c455bd8e4837fea55603e5c3\n    /* \"SwishFishToken.sol\":3748:3774  _uniswapV2Router.factory() */\n  swap3\n  dup2\n  dup5\n  gas\n  staticcall\n  swap7\n  dup8\n  iszero\n  tag_21\n  jumpi\n  dup12\n  dup16\n  dup16\n  swap3\n  dup16\n  swap11\n  tag_23\n  jumpi\ntag_24:\n    /* \"SwishFishToken.sol\":348:15793  contract SwishFish is ERC20, Ownable {... */\n  pop\n  mload\n    /* \"SwishFishToken.sol\":3812:3835  _uniswapV2Router.WETH() */\n  dup1\n  swap3\n    /* \"SwishFishToken.sol\":348:15793  contract SwishFish is ERC20, Ownable {... */\n  0xad5c464800000000000000000000000000000000000000000000000000000000\n    /* \"SwishFishToken.sol\":3812:3835  _uniswapV2Router.WETH() */\n  dup3\n  mstore\n  dup2\n  dup6\n  gas\n  staticcall\n  swap1\n  dup2\n  iszero\n  tag_29\n  jumpi\n  dup16\n  swap2\n  dup16\n  dup16\n  swap5\n  swap4\n  dup16\n  swap4\n  dup7\n  swap4\n  tag_27\n  jumpi\ntag_28:\n    /* \"SwishFishToken.sol\":348:15793  contract SwishFish is ERC20, Ownable {... */\n  pop\n  swap1\n  0x44\n  swap2\n  mload\n    /* \"SwishFishToken.sol\":3730:3836  IUniswapV2Factory(_uniswapV2Router.factory())... */\n  swap6\n  dup7\n  swap4\n  dup5\n  swap3\n    /* \"SwishFishToken.sol\":348:15793  contract SwishFish is ERC20, Ownable {... */\n  0xc9c6539600000000000000000000000000000000000000000000000000000000\n    /* \"SwishFishToken.sol\":3730:3836  IUniswapV2Factory(_uniswapV2Router.factory())... */\n  dup5\n  mstore\n    /* \"SwishFishToken.sol\":3805:3809  this */\n  address\n    /* \"SwishFishToken.sol\":3730:3836  IUniswapV2Factory(_uniswapV2Router.factory())... */\n  swap1\n  dup5\n  add\n    /* \"SwishFishToken.sol\":348:15793  contract SwishFish is ERC20, Ownable {... */\n  mstore\n  sub(exp(0x02, 0xa0), 0x01)\n  swap14\n  dup15\n  dup1\n  swap3\n  and\n  0x24\n  dup6\n  add\n  mstore\n  and\n    /* \"SwishFishToken.sol\":3730:3836  IUniswapV2Factory(_uniswapV2Router.factory())... */\n  gas\n  call\n  swap2\n  dup3\n  iszero\n  tag_29\n  jumpi\n  dup16\n  swap2\n  dup10\n  swap5\n  swap4\n  dup16\n  swap3\n  swap2\n  dup16\n  swap3\n  dup14\n  swap1\n  dup6\n  swap4\n  tag_31\n  jumpi\ntag_32:\n    /* \"SwishFishToken.sol\":348:15793  contract SwishFish is ERC20, Ownable {... */\n  pop\n  swap3\n    /* \"SwishFishToken.sol\":4169:4190  _isExcludedFromLimits */\n  0x23\n    /* \"SwishFishToken.sol\":348:15793  contract SwishFish is ERC20, Ownable {... */\n  dup9\n    /* \"SwishFishToken.sol\":4475:4482  _owner2 */\n  tag_35\n    /* \"SwishFishToken.sol\":348:15793  contract SwishFish is ERC20, Ownable {... */\n  swap11\n  swap8\n  swap5\n    /* \"SwishFishToken.sol\":4504:4511  _owner3 */\n  tag_34\n    /* \"SwishFishToken.sol\":348:15793  contract SwishFish is ERC20, Ownable {... */\n  swap14\n  swap13\n  swap11\n  swap8\n  swap5\n    /* \"SwishFishToken.sol\":4446:4453  _owner1 */\n  tag_35\n    /* \"SwishFishToken.sol\":348:15793  contract SwishFish is ERC20, Ownable {... */\n  swap11\n  swap8\n    /* \"SwishFishToken.sol\":3849:3883  uniswapV2Router = _uniswapV2Router */\n  0x0b\n    /* \"SwishFishToken.sol\":348:15793  contract SwishFish is ERC20, Ownable {... */\n  sload\n  and\n  or\n    /* \"SwishFishToken.sol\":3849:3883  uniswapV2Router = _uniswapV2Router */\n  0x0b\n    /* \"SwishFishToken.sol\":348:15793  contract SwishFish is ERC20, Ownable {... */\n  sstore\n  and\n  swap2\n  dup3\n  dup5\n  mstore\n  0x24\n  dup2\n  mstore\n  dup5\n  dup5\n  keccak256\n  swap7\n  not(0xff)\n  swap8\n  dup8\n  dup10\n  dup3\n  sload\n  and\n  or\n  swap1\n  sstore\n    /* \"SwishFishToken.sol\":3805:3809  this */\n  address\n    /* \"SwishFishToken.sol\":348:15793  contract SwishFish is ERC20, Ownable {... */\n  dup6\n  mstore\n    /* \"SwishFishToken.sol\":3955:3974  _isExcludedFromFees */\n  0x22\n    /* \"SwishFishToken.sol\":348:15793  contract SwishFish is ERC20, Ownable {... */\n  dup3\n  mstore\n  dup6\n  dup6\n  keccak256\n  dup8\n  dup10\n  dup3\n  sload\n  and\n  or\n  swap1\n  sstore\n  dup1\n    /* \"SwishFishToken.sol\":1689:1740  payable(0xEDa73409d4bBD147f4E1295A73a2Ca243a529338) */\n  0x17\n    /* \"SwishFishToken.sol\":348:15793  contract SwishFish is ERC20, Ownable {... */\n  sload\n  and\n  dup6\n  mstore\n  dup6\n  dup6\n  keccak256\n  dup8\n  dup10\n  dup3\n  sload\n  and\n  or\n  swap1\n  sstore\n  dup1\n    /* \"SwishFishToken.sol\":1789:1840  payable(0x3c1Cd83D8850803C9c42fF5083F56b66b00FBD61) */\n  0x18\n    /* \"SwishFishToken.sol\":348:15793  contract SwishFish is ERC20, Ownable {... */\n  sload\n  and\n  dup6\n  mstore\n  dup6\n  dup6\n  keccak256\n  dup8\n  dup10\n  dup3\n  sload\n  and\n  or\n  swap1\n  sstore\n    /* \"SwishFishToken.sol\":1884:1935  payable(0x63024aC73FE77427F20e8247FA26F470C0D9700B) */\n  0x19\n    /* \"SwishFishToken.sol\":348:15793  contract SwishFish is ERC20, Ownable {... */\n  sload\n  and\n  dup5\n  mstore\n  dup5\n  dup5\n  keccak256\n  dup7\n  dup9\n  dup3\n  sload\n  and\n  or\n  swap1\n  sstore\n    /* \"SwishFishToken.sol\":3805:3809  this */\n  address\n    /* \"SwishFishToken.sol\":348:15793  contract SwishFish is ERC20, Ownable {... */\n  dup5\n  mstore\n  mstore\n  dup3\n  dup3\n  keccak256\n  dup5\n  dup7\n  dup3\n  sload\n  and\n  or\n  swap1\n  sstore\n  dup2\n  mstore\n  keccak256\n  swap2\n  dup3\n  sload\n  and\n  or\n  swap1\n  sstore\n    /* \"SwishFishToken.sol\":4446:4453  _owner1 */\n  tag_4\n  jump\t// in\ntag_35:\n    /* \"SwishFishToken.sol\":4475:4482  _owner2 */\n  tag_4\n  jump\t// in\n    /* \"SwishFishToken.sol\":4504:4511  _owner3 */\ntag_34:\n    /* \"SwishFishToken.sol\":348:15793  contract SwishFish is ERC20, Ownable {... */\n  and\n    /* \"access/Ownable.sol\":2663:2687  newBackend != address(0) */\n  swap1\n  dup2\n  iszero\n    /* \"SwishFishToken.sol\":348:15793  contract SwishFish is ERC20, Ownable {... */\n  tag_36\n  jumpi\n  dup2\n  swap1\n    /* \"access/Ownable.sol\":2741:2762  _backend = newBackend */\n  0x07\n    /* \"SwishFishToken.sol\":348:15793  contract SwishFish is ERC20, Ownable {... */\n  sload\n  and\n  or\n    /* \"access/Ownable.sol\":2741:2762  _backend = newBackend */\n  0x07\n    /* \"SwishFishToken.sol\":348:15793  contract SwishFish is ERC20, Ownable {... */\n  sstore\n  dup5\n  dup8\n  mload\n    /* \"access/Ownable.sol\":2778:2822  OwnershipTransferred(address(0), newBackend) */\n  swap4\n  dup2\n  dup1\n  log3\n    /* \"SwishFishToken.sol\":569:590  1000000000 * 10 ** 18 */\n  0x0c\n    /* \"SwishFishToken.sol\":348:15793  contract SwishFish is ERC20, Ownable {... */\n  sload\n    /* \"SwishFishToken.sol\":3805:3809  this */\n  swap5\n  address\n    /* \"contracts/ERC20.sol\":8944:8965  account != address(0) */\n  iszero\n    /* \"SwishFishToken.sol\":348:15793  contract SwishFish is ERC20, Ownable {... */\n  tag_38\n  jumpi\n  pop\n  pop\n  pop\n    /* \"contracts/ERC20.sol\":9326:9363  Transfer(address(0), account, amount) */\n  0xddf252ad1be2c89b69c2b068fc378daa952ba7f163c4a11628f55a4df523b3ef\n    /* \"SwishFishToken.sol\":348:15793  contract SwishFish is ERC20, Ownable {... */\n  swap1\n    /* \"contracts/ERC20.sol\":9091:9115  _totalSupply.add(amount) */\n  tag_40\n    /* \"SwishFishToken.sol\":348:15793  contract SwishFish is ERC20, Ownable {... */\n  dup5\n  sload(0x02)\n    /* \"contracts/ERC20.sol\":9091:9115  _totalSupply.add(amount) */\n  tag_5\n  jump\t// in\ntag_40:\n    /* \"SwishFishToken.sol\":348:15793  contract SwishFish is ERC20, Ownable {... */\n  0x02\n  sstore\n    /* \"SwishFishToken.sol\":3805:3809  this */\n  address\n    /* \"SwishFishToken.sol\":348:15793  contract SwishFish is ERC20, Ownable {... */\n  dup4\n  mstore\n  dup3\n  dup2\n  mstore\n    /* \"contracts/ERC20.sol\":9273:9303  _balances[account].add(amount) */\n  tag_41\n    /* \"SwishFishToken.sol\":348:15793  contract SwishFish is ERC20, Ownable {... */\n  dup5\n  dup7\n  dup6\n  keccak256\n  sload\n    /* \"contracts/ERC20.sol\":9273:9303  _balances[account].add(amount) */\n  tag_5\n  jump\t// in\ntag_41:\n    /* \"SwishFishToken.sol\":3805:3809  this */\n  address\n    /* \"SwishFishToken.sol\":348:15793  contract SwishFish is ERC20, Ownable {... */\n  dup5\n  mstore\n  dup4\n  dup3\n  mstore\n  dup6\n  dup5\n  keccak256\n  sstore\n  dup5\n  mload\n  swap4\n  dup5\n  mstore\n    /* \"SwishFishToken.sol\":3805:3809  this */\n  address\n    /* \"contracts/ERC20.sol\":9326:9363  Transfer(address(0), account, amount) */\n  swap4\n  log3\n    /* \"SwishFishToken.sol\":348:15793  contract SwishFish is ERC20, Ownable {... */\n  mload\n  dataSize(sub_0)\n  swap1\n  dup2\n  dataOffset(sub_0)\n  dup3\n  codecopy\n  return\ntag_38:\n  swap3\n  0x64\n  swap4\n  0x08c379a000000000000000000000000000000000000000000000000000000000\n  dup5\n  mstore\n  dup4\n  add\n  mstore\n  0x24\n  dup3\n  add\n  mstore\n  0x45524332303a206d696e7420746f20746865207a65726f206164647265737300\n  0x44\n  dup3\n  add\n  mstore\n  revert\ntag_36:\n  0x84\n  dup8\n  dup7\n  dup11\n  mload\n  swap2\n  0x08c379a000000000000000000000000000000000000000000000000000000000\n  dup4\n  mstore\n  dup3\n  add\n  mstore\n  0x26\n  0x24\n  dup3\n  add\n  mstore\n  0x4f776e61626c653a206e6577206f776e657220697320746865207a65726f2061\n  0x44\n  dup3\n  add\n  mstore\n  0x6464726573730000000000000000000000000000000000000000000000000000\n  0x64\n  dup3\n  add\n  mstore\n  revert\n    /* \"SwishFishToken.sol\":3730:3836  IUniswapV2Factory(_uniswapV2Router.factory())... */\ntag_31:\n  swap6\n  pop\n  pop\n  swap5\n  swap6\n  pop\n  pop\n  swap1\n  pop\n  dup2\n  dup2\n  returndatasize\n  dup4\n  gt\n  tag_42\n  jumpi\ntag_43:\n  tag_44\n  dup2\n  dup4\n  tag_1\n  jump\t// in\ntag_44:\n  dup2\n  add\n    /* \"SwishFishToken.sol\":348:15793  contract SwishFish is ERC20, Ownable {... */\n  sub\n  slt\n  tag_45\n  jumpi\n  swap3\n  dup8\n  dup16\n  swap4\n    /* \"SwishFishToken.sol\":4504:4511  _owner3 */\n  tag_34\n    /* \"SwishFishToken.sol\":348:15793  contract SwishFish is ERC20, Ownable {... */\n  swap8\n  swap7\n  swap5\n  dup16\n  dup16\n    /* \"SwishFishToken.sol\":4169:4190  _isExcludedFromLimits */\n  0x23\n    /* \"SwishFishToken.sol\":348:15793  contract SwishFish is ERC20, Ownable {... */\n  dup6\n  dup16\n    /* \"SwishFishToken.sol\":4446:4453  _owner1 */\n  tag_35\n    /* \"SwishFishToken.sol\":348:15793  contract SwishFish is ERC20, Ownable {... */\n  swap10\n  tag_47\n    /* \"SwishFishToken.sol\":4475:4482  _owner2 */\n  tag_35\n    /* \"SwishFishToken.sol\":348:15793  contract SwishFish is ERC20, Ownable {... */\n  swap14\n  tag_2\n  jump\t// in\ntag_47:\n    /* \"SwishFishToken.sol\":3730:3836  IUniswapV2Factory(_uniswapV2Router.factory())... */\n  swap7\n  swap10\n  swap13\n  pop\n  swap5\n  swap8\n  pop\n  swap3\n  swap6\n  swap9\n  pop\n  swap9\n  swap11\n  swap12\n  pop\n  jump(tag_32)\n    /* \"SwishFishToken.sol\":348:15793  contract SwishFish is ERC20, Ownable {... */\ntag_45:\n  dup13\n  dup1\n  revert\n    /* \"SwishFishToken.sol\":3730:3836  IUniswapV2Factory(_uniswapV2Router.factory())... */\ntag_42:\n  pop\n  returndatasize\n  jump(tag_43)\ntag_29:\n  pop\n    /* \"SwishFishToken.sol\":348:15793  contract SwishFish is ERC20, Ownable {... */\n  dup15\n  mload\n  returndatasize\n  dup15\n  dup3\n  returndatacopy\n  returndatasize\n  swap1\n  revert\n    /* \"SwishFishToken.sol\":3812:3835  _uniswapV2Router.WETH() */\ntag_27:\n  swap5\n  swap6\n  pop\n  pop\n  pop\n  pop\n  dup2\n  dup2\n  returndatasize\n  dup4\n  gt\n  tag_48\n  jumpi\ntag_49:\n  tag_50\n  dup2\n  dup4\n  tag_1\n  jump\t// in\ntag_50:\n  dup2\n  add\n    /* \"SwishFishToken.sol\":348:15793  contract SwishFish is ERC20, Ownable {... */\n  sub\n  slt\n  tag_45\n  jumpi\n  swap1\n  dup12\n  dup16\n  dup16\n  dup16\n  swap5\n  swap1\n  tag_53\n  0x44\n  swap3\n  tag_2\n  jump\t// in\ntag_53:\n    /* \"SwishFishToken.sol\":3812:3835  _uniswapV2Router.WETH() */\n  swap3\n  swap1\n  swap2\n  jump(tag_28)\ntag_48:\n  pop\n  returndatasize\n  jump(tag_49)\n    /* \"SwishFishToken.sol\":3748:3774  _uniswapV2Router.factory() */\ntag_23:\n  swap4\n  swap5\n  swap6\n  swap7\n  swap8\n  swap9\n  swap10\n  pop\n  pop\n  swap1\n  pop\n  dup2\n  dup2\n  returndatasize\n  dup4\n  gt\n  tag_54\n  jumpi\ntag_55:\n  tag_56\n  dup2\n  dup4\n  tag_1\n  jump\t// in\ntag_56:\n  dup2\n  add\n    /* \"SwishFishToken.sol\":348:15793  contract SwishFish is ERC20, Ownable {... */\n  sub\n  slt\n  tag_57\n  jumpi\n  swap1\n  dup13\n  dup12\n  dup16\n  swap9\n  swap8\n  swap7\n  swap6\n  swap5\n  swap4\n  tag_59\n  swap1\n  tag_2\n  jump\t// in\ntag_59:\n    /* \"SwishFishToken.sol\":3748:3774  _uniswapV2Router.factory() */\n  swap9\n  codesize\n  jump(tag_24)\n    /* \"SwishFishToken.sol\":348:15793  contract SwishFish is ERC20, Ownable {... */\ntag_57:\n  dup12\n  dup1\n  revert\n    /* \"SwishFishToken.sol\":3748:3774  _uniswapV2Router.factory() */\ntag_54:\n  pop\n  returndatasize\n  jump(tag_55)\ntag_21:\n    /* \"SwishFishToken.sol\":348:15793  contract SwishFish is ERC20, Ownable {... */\n  dup15\n  mload\n  returndatasize\n  dup15\n  dup3\n  returndatacopy\n  returndatasize\n  swap1\n  revert\ntag_19:\n  0x00\n  dup9\n  dup2\n  mstore\n  dup7\n  dup6\n  dup2\n  dup4\n  keccak256\n  swap4\n  add\n  div\n  dup3\n  add\n  swap2\ntag_60:\n  dup3\n  dup2\n  lt\n  tag_61\n  jumpi\n  pop\n  pop\n  jump(tag_20)\ntag_61:\n  dup2\n  dup2\n  sstore\n  0x01\n  add\n  jump(tag_60)\ntag_16:\n  0x00\n    /* \"contracts/ERC20.sol\":2136:2155  _name = \"SwishFish\" */\n  0x03\n    /* \"SwishFishToken.sol\":348:15793  contract SwishFish is ERC20, Ownable {... */\n  dup2\n  mstore\n  dup6\n  dup5\n  dup2\n  dup4\n  keccak256\n  swap4\n  add\n  div\n  dup3\n  add\n  swap2\ntag_63:\n  dup3\n  dup2\n  lt\n  tag_64\n  jumpi\n  pop\n  pop\n  jump(tag_17)\ntag_64:\n  dup2\n  dup2\n  sstore\n  0x01\n  add\n  jump(tag_63)\ntag_9:\n  0x00\n  dup1\n  revert\ntag_1:\n  swap1\n  0x1f\n  dup1\n  not\n  swap2\n  add\n  and\n  dup2\n  add\n  swap1\n  dup2\n  lt\n  0xffffffffffffffff\n  dup3\n  gt\n  or\n  tag_66\n  jumpi\n  0x40\n  mstore\n  jump\t// out\ntag_66:\n  mstore(0x00, 0x4e487b7100000000000000000000000000000000000000000000000000000000)\n  mstore(0x04, 0x41)\n  revert(0x00, 0x24)\ntag_2:\n  mload\n  swap1\n  sub(exp(0x02, 0xa0), 0x01)\n  dup3\n  and\n  dup3\n  sub\n  tag_9\n  jumpi\n  jump\t// out\ntag_3:\n  swap1\n  0x01\n  0x02\n  dup4\n  div\n  swap3\n  and\n  dup1\n  iszero\n  tag_70\n  jumpi\ntag_71:\n  0x20\n  dup4\n  lt\n  eq\n  tag_72\n  jumpi\n  jump\t// out\ntag_72:\n  mstore(0x00, 0x4e487b7100000000000000000000000000000000000000000000000000000000)\n  mstore(0x04, 0x22)\n  revert(0x00, 0x24)\ntag_70:\n  swap2\n  0x7f\n  and\n  swap2\n  jump(tag_71)\n    /* \"access/Ownable.sol\":2942:3272  function _addOwner(address newOwner) internal {... */\ntag_4:\n  sub(exp(0x02, 0xa0), 0x01)\n    /* \"SwishFishToken.sol\":348:15793  contract SwishFish is ERC20, Ownable {... */\n  and\n    /* \"access/Ownable.sol\":3007:3029  newOwner != address(0) */\n  dup1\n  iszero\n    /* \"SwishFishToken.sol\":348:15793  contract SwishFish is ERC20, Ownable {... */\n  tag_74\n  jumpi\n    /* \"access/Ownable.sol\":3027:3028  0 */\n  0x00\n    /* \"SwishFishToken.sol\":348:15793  contract SwishFish is ERC20, Ownable {... */\n  dup2\n  dup2\n  mstore\n    /* \"access/Ownable.sol\":3088:3095  isOwner */\n  0x0a\n    /* \"SwishFishToken.sol\":348:15793  contract SwishFish is ERC20, Ownable {... */\n  0x20\n  mstore\n  0xff\n  0x40\n  dup3\n  keccak256\n  sload\n  and\n  tag_76\n  jumpi\n  dup2\n  dup2\n  mstore\n    /* \"access/Ownable.sol\":3088:3095  isOwner */\n  0x0a\n    /* \"SwishFishToken.sol\":348:15793  contract SwishFish is ERC20, Ownable {... */\n  0x20\n  mstore\n  0x40\n  dup2\n  keccak256\n  dup1\n  sload\n  not(0xff)\n  and\n  0x01\n  or\n  swap1\n  sstore\n    /* \"access/Ownable.sol\":3184:3191  _owners */\n  0x09\n    /* \"SwishFishToken.sol\":348:15793  contract SwishFish is ERC20, Ownable {... */\n  sload\n  0x010000000000000000\n  dup2\n  lt\n  iszero\n  tag_78\n  jumpi\n  0x01\n  dup2\n  add\n  dup1\n    /* \"access/Ownable.sol\":3184:3191  _owners */\n  0x09\n    /* \"SwishFishToken.sol\":348:15793  contract SwishFish is ERC20, Ownable {... */\n  sstore\n  dup2\n  lt\n  iszero\n  tag_80\n  jumpi\n    /* \"access/Ownable.sol\":3184:3191  _owners */\n  0x09\n    /* \"SwishFishToken.sol\":348:15793  contract SwishFish is ERC20, Ownable {... */\n  dup3\n  mstore\n  0x6e1540171b6c0c960b71a7020d9f60077f6af931a8bbf590da0223dacf75c7af\n  add\n  dup1\n  sload\n  not(sub(exp(0x02, 0xa0), 0x01))\n  and\n  dup4\n  or\n  swap1\n  sstore\n  0x00\n  dup1\n  mload\n  0x20\n  data_9c064737b570a74c2bac5d21056d93ac53115214216cd14d4a0fc9b60be81231\n  dup4\n  codecopy\n  dup2\n  mload\n  swap2\n  mstore\n  dup2\n  dup1\n    /* \"access/Ownable.sol\":3222:3264  OwnershipTransferred(address(0), newOwner) */\n  log3\n    /* \"access/Ownable.sol\":2942:3272  function _addOwner(address newOwner) internal {... */\n  jump\t// out\n    /* \"SwishFishToken.sol\":348:15793  contract SwishFish is ERC20, Ownable {... */\ntag_80:\n  0x24\n  dup3\n  0x4e487b7100000000000000000000000000000000000000000000000000000000\n  dup2\n  mstore\n  mstore(0x04, 0x32)\n  revert\ntag_78:\n  0x24\n  dup3\n  0x4e487b7100000000000000000000000000000000000000000000000000000000\n  dup2\n  mstore\n  mstore(0x04, 0x41)\n  revert\ntag_76:\n  0x64\n  mload(0x40)\n  0x08c379a000000000000000000000000000000000000000000000000000000000\n  dup2\n  mstore\n  0x20\n  0x04\n  dup3\n  add\n  mstore\n  0x1c\n  0x24\n  dup3\n  add\n  mstore\n  0x4f776e61626c653a204f776e6572206973206e6f7420756e6971756500000000\n  0x44\n  dup3\n  add\n  mstore\n  revert\ntag_74:\n  0x84\n  mload(0x40)\n  0x08c379a000000000000000000000000000000000000000000000000000000000\n  dup2\n  mstore\n  0x20\n  0x04\n  dup3\n  add\n  mstore\n  0x22\n  0x24\n  dup3\n  add\n  mstore\n  0x4f776e61626c653a204f776e657220697320746865207a65726f206164647265\n  0x44\n  dup3\n  add\n  mstore\n  0x7373000000000000000000000000000000000000000000000000000000000000\n  0x64\n  dup3\n  add\n  mstore\n  revert\n    /* \"libraries/SafeMath.sol\":487:668  function add(uint256 a, uint256 b) internal pure returns (uint256) {... */\ntag_5:\n  swap1\n    /* \"SwishFishToken.sol\":348:15793  contract SwishFish is ERC20, Ownable {... */\n  dup2\n  add\n  swap1\n  dup2\n  dup2\n  gt\n  tag_82\n  jumpi\n    /* \"libraries/SafeMath.sol\":601:607  c >= a */\n  dup2\n  lt\n    /* \"SwishFishToken.sol\":348:15793  contract SwishFish is ERC20, Ownable {... */\n  tag_84\n  jumpi\n    /* \"libraries/SafeMath.sol\":487:668  function add(uint256 a, uint256 b) internal pure returns (uint256) {... */\n  swap1\n  jump\t// out\n    /* \"SwishFishToken.sol\":348:15793  contract SwishFish is ERC20, Ownable {... */\ntag_84:\n  0x64\n  mload(0x40)\n  0x08c379a000000000000000000000000000000000000000000000000000000000\n  dup2\n  mstore\n  0x20\n  0x04\n  dup3\n  add\n  mstore\n  0x1b\n  0x24\n  dup3\n  add\n  mstore\n  0x536166654d6174683a206164646974696f6e206f766572666c6f770000000000\n  0x44\n  dup3\n  add\n  mstore\n  revert\ntag_82:\n  mstore(0x00, 0x4e487b7100000000000000000000000000000000000000000000000000000000)\n  mstore(0x04, 0x11)\n  revert(0x00, 0x24)\nstop\ndata_9c064737b570a74c2bac5d21056d93ac53115214216cd14d4a0fc9b60be81231 8be0079c531659141344cd1fd0a4f28419497f9722a3daafe3b4186f6b6457e0\n\nsub_0: assembly {\n        /* \"SwishFishToken.sol\":348:15793  contract SwishFish is ERC20, Ownable {... */\n      0x80\n      0x40\n      swap1\n      dup1\n      dup3\n      mstore\n      0x04\n      swap1\n      dup2\n      calldatasize\n      lt\n      iszero\n      tag_30\n      jumpi\n    tag_31:\n      pop\n      pop\n      jumpi(tag_32, iszero(calldatasize))\n      0x00\n      dup1\n      revert\n    tag_32:\n        /* \"SwishFishToken.sol\":4958:4967  msg.value */\n      callvalue\n        /* \"SwishFishToken.sol\":4954:5037  if (msg.value > 0) {... */\n      tag_34\n      jumpi\n        /* \"SwishFishToken.sol\":348:15793  contract SwishFish is ERC20, Ownable {... */\n      stop\n        /* \"SwishFishToken.sol\":4954:5037  if (msg.value > 0) {... */\n    tag_34:\n        /* \"SwishFishToken.sol\":348:15793  contract SwishFish is ERC20, Ownable {... */\n      mload\n        /* \"SwishFishToken.sol\":4958:4967  msg.value */\n      callvalue\n        /* \"SwishFishToken.sol\":348:15793  contract SwishFish is ERC20, Ownable {... */\n      dup2\n      mstore\n        /* \"SwishFishToken.sol\":4993:5025  Deposit(_msgSender(), msg.value) */\n      0xe1fffcc4923d04b559f4d29a8bfc6cda04eb5b0d3c460751c2402c5c5cc9109c\n        /* \"SwishFishToken.sol\":348:15793  contract SwishFish is ERC20, Ownable {... */\n      0x20\n        /* \"utils/Context.sol\":736:746  msg.sender */\n      caller\n        /* \"SwishFishToken.sol\":4993:5025  Deposit(_msgSender(), msg.value) */\n      swap3\n      log2\n        /* \"SwishFishToken.sol\":4954:5037  if (msg.value > 0) {... */\n      stop\n        /* \"SwishFishToken.sol\":348:15793  contract SwishFish is ERC20, Ownable {... */\n    tag_30:\n      0x00\n      swap2\n      0x0100000000000000000000000000000000000000000000000000000000\n      dup4\n      calldataload\n      div\n      swap2\n      dup3\n      0x013cf08b\n      eq\n      tag_36\n      jumpi\n      pop\n      dup2\n      0x06fdde03\n      eq\n      tag_38\n      jumpi\n      dup2\n      0x095ea7b3\n      eq\n      tag_40\n      jumpi\n      dup2\n      0x0abdc640\n      eq\n      tag_42\n      jumpi\n      dup2\n      0x0d61b519\n      eq\n      tag_44\n      jumpi\n      dup2\n      0x1694505e\n      eq\n      tag_46\n      jumpi\n      dup2\n      0x18160ddd\n      eq\n      tag_48\n      jumpi\n      dup2\n      0x1b45a47a\n      eq\n      tag_50\n      jumpi\n      dup2\n      0x23b872dd\n      eq\n      tag_52\n      jumpi\n      dup2\n      0x2a9af7ba\n      eq\n      tag_54\n      jumpi\n      dup2\n      0x313ce567\n      eq\n      tag_56\n      jumpi\n      dup2\n      0x39262773\n      eq\n      tag_58\n      jumpi\n      dup2\n      0x39509351\n      eq\n      tag_60\n      jumpi\n      dup2\n      0x3ccfd60b\n      eq\n      tag_62\n      jumpi\n      dup2\n      0x553000c1\n      eq\n      tag_64\n      jumpi\n        /* \"SwishFishToken.sol\":2697:2725  uint256 public _poolTeam = 0 */\n      dup2\n        /* \"SwishFishToken.sol\":348:15793  contract SwishFish is ERC20, Ownable {... */\n      0x562e9df9\n        /* \"SwishFishToken.sol\":2697:2725  uint256 public _poolTeam = 0 */\n      eq\n      tag_66\n      jumpi\n        /* \"SwishFishToken.sol\":348:15793  contract SwishFish is ERC20, Ownable {... */\n      dup2\n      0x70a08231\n      eq\n      tag_68\n      jumpi\n      dup2\n      0x7918447e\n      eq\n      tag_70\n      jumpi\n      dup2\n      0x7a594a2b\n      eq\n      tag_72\n      jumpi\n      dup2\n      0x7d81936c\n      eq\n      tag_74\n      jumpi\n      dup2\n      0x8198c341\n      eq\n      tag_76\n      jumpi\n      dup2\n      0x85a6a091\n      eq\n      tag_78\n      jumpi\n      dup2\n      0x8da5cb5b\n      eq\n      tag_80\n      jumpi\n      dup2\n      0x933f5e07\n      eq\n      tag_82\n      jumpi\n      dup2\n      0x95d89b41\n      eq\n      tag_84\n      jumpi\n      dup2\n      0x98951b56\n      eq\n      tag_86\n      jumpi\n      dup2\n      0xa457c2d7\n      eq\n      tag_88\n      jumpi\n      dup2\n      0xa6f2ae3a\n      eq\n      tag_90\n      jumpi\n      dup2\n      0xa9059cbb\n      eq\n      tag_92\n      jumpi\n      dup2\n      0xb6bba0ae\n      eq\n      tag_94\n      jumpi\n      dup2\n      0xc4ce220b\n      eq\n      tag_96\n      jumpi\n      dup2\n      0xc84ad9a5\n      eq\n      tag_98\n      jumpi\n      dup2\n      0xd7196dd9\n      eq\n      tag_100\n      jumpi\n      dup2\n      0xd8a0f828\n      eq\n      tag_102\n      jumpi\n      dup2\n      0xdce165a6\n      eq\n      tag_104\n      jumpi\n      pop\n      dup1\n      0xdd62ed3e\n      eq\n      tag_106\n      jumpi\n      0xfe7441e7\n      eq\n      tag_108\n      jumpi\n      dup1\n      jump(tag_31)\n    tag_108:\n      swap1\n      jumpi(tag_112, callvalue)\n      jumpi(tag_112, slt(add(not(0x03), calldatasize), 0x20))\n      dup1\n      0x20\n      swap3\n      sub(exp(0x02, 0xa0), 0x01)\n      tag_114\n      tag_3\n      jump\t// in\n    tag_114:\n      and\n      dup2\n      mstore\n        /* \"SwishFishToken.sol\":11117:11137  _authorizedWithdraws */\n      0x0e\n        /* \"SwishFishToken.sol\":348:15793  contract SwishFish is ERC20, Ownable {... */\n      dup5\n      mstore\n      keccak256\n      sload\n      swap1\n      mload\n      swap1\n      dup2\n      mstore\n      return\n    tag_112:\n      pop\n      dup1\n      revert\n    tag_106:\n      pop\n      swap1\n      jumpi(tag_112, callvalue)\n      dup1\n      add(calldatasize, not(0x03))\n      slt\n      tag_112\n      jumpi\n      dup1\n      0x20\n      swap3\n      tag_119\n      tag_3\n      jump\t// in\n    tag_119:\n      tag_120\n      tag_4\n      jump\t// in\n    tag_120:\n      sub(exp(0x02, 0xa0), 0x01)\n      swap2\n      dup3\n      and\n      dup4\n      mstore\n        /* \"contracts/ERC20.sol\":4255:4266  _allowances */\n      0x01\n        /* \"SwishFishToken.sol\":348:15793  contract SwishFish is ERC20, Ownable {... */\n      dup7\n      mstore\n      dup4\n      dup4\n      keccak256\n      swap2\n      and\n      dup3\n      mstore\n      dup5\n      mstore\n      keccak256\n      sload\n      swap1\n      mload\n      swap1\n      dup2\n      mstore\n      return\n    tag_104:\n      swap1\n      pop\n      dup3\n      jumpi(tag_121, callvalue)\n      0x0180\n      dup1\n      add(calldatasize, not(0x03))\n      slt\n      tag_127\n      jumpi\n      dup4\n      dup4\n      calldataload\n      swap2\n      dup3\n      iszero\n      iszero\n      dup1\n      swap4\n      sub\n      tag_112\n      jumpi\n      0x24\n      swap4\n      dup5\n      calldataload\n      swap2\n      dup3\n      iszero\n      iszero\n      dup1\n      swap4\n      sub\n      tag_127\n      jumpi\n      calldataload(0x44)\n      swap5\n      dup6\n      iszero\n      iszero\n      dup1\n      swap7\n      sub\n      tag_129\n      jumpi\n      calldataload(0x64)\n      swap4\n      dup5\n      iszero\n      iszero\n      swap7\n      dup8\n      dup7\n      sub\n      tag_131\n      jumpi\n      calldataload(0xa4)\n      swap8\n      dup9\n      iszero\n      iszero\n      swap1\n      dup2\n      dup11\n      sub\n      tag_133\n      jumpi\n      calldataload(0x0144)\n      dup1\n      iszero\n      iszero\n      swap11\n      dup12\n      dup3\n      sub\n      tag_135\n      jumpi\n      calldataload(0x0164)\n      swap10\n      sub(exp(0x02, 0xa0), 0x01)\n      swap12\n      dup13\n      dup13\n      and\n      dup1\n      swap13\n      sub\n      tag_137\n      jumpi\n      0xff\n        /* \"utils/Context.sol\":736:746  msg.sender */\n      dup12\n        /* \"access/Ownable.sol\":1781:1847  require(isOwner[_msgSender()],  \"Ownable: caller is not an owner\") */\n      tag_139\n        /* \"utils/Context.sol\":736:746  msg.sender */\n      swap3\n      caller\n        /* \"SwishFishToken.sol\":348:15793  contract SwishFish is ERC20, Ownable {... */\n      dup2\n      mstore\n        /* \"access/Ownable.sol\":1789:1796  isOwner */\n      0x0a\n        /* \"SwishFishToken.sol\":348:15793  contract SwishFish is ERC20, Ownable {... */\n      0x20\n      mstore\n      keccak256\n      sload\n      and\n        /* \"access/Ownable.sol\":1781:1847  require(isOwner[_msgSender()],  \"Ownable: caller is not an owner\") */\n      tag_6\n      jump\t// in\n    tag_139:\n        /* \"SwishFishToken.sol\":12572:12733  if (_updateWithdrawOptions) {... */\n      tag_140\n      jumpi\n        /* \"SwishFishToken.sol\":348:15793  contract SwishFish is ERC20, Ownable {... */\n    tag_141:\n        /* \"SwishFishToken.sol\":12743:12984  if (_updateTaxesFees) {... */\n      tag_142\n      jumpi\n        /* \"SwishFishToken.sol\":348:15793  contract SwishFish is ERC20, Ownable {... */\n    tag_143:\n        /* \"SwishFishToken.sol\":12994:13136  if (_transferBackend) {... */\n      tag_144\n      jumpi\n        /* \"SwishFishToken.sol\":348:15793  contract SwishFish is ERC20, Ownable {... */\n    tag_145:\n      dup7\n      mload\n      swap7\n      0x01c0\n      dup9\n      add\n      dup9\n      dup2\n      lt\n      0xffffffffffffffff\n      dup3\n      gt\n      or\n      tag_146\n      jumpi\n      swap1\n      dup15\n      swap2\n      dup2\n      mstore\n        /* \"utils/Context.sol\":736:746  msg.sender */\n      caller\n        /* \"SwishFishToken.sol\":348:15793  contract SwishFish is ERC20, Ownable {... */\n      dup10\n      mstore\n      0x20\n        /* \"SwishFishToken.sol\":13161:13770  Proposal({... */\n      dup10\n      add\n        /* \"SwishFishToken.sol\":348:15793  contract SwishFish is ERC20, Ownable {... */\n      swap2\n      dup3\n      mstore\n        /* \"SwishFishToken.sol\":13161:13770  Proposal({... */\n      dup9\n      add\n        /* \"SwishFishToken.sol\":348:15793  contract SwishFish is ERC20, Ownable {... */\n      swap6\n      dup7\n      mstore\n      0x60\n        /* \"SwishFishToken.sol\":13161:13770  Proposal({... */\n      dup9\n      add\n        /* \"SwishFishToken.sol\":348:15793  contract SwishFish is ERC20, Ownable {... */\n      swap5\n      dup6\n      mstore\n      0x80\n        /* \"SwishFishToken.sol\":13161:13770  Proposal({... */\n      dup9\n      add\n        /* \"SwishFishToken.sol\":348:15793  contract SwishFish is ERC20, Ownable {... */\n      swap4\n      dup5\n      mstore\n      0xa0\n        /* \"SwishFishToken.sol\":13161:13770  Proposal({... */\n      dup9\n      add\n        /* \"SwishFishToken.sol\":348:15793  contract SwishFish is ERC20, Ownable {... */\n      swap2\n      dup3\n      mstore\n      0xc0\n        /* \"SwishFishToken.sol\":13161:13770  Proposal({... */\n      dup9\n      add\n        /* \"SwishFishToken.sol\":348:15793  contract SwishFish is ERC20, Ownable {... */\n      swap2\n      calldataload(0x84)\n      dup4\n      mstore\n      0xe0\n        /* \"SwishFishToken.sol\":13161:13770  Proposal({... */\n      dup10\n      add\n        /* \"SwishFishToken.sol\":348:15793  contract SwishFish is ERC20, Ownable {... */\n      swap4\n      dup5\n      mstore\n      0x0100\n        /* \"SwishFishToken.sol\":13161:13770  Proposal({... */\n      dup10\n      add\n        /* \"SwishFishToken.sol\":348:15793  contract SwishFish is ERC20, Ownable {... */\n      swap5\n      calldataload(0xc4)\n      dup7\n      mstore\n      0x0120\n        /* \"SwishFishToken.sol\":13161:13770  Proposal({... */\n      dup11\n      add\n        /* \"SwishFishToken.sol\":348:15793  contract SwishFish is ERC20, Ownable {... */\n      swap7\n      calldataload(0xe4)\n      dup9\n      mstore\n      0x0140\n        /* \"SwishFishToken.sol\":13161:13770  Proposal({... */\n      dup12\n      add\n        /* \"SwishFishToken.sol\":348:15793  contract SwishFish is ERC20, Ownable {... */\n      swap9\n      calldataload(0x0104)\n      dup11\n      mstore\n      0x0160\n        /* \"SwishFishToken.sol\":13161:13770  Proposal({... */\n      dup13\n      add\n        /* \"SwishFishToken.sol\":348:15793  contract SwishFish is ERC20, Ownable {... */\n      swap11\n      calldataload(0x0124)\n      dup13\n      mstore\n        /* \"SwishFishToken.sol\":13161:13770  Proposal({... */\n      dup13\n      add\n        /* \"SwishFishToken.sol\":348:15793  contract SwishFish is ERC20, Ownable {... */\n      swap15\n      dup16\n      mstore\n        /* \"SwishFishToken.sol\":13161:13770  Proposal({... */\n      0x01a0\n      dup13\n      add\n        /* \"SwishFishToken.sol\":348:15793  contract SwishFish is ERC20, Ownable {... */\n      swap13\n      dup14\n      mstore\n        /* \"SwishFishToken.sol\":13146:13155  proposals */\n      0x05\n        /* \"SwishFishToken.sol\":348:15793  contract SwishFish is ERC20, Ownable {... */\n      sload\n      0x010000000000000000\n      dup2\n      lt\n      iszero\n      tag_148\n      jumpi\n      dup1\n      0x01\n      tag_150\n      swap3\n      add\n        /* \"SwishFishToken.sol\":13146:13155  proposals */\n      0x05\n        /* \"SwishFishToken.sol\":348:15793  contract SwishFish is ERC20, Ownable {... */\n      sstore\n      tag_1\n      jump\t// in\n    tag_150:\n      swap13\n      swap1\n      swap13\n      tag_151\n      jumpi\n      mload\n      dup13\n      sload\n      swap6\n      mload\n      swap2\n      mload\n      swap3\n      mload\n      swap4\n      mload\n      swap5\n      mload\n      iszero\n      iszero\n      0x01000000000000000000000000000000000000000000000000\n      mul\n      0xff000000000000000000000000000000000000000000000000\n      and\n      swap5\n      iszero\n      iszero\n      0x010000000000000000000000000000000000000000000000\n      mul\n      0xff0000000000000000000000000000000000000000000000\n      and\n      swap4\n      iszero\n      iszero\n      0x0100000000000000000000000000000000000000000000\n      mul\n      0xff00000000000000000000000000000000000000000000\n      and\n      swap3\n      iszero\n      iszero\n      0x01000000000000000000000000000000000000000000\n      mul\n      0xff000000000000000000000000000000000000000000\n      and\n      swap2\n      iszero\n      iszero\n      exp(0x02, 0xa0)\n      mul\n      0xff0000000000000000000000000000000000000000\n      and\n      swap1\n      dup16\n      and\n      not(0xffffffffffffffffffffffffffffffffffffffffffffffffff)\n      swap1\n      swap7\n      and\n      swap6\n      swap1\n      swap6\n      or\n      swap5\n      swap1\n      swap5\n      or\n      swap4\n      swap1\n      swap4\n      or\n      swap3\n      swap1\n      swap3\n      or\n      swap2\n      swap1\n      swap2\n      or\n      or\n      dup8\n      sstore\n      mload\n      0x01\n      dup8\n      add\n      sstore\n      mload\n      0x02\n      dup7\n      add\n      dup1\n      sload\n      not(0xff)\n      and\n      swap2\n      iszero\n      iszero\n      0xff\n      and\n      swap2\n      swap1\n      swap2\n      or\n      swap1\n      sstore\n      mload\n      0x03\n      dup6\n      add\n      sstore\n      mload\n      dup9\n      dup5\n      add\n      sstore\n      mload\n        /* \"SwishFishToken.sol\":13146:13155  proposals */\n      0x05\n        /* \"SwishFishToken.sol\":348:15793  contract SwishFish is ERC20, Ownable {... */\n      dup4\n      add\n      sstore\n      mload\n      0x06\n      dup3\n      add\n      sstore\n      0x07\n      add\n      swap3\n      mload\n      iszero\n      iszero\n      tag_154\n      swap1\n      dup5\n      swap1\n      0xff\n      dup1\n      not\n      dup4\n      sload\n      and\n      swap2\n      iszero\n      iszero\n      and\n      or\n      swap1\n      sstore\n      jump\n    tag_154:\n      mload\n      and\n      dup2\n      sload\n      swap1\n      0x0100\n      mul\n      0xffffffffffffffffffffffffffffffffffffffff00\n      and\n      swap1\n      not(0xffffffffffffffffffffffffffffffffffffffff00)\n      and\n      or\n      swap1\n      sstore\n        /* \"SwishFishToken.sol\":13146:13155  proposals */\n      0x05\n        /* \"SwishFishToken.sol\":348:15793  contract SwishFish is ERC20, Ownable {... */\n      sload\n      swap2\n      not(0x00)\n      dup4\n      add\n      swap3\n      dup4\n      gt\n      tag_155\n      jumpi\n        /* \"SwishFishToken.sol\":13787:13823  SubmitProposal(proposals.length - 1) */\n      pop\n      pop\n      0x096aa03a7cd4aba017b05ce697df0e528a91d045a01285c50e931b0c0c4939ce\n      dup3\n      dup1\n      log2\n        /* \"SwishFishToken.sol\":348:15793  contract SwishFish is ERC20, Ownable {... */\n      dup1\n      return\n    tag_155:\n      0x11\n      dup5\n      swap2\n      mul(0x4e487b71, exp(0x02, 0xe0))\n      dup4\n      mstore\n      mstore\n      revert\n    tag_151:\n      pop\n      pop\n      pop\n      pop\n      pop\n      dup12\n      dup15\n      dup1\n      dup16\n      mul(0x4e487b71, exp(0x02, 0xe0))\n      dup3\n      mstore\n      mstore\n      revert\n    tag_148:\n      pop\n      pop\n      pop\n      pop\n      pop\n      dup12\n      dup15\n      0x41\n      dup16\n      mul(0x4e487b71, exp(0x02, 0xe0))\n      dup4\n      mstore\n      mstore\n      revert\n    tag_146:\n      pop\n      dup12\n      dup15\n      0x41\n      dup16\n      mul(0x4e487b71, exp(0x02, 0xe0))\n      dup4\n      mstore\n      mstore\n      revert\n        /* \"SwishFishToken.sol\":12994:13136  if (_transferBackend) {... */\n    tag_144:\n        /* \"SwishFishToken.sol\":13039:13068  _backendAddress != address(0) */\n      dup8\n        /* \"SwishFishToken.sol\":12994:13136  if (_transferBackend) {... */\n      tag_145\n        /* \"SwishFishToken.sol\":348:15793  contract SwishFish is ERC20, Ownable {... */\n      jumpi\n      0x84\n      dup13\n      0x33\n      dup14\n      0x20\n      dup12\n      mload\n      swap4\n      mul(0x461bcd, exp(0x02, 0xe5))\n      dup6\n      mstore\n      dup5\n      add\n      mstore\n      dup3\n      add\n      mstore\n      0x4d756c74695369676e617475726557616c6c65743a206e6577206f776e657220\n      0x44\n      dup3\n      add\n      mstore\n      0x697320746865207a65726f206164647265737300000000000000000000000000\n      0x64\n      dup3\n      add\n      mstore\n      revert\n        /* \"SwishFishToken.sol\":12743:12984  if (_updateTaxesFees) {... */\n    tag_142:\n        /* \"access/Ownable.sol\":1789:1796  isOwner */\n      0x0a\n        /* \"SwishFishToken.sol\":12804:12874  _heisenVerseTaxFee + _marketingTaxFee + _teamTaxFee + _liquidityTaxFee */\n      tag_159\n        /* \"SwishFishToken.sol\":348:15793  contract SwishFish is ERC20, Ownable {... */\n      calldataload(0x0124)\n        /* \"SwishFishToken.sol\":12804:12855  _heisenVerseTaxFee + _marketingTaxFee + _teamTaxFee */\n      tag_161\n        /* \"SwishFishToken.sol\":348:15793  contract SwishFish is ERC20, Ownable {... */\n      calldataload(0x0104)\n        /* \"SwishFishToken.sol\":12804:12841  _heisenVerseTaxFee + _marketingTaxFee */\n      tag_161\n        /* \"SwishFishToken.sol\":348:15793  contract SwishFish is ERC20, Ownable {... */\n      calldataload(0xe4)\n      calldataload(0xc4)\n        /* \"SwishFishToken.sol\":12804:12841  _heisenVerseTaxFee + _marketingTaxFee */\n      tag_7\n      jump\t// in\n    tag_161:\n        /* \"SwishFishToken.sol\":12804:12855  _heisenVerseTaxFee + _marketingTaxFee + _teamTaxFee */\n      tag_7\n      jump\t// in\n        /* \"SwishFishToken.sol\":12804:12874  _heisenVerseTaxFee + _marketingTaxFee + _teamTaxFee + _liquidityTaxFee */\n    tag_159:\n        /* \"SwishFishToken.sol\":12897:12916  sellTotalFees <= 10 */\n      gt\n        /* \"SwishFishToken.sol\":348:15793  contract SwishFish is ERC20, Ownable {... */\n      iszero\n        /* \"SwishFishToken.sol\":12743:12984  if (_updateTaxesFees) {... */\n      tag_143\n        /* \"SwishFishToken.sol\":348:15793  contract SwishFish is ERC20, Ownable {... */\n      jumpi\n      0x84\n      dup14\n      0x33\n      dup15\n      0x20\n      dup13\n      mload\n      swap4\n      mul(0x461bcd, exp(0x02, 0xe5))\n      dup6\n      mstore\n      dup5\n      add\n      mstore\n      dup3\n      add\n      mstore\n      0x4d756c74695369676e617475726557616c6c65743a204d757374206b65657020\n      0x44\n      dup3\n      add\n      mstore\n      0x6665657320617420313025206f72206c65737300000000000000000000000000\n      0x64\n      dup3\n      add\n      mstore\n      revert\n        /* \"SwishFishToken.sol\":12572:12733  if (_updateWithdrawOptions) {... */\n    tag_140:\n        /* \"SwishFishToken.sol\":12640:12656  5000000000000000 */\n      0x11c37937e08000\n        /* \"SwishFishToken.sol\":12623:12636  withdrawPrice */\n      0x13\n        /* \"SwishFishToken.sol\":348:15793  contract SwishFish is ERC20, Ownable {... */\n      sload\n        /* \"SwishFishToken.sol\":12623:12656  withdrawPrice <= 5000000000000000 */\n      gt\n        /* \"SwishFishToken.sol\":348:15793  contract SwishFish is ERC20, Ownable {... */\n      iszero\n        /* \"SwishFishToken.sol\":12572:12733  if (_updateWithdrawOptions) {... */\n      tag_141\n        /* \"SwishFishToken.sol\":348:15793  contract SwishFish is ERC20, Ownable {... */\n      jumpi\n      0x84\n      dup15\n      0x3c\n      dup16\n      0x20\n      dup14\n      mload\n      swap4\n      mul(0x461bcd, exp(0x02, 0xe5))\n      dup6\n      mstore\n      dup5\n      add\n      mstore\n      dup3\n      add\n      mstore\n      0x4d756c74695369676e617475726557616c6c65743a204d757374206b65657020\n      0x44\n      dup3\n      add\n      mstore\n      0x3530303030303030303030303030303020576569206f72206c65737300000000\n      0x64\n      dup3\n      add\n      mstore\n      revert\n    tag_137:\n      dup1\n      revert\n    tag_135:\n      dup11\n      dup1\n      revert\n    tag_133:\n      dup9\n      dup1\n      revert\n    tag_131:\n      dup7\n      dup1\n      revert\n    tag_129:\n      dup5\n      dup1\n      revert\n    tag_127:\n      dup4\n      dup1\n      revert\n    tag_121:\n      dup3\n      dup1\n      revert\n    tag_102:\n      dup4\n      swap2\n      pop\n      jumpi(tag_121, slt(add(not(0x03), calldatasize), 0x20))\n        /* \"SwishFishToken.sol\":5539:5569  FirstLiquidityAdded(msg.value) */\n      0xc5d4fbaddd2087d369f5cf16ad7544f41ef0dc291b510e4cb1cb6e6eaae74539\n        /* \"utils/Context.sol\":736:746  msg.sender */\n      swap2\n        /* \"SwishFishToken.sol\":5513:5522  msg.value */\n      tag_168\n        /* \"SwishFishToken.sol\":348:15793  contract SwishFish is ERC20, Ownable {... */\n      0x20\n        /* \"utils/Context.sol\":736:746  msg.sender */\n      swap3\n      caller\n        /* \"SwishFishToken.sol\":348:15793  contract SwishFish is ERC20, Ownable {... */\n      dup7\n      mstore\n        /* \"access/Ownable.sol\":1789:1796  isOwner */\n      0x0a\n        /* \"SwishFishToken.sol\":348:15793  contract SwishFish is ERC20, Ownable {... */\n      dup5\n      mstore\n        /* \"access/Ownable.sol\":1781:1847  require(isOwner[_msgSender()],  \"Ownable: caller is not an owner\") */\n      tag_169\n        /* \"SwishFishToken.sol\":348:15793  contract SwishFish is ERC20, Ownable {... */\n      0xff\n      dup5\n      dup9\n      keccak256\n      sload\n      and\n        /* \"access/Ownable.sol\":1781:1847  require(isOwner[_msgSender()],  \"Ownable: caller is not an owner\") */\n      tag_6\n      jump\t// in\n    tag_169:\n        /* \"SwishFishToken.sol\":5394:5415  firstLiquidityEnabled */\n      0x0d\n        /* \"SwishFishToken.sol\":348:15793  contract SwishFish is ERC20, Ownable {... */\n      sload\n        /* \"SwishFishToken.sol\":5386:5441  require(firstLiquidityEnabled, \"Presale isn't enabled\") */\n      tag_170\n        /* \"SwishFishToken.sol\":348:15793  contract SwishFish is ERC20, Ownable {... */\n      0xff\n      0x0100\n      dup4\n      div\n      and\n        /* \"SwishFishToken.sol\":5386:5441  require(firstLiquidityEnabled, \"Presale isn't enabled\") */\n      tag_5\n      jump\t// in\n    tag_170:\n      not(0xff00)\n        /* \"SwishFishToken.sol\":348:15793  contract SwishFish is ERC20, Ownable {... */\n      and\n        /* \"SwishFishToken.sol\":5394:5415  firstLiquidityEnabled */\n      0x0d\n        /* \"SwishFishToken.sol\":348:15793  contract SwishFish is ERC20, Ownable {... */\n      sstore\n        /* \"SwishFishToken.sol\":5513:5522  msg.value */\n      callvalue\n      swap1\n        /* \"SwishFishToken.sol\":348:15793  contract SwishFish is ERC20, Ownable {... */\n      calldataload\n        /* \"SwishFishToken.sol\":5513:5522  msg.value */\n      tag_10\n      jump\t// in\n    tag_168:\n        /* \"SwishFishToken.sol\":348:15793  contract SwishFish is ERC20, Ownable {... */\n      mload\n        /* \"SwishFishToken.sol\":5513:5522  msg.value */\n      callvalue\n        /* \"SwishFishToken.sol\":348:15793  contract SwishFish is ERC20, Ownable {... */\n      dup2\n      mstore\n        /* \"SwishFishToken.sol\":5539:5569  FirstLiquidityAdded(msg.value) */\n      log1\n        /* \"SwishFishToken.sol\":348:15793  contract SwishFish is ERC20, Ownable {... */\n      dup1\n      return\n    tag_100:\n      swap1\n      pop\n      jumpi(tag_112, callvalue)\n      dup2\n      add(calldatasize, not(0x03))\n      slt\n      tag_112\n      jumpi\n        /* \"utils/Context.sol\":736:746  msg.sender */\n      caller\n        /* \"SwishFishToken.sol\":348:15793  contract SwishFish is ERC20, Ownable {... */\n      dup3\n      mstore\n      0x20\n      swap1\n        /* \"access/Ownable.sol\":1789:1796  isOwner */\n      0x0a\n        /* \"SwishFishToken.sol\":348:15793  contract SwishFish is ERC20, Ownable {... */\n      dup3\n      mstore\n        /* \"access/Ownable.sol\":1781:1847  require(isOwner[_msgSender()],  \"Ownable: caller is not an owner\") */\n      tag_175\n        /* \"SwishFishToken.sol\":348:15793  contract SwishFish is ERC20, Ownable {... */\n      0xff\n      dup6\n      dup6\n      keccak256\n      sload\n      and\n        /* \"access/Ownable.sol\":1781:1847  require(isOwner[_msgSender()],  \"Ownable: caller is not an owner\") */\n      tag_6\n      jump\t// in\n    tag_175:\n      sub(exp(0x02, 0xa0), 0x01)\n        /* \"SwishFishToken.sol\":348:15793  contract SwishFish is ERC20, Ownable {... */\n      swap1\n        /* \"SwishFishToken.sol\":5636:5700  super._transfer(address(this), addressHeisenDev, _poolHeisenDev) */\n      tag_176\n        /* \"SwishFishToken.sol\":348:15793  contract SwishFish is ERC20, Ownable {... */\n      dup3\n        /* \"SwishFishToken.sol\":5667:5683  addressHeisenDev */\n      0x17\n        /* \"SwishFishToken.sol\":348:15793  contract SwishFish is ERC20, Ownable {... */\n      sload\n      and\n        /* \"SwishFishToken.sol\":5685:5699  _poolHeisenDev */\n      0x1e\n        /* \"SwishFishToken.sol\":348:15793  contract SwishFish is ERC20, Ownable {... */\n      sload\n        /* \"SwishFishToken.sol\":5660:5664  this */\n      swap1\n      address\n        /* \"SwishFishToken.sol\":5636:5700  super._transfer(address(this), addressHeisenDev, _poolHeisenDev) */\n      tag_19\n      jump\t// in\n    tag_176:\n        /* \"SwishFishToken.sol\":5711:5775  super._transfer(address(this), addressMarketing, _poolMarketing) */\n      tag_177\n        /* \"SwishFishToken.sol\":348:15793  contract SwishFish is ERC20, Ownable {... */\n      dup3\n        /* \"SwishFishToken.sol\":5742:5758  addressMarketing */\n      0x18\n        /* \"SwishFishToken.sol\":348:15793  contract SwishFish is ERC20, Ownable {... */\n      sload\n      and\n        /* \"SwishFishToken.sol\":5760:5774  _poolMarketing */\n      0x1f\n        /* \"SwishFishToken.sol\":348:15793  contract SwishFish is ERC20, Ownable {... */\n      sload\n        /* \"SwishFishToken.sol\":5660:5664  this */\n      swap1\n      address\n        /* \"SwishFishToken.sol\":5711:5775  super._transfer(address(this), addressMarketing, _poolMarketing) */\n      tag_19\n      jump\t// in\n    tag_177:\n        /* \"SwishFishToken.sol\":5786:5840  super._transfer(address(this), addressTeam, _poolTeam) */\n      tag_178\n        /* \"SwishFishToken.sol\":348:15793  contract SwishFish is ERC20, Ownable {... */\n      dup3\n        /* \"SwishFishToken.sol\":5817:5828  addressTeam */\n      0x19\n        /* \"SwishFishToken.sol\":348:15793  contract SwishFish is ERC20, Ownable {... */\n      sload\n      and\n      dup5\n      sload\n        /* \"SwishFishToken.sol\":5660:5664  this */\n      swap1\n      address\n        /* \"SwishFishToken.sol\":5786:5840  super._transfer(address(this), addressTeam, _poolTeam) */\n      tag_19\n      jump\t// in\n    tag_178:\n        /* \"SwishFishToken.sol\":348:15793  contract SwishFish is ERC20, Ownable {... */\n      dup4\n      dup1\n      dup1\n      dup1\n        /* \"SwishFishToken.sol\":5868:5911  _poolHeisenDev + _poolMarketing + _poolTeam */\n      tag_179\n        /* \"SwishFishToken.sol\":5868:5899  _poolHeisenDev + _poolMarketing */\n      tag_180\n        /* \"SwishFishToken.sol\":5685:5699  _poolHeisenDev */\n      0x1e\n        /* \"SwishFishToken.sol\":348:15793  contract SwishFish is ERC20, Ownable {... */\n      sload\n        /* \"SwishFishToken.sol\":5760:5774  _poolMarketing */\n      0x1f\n        /* \"SwishFishToken.sol\":348:15793  contract SwishFish is ERC20, Ownable {... */\n      sload\n        /* \"SwishFishToken.sol\":5868:5899  _poolHeisenDev + _poolMarketing */\n      swap1\n      tag_7\n      jump\t// in\n    tag_180:\n        /* \"SwishFishToken.sol\":348:15793  contract SwishFish is ERC20, Ownable {... */\n      dup9\n      sload\n        /* \"SwishFishToken.sol\":5868:5911  _poolHeisenDev + _poolMarketing + _poolTeam */\n      swap1\n      tag_7\n      jump\t// in\n    tag_179:\n        /* \"SwishFishToken.sol\":348:15793  contract SwishFish is ERC20, Ownable {... */\n      swap6\n      dup2\n        /* \"SwishFishToken.sol\":5685:5699  _poolHeisenDev */\n      0x1e\n        /* \"SwishFishToken.sol\":348:15793  contract SwishFish is ERC20, Ownable {... */\n      sstore\n      dup2\n        /* \"SwishFishToken.sol\":5760:5774  _poolMarketing */\n      0x1f\n        /* \"SwishFishToken.sol\":348:15793  contract SwishFish is ERC20, Ownable {... */\n      sstore\n      dup2\n      dup9\n      sstore\n        /* \"SwishFishToken.sol\":5667:5683  addressHeisenDev */\n      0x17\n        /* \"SwishFishToken.sol\":348:15793  contract SwishFish is ERC20, Ownable {... */\n      sload\n      and\n        /* \"SwishFishToken.sol\":5660:5664  this */\n      address\n        /* \"SwishFishToken.sol\":6049:6070  address(this).balance */\n      balance\n        /* \"SwishFishToken.sol\":6020:6075  addressHeisenDev.call{value: address(this).balance}(\"\") */\n      swap1\n      gas\n      call\n        /* \"SwishFishToken.sol\":348:15793  contract SwishFish is ERC20, Ownable {... */\n      jumpi(tag_181, iszero(returndatasize))\n      returndatasize\n      0xffffffffffffffff\n      dup2\n      gt\n      tag_183\n      jumpi\n      dup7\n      mload\n      swap1\n      tag_185\n      0x1f\n      dup3\n      add\n      not(0x1f)\n      and\n      dup8\n      add\n      dup4\n      tag_9\n      jump\t// in\n    tag_185:\n      dup2\n      mstore\n      dup6\n      dup6\n      returndatasize\n      swap3\n      add\n      returndatacopy\n    tag_186:\n      iszero\n      tag_187\n      jumpi\n      pop\n        /* \"SwishFishToken.sol\":6137:6156  TeamPayment(amount) */\n      0x21a3a3648d0b2afc084acd733d71600b506fa4eca7ef1f5e24718c5e17f4e7ff\n        /* \"SwishFishToken.sol\":348:15793  contract SwishFish is ERC20, Ownable {... */\n      swap3\n      swap4\n      mload\n      swap1\n      dup2\n      mstore\n        /* \"SwishFishToken.sol\":6137:6156  TeamPayment(amount) */\n      log1\n        /* \"SwishFishToken.sol\":348:15793  contract SwishFish is ERC20, Ownable {... */\n      dup1\n      return\n    tag_187:\n      0x64\n      swap1\n      dup4\n      dup7\n      mload\n      swap2\n      mul(0x461bcd, exp(0x02, 0xe5))\n      dup4\n      mstore\n      dup3\n      add\n      mstore\n      0x12\n      0x24\n      dup3\n      add\n      mstore\n      0x4661696c656420746f2073656e6420424e420000000000000000000000000000\n      0x44\n      dup3\n      add\n      mstore\n      revert\n    tag_183:\n      0x24\n      dup7\n      0x41\n      dup6\n      mul(0x4e487b71, exp(0x02, 0xe0))\n      dup4\n      mstore\n      mstore\n      revert\n    tag_181:\n      jump(tag_186)\n    tag_98:\n      dup3\n      dup5\n      jumpi(tag_112, callvalue)\n      dup2\n      add(calldatasize, not(0x03))\n      slt\n      tag_112\n      jumpi\n      0x20\n      swap1\n      0xff\n        /* \"SwishFishToken.sol\":599:631  bool public salesEnabled = false */\n      0x0d\n        /* \"SwishFishToken.sol\":348:15793  contract SwishFish is ERC20, Ownable {... */\n      sload\n      and\n      swap1\n      mload\n      swap1\n      iszero\n      iszero\n      dup2\n      mstore\n      return\n    tag_96:\n      dup3\n      dup5\n      jumpi(tag_112, callvalue)\n      dup2\n      add(calldatasize, not(0x03))\n      slt\n      tag_112\n      jumpi\n      0x20\n      swap1\n        /* \"SwishFishToken.sol\":2315:2349  uint256 public taxFeeHeisenDev = 2 */\n      0x1a\n        /* \"SwishFishToken.sol\":348:15793  contract SwishFish is ERC20, Ownable {... */\n      sload\n      swap1\n      mload\n      swap1\n      dup2\n      mstore\n      return\n    tag_94:\n      dup3\n      dup5\n      jumpi(tag_112, callvalue)\n      dup2\n      add(calldatasize, not(0x03))\n      slt\n      tag_112\n      jumpi\n      0x20\n      swap1\n        /* \"SwishFishToken.sol\":2397:2426  uint256 public taxFeeTeam = 3 */\n      0x1c\n        /* \"SwishFishToken.sol\":348:15793  contract SwishFish is ERC20, Ownable {... */\n      sload\n      swap1\n      mload\n      swap1\n      dup2\n      mstore\n      return\n    tag_92:\n      dup3\n      dup5\n      jumpi(tag_112, callvalue)\n      dup1\n      add(calldatasize, not(0x03))\n      slt\n      tag_112\n      jumpi\n      0x20\n      swap1\n        /* \"contracts/ERC20.sol\":4039:4045  amount */\n      tag_205\n        /* \"SwishFishToken.sol\":348:15793  contract SwishFish is ERC20, Ownable {... */\n      tag_206\n      tag_3\n      jump\t// in\n    tag_206:\n      calldataload(0x24)\n        /* \"utils/Context.sol\":736:746  msg.sender */\n      swap1\n      caller\n        /* \"contracts/ERC20.sol\":4039:4045  amount */\n      tag_18\n      jump\t// in\n    tag_205:\n        /* \"SwishFishToken.sol\":348:15793  contract SwishFish is ERC20, Ownable {... */\n      mload\n      0x01\n      dup2\n      mstore\n      return\n    tag_90:\n      dup3\n      dup5\n      dup2\n      add(calldatasize, not(0x03))\n      slt\n      tag_112\n      jumpi\n        /* \"SwishFishToken.sol\":5178:5210  balanceOf(address(this)).mul(10) */\n      tag_209\n        /* \"SwishFishToken.sol\":5260:5269  msg.value */\n      tag_210\n        /* \"SwishFishToken.sol\":348:15793  contract SwishFish is ERC20, Ownable {... */\n      swap2\n        /* \"SwishFishToken.sol\":5095:5141  require(salesEnabled, \"Presale isn't enabled\") */\n      tag_211\n        /* \"SwishFishToken.sol\":348:15793  contract SwishFish is ERC20, Ownable {... */\n      0xff\n        /* \"SwishFishToken.sol\":5103:5115  salesEnabled */\n      0x0d\n        /* \"SwishFishToken.sol\":348:15793  contract SwishFish is ERC20, Ownable {... */\n      sload\n      and\n        /* \"SwishFishToken.sol\":5095:5141  require(salesEnabled, \"Presale isn't enabled\") */\n      tag_5\n      jump\t// in\n    tag_211:\n        /* \"SwishFishToken.sol\":5196:5200  this */\n      address\n        /* \"SwishFishToken.sol\":348:15793  contract SwishFish is ERC20, Ownable {... */\n      dup5\n      mstore\n      dup4\n      0x20\n      mstore\n      dup4\n      keccak256\n      sload\n        /* \"SwishFishToken.sol\":5178:5210  balanceOf(address(this)).mul(10) */\n      tag_27\n      jump\t// in\n    tag_209:\n        /* \"SwishFishToken.sol\":348:15793  contract SwishFish is ERC20, Ownable {... */\n      tag_212\n      tag_29\n      jump\t// in\n    tag_212:\n      pop\n        /* \"SwishFishToken.sol\":5215:5218  100 */\n      0x64\n        /* \"SwishFishToken.sol\":5260:5269  msg.value */\n      callvalue\n        /* \"SwishFishToken.sol\":348:15793  contract SwishFish is ERC20, Ownable {... */\n      swap2\n      div\n        /* \"SwishFishToken.sol\":5260:5269  msg.value */\n      tag_10\n      jump\t// in\n    tag_210:\n        /* \"SwishFishToken.sol\":5286:5294  BuyEgg() */\n      0x6cd8c20496fa31dba3f83c7adca278c356a6caa5529741a5d2b9b774613c198b\n      dup2\n      dup1\n      log1\n        /* \"SwishFishToken.sol\":348:15793  contract SwishFish is ERC20, Ownable {... */\n      dup1\n      return\n    tag_88:\n      swap2\n      swap1\n      pop\n      jumpi(tag_137, callvalue)\n      dup3\n      add(calldatasize, not(0x03))\n      slt\n      tag_137\n      jumpi\n      tag_217\n      tag_3\n      jump\t// in\n    tag_217:\n      swap2\n      dup4\n      calldataload(0x24)\n        /* \"utils/Context.sol\":736:746  msg.sender */\n      swap3\n      caller\n        /* \"SwishFishToken.sol\":348:15793  contract SwishFish is ERC20, Ownable {... */\n      dup2\n      mstore\n      mstore(0x20, 0x01)\n      dup2\n      dup2\n      keccak256\n      sub(exp(0x02, 0xa0), 0x01)\n      dup7\n      and\n      dup3\n      mstore\n      0x20\n      mstore\n      keccak256\n      sload\n        /* \"contracts/ERC20.sol\":7059:7094  currentAllowance >= subtractedValue */\n      swap1\n      dup3\n      dup3\n      lt\n        /* \"SwishFishToken.sol\":348:15793  contract SwishFish is ERC20, Ownable {... */\n      tag_218\n      jumpi\n      0x20\n      dup6\n        /* \"contracts/ERC20.sol\":7189:7226  currentAllowance.sub(subtractedValue) */\n      tag_205\n        /* \"SwishFishToken.sol\":348:15793  contract SwishFish is ERC20, Ownable {... */\n      dup7\n        /* \"libraries/SafeMath.sol\":1548:1553  a - b */\n      tag_221\n        /* \"SwishFishToken.sol\":348:15793  contract SwishFish is ERC20, Ownable {... */\n      dup8\n      dup8\n        /* \"libraries/SafeMath.sol\":1496:1525  require(b <= a, errorMessage) */\n      tag_222\n        /* \"SwishFishToken.sol\":348:15793  contract SwishFish is ERC20, Ownable {... */\n      tag_223\n      tag_22\n      jump\t// in\n    tag_223:\n        /* \"libraries/SafeMath.sol\":1504:1510  b <= a */\n      dup3\n      dup5\n      gt\n      iszero\n        /* \"libraries/SafeMath.sol\":1496:1525  require(b <= a, errorMessage) */\n      tag_23\n      jump\t// in\n    tag_222:\n        /* \"libraries/SafeMath.sol\":1548:1553  a - b */\n      tag_12\n      jump\t// in\n    tag_221:\n        /* \"utils/Context.sol\":736:746  msg.sender */\n      swap1\n      caller\n        /* \"contracts/ERC20.sol\":7189:7226  currentAllowance.sub(subtractedValue) */\n      tag_20\n      jump\t// in\n        /* \"SwishFishToken.sol\":348:15793  contract SwishFish is ERC20, Ownable {... */\n    tag_218:\n      0x84\n      swap1\n      0x20\n      dup7\n      mload\n      swap2\n      mul(0x461bcd, exp(0x02, 0xe5))\n      dup4\n      mstore\n      dup3\n      add\n      mstore\n      0x25\n      0x24\n      dup3\n      add\n      mstore\n      0x45524332303a2064656372656173656420616c6c6f77616e63652062656c6f77\n      0x44\n      dup3\n      add\n      mstore\n      0x207a65726f000000000000000000000000000000000000000000000000000000\n      0x64\n      dup3\n      add\n      mstore\n      revert\n    tag_86:\n      swap1\n      pop\n      dup3\n      jumpi(tag_121, callvalue)\n      0x20\n      dup1\n      add(calldatasize, not(0x03))\n      slt\n      tag_127\n      jumpi\n      dup3\n      calldataload\n        /* \"utils/Context.sol\":736:746  msg.sender */\n      swap3\n      caller\n        /* \"SwishFishToken.sol\":348:15793  contract SwishFish is ERC20, Ownable {... */\n      dup6\n      mstore\n        /* \"access/Ownable.sol\":1789:1796  isOwner */\n      0x0a\n        /* \"SwishFishToken.sol\":348:15793  contract SwishFish is ERC20, Ownable {... */\n      dup3\n      mstore\n        /* \"access/Ownable.sol\":1781:1847  require(isOwner[_msgSender()],  \"Ownable: caller is not an owner\") */\n      tag_228\n        /* \"SwishFishToken.sol\":348:15793  contract SwishFish is ERC20, Ownable {... */\n      0xff\n      dup5\n      dup8\n      keccak256\n      sload\n      and\n        /* \"access/Ownable.sol\":1781:1847  require(isOwner[_msgSender()],  \"Ownable: caller is not an owner\") */\n      tag_6\n      jump\t// in\n    tag_228:\n        /* \"utils/MultiSignature.sol\":1074:1162  require(_proposalId < proposals.length, \"MultiSignatureWallet: proposal does not exist\") */\n      tag_229\n        /* \"utils/MultiSignature.sol\":1096:1105  proposals */\n      0x05\n        /* \"SwishFishToken.sol\":348:15793  contract SwishFish is ERC20, Ownable {... */\n      sload\n        /* \"utils/MultiSignature.sol\":1082:1112  _proposalId < proposals.length */\n      dup6\n      lt\n        /* \"utils/MultiSignature.sol\":1074:1162  require(_proposalId < proposals.length, \"MultiSignatureWallet: proposal does not exist\") */\n      tag_13\n      jump\t// in\n    tag_229:\n        /* \"SwishFishToken.sol\":348:15793  contract SwishFish is ERC20, Ownable {... */\n      dup4\n      dup6\n      mstore\n        /* \"utils/MultiSignature.sol\":1257:1273  proposalApproved */\n      0x06\n        /* \"SwishFishToken.sol\":348:15793  contract SwishFish is ERC20, Ownable {... */\n      dup3\n      mstore\n      dup3\n      dup6\n      keccak256\n        /* \"utils/Context.sol\":736:746  msg.sender */\n      caller\n        /* \"SwishFishToken.sol\":348:15793  contract SwishFish is ERC20, Ownable {... */\n      dup7\n      mstore\n      dup3\n      mstore\n      0xff\n      dup4\n      dup7\n      keccak256\n      sload\n      and\n      tag_230\n      jumpi\n        /* \"utils/MultiSignature.sol\":1458:1480  proposals[_proposalId] */\n      pop\n        /* \"utils/MultiSignature.sol\":1449:1545  require(!proposals[_proposalId].executed, \"MultiSignatureWallet: proposal was already executed\") */\n      tag_232\n        /* \"SwishFishToken.sol\":348:15793  contract SwishFish is ERC20, Ownable {... */\n      0xff\n      exp(0x02, 0xa0)\n        /* \"utils/MultiSignature.sol\":1458:1480  proposals[_proposalId] */\n      tag_233\n      dup7\n      tag_1\n      jump\t// in\n    tag_233:\n        /* \"SwishFishToken.sol\":348:15793  contract SwishFish is ERC20, Ownable {... */\n      pop\n      sload\n      div\n      and\n        /* \"utils/MultiSignature.sol\":1457:1489  !proposals[_proposalId].executed */\n      iszero\n        /* \"utils/MultiSignature.sol\":1449:1545  require(!proposals[_proposalId].executed, \"MultiSignatureWallet: proposal was already executed\") */\n      tag_14\n      jump\t// in\n    tag_232:\n        /* \"SwishFishToken.sol\":348:15793  contract SwishFish is ERC20, Ownable {... */\n      dup3\n      dup5\n      mstore\n        /* \"utils/MultiSignature.sol\":1257:1273  proposalApproved */\n      0x06\n        /* \"SwishFishToken.sol\":348:15793  contract SwishFish is ERC20, Ownable {... */\n      dup2\n      mstore\n      dup2\n      dup5\n      keccak256\n        /* \"utils/Context.sol\":736:746  msg.sender */\n      swap1\n      caller\n        /* \"SwishFishToken.sol\":348:15793  contract SwishFish is ERC20, Ownable {... */\n      dup6\n      mstore\n      mstore\n      dup3\n      keccak256\n      0x01\n      not(0xff)\n      dup3\n      sload\n      and\n      or\n      swap1\n      sstore\n        /* \"utils/Context.sol\":736:746  msg.sender */\n      caller\n        /* \"SwishFishToken.sol\":14077:14119  ApproveProposal(_msgSender(), _proposalId) */\n      0x12c8d6025943157cbcb4e904b3e3d97d2ac7eae9f61f343b2e7cb23be24bdbb7\n      dup4\n      dup1\n      log3\n        /* \"SwishFishToken.sol\":348:15793  contract SwishFish is ERC20, Ownable {... */\n      dup1\n      return\n    tag_230:\n      swap1\n      0x84\n      swap3\n      mload\n      swap2\n      mul(0x461bcd, exp(0x02, 0xe5))\n      dup4\n      mstore\n      dup3\n      add\n      mstore\n      0x3c\n      0x24\n      dup3\n      add\n      mstore\n      0x4d756c74695369676e617475726557616c6c65743a2070726f706f73616c2061\n      0x44\n      dup3\n      add\n      mstore\n      0x6c72656164792077617320617070726f766564206279206f776e657200000000\n      0x64\n      dup3\n      add\n      mstore\n      revert\n    tag_84:\n      swap1\n      pop\n      dup3\n      jumpi(tag_121, callvalue)\n      dup3\n      add(calldatasize, not(0x03))\n      slt\n      tag_121\n      jumpi\n      dup1\n      mload\n      swap2\n      dup4\n      dup2\n      sload\n      swap2\n      0x02\n      dup4\n      div\n      swap2\n      0x01\n      swap2\n      dup3\n      dup6\n      and\n      swap5\n      dup6\n      iszero\n      tag_238\n      jumpi\n    tag_239:\n      0x20\n      swap6\n      dup7\n      dup7\n      lt\n      dup2\n      eq\n      tag_240\n      jumpi\n      dup6\n      dup10\n      mstore\n      swap1\n      dup2\n      iszero\n      tag_242\n      jumpi\n      pop\n      0x01\n      eq\n      tag_244\n      jumpi\n    tag_245:\n      tag_246\n      dup8\n      dup8\n      tag_247\n      dup3\n      dup13\n      sub\n      dup4\n      tag_9\n      jump\t// in\n    tag_247:\n      mload\n      swap2\n      dup3\n      swap2\n      dup3\n      tag_2\n      jump\t// in\n    tag_246:\n      sub\n      swap1\n      return\n    tag_244:\n      dup2\n      mstore\n      swap3\n      swap6\n      pop\n      0x8a35acfbc15ff81a39ae7d344fd709f28e8600b4aa8c65c6b64bfe7fe36bd19b\n    tag_248:\n      dup3\n      dup5\n      lt\n      tag_249\n      jumpi\n      pop\n      pop\n      pop\n      dup3\n      tag_246\n      swap5\n      tag_247\n      swap3\n      dup3\n      add\n      add\n      swap5\n      dup7\n      dup1\n      jump(tag_245)\n    tag_249:\n      dup1\n      sload\n      dup7\n      dup6\n      add\n      dup9\n      add\n      mstore\n      swap3\n      dup7\n      add\n      swap3\n      dup2\n      add\n      jump(tag_248)\n    tag_242:\n      not(0xff)\n      and\n      dup9\n      dup8\n      add\n      mstore\n      pop\n      pop\n      pop\n      pop\n      iszero\n      iszero\n      dup2\n      mul\n      dup4\n      add\n      add\n      swap3\n      pop\n      tag_247\n      dup3\n      tag_246\n      dup7\n      dup1\n      jump(tag_245)\n    tag_240:\n      0x24\n      dup5\n      0x22\n      dup6\n      mul(0x4e487b71, exp(0x02, 0xe0))\n      dup4\n      mstore\n      mstore\n      revert\n    tag_238:\n      swap4\n      0x7f\n      and\n      swap4\n      jump(tag_239)\n    tag_82:\n      dup3\n      dup5\n      jumpi(tag_112, callvalue)\n      dup2\n      add(calldatasize, not(0x03))\n      slt\n      tag_112\n      jumpi\n      0x20\n      swap1\n        /* \"SwishFishToken.sol\":2433:2467  uint256 public taxFeeLiquidity = 2 */\n      0x1d\n        /* \"SwishFishToken.sol\":348:15793  contract SwishFish is ERC20, Ownable {... */\n      sload\n      swap1\n      mload\n      swap1\n      dup2\n      mstore\n      return\n    tag_80:\n      dup3\n      dup5\n      jumpi(tag_112, callvalue)\n      dup2\n      add(calldatasize, not(0x03))\n      slt\n      tag_112\n      jumpi\n      0x20\n      swap1\n      sub(exp(0x02, 0xa0), 0x01)\n        /* \"access/Ownable.sol\":1367:1373  _owner */\n      0x08\n        /* \"SwishFishToken.sol\":348:15793  contract SwishFish is ERC20, Ownable {... */\n      sload\n      and\n      swap1\n      mload\n      swap1\n      dup2\n      mstore\n      return\n    tag_78:\n      swap1\n      pop\n      dup3\n      jumpi(tag_121, callvalue)\n      0x20\n      dup1\n      add(calldatasize, not(0x03))\n      slt\n      tag_127\n      jumpi\n      dup3\n      calldataload\n        /* \"utils/Context.sol\":736:746  msg.sender */\n      swap3\n      caller\n        /* \"SwishFishToken.sol\":348:15793  contract SwishFish is ERC20, Ownable {... */\n      dup6\n      mstore\n        /* \"access/Ownable.sol\":1789:1796  isOwner */\n      0x0a\n        /* \"SwishFishToken.sol\":348:15793  contract SwishFish is ERC20, Ownable {... */\n      dup3\n      mstore\n        /* \"access/Ownable.sol\":1781:1847  require(isOwner[_msgSender()],  \"Ownable: caller is not an owner\") */\n      tag_263\n        /* \"SwishFishToken.sol\":348:15793  contract SwishFish is ERC20, Ownable {... */\n      0xff\n      dup5\n      dup8\n      keccak256\n      sload\n      and\n        /* \"access/Ownable.sol\":1781:1847  require(isOwner[_msgSender()],  \"Ownable: caller is not an owner\") */\n      tag_6\n      jump\t// in\n    tag_263:\n        /* \"utils/MultiSignature.sol\":1074:1162  require(_proposalId < proposals.length, \"MultiSignatureWallet: proposal does not exist\") */\n      tag_264\n        /* \"utils/MultiSignature.sol\":1096:1105  proposals */\n      0x05\n        /* \"SwishFishToken.sol\":348:15793  contract SwishFish is ERC20, Ownable {... */\n      sload\n        /* \"utils/MultiSignature.sol\":1082:1112  _proposalId < proposals.length */\n      dup6\n      lt\n        /* \"utils/MultiSignature.sol\":1074:1162  require(_proposalId < proposals.length, \"MultiSignatureWallet: proposal does not exist\") */\n      tag_13\n      jump\t// in\n    tag_264:\n        /* \"utils/MultiSignature.sol\":1449:1545  require(!proposals[_proposalId].executed, \"MultiSignatureWallet: proposal was already executed\") */\n      tag_265\n        /* \"SwishFishToken.sol\":348:15793  contract SwishFish is ERC20, Ownable {... */\n      0xff\n      exp(0x02, 0xa0)\n        /* \"utils/MultiSignature.sol\":1458:1480  proposals[_proposalId] */\n      tag_233\n      dup8\n      tag_1\n      jump\t// in\n        /* \"utils/MultiSignature.sol\":1449:1545  require(!proposals[_proposalId].executed, \"MultiSignatureWallet: proposal was already executed\") */\n    tag_265:\n        /* \"SwishFishToken.sol\":348:15793  contract SwishFish is ERC20, Ownable {... */\n      dup4\n      dup6\n      mstore\n        /* \"SwishFishToken.sol\":15569:15585  proposalApproved */\n      0x06\n        /* \"SwishFishToken.sol\":348:15793  contract SwishFish is ERC20, Ownable {... */\n      dup3\n      mstore\n      dup3\n      dup6\n      keccak256\n        /* \"utils/Context.sol\":736:746  msg.sender */\n      caller\n        /* \"SwishFishToken.sol\":348:15793  contract SwishFish is ERC20, Ownable {... */\n      dup7\n      mstore\n      dup3\n      mstore\n      0xff\n      dup4\n      dup7\n      keccak256\n      sload\n      and\n      iszero\n      tag_267\n      jumpi\n      pop\n      dup3\n      dup5\n      mstore\n        /* \"SwishFishToken.sol\":15569:15585  proposalApproved */\n      0x06\n        /* \"SwishFishToken.sol\":348:15793  contract SwishFish is ERC20, Ownable {... */\n      dup2\n      mstore\n      dup2\n      dup5\n      keccak256\n        /* \"utils/Context.sol\":736:746  msg.sender */\n      swap1\n      caller\n        /* \"SwishFishToken.sol\":348:15793  contract SwishFish is ERC20, Ownable {... */\n      dup6\n      mstore\n      mstore\n      dup3\n      keccak256\n      not(0xff)\n      dup2\n      sload\n      and\n      swap1\n      sstore\n        /* \"utils/Context.sol\":736:746  msg.sender */\n      caller\n        /* \"SwishFishToken.sol\":15741:15782  RevokeProposal(_msgSender(), _proposalId) */\n      0xb8b1cbdd07c030bed9e01f4ee5465e3a3fd2aa8f7135c84467c0f3cf203925eb\n      dup4\n      dup1\n      log3\n        /* \"SwishFishToken.sol\":348:15793  contract SwishFish is ERC20, Ownable {... */\n      dup1\n      return\n    tag_267:\n      swap1\n      0x84\n      swap3\n      mload\n      swap2\n      mul(0x461bcd, exp(0x02, 0xe5))\n      dup4\n      mstore\n      dup3\n      add\n      mstore\n      0x2e\n      0x24\n      dup3\n      add\n      mstore\n      0x4d756c74695369676e617475726557616c6c65743a2050726f706f73616c2069\n      0x44\n      dup3\n      add\n      mstore\n      0x73206e6f7420617070726f766564000000000000000000000000000000000000\n      0x64\n      dup3\n      add\n      mstore\n      revert\n    tag_76:\n      swap1\n      pop\n      dup3\n      jumpi(tag_121, callvalue)\n      jumpi(tag_121, slt(add(not(0x03), calldatasize), 0x60))\n      tag_273\n      tag_3\n      jump\t// in\n    tag_273:\n      swap1\n      0x24\n      dup1\n      calldataload\n      swap4\n      0x44\n      swap1\n      dup2\n      calldataload\n      swap1\n      sub(exp(0x02, 0xa0), 0x01)\n      swap3\n      dup4\n        /* \"access/Ownable.sol\":1642:1650  _backend */\n      0x07\n        /* \"SwishFishToken.sol\":348:15793  contract SwishFish is ERC20, Ownable {... */\n      sload\n      and\n        /* \"utils/Context.sol\":736:746  msg.sender */\n      swap5\n      caller\n        /* \"access/Ownable.sol\":2000:2025  backend() == _msgSender() */\n      dup7\n      sub\n        /* \"SwishFishToken.sol\":348:15793  contract SwishFish is ERC20, Ownable {... */\n      tag_274\n      jumpi\n        /* \"access/Ownable.sol\":2075:2076  _ */\n      dup5\n      dup10\n        /* \"SwishFishToken.sol\":348:15793  contract SwishFish is ERC20, Ownable {... */\n      swap9\n      and\n      swap5\n      dup6\n      dup12\n      mstore\n      0x20\n      swap7\n        /* \"access/Ownable.sol\":2237:2244  isOwner */\n      0x0a\n        /* \"SwishFishToken.sol\":348:15793  contract SwishFish is ERC20, Ownable {... */\n      dup9\n      mstore\n      0xff\n      dup10\n      dup14\n      keccak256\n      sload\n      and\n      tag_276\n      jumpi\n        /* \"SwishFishToken.sol\":9322:9337  to != backend() */\n      dup7\n      eq\n        /* \"SwishFishToken.sol\":348:15793  contract SwishFish is ERC20, Ownable {... */\n      tag_278\n      jumpi\n      dup1\n        /* \"SwishFishToken.sol\":9397:9413  addressHeisenDev */\n      0x17\n        /* \"SwishFishToken.sol\":348:15793  contract SwishFish is ERC20, Ownable {... */\n      sload\n      and\n        /* \"SwishFishToken.sol\":9391:9413  to != addressHeisenDev */\n      dup7\n      eq\n        /* \"SwishFishToken.sol\":348:15793  contract SwishFish is ERC20, Ownable {... */\n      tag_280\n      jumpi\n      dup1\n        /* \"SwishFishToken.sol\":9472:9488  addressMarketing */\n      0x18\n        /* \"SwishFishToken.sol\":348:15793  contract SwishFish is ERC20, Ownable {... */\n      sload\n      and\n        /* \"SwishFishToken.sol\":9466:9488  to != addressMarketing */\n      dup7\n      eq\n        /* \"SwishFishToken.sol\":348:15793  contract SwishFish is ERC20, Ownable {... */\n      tag_282\n      jumpi\n        /* \"SwishFishToken.sol\":9547:9558  addressTeam */\n      0x19\n        /* \"SwishFishToken.sol\":348:15793  contract SwishFish is ERC20, Ownable {... */\n      sload\n      and\n        /* \"SwishFishToken.sol\":9541:9558  to != addressTeam */\n      dup6\n      eq\n        /* \"SwishFishToken.sol\":348:15793  contract SwishFish is ERC20, Ownable {... */\n      tag_284\n      jumpi\n        /* \"SwishFishToken.sol\":9616:9618  75 */\n      0x4b\n        /* \"SwishFishToken.sol\":9609:9618  fee <= 75 */\n      dup5\n      gt\n        /* \"SwishFishToken.sol\":348:15793  contract SwishFish is ERC20, Ownable {... */\n      tag_286\n      jumpi\n      dup5\n      dup11\n      mstore\n        /* \"SwishFishToken.sol\":9667:9687  _authorizedWithdraws */\n      0x0e\n        /* \"SwishFishToken.sol\":348:15793  contract SwishFish is ERC20, Ownable {... */\n      dup7\n      mstore\n      dup7\n      dup11\n      keccak256\n      sload\n      tag_288\n      jumpi\n        /* \"SwishFishToken.sol\":9758:9787  _maxTransactionWithdrawAmount */\n      0x16\n        /* \"SwishFishToken.sol\":348:15793  contract SwishFish is ERC20, Ownable {... */\n      sload\n        /* \"SwishFishToken.sol\":9748:9787  amount <= _maxTransactionWithdrawAmount */\n      dup10\n      gt\n        /* \"SwishFishToken.sol\":348:15793  contract SwishFish is ERC20, Ownable {... */\n      tag_290\n      jumpi\n        /* \"SwishFishToken.sol\":9881:9896  amount.mul(fee) */\n      pop\n      pop\n      pop\n      tag_292\n        /* \"SwishFishToken.sol\":9901:9904  100 */\n      0x64\n        /* \"SwishFishToken.sol\":9881:9896  amount.mul(fee) */\n      swap2\n      dup8\n      tag_28\n      jump\t// in\n    tag_292:\n        /* \"SwishFishToken.sol\":348:15793  contract SwishFish is ERC20, Ownable {... */\n      tag_293\n      tag_29\n      jump\t// in\n    tag_293:\n      pop\n      div\n      swap5\n        /* \"SwishFishToken.sol\":9937:9952  taxFeeHeisenDev */\n      0x1a\n        /* \"SwishFishToken.sol\":348:15793  contract SwishFish is ERC20, Ownable {... */\n      sload\n      swap1\n        /* \"SwishFishToken.sol\":9955:9970  taxFeeMarketing */\n      0x1b\n        /* \"SwishFishToken.sol\":348:15793  contract SwishFish is ERC20, Ownable {... */\n      sload\n        /* \"SwishFishToken.sol\":9937:9970  taxFeeHeisenDev + taxFeeMarketing */\n      tag_294\n      dup2\n      dup5\n      tag_7\n      jump\t// in\n    tag_294:\n        /* \"SwishFishToken.sol\":348:15793  contract SwishFish is ERC20, Ownable {... */\n      swap3\n        /* \"SwishFishToken.sol\":9937:9983  taxFeeHeisenDev + taxFeeMarketing + taxFeeTeam */\n      tag_295\n        /* \"SwishFishToken.sol\":9973:9983  taxFeeTeam */\n      0x1c\n        /* \"SwishFishToken.sol\":348:15793  contract SwishFish is ERC20, Ownable {... */\n      sload\n        /* \"SwishFishToken.sol\":9937:9983  taxFeeHeisenDev + taxFeeMarketing + taxFeeTeam */\n      dup1\n      swap6\n      tag_7\n      jump\t// in\n    tag_295:\n        /* \"SwishFishToken.sol\":9998:10013  totalTaxes == 0 */\n      swap1\n      dup2\n      tag_296\n      jumpi\n        /* \"SwishFishToken.sol\":348:15793  contract SwishFish is ERC20, Ownable {... */\n      pop\n      pop\n      pop\n      pop\n      pop\n        /* \"SwishFishToken.sol\":10047:10076  _poolHeisenDev.add(amountFee) */\n      tag_298\n        /* \"SwishFishToken.sol\":9667:9687  _authorizedWithdraws */\n      0x0e\n        /* \"SwishFishToken.sol\":348:15793  contract SwishFish is ERC20, Ownable {... */\n      swap4\n      swap5\n      swap6\n        /* \"SwishFishToken.sol\":10047:10061  _poolHeisenDev */\n      0x1e\n        /* \"SwishFishToken.sol\":348:15793  contract SwishFish is ERC20, Ownable {... */\n      sload\n        /* \"SwishFishToken.sol\":10047:10076  _poolHeisenDev.add(amountFee) */\n      tag_21\n      jump\t// in\n    tag_298:\n        /* \"SwishFishToken.sol\":10047:10061  _poolHeisenDev */\n      0x1e\n        /* \"SwishFishToken.sol\":348:15793  contract SwishFish is ERC20, Ownable {... */\n      sstore\n        /* \"SwishFishToken.sol\":9994:10964  if (totalTaxes == 0) {... */\n    tag_299:\n        /* \"SwishFishToken.sol\":348:15793  contract SwishFish is ERC20, Ownable {... */\n      dup6\n      mstore\n      mstore\n      dup3\n      keccak256\n      sstore\n      dup1\n      return\n        /* \"SwishFishToken.sol\":9994:10964  if (totalTaxes == 0) {... */\n    tag_296:\n        /* \"SwishFishToken.sol\":10151:10175  taxFeeHeisenDev.mul(100) */\n      tag_300\n      swap2\n      swap3\n      swap5\n      swap10\n      swap4\n      swap6\n      swap8\n      swap9\n      pop\n      tag_26\n      jump\t// in\n    tag_300:\n        /* \"SwishFishToken.sol\":348:15793  contract SwishFish is ERC20, Ownable {... */\n      dup2\n      tag_301\n      tag_29\n      jump\t// in\n    tag_301:\n      pop\n        /* \"libraries/SafeMath.sol\":3573:3578  a / b */\n      tag_302\n      swap2\n      tag_24\n      jump\t// in\n    tag_302:\n        /* \"SwishFishToken.sol\":10239:10263  taxFeeMarketing.mul(100) */\n      swap3\n      tag_303\n      swap1\n      tag_26\n      jump\t// in\n    tag_303:\n        /* \"SwishFishToken.sol\":348:15793  contract SwishFish is ERC20, Ownable {... */\n      dup2\n      tag_304\n      tag_29\n      jump\t// in\n    tag_304:\n      pop\n        /* \"libraries/SafeMath.sol\":3573:3578  a / b */\n      tag_305\n      swap2\n      tag_24\n      jump\t// in\n    tag_305:\n        /* \"SwishFishToken.sol\":10322:10341  taxFeeTeam.mul(100) */\n      swap8\n      tag_306\n      swap1\n      tag_26\n      jump\t// in\n    tag_306:\n        /* \"SwishFishToken.sol\":348:15793  contract SwishFish is ERC20, Ownable {... */\n      swap1\n      tag_307\n      tag_29\n      jump\t// in\n    tag_307:\n      pop\n        /* \"libraries/SafeMath.sol\":3573:3578  a / b */\n      tag_308\n      swap2\n      tag_24\n      jump\t// in\n    tag_308:\n        /* \"SwishFishToken.sol\":10400:10437  amountFee.mul(currentTaxFeeHeisenDev) */\n      swap2\n      tag_309\n      swap1\n      dup3\n      tag_28\n      jump\t// in\n    tag_309:\n        /* \"SwishFishToken.sol\":348:15793  contract SwishFish is ERC20, Ownable {... */\n      tag_310\n      tag_29\n      jump\t// in\n    tag_310:\n      pop\n        /* \"SwishFishToken.sol\":9901:9904  100 */\n      0x64\n        /* \"SwishFishToken.sol\":348:15793  contract SwishFish is ERC20, Ownable {... */\n      swap1\n      div\n        /* \"SwishFishToken.sol\":10487:10524  amountFee.mul(currentTaxFeeMarketing) */\n      swap7\n      tag_311\n      swap1\n      dup3\n      tag_28\n      jump\t// in\n    tag_311:\n        /* \"SwishFishToken.sol\":348:15793  contract SwishFish is ERC20, Ownable {... */\n      tag_312\n      tag_29\n      jump\t// in\n    tag_312:\n      pop\n        /* \"SwishFishToken.sol\":9901:9904  100 */\n      0x64\n        /* \"SwishFishToken.sol\":348:15793  contract SwishFish is ERC20, Ownable {... */\n      swap1\n      div\n        /* \"SwishFishToken.sol\":10569:10601  amountFee.mul(currentTaxFeeTeam) */\n      swap2\n      tag_313\n      swap2\n      tag_28\n      jump\t// in\n    tag_313:\n        /* \"SwishFishToken.sol\":348:15793  contract SwishFish is ERC20, Ownable {... */\n      tag_314\n      tag_29\n      jump\t// in\n    tag_314:\n      pop\n        /* \"SwishFishToken.sol\":9901:9904  100 */\n      0x64\n        /* \"SwishFishToken.sol\":348:15793  contract SwishFish is ERC20, Ownable {... */\n      swap1\n      div\n      swap2\n      dup7\n      tag_315\n      tag_22\n      jump\t// in\n    tag_315:\n        /* \"libraries/SafeMath.sol\":1496:1525  require(b <= a, errorMessage) */\n      tag_316\n      swap1\n        /* \"libraries/SafeMath.sol\":1504:1510  b <= a */\n      dup4\n      dup4\n      gt\n      iszero\n        /* \"libraries/SafeMath.sol\":1496:1525  require(b <= a, errorMessage) */\n      tag_23\n      jump\t// in\n    tag_316:\n        /* \"libraries/SafeMath.sol\":1548:1553  a - b */\n      tag_317\n      swap2\n      tag_12\n      jump\t// in\n    tag_317:\n        /* \"SwishFishToken.sol\":348:15793  contract SwishFish is ERC20, Ownable {... */\n      dup2\n      tag_318\n      tag_22\n      jump\t// in\n    tag_318:\n        /* \"libraries/SafeMath.sol\":1496:1525  require(b <= a, errorMessage) */\n      tag_319\n      swap1\n        /* \"libraries/SafeMath.sol\":1504:1510  b <= a */\n      dup4\n      dup4\n      gt\n      iszero\n        /* \"libraries/SafeMath.sol\":1496:1525  require(b <= a, errorMessage) */\n      tag_23\n      jump\t// in\n    tag_319:\n        /* \"libraries/SafeMath.sol\":1548:1553  a - b */\n      tag_320\n      swap2\n      tag_12\n      jump\t// in\n    tag_320:\n        /* \"SwishFishToken.sol\":348:15793  contract SwishFish is ERC20, Ownable {... */\n      dup3\n      tag_321\n      tag_22\n      jump\t// in\n    tag_321:\n        /* \"libraries/SafeMath.sol\":1496:1525  require(b <= a, errorMessage) */\n      tag_322\n      swap1\n        /* \"libraries/SafeMath.sol\":1504:1510  b <= a */\n      dup4\n      dup4\n      gt\n      iszero\n        /* \"libraries/SafeMath.sol\":1496:1525  require(b <= a, errorMessage) */\n      tag_23\n      jump\t// in\n    tag_322:\n        /* \"libraries/SafeMath.sol\":1548:1553  a - b */\n      tag_323\n      swap2\n      tag_12\n      jump\t// in\n    tag_323:\n        /* \"SwishFishToken.sol\":348:15793  contract SwishFish is ERC20, Ownable {... */\n      swap6\n        /* \"SwishFishToken.sol\":10796:10810  _poolHeisenDev */\n      0x1e\n        /* \"SwishFishToken.sol\":348:15793  contract SwishFish is ERC20, Ownable {... */\n      sload\n        /* \"SwishFishToken.sol\":10796:10833  _poolHeisenDev.add(heisenVerseAmount) */\n      swap1\n      tag_324\n      swap2\n      tag_21\n      jump\t// in\n    tag_324:\n        /* \"SwishFishToken.sol\":10796:10810  _poolHeisenDev */\n      0x1e\n        /* \"SwishFishToken.sol\":348:15793  contract SwishFish is ERC20, Ownable {... */\n      sstore\n        /* \"SwishFishToken.sol\":10865:10879  _poolMarketing */\n      0x1f\n        /* \"SwishFishToken.sol\":348:15793  contract SwishFish is ERC20, Ownable {... */\n      sload\n        /* \"SwishFishToken.sol\":10865:10900  _poolMarketing.add(marketingAmount) */\n      swap1\n      tag_325\n      swap2\n      tag_21\n      jump\t// in\n    tag_325:\n        /* \"SwishFishToken.sol\":10865:10879  _poolMarketing */\n      0x1f\n        /* \"SwishFishToken.sol\":348:15793  contract SwishFish is ERC20, Ownable {... */\n      sstore\n      dup2\n      sload\n        /* \"SwishFishToken.sol\":10927:10952  _poolTeam.add(teamAmount) */\n      swap1\n      tag_326\n      swap2\n      tag_21\n      jump\t// in\n    tag_326:\n        /* \"SwishFishToken.sol\":348:15793  contract SwishFish is ERC20, Ownable {... */\n      dup2\n      sstore\n        /* \"SwishFishToken.sol\":9667:9687  _authorizedWithdraws */\n      0x0e\n        /* \"SwishFishToken.sol\":9994:10964  if (totalTaxes == 0) {... */\n      swap2\n      jump(tag_299)\n        /* \"SwishFishToken.sol\":348:15793  contract SwishFish is ERC20, Ownable {... */\n    tag_290:\n      0x84\n      swap3\n      swap2\n      0x38\n      0x416d6f756e742063616e2774206578636565647320746865206d617820747261\n      swap3\n      dup9\n      dup11\n      mload\n      swap6\n      mul(0x461bcd, exp(0x02, 0xe5))\n      dup8\n      mstore\n      dup7\n      add\n      mstore\n      dup5\n      add\n      mstore\n      dup3\n      add\n      mstore\n      0x6e73616374696f6e20776974686472617720616d6f756e740000000000000000\n      0x64\n      dup3\n      add\n      mstore\n      revert\n    tag_288:\n      0x64\n      swap3\n      swap2\n      0x1c\n      0x55736572206861732070656e64696e67205769746864726177616c7300000000\n      swap3\n      dup9\n      dup11\n      mload\n      swap6\n      mul(0x461bcd, exp(0x02, 0xe5))\n      dup8\n      mstore\n      dup7\n      add\n      mstore\n      dup5\n      add\n      mstore\n      dup3\n      add\n      mstore\n      revert\n    tag_286:\n      0x64\n      swap3\n      swap2\n        /* \"SwishFishToken.sol\":9547:9558  addressTeam */\n      0x19\n        /* \"SwishFishToken.sol\":348:15793  contract SwishFish is ERC20, Ownable {... */\n      0x546865206665652063616e6e6f74206578636565642037352500000000000000\n      swap3\n      dup9\n      dup11\n      mload\n      swap6\n      mul(0x461bcd, exp(0x02, 0xe5))\n      dup8\n      mstore\n      dup7\n      add\n      mstore\n      dup5\n      add\n      mstore\n      dup3\n      add\n      mstore\n      revert\n    tag_284:\n      0x64\n      swap3\n      swap2\n      0x1b\n      0x5465616d2063616e2774206d616b65207769746864726177616c730000000000\n      swap3\n      dup9\n      dup11\n      mload\n      swap6\n      mul(0x461bcd, exp(0x02, 0xe5))\n      dup8\n      mstore\n      dup7\n      add\n      mstore\n      dup5\n      add\n      mstore\n      dup3\n      add\n      mstore\n      revert\n    tag_282:\n      0x64\n      dup5\n      0x536b796c65722063616e2774206d616b65207769746864726177616c73000000\n      dup6\n      0x1d\n      dup7\n      dup13\n      dup15\n      mload\n      swap6\n      mul(0x461bcd, exp(0x02, 0xe5))\n      dup8\n      mstore\n      dup7\n      add\n      mstore\n      dup5\n      add\n      mstore\n      dup3\n      add\n      mstore\n      revert\n    tag_280:\n      0x64\n      dup5\n      0x48656973656e2063616e2774206d616b65207769746864726177616c73000000\n      dup6\n      0x1d\n      dup7\n      dup13\n      dup15\n      mload\n      swap6\n      mul(0x461bcd, exp(0x02, 0xe5))\n      dup8\n      mstore\n      dup7\n      add\n      mstore\n      dup5\n      add\n      mstore\n      dup3\n      add\n      mstore\n      revert\n    tag_278:\n      0x64\n      dup5\n      0x4261636b656e642063616e2774206d616b65207769746864726177616c730000\n      dup6\n      0x1e\n      dup7\n      dup13\n      dup15\n      mload\n      swap6\n      mul(0x461bcd, exp(0x02, 0xe5))\n      dup8\n      mstore\n      dup7\n      add\n      mstore\n      dup5\n      add\n      mstore\n      dup3\n      add\n      mstore\n      revert\n    tag_276:\n      0x64\n      dup6\n      0x4f776e6572732063616e2774206d616b65207769746864726177616c73000000\n      dup7\n      0x1d\n      dup8\n      dup14\n      dup16\n      mload\n      swap6\n      mul(0x461bcd, exp(0x02, 0xe5))\n      dup8\n      mstore\n      dup7\n      add\n      mstore\n      dup5\n      add\n      mstore\n      dup3\n      add\n      mstore\n      revert\n    tag_274:\n      0x84\n      swap3\n      swap2\n      0x22\n      0x4f776e61626c653a2063616c6c6572206973206e6f7420746865206261636b65\n      swap3\n      0x20\n      dup11\n      mload\n      swap6\n      mul(0x461bcd, exp(0x02, 0xe5))\n      dup8\n      mstore\n      dup7\n      add\n      mstore\n      dup5\n      add\n      mstore\n      dup3\n      add\n      mstore\n      0x6e64000000000000000000000000000000000000000000000000000000000000\n      0x64\n      dup3\n      add\n      mstore\n      revert\n    tag_74:\n      dup3\n      dup5\n      jumpi(tag_112, callvalue)\n      dup2\n      add(calldatasize, not(0x03))\n      slt\n      tag_112\n      jumpi\n      0x20\n      swap1\n        /* \"SwishFishToken.sol\":2356:2390  uint256 public taxFeeMarketing = 3 */\n      0x1b\n        /* \"SwishFishToken.sol\":348:15793  contract SwishFish is ERC20, Ownable {... */\n      sload\n      swap1\n      mload\n      swap1\n      dup2\n      mstore\n      return\n    tag_72:\n      dup3\n      dup5\n      jumpi(tag_112, callvalue)\n      dup2\n      add(calldatasize, not(0x03))\n      slt\n      tag_112\n      jumpi\n      0x20\n      swap1\n      sub(exp(0x02, 0xa0), 0x01)\n        /* \"SwishFishToken.sol\":1647:1740  address payable public addressHeisenDev = payable(0xEDa73409d4bBD147f4E1295A73a2Ca243a529338) */\n      0x17\n        /* \"SwishFishToken.sol\":348:15793  contract SwishFish is ERC20, Ownable {... */\n      sload\n      and\n      swap1\n      mload\n      swap1\n      dup2\n      mstore\n      return\n    tag_70:\n      dup3\n      dup5\n      jumpi(tag_112, callvalue)\n      dup2\n      add(calldatasize, not(0x03))\n      slt\n      tag_112\n      jumpi\n      0x20\n      swap1\n        /* \"SwishFishToken.sol\":1021:1060  uint public withdrawPrice = 0.005 ether */\n      0x13\n        /* \"SwishFishToken.sol\":348:15793  contract SwishFish is ERC20, Ownable {... */\n      sload\n      swap1\n      mload\n      swap1\n      dup2\n      mstore\n      return\n    tag_68:\n      dup3\n      dup5\n      jumpi(tag_112, callvalue)\n      jumpi(tag_112, slt(add(not(0x03), calldatasize), 0x20))\n      dup1\n      0x20\n      swap3\n      sub(exp(0x02, 0xa0), 0x01)\n      tag_343\n      tag_3\n      jump\t// in\n    tag_343:\n      and\n      dup2\n      mstore\n      dup1\n      dup5\n      mstore\n      keccak256\n      sload\n      swap1\n      mload\n      swap1\n      dup2\n      mstore\n      return\n    tag_66:\n      dup3\n      dup5\n      jumpi(tag_112, callvalue)\n      dup2\n      add(calldatasize, not(0x03))\n      slt\n      tag_112\n      jumpi\n      0x20\n      swap1\n      sub(exp(0x02, 0xa0), 0x01)\n        /* \"SwishFishToken.sol\":1847:1935  address payable public addressTeam = payable(0x63024aC73FE77427F20e8247FA26F470C0D9700B) */\n      0x19\n        /* \"SwishFishToken.sol\":348:15793  contract SwishFish is ERC20, Ownable {... */\n      sload\n      and\n      swap1\n      mload\n      swap1\n      dup2\n      mstore\n      return\n    tag_64:\n      dup3\n      dup5\n      jumpi(tag_112, callvalue)\n      dup2\n      add(calldatasize, not(0x03))\n      slt\n      tag_112\n      jumpi\n        /* \"SwishFishToken.sol\":2697:2725  uint256 public _poolTeam = 0 */\n      0x20\n        /* \"SwishFishToken.sol\":348:15793  contract SwishFish is ERC20, Ownable {... */\n      swap1\n      dup2\n      sload\n      swap1\n      mload\n      swap1\n      dup2\n      mstore\n      return\n    tag_62:\n      swap1\n      pop\n      dup2\n      add(calldatasize, not(0x03))\n      slt\n      tag_112\n      jumpi\n        /* \"utils/Context.sol\":736:746  msg.sender */\n      caller\n        /* \"SwishFishToken.sol\":348:15793  contract SwishFish is ERC20, Ownable {... */\n      dup3\n      mstore\n      0x20\n      swap1\n        /* \"SwishFishToken.sol\":11273:11295  _accountWithdrawalLast */\n      0x11\n        /* \"SwishFishToken.sol\":348:15793  contract SwishFish is ERC20, Ownable {... */\n      dup3\n      mstore\n      dup4\n      dup4\n      keccak256\n      sload\n        /* \"SwishFishToken.sol\":11309:11314  86400 */\n      0x015180\n        /* \"SwishFishToken.sol\":348:15793  contract SwishFish is ERC20, Ownable {... */\n      dup2\n      add\n      swap1\n      dup2\n      dup2\n      gt\n      tag_360\n      jumpi\n        /* \"libraries/SafeMath.sol\":601:607  c >= a */\n      dup2\n      lt\n        /* \"SwishFishToken.sol\":348:15793  contract SwishFish is ERC20, Ownable {... */\n      tag_362\n      jumpi\n        /* \"SwishFishToken.sol\":11255:11270  block.timestamp */\n      timestamp\n        /* \"SwishFishToken.sol\":11255:11315  block.timestamp > _accountWithdrawalLast[account].add(86400) */\n      gt\n        /* \"SwishFishToken.sol\":11251:11444  if (block.timestamp > _accountWithdrawalLast[account].add(86400)) {... */\n      tag_358\n      jumpi\n        /* \"SwishFishToken.sol\":348:15793  contract SwishFish is ERC20, Ownable {... */\n    tag_359:\n        /* \"utils/Context.sol\":736:746  msg.sender */\n      caller\n        /* \"SwishFishToken.sol\":348:15793  contract SwishFish is ERC20, Ownable {... */\n      dup4\n      mstore\n        /* \"SwishFishToken.sol\":11489:11512  _accountWithdrawalCount */\n      0x12\n        /* \"SwishFishToken.sol\":348:15793  contract SwishFish is ERC20, Ownable {... */\n      dup3\n      mstore\n      dup4\n      dup4\n      keccak256\n      sload\n        /* \"SwishFishToken.sol\":11526:11527  1 */\n      0x01\n        /* \"SwishFishToken.sol\":348:15793  contract SwishFish is ERC20, Ownable {... */\n      dup2\n      add\n      swap1\n      dup2\n      dup2\n      gt\n      tag_360\n      jumpi\n        /* \"libraries/SafeMath.sol\":601:607  c >= a */\n      dup2\n      lt\n        /* \"SwishFishToken.sol\":348:15793  contract SwishFish is ERC20, Ownable {... */\n      tag_362\n      jumpi\n        /* \"utils/Context.sol\":736:746  msg.sender */\n      caller\n        /* \"SwishFishToken.sol\":348:15793  contract SwishFish is ERC20, Ownable {... */\n      dup5\n      mstore\n        /* \"SwishFishToken.sol\":11489:11512  _accountWithdrawalCount */\n      0x12\n        /* \"SwishFishToken.sol\":348:15793  contract SwishFish is ERC20, Ownable {... */\n      dup4\n      mstore\n      dup5\n      dup5\n      keccak256\n      sstore\n      dup4\n      dup4\n      keccak256\n      sload\n        /* \"SwishFishToken.sol\":11583:11602  _maxWithdrawalCount */\n      0x15\n        /* \"SwishFishToken.sol\":348:15793  contract SwishFish is ERC20, Ownable {... */\n      sload\n      lt\n      tag_364\n      jumpi\n        /* \"SwishFishToken.sol\":11802:11815  withdrawPrice */\n      0x13\n        /* \"SwishFishToken.sol\":348:15793  contract SwishFish is ERC20, Ownable {... */\n      sload\n        /* \"SwishFishToken.sol\":11788:11797  msg.value */\n      callvalue\n        /* \"SwishFishToken.sol\":11788:11816  msg.value >= (withdrawPrice) */\n      lt\n        /* \"SwishFishToken.sol\":348:15793  contract SwishFish is ERC20, Ownable {... */\n      tag_366\n      jumpi\n        /* \"utils/Context.sol\":736:746  msg.sender */\n      pop\n        /* \"SwishFishToken.sol\":12079:12095  Withdraw(amount) */\n      0x5b6b431d4476a211bb7d41c20d1aab9ae2321deee0d20be3d9fc9b1093fa6e3d\n        /* \"utils/Context.sol\":736:746  msg.sender */\n      swap2\n      swap3\n      caller\n        /* \"SwishFishToken.sol\":348:15793  contract SwishFish is ERC20, Ownable {... */\n      dup5\n      mstore\n        /* \"SwishFishToken.sol\":11917:11937  _authorizedWithdraws */\n      0x0e\n        /* \"SwishFishToken.sol\":348:15793  contract SwishFish is ERC20, Ownable {... */\n      dup3\n      mstore\n      dup1\n      dup5\n      keccak256\n      sload\n        /* \"utils/Context.sol\":736:746  msg.sender */\n      swap1\n        /* \"SwishFishToken.sol\":12007:12013  amount */\n      tag_368\n        /* \"utils/Context.sol\":736:746  msg.sender */\n      dup3\n      caller\n        /* \"SwishFishToken.sol\":11986:11990  this */\n      address\n        /* \"SwishFishToken.sol\":12007:12013  amount */\n      tag_19\n      jump\t// in\n    tag_368:\n        /* \"utils/Context.sol\":736:746  msg.sender */\n      caller\n        /* \"SwishFishToken.sol\":348:15793  contract SwishFish is ERC20, Ownable {... */\n      dup6\n      mstore\n        /* \"SwishFishToken.sol\":11917:11937  _authorizedWithdraws */\n      0x0e\n        /* \"SwishFishToken.sol\":348:15793  contract SwishFish is ERC20, Ownable {... */\n      dup4\n      mstore\n      dup5\n      dup2\n      dup2\n      keccak256\n      sstore\n      mload\n      swap1\n      dup2\n      mstore\n        /* \"SwishFishToken.sol\":12079:12095  Withdraw(amount) */\n      log1\n        /* \"SwishFishToken.sol\":348:15793  contract SwishFish is ERC20, Ownable {... */\n      dup1\n      return\n    tag_366:\n      0xa4\n      swap2\n      dup5\n      mload\n      swap2\n      mul(0x461bcd, exp(0x02, 0xe5))\n      dup4\n      mstore\n      dup3\n      add\n      mstore\n      0x44\n      0x24\n      dup3\n      add\n      mstore\n      0x54686520616d6f756e742073656e74206973206e6f7420657175616c20746f20\n      0x44\n      dup3\n      add\n      mstore\n      0x74686520424e4220616d6f756e7420726571756972656420666f722077697468\n      0x64\n      dup3\n      add\n      mstore\n      0x6472617700000000000000000000000000000000000000000000000000000000\n      0x84\n      dup3\n      add\n      mstore\n      revert\n    tag_364:\n      0x84\n      swap2\n      dup5\n      mload\n      swap2\n      mul(0x461bcd, exp(0x02, 0xe5))\n      dup4\n      mstore\n      dup3\n      add\n      mstore\n      0x30\n      0x24\n      dup3\n      add\n      mstore\n      0x596f752063616e6e6f74206d616b65206d6f7265207468616e206f6e65207769\n      0x44\n      dup3\n      add\n      mstore\n      0x746864726177616c207065722064617900000000000000000000000000000000\n      0x64\n      dup3\n      add\n      mstore\n      revert\n    tag_362:\n      pop\n      0x64\n      swap2\n      dup5\n      mload\n      swap2\n      mul(0x461bcd, exp(0x02, 0xe5))\n      dup4\n      mstore\n      dup3\n      add\n      mstore\n      0x1b\n      0x24\n      dup3\n      add\n      mstore\n      0x536166654d6174683a206164646974696f6e206f766572666c6f770000000000\n      0x44\n      dup3\n      add\n      mstore\n      revert\n    tag_360:\n      0x24\n      dup6\n        /* \"SwishFishToken.sol\":11273:11295  _accountWithdrawalLast */\n      0x11\n        /* \"SwishFishToken.sol\":348:15793  contract SwishFish is ERC20, Ownable {... */\n      dup6\n      mul(0x4e487b71, exp(0x02, 0xe0))\n      dup4\n      mstore\n      mstore\n      revert\n        /* \"SwishFishToken.sol\":11251:11444  if (block.timestamp > _accountWithdrawalLast[account].add(86400)) {... */\n    tag_358:\n        /* \"utils/Context.sol\":736:746  msg.sender */\n      caller\n        /* \"SwishFishToken.sol\":348:15793  contract SwishFish is ERC20, Ownable {... */\n      dup4\n      mstore\n        /* \"SwishFishToken.sol\":11273:11295  _accountWithdrawalLast */\n      0x11\n        /* \"SwishFishToken.sol\":348:15793  contract SwishFish is ERC20, Ownable {... */\n      dup3\n      mstore\n        /* \"SwishFishToken.sol\":11255:11270  block.timestamp */\n      timestamp\n        /* \"SwishFishToken.sol\":348:15793  contract SwishFish is ERC20, Ownable {... */\n      dup5\n      dup5\n      keccak256\n      sstore\n        /* \"SwishFishToken.sol\":11396:11419  _accountWithdrawalCount */\n      0x12\n        /* \"SwishFishToken.sol\":348:15793  contract SwishFish is ERC20, Ownable {... */\n      dup3\n      mstore\n      dup3\n      dup5\n      dup2\n      keccak256\n      sstore\n        /* \"SwishFishToken.sol\":11251:11444  if (block.timestamp > _accountWithdrawalLast[account].add(86400)) {... */\n      jump(tag_359)\n        /* \"SwishFishToken.sol\":348:15793  contract SwishFish is ERC20, Ownable {... */\n    tag_60:\n      dup3\n      dup5\n      jumpi(tag_112, callvalue)\n      dup1\n      add(calldatasize, not(0x03))\n      slt\n      tag_112\n      jumpi\n        /* \"contracts/ERC20.sol\":6264:6305  allowance(owner, spender).add(addedValue) */\n      tag_205\n        /* \"SwishFishToken.sol\":348:15793  contract SwishFish is ERC20, Ownable {... */\n      0x20\n      swap3\n        /* \"contracts/ERC20.sol\":6264:6305  allowance(owner, spender).add(addedValue) */\n      tag_221\n        /* \"SwishFishToken.sol\":348:15793  contract SwishFish is ERC20, Ownable {... */\n      tag_375\n      tag_3\n      jump\t// in\n    tag_375:\n        /* \"utils/Context.sol\":736:746  msg.sender */\n      swap2\n      caller\n        /* \"SwishFishToken.sol\":348:15793  contract SwishFish is ERC20, Ownable {... */\n      dup2\n      mstore\n      0x01\n      dup7\n      mstore\n      dup5\n      dup2\n      keccak256\n      sub(exp(0x02, 0xa0), 0x01)\n      dup5\n      and\n      dup3\n      mstore\n      dup7\n      mstore\n      dup5\n      calldataload(0x24)\n      swap2\n      keccak256\n      sload\n        /* \"contracts/ERC20.sol\":6264:6305  allowance(owner, spender).add(addedValue) */\n      tag_21\n      jump\t// in\n        /* \"SwishFishToken.sol\":348:15793  contract SwishFish is ERC20, Ownable {... */\n    tag_58:\n      dup3\n      dup5\n      jumpi(tag_112, callvalue)\n      dup2\n      add(calldatasize, not(0x03))\n      slt\n      tag_112\n      jumpi\n      0x20\n      swap1\n        /* \"SwishFishToken.sol\":2617:2650  uint256 public _poolHeisenDev = 0 */\n      0x1e\n        /* \"SwishFishToken.sol\":348:15793  contract SwishFish is ERC20, Ownable {... */\n      sload\n      swap1\n      mload\n      swap1\n      dup2\n      mstore\n      return\n    tag_56:\n      dup3\n      dup5\n      jumpi(tag_112, callvalue)\n      dup2\n      add(calldatasize, not(0x03))\n      slt\n      tag_112\n      jumpi\n      0x20\n      swap1\n      mload\n        /* \"contracts/ERC20.sol\":3304:3306  18 */\n      0x12\n        /* \"SwishFishToken.sol\":348:15793  contract SwishFish is ERC20, Ownable {... */\n      dup2\n      mstore\n      return\n    tag_54:\n      dup3\n      dup5\n      jumpi(tag_112, callvalue)\n      dup2\n      add(calldatasize, not(0x03))\n      slt\n      tag_112\n      jumpi\n      0x20\n      swap1\n        /* \"SwishFishToken.sol\":2732:2765  uint256 public _poolLiquidity = 0 */\n      0x21\n        /* \"SwishFishToken.sol\":348:15793  contract SwishFish is ERC20, Ownable {... */\n      sload\n      swap1\n      mload\n      swap1\n      dup2\n      mstore\n      return\n    tag_52:\n      swap1\n      pop\n      jumpi(tag_112, callvalue)\n      jumpi(tag_112, slt(add(not(0x03), calldatasize), 0x60))\n      tag_392\n      tag_3\n      jump\t// in\n    tag_392:\n      tag_393\n      tag_4\n      jump\t// in\n    tag_393:\n      swap2\n      dup5\n      calldataload(0x44)\n      swap5\n      sub(exp(0x02, 0xa0), 0x01)\n      dup5\n      and\n      dup2\n      mstore\n      mstore(0x20, 0x01)\n      dup2\n      dup2\n      keccak256\n        /* \"utils/Context.sol\":736:746  msg.sender */\n      caller\n        /* \"SwishFishToken.sol\":348:15793  contract SwishFish is ERC20, Ownable {... */\n      dup3\n      mstore\n      0x20\n      mstore\n      keccak256\n      sload\n      swap1\n      not(0x00)\n        /* \"contracts/ERC20.sol\":11767:11804  currentAllowance != type(uint256).max */\n      dup3\n      sub\n        /* \"contracts/ERC20.sol\":11763:12002  if (currentAllowance != type(uint256).max) {... */\n      tag_394\n      jumpi\n        /* \"SwishFishToken.sol\":348:15793  contract SwishFish is ERC20, Ownable {... */\n    tag_395:\n      0x20\n        /* \"contracts/ERC20.sol\":5649:5655  amount */\n      dup7\n      tag_205\n      dup8\n      dup8\n      dup8\n      tag_18\n      jump\t// in\n        /* \"contracts/ERC20.sol\":11763:12002  if (currentAllowance != type(uint256).max) {... */\n    tag_394:\n        /* \"contracts/ERC20.sol\":11829:11855  currentAllowance >= amount */\n      dup5\n      dup3\n      lt\n        /* \"SwishFishToken.sol\":348:15793  contract SwishFish is ERC20, Ownable {... */\n      tag_397\n      jumpi\n      pop\n      swap2\n      dup4\n      swap2\n        /* \"contracts/ERC20.sol\":11950:11978  currentAllowance.sub(amount) */\n      tag_399\n        /* \"libraries/SafeMath.sol\":1548:1553  a - b */\n      tag_400\n        /* \"SwishFishToken.sol\":348:15793  contract SwishFish is ERC20, Ownable {... */\n      0x20\n      swap8\n      swap7\n        /* \"contracts/ERC20.sol\":5649:5655  amount */\n      tag_205\n        /* \"SwishFishToken.sol\":348:15793  contract SwishFish is ERC20, Ownable {... */\n      swap7\n        /* \"libraries/SafeMath.sol\":1496:1525  require(b <= a, errorMessage) */\n      tag_222\n        /* \"SwishFishToken.sol\":348:15793  contract SwishFish is ERC20, Ownable {... */\n      tag_223\n      tag_22\n      jump\t// in\n        /* \"libraries/SafeMath.sol\":1548:1553  a - b */\n    tag_400:\n        /* \"utils/Context.sol\":736:746  msg.sender */\n      caller\n        /* \"contracts/ERC20.sol\":11950:11978  currentAllowance.sub(amount) */\n      dup4\n      tag_20\n      jump\t// in\n    tag_399:\n        /* \"contracts/ERC20.sol\":11763:12002  if (currentAllowance != type(uint256).max) {... */\n      swap2\n      swap4\n      swap5\n      dup2\n      swap4\n      pop\n      jump(tag_395)\n        /* \"SwishFishToken.sol\":348:15793  contract SwishFish is ERC20, Ownable {... */\n    tag_397:\n      0x64\n      swap1\n      0x20\n      dup8\n      mload\n      swap2\n      mul(0x461bcd, exp(0x02, 0xe5))\n      dup4\n      mstore\n      dup3\n      add\n      mstore\n      0x1d\n      0x24\n      dup3\n      add\n      mstore\n      0x45524332303a20696e73756666696369656e7420616c6c6f77616e6365000000\n      0x44\n      dup3\n      add\n      mstore\n      revert\n    tag_50:\n      dup3\n      dup5\n      jumpi(tag_112, callvalue)\n      dup2\n      add(calldatasize, not(0x03))\n      slt\n      tag_112\n      jumpi\n      0x20\n      swap1\n        /* \"SwishFishToken.sol\":2657:2690  uint256 public _poolMarketing = 0 */\n      0x1f\n        /* \"SwishFishToken.sol\":348:15793  contract SwishFish is ERC20, Ownable {... */\n      sload\n      swap1\n      mload\n      swap1\n      dup2\n      mstore\n      return\n    tag_48:\n      dup3\n      dup5\n      jumpi(tag_112, callvalue)\n      dup2\n      add(calldatasize, not(0x03))\n      slt\n      tag_112\n      jumpi\n      0x20\n      swap1\n        /* \"contracts/ERC20.sol\":3467:3479  _totalSupply */\n      0x02\n        /* \"SwishFishToken.sol\":348:15793  contract SwishFish is ERC20, Ownable {... */\n      sload\n      swap1\n      mload\n      swap1\n      dup2\n      mstore\n      return\n    tag_46:\n      dup3\n      dup5\n      jumpi(tag_112, callvalue)\n      dup2\n      add(calldatasize, not(0x03))\n      slt\n      tag_112\n      jumpi\n      0x20\n      swap1\n      sub(exp(0x02, 0xa0), 0x01)\n        /* \"SwishFishToken.sol\":425:466  IUniswapV2Router02 public uniswapV2Router */\n      0x0b\n        /* \"SwishFishToken.sol\":348:15793  contract SwishFish is ERC20, Ownable {... */\n      sload\n      and\n      swap1\n      mload\n      swap1\n      dup2\n      mstore\n      return\n    tag_44:\n      dup4\n      swap2\n      pop\n      jumpi(tag_121, callvalue)\n      0x20\n      dup1\n      add(calldatasize, not(0x03))\n      slt\n      tag_127\n      jumpi\n      dup2\n      calldataload\n        /* \"utils/MultiSignature.sol\":1074:1162  require(_proposalId < proposals.length, \"MultiSignatureWallet: proposal does not exist\") */\n      tag_419\n        /* \"utils/MultiSignature.sol\":1096:1105  proposals */\n      0x05\n        /* \"SwishFishToken.sol\":348:15793  contract SwishFish is ERC20, Ownable {... */\n      sload\n        /* \"utils/MultiSignature.sol\":1082:1112  _proposalId < proposals.length */\n      dup3\n      lt\n        /* \"utils/MultiSignature.sol\":1074:1162  require(_proposalId < proposals.length, \"MultiSignatureWallet: proposal does not exist\") */\n      tag_13\n      jump\t// in\n    tag_419:\n        /* \"utils/MultiSignature.sol\":1458:1480  proposals[_proposalId] */\n      tag_420\n      dup2\n      tag_1\n      jump\t// in\n    tag_420:\n        /* \"SwishFishToken.sol\":348:15793  contract SwishFish is ERC20, Ownable {... */\n      pop\n      0xff\n      swap2\n        /* \"utils/MultiSignature.sol\":1449:1545  require(!proposals[_proposalId].executed, \"MultiSignatureWallet: proposal was already executed\") */\n      tag_421\n        /* \"SwishFishToken.sol\":348:15793  contract SwishFish is ERC20, Ownable {... */\n      dup4\n      exp(0x02, 0xa0)\n      dup1\n      swap5\n      sload\n      div\n      and\n        /* \"utils/MultiSignature.sol\":1457:1489  !proposals[_proposalId].executed */\n      iszero\n        /* \"utils/MultiSignature.sol\":1449:1545  require(!proposals[_proposalId].executed, \"MultiSignatureWallet: proposal was already executed\") */\n      tag_14\n      jump\t// in\n    tag_421:\n        /* \"access/Ownable.sol\":1470:1477  _owners */\n      0x09\n        /* \"SwishFishToken.sol\":348:15793  contract SwishFish is ERC20, Ownable {... */\n      sload\n        /* \"SwishFishToken.sol\":14222:14239  uint256 count = 0 */\n      dup8\n      dup1\n        /* \"SwishFishToken.sol\":14263:14290  i < requiredConfirmations() */\n    tag_422:\n      dup3\n      dup2\n      lt\n      tag_423\n      jumpi\n        /* \"SwishFishToken.sol\":14586:14643  _getApprovalCount(_proposalId) >= requiredConfirmations() */\n      pop\n      lt\n        /* \"SwishFishToken.sol\":348:15793  contract SwishFish is ERC20, Ownable {... */\n      tag_425\n      jumpi\n        /* \"SwishFishToken.sol\":14740:14762  proposals[_proposalId] */\n      swap1\n      tag_427\n        /* \"SwishFishToken.sol\":15314:15338  proposal.transferBackend */\n      0x07\n        /* \"SwishFishToken.sol\":14740:14762  proposals[_proposalId] */\n      swap3\n      tag_1\n      jump\t// in\n    tag_427:\n        /* \"SwishFishToken.sol\":348:15793  contract SwishFish is ERC20, Ownable {... */\n      pop\n      swap1\n      not(0xff0000000000000000000000000000000000000000)\n      dup3\n      sload\n      and\n      or\n      dup1\n      dup3\n      sstore\n      dup5\n      dup5\n      dup1\n      0x01000000000000000000000000000000000000000000\n      dup5\n      div\n      and\n        /* \"SwishFishToken.sol\":14808:14907  if (proposal.updateSalesStatus) {... */\n      tag_428\n      jumpi\n        /* \"SwishFishToken.sol\":14250:14416  for (uint i; i < requiredConfirmations(); i++) {... */\n    tag_429:\n        /* \"SwishFishToken.sol\":348:15793  contract SwishFish is ERC20, Ownable {... */\n      swap2\n      pop\n      pop\n      0x010000000000000000000000000000000000000000000000\n      dup3\n      sload\n      div\n      and\n        /* \"SwishFishToken.sol\":14917:14999  if (proposal.swapAndAddLiquidity) {... */\n      tag_430\n      jumpi\n        /* \"SwishFishToken.sol\":14250:14416  for (uint i; i < requiredConfirmations(); i++) {... */\n    tag_431:\n        /* \"SwishFishToken.sol\":348:15793  contract SwishFish is ERC20, Ownable {... */\n      dup3\n      0x01000000000000000000000000000000000000000000000000\n      dup3\n      sload\n      div\n      and\n        /* \"SwishFishToken.sol\":15009:15117  if (proposal.updateWithdrawOptions) {... */\n      tag_432\n      jumpi\n        /* \"SwishFishToken.sol\":14250:14416  for (uint i; i < requiredConfirmations(); i++) {... */\n    tag_433:\n        /* \"SwishFishToken.sol\":15131:15155  proposal.updateTaxesFees */\n      dup3\n      0x02\n      dup3\n      add\n        /* \"SwishFishToken.sol\":348:15793  contract SwishFish is ERC20, Ownable {... */\n      sload\n      and\n        /* \"SwishFishToken.sol\":15127:15300  if (proposal.updateTaxesFees) {... */\n      tag_434\n      jumpi\n        /* \"SwishFishToken.sol\":14250:14416  for (uint i; i < requiredConfirmations(); i++) {... */\n    tag_435:\n        /* \"SwishFishToken.sol\":15314:15338  proposal.transferBackend */\n      add\n        /* \"SwishFishToken.sol\":348:15793  contract SwishFish is ERC20, Ownable {... */\n      sload\n      swap1\n      dup2\n      and\n        /* \"SwishFishToken.sol\":15310:15408  if (proposal.transferBackend) {... */\n      tag_436\n      jumpi\n        /* \"SwishFishToken.sol\":348:15793  contract SwishFish is ERC20, Ownable {... */\n      dup5\n      dup1\n      return\n        /* \"SwishFishToken.sol\":15310:15408  if (proposal.transferBackend) {... */\n    tag_436:\n        /* \"SwishFishToken.sol\":348:15793  contract SwishFish is ERC20, Ownable {... */\n      0x0100\n      sub(exp(0x02, 0xa0), 0x01)\n      swap2\n      div\n      and\n        /* \"access/Ownable.sol\":2663:2687  newBackend != address(0) */\n      swap3\n      dup4\n      iszero\n        /* \"SwishFishToken.sol\":348:15793  contract SwishFish is ERC20, Ownable {... */\n      tag_438\n      jumpi\n      pop\n      pop\n      pop\n      dup1\n      not(sub(exp(0x02, 0xa0), 0x01))\n        /* \"SwishFishToken.sol\":15314:15338  proposal.transferBackend */\n      0x07\n        /* \"SwishFishToken.sol\":348:15793  contract SwishFish is ERC20, Ownable {... */\n      sload\n      and\n      or\n        /* \"SwishFishToken.sol\":15314:15338  proposal.transferBackend */\n      0x07\n        /* \"SwishFishToken.sol\":348:15793  contract SwishFish is ERC20, Ownable {... */\n      sstore\n        /* \"access/Ownable.sol\":2778:2822  OwnershipTransferred(address(0), newBackend) */\n      dup2\n      0x8be0079c531659141344cd1fd0a4f28419497f9722a3daafe3b4186f6b6457e0\n      dup2\n      dup1\n      log3\n        /* \"SwishFishToken.sol\":15310:15408  if (proposal.transferBackend) {... */\n      dup2\n      dup1\n      dup1\n      dup1\n        /* \"SwishFishToken.sol\":348:15793  contract SwishFish is ERC20, Ownable {... */\n      dup5\n      dup1\n      return\n    tag_438:\n      0x84\n      swap4\n      pop\n      mload\n      swap2\n      mul(0x461bcd, exp(0x02, 0xe5))\n      dup4\n      mstore\n      dup3\n      add\n      mstore\n      0x26\n      0x24\n      dup3\n      add\n      mstore\n      0x4f776e61626c653a206e6577206f776e657220697320746865207a65726f2061\n      0x44\n      dup3\n      add\n      mstore\n      0x6464726573730000000000000000000000000000000000000000000000000000\n      0x64\n      dup3\n      add\n      mstore\n      revert\n        /* \"SwishFishToken.sol\":15127:15300  if (proposal.updateTaxesFees) {... */\n    tag_434:\n        /* \"SwishFishToken.sol\":8309:8393  UpdateTaxesFees(_heisenVerseTaxFee, _marketingTaxFee, _teamTaxFee, _liquidityTaxFee) */\n      0xac9d517045a5ec57da9f145e5c349535857baa98b41fa00aea81886b40b65ee9\n        /* \"SwishFishToken.sol\":348:15793  contract SwishFish is ERC20, Ownable {... */\n      0x80\n      0x03\n        /* \"SwishFishToken.sol\":15188:15214  proposal.heisenVerseTaxFee */\n      dup4\n      add\n        /* \"SwishFishToken.sol\":348:15793  contract SwishFish is ERC20, Ownable {... */\n      sload\n        /* \"SwishFishToken.sol\":15216:15240  proposal.marketingTaxFee */\n      dup8\n      dup5\n      add\n        /* \"SwishFishToken.sol\":348:15793  contract SwishFish is ERC20, Ownable {... */\n      sload\n        /* \"utils/MultiSignature.sol\":1096:1105  proposals */\n      0x05\n        /* \"SwishFishToken.sol\":15242:15261  proposal.teamTaxFee */\n      dup6\n      add\n        /* \"SwishFishToken.sol\":348:15793  contract SwishFish is ERC20, Ownable {... */\n      sload\n        /* \"SwishFishToken.sol\":14316:14332  proposalApproved */\n      0x06\n        /* \"SwishFishToken.sol\":15263:15287  proposal.liquidityTaxFee */\n      dup7\n      add\n        /* \"SwishFishToken.sol\":348:15793  contract SwishFish is ERC20, Ownable {... */\n      sload\n      swap2\n      dup4\n        /* \"SwishFishToken.sol\":8132:8168  taxFeeHeisenDev = _heisenVerseTaxFee */\n      0x1a\n        /* \"SwishFishToken.sol\":348:15793  contract SwishFish is ERC20, Ownable {... */\n      sstore\n      dup1\n        /* \"SwishFishToken.sol\":8179:8213  taxFeeMarketing = _marketingTaxFee */\n      0x1b\n        /* \"SwishFishToken.sol\":348:15793  contract SwishFish is ERC20, Ownable {... */\n      sstore\n      dup2\n        /* \"SwishFishToken.sol\":8224:8248  taxFeeTeam = _teamTaxFee */\n      0x1c\n        /* \"SwishFishToken.sol\":348:15793  contract SwishFish is ERC20, Ownable {... */\n      sstore\n      dup3\n        /* \"SwishFishToken.sol\":8259:8293  taxFeeLiquidity = _liquidityTaxFee */\n      0x1d\n        /* \"SwishFishToken.sol\":348:15793  contract SwishFish is ERC20, Ownable {... */\n      sstore\n      dup12\n      mload\n      swap4\n      dup5\n      mstore\n      dup10\n      dup5\n      add\n      mstore\n      dup11\n      dup4\n      add\n      mstore\n      0x60\n      dup3\n      add\n      mstore\n        /* \"SwishFishToken.sol\":8309:8393  UpdateTaxesFees(_heisenVerseTaxFee, _marketingTaxFee, _teamTaxFee, _liquidityTaxFee) */\n      log1\n        /* \"SwishFishToken.sol\":15127:15300  if (proposal.updateTaxesFees) {... */\n      jump(tag_435)\n        /* \"SwishFishToken.sol\":15009:15117  if (proposal.updateWithdrawOptions) {... */\n    tag_432:\n        /* \"SwishFishToken.sol\":8529:8566  UpdateWithdrawOptions(_withdrawPrice) */\n      0x7752c7a6d518ab1cf03b50e7d7fd3da3258eb319dc343789e0a7bed06c43066c\n        /* \"SwishFishToken.sol\":15082:15104  proposal.withdrawPrice */\n      dup5\n        /* \"SwishFishToken.sol\":348:15793  contract SwishFish is ERC20, Ownable {... */\n      0x01\n        /* \"SwishFishToken.sol\":15082:15104  proposal.withdrawPrice */\n      dup4\n      add\n        /* \"SwishFishToken.sol\":348:15793  contract SwishFish is ERC20, Ownable {... */\n      sload\n      dup1\n        /* \"SwishFishToken.sol\":8483:8513  withdrawPrice = _withdrawPrice */\n      0x13\n        /* \"SwishFishToken.sol\":348:15793  contract SwishFish is ERC20, Ownable {... */\n      sstore\n      dup9\n      mload\n      swap1\n      dup2\n      mstore\n        /* \"SwishFishToken.sol\":8529:8566  UpdateWithdrawOptions(_withdrawPrice) */\n      log1\n        /* \"SwishFishToken.sol\":15009:15117  if (proposal.updateWithdrawOptions) {... */\n      jump(tag_433)\n        /* \"SwishFishToken.sol\":14917:14999  if (proposal.swapAndAddLiquidity) {... */\n    tag_430:\n        /* \"SwishFishToken.sol\":7103:7118  contractBalance */\n      tag_440\n        /* \"SwishFishToken.sol\":6928:6932  this */\n      address\n        /* \"SwishFishToken.sol\":6920:6941  address(this).balance */\n      balance\n        /* \"SwishFishToken.sol\":6969:6983  _poolLiquidity */\n      tag_441\n      0x21\n        /* \"SwishFishToken.sol\":348:15793  contract SwishFish is ERC20, Ownable {... */\n      sload\n        /* \"SwishFishToken.sol\":6969:6983  _poolLiquidity */\n      tag_15\n      jump\t// in\n    tag_441:\n        /* \"SwishFishToken.sol\":6928:6932  this */\n      address\n        /* \"SwishFishToken.sol\":348:15793  contract SwishFish is ERC20, Ownable {... */\n      dup10\n      mstore\n      dup9\n      dup7\n      mstore\n        /* \"SwishFishToken.sol\":7058:7061  100 */\n      0x64\n        /* \"SwishFishToken.sol\":7021:7053  balanceOf(address(this)).mul(30) */\n      tag_442\n        /* \"SwishFishToken.sol\":348:15793  contract SwishFish is ERC20, Ownable {... */\n      dup10\n      dup12\n      keccak256\n      sload\n        /* \"SwishFishToken.sol\":7021:7053  balanceOf(address(this)).mul(30) */\n      tag_25\n      jump\t// in\n    tag_442:\n        /* \"SwishFishToken.sol\":348:15793  contract SwishFish is ERC20, Ownable {... */\n      tag_443\n      tag_29\n      jump\t// in\n    tag_443:\n      pop\n      div\n        /* \"SwishFishToken.sol\":7103:7118  contractBalance */\n      tag_10\n      jump\t// in\n    tag_440:\n        /* \"SwishFishToken.sol\":348:15793  contract SwishFish is ERC20, Ownable {... */\n      dup7\n        /* \"SwishFishToken.sol\":6969:6983  _poolLiquidity */\n      0x21\n        /* \"SwishFishToken.sol\":348:15793  contract SwishFish is ERC20, Ownable {... */\n      sstore\n        /* \"SwishFishToken.sol\":14917:14999  if (proposal.swapAndAddLiquidity) {... */\n      jump(tag_431)\n        /* \"SwishFishToken.sol\":14808:14907  if (proposal.updateSalesStatus) {... */\n    tag_428:\n        /* \"SwishFishToken.sol\":348:15793  contract SwishFish is ERC20, Ownable {... */\n      0x0100000000000000000000000000000000000000000000\n        /* \"SwishFishToken.sol\":8692:8717  SalesState(_salesEnabled) */\n      0x01b48326d6e9158a921c6006b9d6ad4b9d777c488e9b7924b3e0c8b0b1304604\n        /* \"SwishFishToken.sol\":348:15793  contract SwishFish is ERC20, Ownable {... */\n      swap4\n      div\n      and\n      iszero\n      iszero\n      not(0xff)\n        /* \"SwishFishToken.sol\":8648:8676  salesEnabled = _salesEnabled */\n      0x0d\n        /* \"SwishFishToken.sol\":348:15793  contract SwishFish is ERC20, Ownable {... */\n      sload\n      and\n      dup7\n      dup3\n      and\n      or\n        /* \"SwishFishToken.sol\":8648:8676  salesEnabled = _salesEnabled */\n      0x0d\n        /* \"SwishFishToken.sol\":348:15793  contract SwishFish is ERC20, Ownable {... */\n      sstore\n      dup9\n      mload\n      swap1\n      dup2\n      mstore\n        /* \"SwishFishToken.sol\":8692:8717  SalesState(_salesEnabled) */\n      log1\n        /* \"SwishFishToken.sol\":14808:14907  if (proposal.updateSalesStatus) {... */\n      dup8\n      dup5\n      dup5\n      jump(tag_429)\n        /* \"SwishFishToken.sol\":348:15793  contract SwishFish is ERC20, Ownable {... */\n    tag_425:\n      pop\n      pop\n      pop\n      0x84\n      swap3\n      mload\n      swap2\n      mul(0x461bcd, exp(0x02, 0xe5))\n      dup4\n      mstore\n      dup3\n      add\n      mstore\n      0x35\n      0x24\n      dup3\n      add\n      mstore\n      0x4d756c74695369676e617475726557616c6c65743a20617070726f76616c7320\n      0x44\n      dup3\n      add\n      mstore\n      0x6973206c657373207468616e2072657175697265640000000000000000000000\n      0x64\n      dup3\n      add\n      mstore\n      revert\n        /* \"SwishFishToken.sol\":14292:14295  i++ */\n    tag_423:\n        /* \"SwishFishToken.sol\":348:15793  contract SwishFish is ERC20, Ownable {... */\n      dup4\n      dup11\n      mstore\n        /* \"SwishFishToken.sol\":14316:14332  proposalApproved */\n      0x06\n        /* \"SwishFishToken.sol\":348:15793  contract SwishFish is ERC20, Ownable {... */\n      dup8\n      mstore\n      dup9\n      dup11\n      keccak256\n      sub(exp(0x02, 0xa0), 0x01)\n      dup3\n      0x6e1540171b6c0c960b71a7020d9f60077f6af931a8bbf590da0223dacf75c7af\n      add\n      sload\n      and\n      dup12\n      mstore\n      dup8\n      mstore\n      dup6\n      dup10\n      dup12\n      keccak256\n      sload\n      and\n        /* \"SwishFishToken.sol\":14312:14405  if (proposalApproved[_proposalId][getOwner(i)]) {... */\n      tag_444\n      jumpi\n        /* \"SwishFishToken.sol\":14292:14295  i++ */\n    tag_445:\n      not(0x00)\n        /* \"SwishFishToken.sol\":348:15793  contract SwishFish is ERC20, Ownable {... */\n      dup2\n      eq\n      tag_446\n      jumpi\n      0x01\n      add\n        /* \"SwishFishToken.sol\":14255:14261  uint i */\n      jump(tag_422)\n        /* \"SwishFishToken.sol\":348:15793  contract SwishFish is ERC20, Ownable {... */\n    tag_446:\n      0x24\n      dup11\n      0x11\n      dup11\n      mul(0x4e487b71, exp(0x02, 0xe0))\n      dup4\n      mstore\n      mstore\n      revert\n        /* \"SwishFishToken.sol\":14312:14405  if (proposalApproved[_proposalId][getOwner(i)]) {... */\n    tag_444:\n        /* \"SwishFishToken.sol\":348:15793  contract SwishFish is ERC20, Ownable {... */\n      swap1\n      0x01\n      dup2\n      add\n      dup1\n      swap2\n      gt\n      tag_446\n      jumpi\n        /* \"SwishFishToken.sol\":14312:14405  if (proposalApproved[_proposalId][getOwner(i)]) {... */\n      swap1\n      jump(tag_445)\n        /* \"SwishFishToken.sol\":348:15793  contract SwishFish is ERC20, Ownable {... */\n    tag_42:\n      dup3\n      dup5\n      jumpi(tag_112, callvalue)\n      dup2\n      add(calldatasize, not(0x03))\n      slt\n      tag_112\n      jumpi\n      0x20\n      swap1\n      sub(exp(0x02, 0xa0), 0x01)\n        /* \"SwishFishToken.sol\":1747:1840  address payable public addressMarketing = payable(0x3c1Cd83D8850803C9c42fF5083F56b66b00FBD61) */\n      0x18\n        /* \"SwishFishToken.sol\":348:15793  contract SwishFish is ERC20, Ownable {... */\n      sload\n      and\n      swap1\n      mload\n      swap1\n      dup2\n      mstore\n      return\n    tag_40:\n      dup3\n      dup5\n      jumpi(tag_112, callvalue)\n      dup1\n      add(calldatasize, not(0x03))\n      slt\n      tag_112\n      jumpi\n      0x20\n      swap1\n        /* \"contracts/ERC20.sol\":4774:4780  amount */\n      tag_205\n        /* \"SwishFishToken.sol\":348:15793  contract SwishFish is ERC20, Ownable {... */\n      tag_459\n      tag_3\n      jump\t// in\n    tag_459:\n      calldataload(0x24)\n        /* \"utils/Context.sol\":736:746  msg.sender */\n      swap1\n      caller\n        /* \"contracts/ERC20.sol\":4774:4780  amount */\n      tag_20\n      jump\t// in\n        /* \"SwishFishToken.sol\":348:15793  contract SwishFish is ERC20, Ownable {... */\n    tag_38:\n      swap1\n      pop\n      dup3\n      jumpi(tag_121, callvalue)\n      dup3\n      add(calldatasize, not(0x03))\n      slt\n      tag_121\n      jumpi\n      dup1\n      mload\n      swap2\n      dup4\n      sload(0x03)\n      0x02\n      dup2\n      div\n      swap2\n      0x01\n      swap2\n      dup3\n      dup2\n      and\n      dup1\n      iszero\n      tag_464\n      jumpi\n    tag_465:\n      0x20\n      swap6\n      dup7\n      dup7\n      lt\n      dup3\n      eq\n      tag_466\n      jumpi\n      pop\n      dup5\n      dup9\n      mstore\n      swap1\n      dup2\n      iszero\n      tag_468\n      jumpi\n      pop\n      0x01\n      eq\n      tag_470\n      jumpi\n    tag_471:\n      tag_246\n      dup7\n      dup7\n      tag_247\n      dup3\n      dup12\n      sub\n      dup4\n      tag_9\n      jump\t// in\n    tag_470:\n      swap3\n      swap6\n      pop\n      0x03\n      dup4\n      mstore\n      0xc2575a0e9e593c00f959f8c92f12db2869c3395a3b0502d05e2516446f71f85b\n    tag_474:\n      dup3\n      dup5\n      lt\n      tag_475\n      jumpi\n      pop\n      pop\n      pop\n      dup3\n      tag_246\n      swap5\n      tag_247\n      swap3\n      dup3\n      add\n      add\n      swap5\n      dup7\n      jump(tag_471)\n    tag_475:\n      dup1\n      sload\n      dup7\n      dup6\n      add\n      dup9\n      add\n      mstore\n      swap3\n      dup7\n      add\n      swap3\n      dup2\n      add\n      jump(tag_474)\n    tag_468:\n      not(0xff)\n      and\n      dup8\n      dup7\n      add\n      mstore\n      pop\n      pop\n      pop\n      iszero\n      iszero\n      dup2\n      mul\n      dup4\n      add\n      add\n      swap3\n      pop\n      tag_247\n      dup3\n      tag_246\n      dup7\n      jump(tag_471)\n    tag_466:\n      dup4\n      0x22\n      0x24\n      swap3\n      mul(0x4e487b71, exp(0x02, 0xe0))\n      dup4\n      mstore\n      mstore\n      revert\n    tag_464:\n      swap4\n      0x7f\n      and\n      swap4\n      jump(tag_465)\n    tag_36:\n      dup5\n      dup5\n      swap3\n      jumpi(tag_127, callvalue)\n      jumpi(tag_127, slt(add(not(0x03), calldatasize), 0x20))\n      calldataload\n        /* \"utils/MultiSignature.sol\":887:914  Proposal[] public proposals */\n      0x05\n        /* \"SwishFishToken.sol\":348:15793  contract SwishFish is ERC20, Ownable {... */\n      sload\n        /* \"utils/MultiSignature.sol\":887:914  Proposal[] public proposals */\n      dup2\n      lt\n      iszero\n      tag_127\n      jumpi\n        /* \"SwishFishToken.sol\":348:15793  contract SwishFish is ERC20, Ownable {... */\n      0x08\n      swap1\n        /* \"utils/MultiSignature.sol\":887:914  Proposal[] public proposals */\n      0x05\n        /* \"SwishFishToken.sol\":348:15793  contract SwishFish is ERC20, Ownable {... */\n      0x01c0\n      swap6\n      mstore\n      mul\n      dup1\n      0x036b6384b5eca791c62761152d0c79bb0604c104a5fb6f4eb0703f3154bb3db0\n      add\n      sload\n        /* \"utils/MultiSignature.sol\":887:914  Proposal[] public proposals */\n      0x036b6384b5eca791c62761152d0c79bb0604c104a5fb6f4eb0703f3154bb3db1\n      dup3\n      add\n        /* \"SwishFishToken.sol\":348:15793  contract SwishFish is ERC20, Ownable {... */\n      sload\n      swap2\n      0xff\n        /* \"utils/MultiSignature.sol\":887:914  Proposal[] public proposals */\n      swap1\n      dup2\n      0x036b6384b5eca791c62761152d0c79bb0604c104a5fb6f4eb0703f3154bb3db2\n      dup3\n      add\n        /* \"SwishFishToken.sol\":348:15793  contract SwishFish is ERC20, Ownable {... */\n      sload\n      and\n        /* \"utils/MultiSignature.sol\":887:914  Proposal[] public proposals */\n      swap4\n      0x036b6384b5eca791c62761152d0c79bb0604c104a5fb6f4eb0703f3154bb3db3\n      dup3\n      add\n        /* \"SwishFishToken.sol\":348:15793  contract SwishFish is ERC20, Ownable {... */\n      sload\n        /* \"utils/MultiSignature.sol\":887:914  Proposal[] public proposals */\n      swap5\n      0x036b6384b5eca791c62761152d0c79bb0604c104a5fb6f4eb0703f3154bb3db4\n      dup4\n      add\n        /* \"SwishFishToken.sol\":348:15793  contract SwishFish is ERC20, Ownable {... */\n      sload\n        /* \"utils/MultiSignature.sol\":887:914  Proposal[] public proposals */\n      swap1\n      0x036b6384b5eca791c62761152d0c79bb0604c104a5fb6f4eb0703f3154bb3db5\n      dup5\n      add\n        /* \"SwishFishToken.sol\":348:15793  contract SwishFish is ERC20, Ownable {... */\n      sload\n        /* \"utils/MultiSignature.sol\":887:914  Proposal[] public proposals */\n      swap3\n      dup6\n        /* \"SwishFishToken.sol\":348:15793  contract SwishFish is ERC20, Ownable {... */\n      0x01000000000000000000000000000000000000000000000000\n        /* \"utils/MultiSignature.sol\":887:914  Proposal[] public proposals */\n      0x036b6384b5eca791c62761152d0c79bb0604c104a5fb6f4eb0703f3154bb3db7\n      0x036b6384b5eca791c62761152d0c79bb0604c104a5fb6f4eb0703f3154bb3db6\n      dup9\n      add\n        /* \"SwishFishToken.sol\":348:15793  contract SwishFish is ERC20, Ownable {... */\n      sload\n        /* \"utils/MultiSignature.sol\":887:914  Proposal[] public proposals */\n      swap8\n      add\n        /* \"SwishFishToken.sol\":348:15793  contract SwishFish is ERC20, Ownable {... */\n      sload\n      swap9\n      dup13\n      sub(exp(0x02, 0xa0), 0x01)\n      swap13\n      dup14\n      dup4\n      and\n      dup3\n      mstore\n      dup5\n      exp(0x02, 0xa0)\n      dup5\n      div\n      and\n      iszero\n      iszero\n      0x20\n      dup4\n      add\n      mstore\n      dup5\n      0x01000000000000000000000000000000000000000000\n      dup5\n      div\n      and\n      iszero\n      iszero\n      swap2\n      add\n      mstore\n      dup13\n      0x60\n      dup5\n      0x0100000000000000000000000000000000000000000000\n      dup5\n      div\n      and\n      iszero\n      iszero\n      swap2\n      add\n      mstore\n      dup13\n      0x80\n      dup5\n      0x010000000000000000000000000000000000000000000000\n      dup5\n      div\n      and\n      iszero\n      iszero\n      swap2\n      add\n      mstore\n      div\n      and\n      iszero\n      iszero\n      0xa0\n      dup12\n      add\n      mstore\n      0xc0\n      dup11\n      add\n      mstore\n      iszero\n      iszero\n      0xe0\n      dup10\n      add\n      mstore\n      0x0100\n      swap6\n      dup7\n      dup10\n      add\n      mstore\n      0x0120\n      dup9\n      add\n      mstore\n      0x0140\n      dup8\n      add\n      mstore\n      0x0160\n      dup7\n      add\n      mstore\n      dup2\n      and\n      iszero\n      iszero\n      0x0180\n      dup6\n      add\n      mstore\n      div\n      and\n      0x01a0\n      dup3\n      add\n      mstore\n      return\n    tag_1:\n        /* \"utils/MultiSignature.sol\":1096:1105  proposals */\n      0x05\n        /* \"SwishFishToken.sol\":348:15793  contract SwishFish is ERC20, Ownable {... */\n      sload\n      dup2\n      lt\n      iszero\n      tag_483\n      jumpi\n      0x08\n      swap1\n        /* \"utils/MultiSignature.sol\":1096:1105  proposals */\n      0x05\n      0x00\n        /* \"SwishFishToken.sol\":348:15793  contract SwishFish is ERC20, Ownable {... */\n      mstore\n      mul\n      0x036b6384b5eca791c62761152d0c79bb0604c104a5fb6f4eb0703f3154bb3db0\n      add\n      swap1\n      0x00\n      swap1\n      jump\t// out\n    tag_483:\n      mstore(0x00, mul(0x4e487b71, exp(0x02, 0xe0)))\n      mstore(0x04, 0x32)\n      revert(0x00, 0x24)\n    tag_2:\n      0x20\n      dup1\n      dup3\n      mstore\n      dup3\n      mload\n      dup2\n      dup4\n      add\n      dup2\n      swap1\n      mstore\n      swap1\n      swap4\n      swap3\n      0x00\n    tag_485:\n      dup3\n      dup2\n      lt\n      tag_486\n      jumpi\n      pop\n      pop\n      0x40\n      swap3\n      swap4\n      pop\n      0x00\n      dup4\n      dup3\n      dup5\n      add\n      add\n      mstore\n      0x1f\n      dup1\n      not\n      swap2\n      add\n      and\n      add\n      add\n      swap1\n      jump\t// out\n    tag_486:\n      dup2\n      dup2\n      add\n      dup7\n      add\n      mload\n      dup5\n      dup3\n      add\n      0x40\n      add\n      mstore\n      dup6\n      add\n      jump(tag_485)\n    tag_3:\n      calldataload(0x04)\n      swap1\n      sub(exp(0x02, 0xa0), 0x01)\n      dup3\n      and\n      dup3\n      sub\n      tag_488\n      jumpi\n      jump\t// out\n    tag_488:\n      0x00\n      dup1\n      revert\n    tag_4:\n      calldataload(0x24)\n      swap1\n      sub(exp(0x02, 0xa0), 0x01)\n      dup3\n      and\n      dup3\n      sub\n      tag_488\n      jumpi\n      jump\t// out\n    tag_5:\n      iszero\n      tag_492\n      jumpi\n      jump\t// out\n    tag_492:\n      0x64\n      mload(0x40)\n      mul(0x461bcd, exp(0x02, 0xe5))\n      dup2\n      mstore\n      0x20\n      0x04\n      dup3\n      add\n      mstore\n      0x15\n      0x24\n      dup3\n      add\n      mstore\n      0x50726573616c652069736e277420656e61626c65640000000000000000000000\n      0x44\n      dup3\n      add\n      mstore\n      revert\n    tag_6:\n      iszero\n      tag_494\n      jumpi\n      jump\t// out\n    tag_494:\n      0x64\n      mload(0x40)\n      mul(0x461bcd, exp(0x02, 0xe5))\n      dup2\n      mstore\n      0x20\n      0x04\n      dup3\n      add\n      mstore\n      0x1f\n      0x24\n      dup3\n      add\n      mstore\n      0x4f776e61626c653a2063616c6c6572206973206e6f7420616e206f776e657200\n      0x44\n      dup3\n      add\n      mstore\n      revert\n    tag_7:\n      swap2\n      swap1\n      dup3\n      add\n      dup1\n      swap3\n      gt\n      tag_496\n      jumpi\n      jump\t// out\n    tag_496:\n      mstore(0x00, mul(0x4e487b71, exp(0x02, 0xe0)))\n      mstore(0x04, 0x11)\n      revert(0x00, 0x24)\n    tag_8:\n      0x40\n      dup2\n      add\n      swap1\n      dup2\n      lt\n      0xffffffffffffffff\n      dup3\n      gt\n      or\n      tag_498\n      jumpi\n      0x40\n      mstore\n      jump\t// out\n    tag_498:\n      mstore(0x00, mul(0x4e487b71, exp(0x02, 0xe0)))\n      mstore(0x04, 0x41)\n      revert(0x00, 0x24)\n    tag_9:\n      swap1\n      0x1f\n      dup1\n      not\n      swap2\n      add\n      and\n      dup2\n      add\n      swap1\n      dup2\n      lt\n      0xffffffffffffffff\n      dup3\n      gt\n      or\n      tag_498\n      jumpi\n      0x40\n      mstore\n      jump\t// out\n        /* \"SwishFishToken.sol\":8733:9135  function addLiquidity(uint256 tokens, uint256 bnb) private {... */\n    tag_10:\n      sub(exp(0x02, 0xa0), 0x01)\n        /* \"SwishFishToken.sol\":348:15793  contract SwishFish is ERC20, Ownable {... */\n      swap1\n      dup2\n        /* \"SwishFishToken.sol\":8835:8850  uniswapV2Router */\n      0x0b\n        /* \"SwishFishToken.sol\":348:15793  contract SwishFish is ERC20, Ownable {... */\n      sload\n      and\n      swap2\n        /* \"SwishFishToken.sol\":8853:8877  balanceOf(address(this)) */\n      tag_502\n      0x00\n        /* \"SwishFishToken.sol\":8820:8824  this */\n      swap4\n      address\n        /* \"SwishFishToken.sol\":348:15793  contract SwishFish is ERC20, Ownable {... */\n      dup6\n      mstore\n      dup5\n      0x20\n      mstore\n      0x40\n      dup6\n      keccak256\n      sload\n        /* \"SwishFishToken.sol\":8820:8824  this */\n      swap1\n      address\n        /* \"SwishFishToken.sol\":8853:8877  balanceOf(address(this)) */\n      tag_20\n      jump\t// in\n    tag_502:\n        /* \"SwishFishToken.sol\":8835:8850  uniswapV2Router */\n      0x0b\n        /* \"SwishFishToken.sol\":348:15793  contract SwishFish is ERC20, Ownable {... */\n      sload\n      and\n        /* \"SwishFishToken.sol\":9057:9072  block.timestamp */\n      swap1\n        /* \"SwishFishToken.sol\":9077:9080  300 */\n      0x012c\n        /* \"SwishFishToken.sol\":9057:9072  block.timestamp */\n      timestamp\n        /* \"SwishFishToken.sol\":348:15793  contract SwishFish is ERC20, Ownable {... */\n      add\n        /* \"SwishFishToken.sol\":9057:9072  block.timestamp */\n      dup1\n      timestamp\n        /* \"SwishFishToken.sol\":348:15793  contract SwishFish is ERC20, Ownable {... */\n      gt\n      tag_503\n      jumpi\n        /* \"SwishFishToken.sol\":9057:9072  block.timestamp */\n      timestamp\n        /* \"libraries/SafeMath.sol\":601:607  c >= a */\n      dup2\n      lt\n        /* \"SwishFishToken.sol\":348:15793  contract SwishFish is ERC20, Ownable {... */\n      tag_505\n      jumpi\n      0xc4\n        /* \"SwishFishToken.sol\":8889:9092  uniswapV2Router.addLiquidityETH{value : bnb}(... */\n      0x60\n        /* \"SwishFishToken.sol\":348:15793  contract SwishFish is ERC20, Ownable {... */\n      swap3\n      dup7\n      mload(0x40)\n        /* \"SwishFishToken.sol\":8889:9092  uniswapV2Router.addLiquidityETH{value : bnb}(... */\n      swap6\n      dup7\n      swap5\n      dup6\n      swap4\n        /* \"SwishFishToken.sol\":348:15793  contract SwishFish is ERC20, Ownable {... */\n      0xf305d71900000000000000000000000000000000000000000000000000000000\n        /* \"SwishFishToken.sol\":8889:9092  uniswapV2Router.addLiquidityETH{value : bnb}(... */\n      dup6\n      mstore\n        /* \"SwishFishToken.sol\":8820:8824  this */\n      address\n        /* \"SwishFishToken.sol\":8889:9092  uniswapV2Router.addLiquidityETH{value : bnb}(... */\n      0x04\n      dup7\n      add\n        /* \"SwishFishToken.sol\":348:15793  contract SwishFish is ERC20, Ownable {... */\n      mstore\n      0x24\n      dup6\n      add\n      mstore\n      dup9\n      0x44\n      dup6\n      add\n      mstore\n      dup9\n      0x64\n      dup6\n      add\n      mstore\n        /* \"SwishFishToken.sol\":8820:8824  this */\n      address\n        /* \"SwishFishToken.sol\":348:15793  contract SwishFish is ERC20, Ownable {... */\n      0x84\n      dup6\n      add\n      mstore\n      0xa4\n      dup5\n      add\n      mstore\n        /* \"SwishFishToken.sol\":8889:9092  uniswapV2Router.addLiquidityETH{value : bnb}(... */\n      gas\n      call\n      dup1\n      iszero\n      tag_507\n      jumpi\n      tag_509\n      jumpi\n        /* \"SwishFishToken.sol\":8733:9135  function addLiquidity(uint256 tokens, uint256 bnb) private {... */\n    tag_510:\n        /* \"SwishFishToken.sol\":348:15793  contract SwishFish is ERC20, Ownable {... */\n      pop\n      pop\n      0x20\n        /* \"SwishFishToken.sol\":9108:9127  LiquidityAdded(bnb) */\n      0xfdb748c915e4e67b4bb23287bf4295a4595ce48b50343214369f72ccfb974cfa\n        /* \"SwishFishToken.sol\":348:15793  contract SwishFish is ERC20, Ownable {... */\n      swap2\n      mload(0x40)\n      swap1\n      dup2\n      mstore\n        /* \"SwishFishToken.sol\":9108:9127  LiquidityAdded(bnb) */\n      log1\n        /* \"SwishFishToken.sol\":8733:9135  function addLiquidity(uint256 tokens, uint256 bnb) private {... */\n      jump\t// out\n        /* \"SwishFishToken.sol\":8889:9092  uniswapV2Router.addLiquidityETH{value : bnb}(... */\n    tag_509:\n      0x60\n      swap1\n      dup2\n      returndatasize\n      dup2\n      gt\n      tag_511\n      jumpi\n    tag_512:\n      tag_513\n      dup2\n      dup4\n      tag_9\n      jump\t// in\n    tag_513:\n      dup2\n      add\n        /* \"SwishFishToken.sol\":348:15793  contract SwishFish is ERC20, Ownable {... */\n      sub\n      slt\n      tag_137\n      jumpi\n        /* \"SwishFishToken.sol\":8889:9092  uniswapV2Router.addLiquidityETH{value : bnb}(... */\n      dup1\n      jump(tag_510)\n    tag_511:\n      pop\n      returndatasize\n      jump(tag_512)\n    tag_507:\n        /* \"SwishFishToken.sol\":348:15793  contract SwishFish is ERC20, Ownable {... */\n      mload(0x40)\n      returndatasize\n      dup5\n      dup3\n      returndatacopy\n      returndatasize\n      swap1\n      revert\n    tag_505:\n      0x64\n      mload(0x40)\n      mul(0x461bcd, exp(0x02, 0xe5))\n      dup2\n      mstore\n      0x20\n      0x04\n      dup3\n      add\n      mstore\n      0x1b\n      0x24\n      dup3\n      add\n      mstore\n      0x536166654d6174683a206164646974696f6e206f766572666c6f770000000000\n      0x44\n      dup3\n      add\n      mstore\n      revert\n    tag_503:\n      0x24\n      dup5\n      mul(0x4e487b71, exp(0x02, 0xe0))\n      dup2\n      mstore\n      mstore(0x04, 0x11)\n      revert\n    tag_12:\n      swap2\n      swap1\n      dup3\n      sub\n      swap2\n      dup3\n      gt\n      tag_496\n      jumpi\n      jump\t// out\n    tag_13:\n      iszero\n      tag_518\n      jumpi\n      jump\t// out\n    tag_518:\n      0x84\n      mload(0x40)\n      mul(0x461bcd, exp(0x02, 0xe5))\n      dup2\n      mstore\n      0x20\n      0x04\n      dup3\n      add\n      mstore\n      0x2d\n      0x24\n      dup3\n      add\n      mstore\n      0x4d756c74695369676e617475726557616c6c65743a2070726f706f73616c2064\n      0x44\n      dup3\n      add\n      mstore\n      0x6f6573206e6f7420657869737400000000000000000000000000000000000000\n      0x64\n      dup3\n      add\n      mstore\n      revert\n    tag_14:\n      iszero\n      tag_520\n      jumpi\n      jump\t// out\n    tag_520:\n      0x84\n      mload(0x40)\n      mul(0x461bcd, exp(0x02, 0xe5))\n      dup2\n      mstore\n      0x20\n      0x04\n      dup3\n      add\n      mstore\n      0x33\n      0x24\n      dup3\n      add\n      mstore\n      0x4d756c74695369676e617475726557616c6c65743a2070726f706f73616c2077\n      0x44\n      dup3\n      add\n      mstore\n      0x617320616c726561647920657865637574656400000000000000000000000000\n      0x64\n      dup3\n      add\n      mstore\n      revert\n        /* \"SwishFishToken.sol\":7504:7979  function swapTokensForEth(uint256 tokenAmount) private {... */\n    tag_15:\n        /* \"SwishFishToken.sol\":348:15793  contract SwishFish is ERC20, Ownable {... */\n      0x40\n      dup1\n      mload\n      swap2\n      0xffffffffffffffff\n      swap1\n      0x60\n      dup5\n      add\n      dup3\n      dup2\n      gt\n      dup6\n      dup3\n      lt\n      or\n      tag_498\n      jumpi\n      dup4\n      mstore\n        /* \"SwishFishToken.sol\":7608:7609  2 */\n      0x02\n        /* \"SwishFishToken.sol\":348:15793  contract SwishFish is ERC20, Ownable {... */\n      dup5\n      mstore\n      0x20\n      dup1\n      dup6\n      add\n      swap1\n      dup5\n      calldatasize\n      dup4\n      calldatacopy\n      dup6\n      mload\n      iszero\n      tag_483\n      jumpi\n        /* \"SwishFishToken.sol\":7639:7643  this */\n      address\n        /* \"SwishFishToken.sol\":348:15793  contract SwishFish is ERC20, Ownable {... */\n      dup3\n      mstore\n      sub(exp(0x02, 0xa0), 0x01)\n      swap3\n      dup4\n        /* \"SwishFishToken.sol\":7665:7680  uniswapV2Router */\n      0x0b\n        /* \"SwishFishToken.sol\":348:15793  contract SwishFish is ERC20, Ownable {... */\n      sload\n      and\n      swap2\n      dup7\n      mload\n        /* \"SwishFishToken.sol\":7665:7687  uniswapV2Router.WETH() */\n      swap3\n        /* \"SwishFishToken.sol\":348:15793  contract SwishFish is ERC20, Ownable {... */\n      0xad5c464800000000000000000000000000000000000000000000000000000000\n        /* \"SwishFishToken.sol\":7665:7687  uniswapV2Router.WETH() */\n      dup5\n      mstore\n      dup2\n      dup5\n      0x04\n      dup2\n      dup5\n      gas\n      staticcall\n      swap4\n      dup5\n      iszero\n      tag_526\n      jumpi\n      0x00\n      swap5\n      tag_528\n      jumpi\n        /* \"SwishFishToken.sol\":7504:7979  function swapTokensForEth(uint256 tokenAmount) private {... */\n    tag_529:\n        /* \"SwishFishToken.sol\":348:15793  contract SwishFish is ERC20, Ownable {... */\n      pop\n      dup9\n      mload\n        /* \"SwishFishToken.sol\":7660:7661  1 */\n      swap4\n      0x01\n        /* \"SwishFishToken.sol\":348:15793  contract SwishFish is ERC20, Ownable {... */\n      swap5\n      dup6\n      lt\n      iszero\n      tag_483\n      jumpi\n        /* \"SwishFishToken.sol\":7750:7761  tokenAmount */\n      tag_532\n        /* \"SwishFishToken.sol\":348:15793  contract SwishFish is ERC20, Ownable {... */\n      swap2\n      dup8\n      dup6\n      swap3\n      and\n      dup11\n      dup13\n      add\n      mstore\n        /* \"SwishFishToken.sol\":7639:7643  this */\n      address\n        /* \"SwishFishToken.sol\":7750:7761  tokenAmount */\n      tag_20\n      jump\t// in\n    tag_532:\n        /* \"SwishFishToken.sol\":348:15793  contract SwishFish is ERC20, Ownable {... */\n      dup5\n        /* \"SwishFishToken.sol\":7665:7680  uniswapV2Router */\n      0x0b\n        /* \"SwishFishToken.sol\":348:15793  contract SwishFish is ERC20, Ownable {... */\n      sload\n      and\n        /* \"SwishFishToken.sol\":7775:7971  uniswapV2Router.swapExactTokensForETHSupportingFeeOnTransferTokens(... */\n      swap5\n      dup6\n      extcodesize\n      iszero\n      tag_488\n      jumpi\n        /* \"SwishFishToken.sol\":348:15793  contract SwishFish is ERC20, Ownable {... */\n      swap2\n      dup8\n      swap9\n      swap5\n      swap4\n      swap2\n      swap9\n      mload\n        /* \"SwishFishToken.sol\":7775:7971  uniswapV2Router.swapExactTokensForETHSupportingFeeOnTransferTokens(... */\n      swap9\n      dup10\n      swap6\n        /* \"SwishFishToken.sol\":348:15793  contract SwishFish is ERC20, Ownable {... */\n      0x791ac94700000000000000000000000000000000000000000000000000000000\n        /* \"SwishFishToken.sol\":7775:7971  uniswapV2Router.swapExactTokensForETHSupportingFeeOnTransferTokens(... */\n      dup8\n      mstore\n        /* \"SwishFishToken.sol\":348:15793  contract SwishFish is ERC20, Ownable {... */\n      0xa4\n      dup8\n      add\n        /* \"SwishFishToken.sol\":7775:7971  uniswapV2Router.swapExactTokensForETHSupportingFeeOnTransferTokens(... */\n      swap3\n        /* \"SwishFishToken.sol\":7665:7687  uniswapV2Router.WETH() */\n      0x04\n        /* \"SwishFishToken.sol\":7775:7971  uniswapV2Router.swapExactTokensForETHSupportingFeeOnTransferTokens(... */\n      dup9\n      add\n        /* \"SwishFishToken.sol\":348:15793  contract SwishFish is ERC20, Ownable {... */\n      mstore\n      0x00\n      0x24\n      dup9\n      add\n      mstore\n      0xa0\n      0x44\n      dup9\n      add\n      mstore\n      mload\n      dup1\n      swap3\n      mstore\n      0xc4\n      dup7\n      add\n      swap5\n      swap4\n      0x00\n      swap1\n    tag_535:\n      dup4\n      dup3\n      lt\n      tag_536\n      jumpi\n        /* \"SwishFishToken.sol\":7639:7643  this */\n      pop\n      pop\n      pop\n      pop\n      pop\n      pop\n      swap2\n      dup2\n      0x00\n      dup2\n      dup2\n      swap6\n      address\n        /* \"SwishFishToken.sol\":348:15793  contract SwishFish is ERC20, Ownable {... */\n      0x64\n      dup4\n      add\n      mstore\n        /* \"SwishFishToken.sol\":7945:7960  block.timestamp */\n      timestamp\n        /* \"SwishFishToken.sol\":348:15793  contract SwishFish is ERC20, Ownable {... */\n      0x84\n      dup4\n      add\n      mstore\n        /* \"SwishFishToken.sol\":7775:7971  uniswapV2Router.swapExactTokensForETHSupportingFeeOnTransferTokens(... */\n      sub\n      swap3\n      gas\n      call\n      dup1\n      iszero\n      tag_538\n      jumpi\n      tag_540\n      jumpi\n        /* \"SwishFishToken.sol\":7504:7979  function swapTokensForEth(uint256 tokenAmount) private {... */\n      pop\n      pop\n      pop\n      jump\t// out\n        /* \"SwishFishToken.sol\":7775:7971  uniswapV2Router.swapExactTokensForETHSupportingFeeOnTransferTokens(... */\n    tag_540:\n        /* \"SwishFishToken.sol\":348:15793  contract SwishFish is ERC20, Ownable {... */\n      dup3\n      gt\n      tag_498\n      jumpi\n      mstore\n        /* \"SwishFishToken.sol\":7504:7979  function swapTokensForEth(uint256 tokenAmount) private {... */\n      jump\t// out\n        /* \"SwishFishToken.sol\":7775:7971  uniswapV2Router.swapExactTokensForETHSupportingFeeOnTransferTokens(... */\n    tag_538:\n        /* \"SwishFishToken.sol\":348:15793  contract SwishFish is ERC20, Ownable {... */\n      dup3\n      mload\n      returndatasize\n      0x00\n      dup3\n      returndatacopy\n      returndatasize\n      swap1\n      revert\n    tag_536:\n      dup6\n      mload\n      dup2\n      and\n      dup8\n      mstore\n      dup12\n      swap8\n      pop\n      swap6\n      dup3\n      add\n      swap6\n      swap5\n      dup3\n      add\n      swap5\n      swap1\n      dup5\n      add\n      swap1\n      jump(tag_535)\n        /* \"SwishFishToken.sol\":7665:7687  uniswapV2Router.WETH() */\n    tag_528:\n      dup3\n      dup2\n      dup2\n      swap7\n      swap4\n      swap7\n      returndatasize\n      dup4\n      gt\n      tag_544\n      jumpi\n    tag_545:\n      tag_546\n      dup2\n      dup4\n      tag_9\n      jump\t// in\n    tag_546:\n      dup2\n      add\n        /* \"SwishFishToken.sol\":348:15793  contract SwishFish is ERC20, Ownable {... */\n      sub\n      slt\n      tag_112\n      jumpi\n      mload\n      swap1\n      dup7\n      dup3\n      and\n      dup3\n      sub\n      tag_137\n      jumpi\n        /* \"SwishFishToken.sol\":7665:7687  uniswapV2Router.WETH() */\n      pop\n      swap3\n      codesize\n      jump(tag_529)\n    tag_544:\n      pop\n      returndatasize\n      jump(tag_545)\n    tag_526:\n        /* \"SwishFishToken.sol\":348:15793  contract SwishFish is ERC20, Ownable {... */\n      dup9\n      mload\n      returndatasize\n      0x00\n      dup3\n      returndatacopy\n      returndatasize\n      swap1\n      revert\n    tag_16:\n      iszero\n      tag_551\n      jumpi\n      jump\t// out\n    tag_551:\n      0x84\n      mload(0x40)\n      mul(0x461bcd, exp(0x02, 0xe5))\n      dup2\n      mstore\n      0x20\n      0x04\n      dup3\n      add\n      mstore\n      0x25\n      0x24\n      dup3\n      add\n      mstore\n      0x45524332303a207472616e736665722066726f6d20746865207a65726f206164\n      0x44\n      dup3\n      add\n      mstore\n      0x6472657373000000000000000000000000000000000000000000000000000000\n      0x64\n      dup3\n      add\n      mstore\n      revert\n    tag_17:\n      iszero\n      tag_553\n      jumpi\n      jump\t// out\n    tag_553:\n      0x84\n      mload(0x40)\n      mul(0x461bcd, exp(0x02, 0xe5))\n      dup2\n      mstore\n      0x20\n      0x04\n      dup3\n      add\n      mstore\n      0x23\n      0x24\n      dup3\n      add\n      mstore\n      0x45524332303a207472616e7366657220746f20746865207a65726f2061646472\n      0x44\n      dup3\n      add\n      mstore\n      0x6573730000000000000000000000000000000000000000000000000000000000\n      0x64\n      dup3\n      add\n      mstore\n      revert\n        /* \"SwishFishToken.sol\":6172:6836  function _transfer(... */\n    tag_18:\n      swap1\n        /* \"SwishFishToken.sol\":6821:6827  amount */\n      tag_555\n        /* \"SwishFishToken.sol\":6172:6836  function _transfer(... */\n      swap3\n      swap2\n      sub(exp(0x02, 0xa0), 0x01)\n        /* \"SwishFishToken.sol\":348:15793  contract SwishFish is ERC20, Ownable {... */\n      dup1\n      dup3\n      and\n        /* \"SwishFishToken.sol\":6304:6322  from != address(0) */\n      swap1\n        /* \"SwishFishToken.sol\":6296:6364  require(from != address(0), \"ERC20: transfer from the zero address\") */\n      tag_556\n        /* \"SwishFishToken.sol\":6304:6322  from != address(0) */\n      dup3\n      iszero\n      iszero\n        /* \"SwishFishToken.sol\":6296:6364  require(from != address(0), \"ERC20: transfer from the zero address\") */\n      tag_16\n      jump\t// in\n    tag_556:\n        /* \"SwishFishToken.sol\":348:15793  contract SwishFish is ERC20, Ownable {... */\n      dup4\n      and\n        /* \"SwishFishToken.sol\":6383:6399  to != address(0) */\n      swap1\n        /* \"SwishFishToken.sol\":6375:6439  require(to != address(0), \"ERC20: transfer to the zero address\") */\n      tag_557\n        /* \"SwishFishToken.sol\":6383:6399  to != address(0) */\n      dup3\n      iszero\n      iszero\n        /* \"SwishFishToken.sol\":6375:6439  require(to != address(0), \"ERC20: transfer to the zero address\") */\n      tag_17\n      jump\t// in\n    tag_557:\n        /* \"SwishFishToken.sol\":6320:6321  0 */\n      0x00\n        /* \"SwishFishToken.sol\":348:15793  contract SwishFish is ERC20, Ownable {... */\n      swap2\n      dup2\n      dup4\n      mstore\n        /* \"SwishFishToken.sol\":6467:6486  _isExcludedFromFees */\n      0x22\n        /* \"SwishFishToken.sol\":348:15793  contract SwishFish is ERC20, Ownable {... */\n      0x20\n      mstore\n      0xff\n      0x40\n      dup5\n      keccak256\n      sload\n      and\n        /* \"SwishFishToken.sol\":6467:6519  _isExcludedFromFees[from] || _isExcludedFromFees[to] */\n      swap1\n      dup2\n      iszero\n      tag_558\n      jumpi\n        /* \"SwishFishToken.sol\":6172:6836  function _transfer(... */\n    tag_559:\n        /* \"SwishFishToken.sol\":6465:6520  !(_isExcludedFromFees[from] || _isExcludedFromFees[to]) */\n      pop\n      iszero\n        /* \"SwishFishToken.sol\":6537:6579  takeFee && automatedMarketMakerPairs[from] */\n      swap1\n      dup2\n      tag_560\n      jumpi\n        /* \"SwishFishToken.sol\":6172:6836  function _transfer(... */\n    tag_561:\n        /* \"SwishFishToken.sol\":6533:6785  if (takeFee && automatedMarketMakerPairs[from]) {... */\n      pop\n      tag_562\n      jumpi\n        /* \"SwishFishToken.sol\":6172:6836  function _transfer(... */\n    tag_563:\n        /* \"SwishFishToken.sol\":6821:6827  amount */\n      pop\n      tag_19\n      jump\t// in\n    tag_555:\n        /* \"SwishFishToken.sol\":6172:6836  function _transfer(... */\n      jump\t// out\n        /* \"SwishFishToken.sol\":6533:6785  if (takeFee && automatedMarketMakerPairs[from]) {... */\n    tag_562:\n        /* \"SwishFishToken.sol\":6690:6725  _poolLiquidity.add(liquidityAmount) */\n      tag_564\n        /* \"SwishFishToken.sol\":6654:6657  100 */\n      0x64\n        /* \"SwishFishToken.sol\":6622:6649  amount.mul(taxFeeLiquidity) */\n      tag_565\n        /* \"SwishFishToken.sol\":6633:6648  taxFeeLiquidity */\n      0x1d\n        /* \"SwishFishToken.sol\":348:15793  contract SwishFish is ERC20, Ownable {... */\n      sload\n        /* \"SwishFishToken.sol\":6622:6649  amount.mul(taxFeeLiquidity) */\n      dup8\n      tag_28\n      jump\t// in\n    tag_565:\n        /* \"SwishFishToken.sol\":348:15793  contract SwishFish is ERC20, Ownable {... */\n      tag_566\n      tag_29\n      jump\t// in\n    tag_566:\n      pop\n      div\n        /* \"SwishFishToken.sol\":6690:6704  _poolLiquidity */\n      0x21\n        /* \"SwishFishToken.sol\":348:15793  contract SwishFish is ERC20, Ownable {... */\n      sload\n        /* \"SwishFishToken.sol\":6690:6725  _poolLiquidity.add(liquidityAmount) */\n      tag_21\n      jump\t// in\n    tag_564:\n        /* \"SwishFishToken.sol\":6690:6704  _poolLiquidity */\n      0x21\n        /* \"SwishFishToken.sol\":348:15793  contract SwishFish is ERC20, Ownable {... */\n      sstore\n        /* \"SwishFishToken.sol\":7445:7460  contractBalance */\n      tag_567\n        /* \"SwishFishToken.sol\":7272:7276  this */\n      address\n        /* \"SwishFishToken.sol\":7264:7285  address(this).balance */\n      balance\n        /* \"SwishFishToken.sol\":7313:7325  _tokenAmount */\n      tag_568\n      dup7\n      tag_15\n      jump\t// in\n    tag_568:\n        /* \"SwishFishToken.sol\":7272:7276  this */\n      address\n        /* \"SwishFishToken.sol\":348:15793  contract SwishFish is ERC20, Ownable {... */\n      dup4\n      mstore\n      dup3\n      0x20\n      mstore\n        /* \"SwishFishToken.sol\":6654:6657  100 */\n      0x64\n        /* \"SwishFishToken.sol\":7363:7395  balanceOf(address(this)).mul(30) */\n      tag_442\n        /* \"SwishFishToken.sol\":348:15793  contract SwishFish is ERC20, Ownable {... */\n      0x40\n      dup6\n      keccak256\n      sload\n        /* \"SwishFishToken.sol\":7363:7395  balanceOf(address(this)).mul(30) */\n      tag_25\n      jump\t// in\n        /* \"SwishFishToken.sol\":7445:7460  contractBalance */\n    tag_567:\n        /* \"SwishFishToken.sol\":6690:6704  _poolLiquidity */\n      0x21\n        /* \"SwishFishToken.sol\":348:15793  contract SwishFish is ERC20, Ownable {... */\n      sstore\n        /* \"SwishFishToken.sol\":6533:6785  if (takeFee && automatedMarketMakerPairs[from]) {... */\n      codesize\n      jump(tag_563)\n        /* \"SwishFishToken.sol\":6537:6579  takeFee && automatedMarketMakerPairs[from] */\n    tag_560:\n        /* \"SwishFishToken.sol\":348:15793  contract SwishFish is ERC20, Ownable {... */\n      dup3\n      mstore\n      pop\n        /* \"SwishFishToken.sol\":6548:6573  automatedMarketMakerPairs */\n      0x24\n        /* \"SwishFishToken.sol\":348:15793  contract SwishFish is ERC20, Ownable {... */\n      0x20\n      mstore\n      0x40\n      dup2\n      keccak256\n      sload\n      0xff\n      and\n        /* \"SwishFishToken.sol\":6537:6579  takeFee && automatedMarketMakerPairs[from] */\n      codesize\n      jump(tag_561)\n        /* \"SwishFishToken.sol\":6467:6519  _isExcludedFromFees[from] || _isExcludedFromFees[to] */\n    tag_558:\n        /* \"SwishFishToken.sol\":348:15793  contract SwishFish is ERC20, Ownable {... */\n      dup4\n      mstore\n      pop\n      0x40\n      dup3\n      keccak256\n      sload\n      0xff\n      and\n        /* \"SwishFishToken.sol\":6467:6519  _isExcludedFromFees[from] || _isExcludedFromFees[to] */\n      codesize\n      jump(tag_559)\n        /* \"contracts/ERC20.sol\":7736:8573  function _transfer(... */\n    tag_19:\n      sub(exp(0x02, 0xa0), 0x01)\n        /* \"SwishFishToken.sol\":348:15793  contract SwishFish is ERC20, Ownable {... */\n      dup1\n      swap2\n      and\n        /* \"contracts/ERC20.sol\":7867:7885  from != address(0) */\n      swap2\n        /* \"contracts/ERC20.sol\":7859:7927  require(from != address(0), \"ERC20: transfer from the zero address\") */\n      tag_571\n        /* \"contracts/ERC20.sol\":7867:7885  from != address(0) */\n      dup4\n      iszero\n      iszero\n        /* \"contracts/ERC20.sol\":7859:7927  require(from != address(0), \"ERC20: transfer from the zero address\") */\n      tag_16\n      jump\t// in\n    tag_571:\n        /* \"SwishFishToken.sol\":348:15793  contract SwishFish is ERC20, Ownable {... */\n      and\n        /* \"contracts/ERC20.sol\":7946:7962  to != address(0) */\n      swap2\n        /* \"contracts/ERC20.sol\":7938:8002  require(to != address(0), \"ERC20: transfer to the zero address\") */\n      tag_572\n        /* \"contracts/ERC20.sol\":7946:7962  to != address(0) */\n      dup4\n      iszero\n      iszero\n        /* \"contracts/ERC20.sol\":7938:8002  require(to != address(0), \"ERC20: transfer to the zero address\") */\n      tag_17\n      jump\t// in\n    tag_572:\n        /* \"contracts/ERC20.sol\":7883:7884  0 */\n      0x00\n        /* \"SwishFishToken.sol\":348:15793  contract SwishFish is ERC20, Ownable {... */\n      dup3\n      dup2\n      mstore\n      dup1\n      0x20\n      mstore\n      0x40\n      swap1\n      dup2\n      dup2\n      keccak256\n      sload\n        /* \"contracts/ERC20.sol\":8122:8143  fromBalance >= amount */\n      dup4\n      dup2\n      lt\n        /* \"SwishFishToken.sol\":348:15793  contract SwishFish is ERC20, Ownable {... */\n      tag_573\n      jumpi\n      swap2\n      dup4\n      swap2\n        /* \"libraries/SafeMath.sol\":1548:1553  a - b */\n      tag_575\n        /* \"contracts/ERC20.sol\":8489:8515  Transfer(from, to, amount) */\n      0xddf252ad1be2c89b69c2b068fc378daa952ba7f163c4a11628f55a4df523b3ef\n        /* \"SwishFishToken.sol\":348:15793  contract SwishFish is ERC20, Ownable {... */\n      swap6\n      0x20\n      swap6\n        /* \"libraries/SafeMath.sol\":1496:1525  require(b <= a, errorMessage) */\n      tag_222\n        /* \"SwishFishToken.sol\":348:15793  contract SwishFish is ERC20, Ownable {... */\n      tag_223\n      tag_22\n      jump\t// in\n        /* \"libraries/SafeMath.sol\":1548:1553  a - b */\n    tag_575:\n        /* \"SwishFishToken.sol\":348:15793  contract SwishFish is ERC20, Ownable {... */\n      dup7\n      dup3\n      mstore\n      dup2\n      dup6\n      mstore\n      dup3\n      dup3\n      keccak256\n      sstore\n      dup7\n      dup2\n      mstore\n      dup2\n        /* \"contracts/ERC20.sol\":8439:8464  _balances[to].add(amount) */\n      tag_578\n        /* \"SwishFishToken.sol\":348:15793  contract SwishFish is ERC20, Ownable {... */\n      dup5\n      dup3\n      dup5\n      keccak256\n      sload\n        /* \"contracts/ERC20.sol\":8439:8464  _balances[to].add(amount) */\n      tag_21\n      jump\t// in\n    tag_578:\n        /* \"SwishFishToken.sol\":348:15793  contract SwishFish is ERC20, Ownable {... */\n      swap2\n      dup9\n      dup2\n      mstore\n      dup1\n      dup7\n      mstore\n      keccak256\n      sstore\n      mload\n      swap1\n      dup2\n      mstore\n        /* \"contracts/ERC20.sol\":8489:8515  Transfer(from, to, amount) */\n      log3\n        /* \"contracts/ERC20.sol\":7736:8573  function _transfer(... */\n      jump\t// out\n        /* \"SwishFishToken.sol\":348:15793  contract SwishFish is ERC20, Ownable {... */\n    tag_573:\n      0x84\n      dup4\n      mload\n      mul(0x461bcd, exp(0x02, 0xe5))\n      dup2\n      mstore\n      0x20\n      0x04\n      dup3\n      add\n      mstore\n      0x26\n      0x24\n      dup3\n      add\n      mstore\n      0x45524332303a207472616e7366657220616d6f756e7420657863656564732062\n      0x44\n      dup3\n      add\n      mstore\n      0x616c616e63650000000000000000000000000000000000000000000000000000\n      0x64\n      dup3\n      add\n      mstore\n      revert\n        /* \"contracts/ERC20.sol\":10894:11274  function _approve(... */\n    tag_20:\n      sub(exp(0x02, 0xa0), 0x01)\n        /* \"SwishFishToken.sol\":348:15793  contract SwishFish is ERC20, Ownable {... */\n      dup1\n      swap2\n      and\n        /* \"contracts/ERC20.sol\":11030:11049  owner != address(0) */\n      swap2\n      dup3\n      iszero\n        /* \"SwishFishToken.sol\":348:15793  contract SwishFish is ERC20, Ownable {... */\n      tag_579\n      jumpi\n      and\n        /* \"contracts/ERC20.sol\":11109:11130  spender != address(0) */\n      swap2\n      dup3\n      iszero\n        /* \"SwishFishToken.sol\":348:15793  contract SwishFish is ERC20, Ownable {... */\n      tag_581\n      jumpi\n      0x20\n        /* \"contracts/ERC20.sol\":11234:11266  Approval(owner, spender, amount) */\n      0x8c5be1e5ebec7d5bd14f71427d1e84f3dd0314c0f7b2291e5b200ac8c7c3b925\n        /* \"SwishFishToken.sol\":348:15793  contract SwishFish is ERC20, Ownable {... */\n      swap2\n      dup4\n        /* \"contracts/ERC20.sol\":11047:11048  0 */\n      0x00\n        /* \"SwishFishToken.sol\":348:15793  contract SwishFish is ERC20, Ownable {... */\n      mstore\n        /* \"contracts/ERC20.sol\":11182:11193  _allowances */\n      0x01\n        /* \"SwishFishToken.sol\":348:15793  contract SwishFish is ERC20, Ownable {... */\n      dup3\n      mstore\n      0x40\n        /* \"contracts/ERC20.sol\":11047:11048  0 */\n      0x00\n        /* \"SwishFishToken.sol\":348:15793  contract SwishFish is ERC20, Ownable {... */\n      keccak256\n      dup6\n        /* \"contracts/ERC20.sol\":11047:11048  0 */\n      0x00\n        /* \"SwishFishToken.sol\":348:15793  contract SwishFish is ERC20, Ownable {... */\n      mstore\n      dup3\n      mstore\n      dup1\n      0x40\n        /* \"contracts/ERC20.sol\":11047:11048  0 */\n      0x00\n        /* \"SwishFishToken.sol\":348:15793  contract SwishFish is ERC20, Ownable {... */\n      keccak256\n      sstore\n      mload(0x40)\n      swap1\n      dup2\n      mstore\n        /* \"contracts/ERC20.sol\":11234:11266  Approval(owner, spender, amount) */\n      log3\n        /* \"contracts/ERC20.sol\":10894:11274  function _approve(... */\n      jump\t// out\n        /* \"SwishFishToken.sol\":348:15793  contract SwishFish is ERC20, Ownable {... */\n    tag_581:\n      0x84\n      mload(0x40)\n      mul(0x461bcd, exp(0x02, 0xe5))\n      dup2\n      mstore\n      0x20\n      0x04\n      dup3\n      add\n      mstore\n      0x22\n      0x24\n      dup3\n      add\n      mstore\n      0x45524332303a20617070726f766520746f20746865207a65726f206164647265\n      0x44\n      dup3\n      add\n      mstore\n      0x7373000000000000000000000000000000000000000000000000000000000000\n      0x64\n      dup3\n      add\n      mstore\n      revert\n    tag_579:\n      0x84\n      mload(0x40)\n      mul(0x461bcd, exp(0x02, 0xe5))\n      dup2\n      mstore\n      0x20\n      0x04\n      dup3\n      add\n      mstore\n      0x24\n      dup1\n      dup3\n      add\n      mstore\n      0x45524332303a20617070726f76652066726f6d20746865207a65726f20616464\n      0x44\n      dup3\n      add\n      mstore\n      0x7265737300000000000000000000000000000000000000000000000000000000\n      0x64\n      dup3\n      add\n      mstore\n      revert\n        /* \"libraries/SafeMath.sol\":487:668  function add(uint256 a, uint256 b) internal pure returns (uint256) {... */\n    tag_21:\n      swap1\n        /* \"libraries/SafeMath.sol\":577:582  a + b */\n      tag_583\n        /* \"libraries/SafeMath.sol\":487:668  function add(uint256 a, uint256 b) internal pure returns (uint256) {... */\n      swap1\n        /* \"libraries/SafeMath.sol\":577:582  a + b */\n      dup3\n      tag_7\n      jump\t// in\n    tag_583:\n        /* \"libraries/SafeMath.sol\":601:607  c >= a */\n      swap1\n      dup2\n      lt\n        /* \"SwishFishToken.sol\":348:15793  contract SwishFish is ERC20, Ownable {... */\n      tag_505\n      jumpi\n        /* \"libraries/SafeMath.sol\":487:668  function add(uint256 a, uint256 b) internal pure returns (uint256) {... */\n      swap1\n      jump\t// out\n        /* \"SwishFishToken.sol\":348:15793  contract SwishFish is ERC20, Ownable {... */\n    tag_22:\n      mload(0x40)\n      swap1\n      tag_586\n      dup3\n      tag_8\n      jump\t// in\n    tag_586:\n      0x1e\n      dup3\n      mstore\n      0x536166654d6174683a207375627472616374696f6e206f766572666c6f770000\n      0x20\n      dup4\n      add\n      mstore\n      jump\t// out\n    tag_23:\n      iszero\n      tag_587\n      jumpi\n      pop\n      jump\t// out\n    tag_587:\n      tag_589\n      swap1\n      mload(0x40)\n      swap2\n      dup3\n      swap2\n      mul(0x461bcd, exp(0x02, 0xe5))\n      dup4\n      mstore\n      0x04\n      dup4\n      add\n      tag_2\n      jump\t// in\n    tag_589:\n      sub\n      swap1\n      revert\n    tag_24:\n      dup2\n      iszero\n      tag_590\n      jumpi\n      div\n      swap1\n      jump\t// out\n    tag_590:\n      mstore(0x00, mul(0x4e487b71, exp(0x02, 0xe0)))\n      mstore(0x04, 0x12)\n      revert(0x00, 0x24)\n        /* \"libraries/SafeMath.sol\":1841:2312  function mul(uint256 a, uint256 b) internal pure returns (uint256) {... */\n    tag_25:\n        /* \"libraries/SafeMath.sol\":2144:2150  a == 0 */\n      dup1\n      iszero\n        /* \"libraries/SafeMath.sol\":2140:2187  if (a == 0) {... */\n      tag_592\n      jumpi\n        /* \"SwishFishToken.sol\":7050:7052  30 */\n      0x1e\n        /* \"SwishFishToken.sol\":348:15793  contract SwishFish is ERC20, Ownable {... */\n      dup2\n      mul\n      swap1\n      dup1\n      dup3\n      div\n        /* \"SwishFishToken.sol\":7050:7052  30 */\n      0x1e\n        /* \"SwishFishToken.sol\":348:15793  contract SwishFish is ERC20, Ownable {... */\n      sub\n      tag_496\n      jumpi\n        /* \"libraries/SafeMath.sol\":2235:2240  c / a */\n      tag_596\n        /* \"SwishFishToken.sol\":7050:7052  30 */\n      0x1e\n        /* \"libraries/SafeMath.sol\":2235:2240  c / a */\n      swap2\n      dup4\n      tag_24\n      jump\t// in\n    tag_596:\n        /* \"libraries/SafeMath.sol\":2235:2245  c / a == b */\n      sub\n        /* \"SwishFishToken.sol\":348:15793  contract SwishFish is ERC20, Ownable {... */\n      tag_597\n      jumpi\n        /* \"libraries/SafeMath.sol\":1841:2312  function mul(uint256 a, uint256 b) internal pure returns (uint256) {... */\n      swap1\n      jump\t// out\n        /* \"SwishFishToken.sol\":348:15793  contract SwishFish is ERC20, Ownable {... */\n    tag_597:\n      0x84\n      mload(0x40)\n      mul(0x461bcd, exp(0x02, 0xe5))\n      dup2\n      mstore\n      0x20\n      0x04\n      dup3\n      add\n      mstore\n      0x21\n      0x24\n      dup3\n      add\n      mstore\n      0x536166654d6174683a206d756c7469706c69636174696f6e206f766572666c6f\n      0x44\n      dup3\n      add\n      mstore\n      0x7700000000000000000000000000000000000000000000000000000000000000\n      0x64\n      dup3\n      add\n      mstore\n      revert\n        /* \"libraries/SafeMath.sol\":2140:2187  if (a == 0) {... */\n    tag_592:\n        /* \"libraries/SafeMath.sol\":2167:2175  return 0 */\n      pop\n        /* \"libraries/SafeMath.sol\":2149:2150  0 */\n      0x00\n        /* \"libraries/SafeMath.sol\":2167:2175  return 0 */\n      swap1\n      jump\t// out\n        /* \"libraries/SafeMath.sol\":1841:2312  function mul(uint256 a, uint256 b) internal pure returns (uint256) {... */\n    tag_26:\n        /* \"libraries/SafeMath.sol\":2144:2150  a == 0 */\n      dup1\n      iszero\n        /* \"libraries/SafeMath.sol\":2140:2187  if (a == 0) {... */\n      tag_592\n      jumpi\n        /* \"SwishFishToken.sol\":9901:9904  100 */\n      0x64\n        /* \"SwishFishToken.sol\":348:15793  contract SwishFish is ERC20, Ownable {... */\n      dup2\n      mul\n      swap1\n      dup1\n      dup3\n      div\n        /* \"SwishFishToken.sol\":9901:9904  100 */\n      0x64\n        /* \"SwishFishToken.sol\":348:15793  contract SwishFish is ERC20, Ownable {... */\n      sub\n      tag_496\n      jumpi\n        /* \"libraries/SafeMath.sol\":2235:2240  c / a */\n      tag_596\n        /* \"SwishFishToken.sol\":9901:9904  100 */\n      0x64\n        /* \"libraries/SafeMath.sol\":2235:2240  c / a */\n      swap2\n      dup4\n      tag_24\n      jump\t// in\n        /* \"libraries/SafeMath.sol\":1841:2312  function mul(uint256 a, uint256 b) internal pure returns (uint256) {... */\n    tag_27:\n        /* \"libraries/SafeMath.sol\":2144:2150  a == 0 */\n      dup1\n      iszero\n        /* \"libraries/SafeMath.sol\":2140:2187  if (a == 0) {... */\n      tag_592\n      jumpi\n        /* \"SwishFishToken.sol\":5207:5209  10 */\n      0x0a\n        /* \"SwishFishToken.sol\":348:15793  contract SwishFish is ERC20, Ownable {... */\n      dup2\n      mul\n      swap1\n      dup1\n      dup3\n      div\n        /* \"SwishFishToken.sol\":5207:5209  10 */\n      0x0a\n        /* \"SwishFishToken.sol\":348:15793  contract SwishFish is ERC20, Ownable {... */\n      sub\n      tag_496\n      jumpi\n        /* \"libraries/SafeMath.sol\":2235:2240  c / a */\n      tag_596\n        /* \"SwishFishToken.sol\":5207:5209  10 */\n      0x0a\n        /* \"libraries/SafeMath.sol\":2235:2240  c / a */\n      swap2\n      dup4\n      tag_24\n      jump\t// in\n        /* \"libraries/SafeMath.sol\":1841:2312  function mul(uint256 a, uint256 b) internal pure returns (uint256) {... */\n    tag_28:\n      swap1\n        /* \"libraries/SafeMath.sol\":2144:2150  a == 0 */\n      dup2\n      iszero\n        /* \"libraries/SafeMath.sol\":2140:2187  if (a == 0) {... */\n      tag_613\n      jumpi\n        /* \"SwishFishToken.sol\":348:15793  contract SwishFish is ERC20, Ownable {... */\n      dup1\n      dup3\n      mul\n      swap2\n      dup1\n      dup4\n      div\n      dup3\n      sub\n      tag_496\n      jumpi\n        /* \"libraries/SafeMath.sol\":2235:2240  c / a */\n      tag_596\n      swap1\n      dup4\n      tag_24\n      jump\t// in\n        /* \"libraries/SafeMath.sol\":2140:2187  if (a == 0) {... */\n    tag_613:\n        /* \"libraries/SafeMath.sol\":2167:2175  return 0 */\n      pop\n      pop\n        /* \"libraries/SafeMath.sol\":2149:2150  0 */\n      0x00\n        /* \"libraries/SafeMath.sol\":2167:2175  return 0 */\n      swap1\n      jump\t// out\n        /* \"SwishFishToken.sol\":348:15793  contract SwishFish is ERC20, Ownable {... */\n    tag_29:\n      mload(0x40)\n      swap1\n      tag_620\n      dup3\n      tag_8\n      jump\t// in\n    tag_620:\n      0x1a\n      dup3\n      mstore\n      0x536166654d6174683a206469766973696f6e206279207a65726f000000000000\n      0x20\n      dup4\n      add\n      mstore\n      jump\t// out\n\n    auxdata: 0xa2646970667358221220b9f1a0edcc7a52a47c82615094e790ebe5a3fb9dc62c8479e9c1ce783f3b9e7364736f6c63430008110033\n}\n",
				"bytecode": {
					"linkReferences": {},
					"object": "608060409080825234620006605760808162003636803803809162000025828562000665565b83398101031262000660576200003b81620006b7565b60206200004a818401620006b7565b916200006660606200005e878701620006b7565b9501620006b7565b62000073600354620006cc565b90601f9182811162000632575b5060127f537769736846697368000000000000000000000000000000000000000000000001600355600495620000b78754620006cc565b83811162000605575b5060067f5346480000000000000000000000000000000000000000000000000000000000018755600160a060020a031991338360085416176008558851916000976000805160206200361683398151915296338a898180a36b033b2e3c9fd0803ce8000000600c5561010061ffff19600d541617600d556611c37937e080006013556001806014558060155569152d02c7e14af680000060165573eda73409d4bbd147f4e1295a73a2ca243a529338876017541617601755733c1cd83d8850803c9c42ff5083f56b66b00fbd618760185416176018557363024ac73fe77427f20e8247fa26f470c0d9700b8760195416176019556002601a556003601b556003601c556002601d558a601e558a88558a8a558a6021557fc45a01550000000000000000000000000000000000000000000000000000000086528b8a87739ac64cc6e4415144c455bd8e4837fea55603e5c39281845afa968715620005fb578b8f8f928f9a620005a7575b505180927fad5c464800000000000000000000000000000000000000000000000000000000825281855afa90811562000551578f918f8f94938f9386936200055c575b50906044915195869384927fc9c653960000000000000000000000000000000000000000000000000000000084523090840152600160a060020a039d8e8092166024850152165af191821562000551578f918994938f92918f928d908593620004e2575b5092602388620003739a9794620003799d9c9a9794620003739a97600b541617600b551691828452602481528484209660ff1997878982541617905530855260228252858520878982541617905580601754168552858520878982541617905580601854168552858520878982541617905560195416845284842086888254161790553084525282822084868254161790558152209182541617905562000723565b62000723565b16908115620004605781906007541617600755848751938180a3600c5494301562000409575050507fddf252ad1be2c89b69c2b068fc378daa952ba7f163c4a11628f55a4df523b3ef90620003d1846002546200090d565b600255308352828152620003e984868520546200090d565b3084528382528584205584519384523093a351612c659081620009b18239f35b926064937f08c379a000000000000000000000000000000000000000000000000000000000845283015260248201527f45524332303a206d696e7420746f20746865207a65726f2061646472657373006044820152fd5b608487868a51917f08c379a0000000000000000000000000000000000000000000000000000000008352820152602660248201527f4f776e61626c653a206e6577206f776e657220697320746865207a65726f206160448201527f64647265737300000000000000000000000000000000000000000000000000006064820152fd5b95505094955050905081813d831162000549575b62000502818362000665565b81010312620005455792878f93620003799796948f8f6023858f620003739962000530620003739d620006b7565b96999c5094975092959850989a9b50620002d1565b8c80fd5b503d620004f6565b508e513d8e823e3d90fd5b94955050505081813d83116200059f575b62000579818362000665565b810103126200054557908b8f8f8f949062000596604492620006b7565b9290916200026d565b503d6200056d565b939495969798995050905081813d8311620005f3575b620005c9818362000665565b81010312620005ef57908c8b8f989796959493620005e790620006b7565b98386200022a565b8b80fd5b503d620005bd565b8e513d8e823e3d90fd5b600088815286858183209301048201915b82811062000626575050620000c0565b81815560010162000616565b60006003815285848183209301048201915b8281106200065457505062000080565b81815560010162000644565b600080fd5b90601f8019910116810190811067ffffffffffffffff8211176200068857604052565b7f4e487b7100000000000000000000000000000000000000000000000000000000600052604160045260246000fd5b5190600160a060020a03821682036200066057565b906001600283049216801562000718575b6020831014620006e957565b7f4e487b7100000000000000000000000000000000000000000000000000000000600052602260045260246000fd5b91607f1691620006dd565b600160a060020a0316801562000889576000818152600a60205260ff6040822054166200082b57818152600a60205260408120805460ff1916600117905560095468010000000000000000811015620007fe576001810180600955811015620007d157600982527f6e1540171b6c0c960b71a7020d9f60077f6af931a8bbf590da0223dacf75c7af018054600160a060020a03191683179055600080516020620036168339815191528180a3565b6024827f4e487b710000000000000000000000000000000000000000000000000000000081526032600452fd5b6024827f4e487b710000000000000000000000000000000000000000000000000000000081526041600452fd5b60646040517f08c379a000000000000000000000000000000000000000000000000000000000815260206004820152601c60248201527f4f776e61626c653a204f776e6572206973206e6f7420756e69717565000000006044820152fd5b60846040517f08c379a000000000000000000000000000000000000000000000000000000000815260206004820152602260248201527f4f776e61626c653a204f776e657220697320746865207a65726f20616464726560448201527f73730000000000000000000000000000000000000000000000000000000000006064820152fd5b9081019081811162000981578110620009235790565b60646040517f08c379a000000000000000000000000000000000000000000000000000000000815260206004820152601b60248201527f536166654d6174683a206164646974696f6e206f766572666c6f7700000000006044820152fd5b7f4e487b7100000000000000000000000000000000000000000000000000000000600052601160045260246000fdfe608060409080825260049081361015610053575b5050361561002057600080fd5b3461002757005b513481527fe1fffcc4923d04b559f4d29a8bfc6cda04eb5b0d3c460751c2402c5c5cc9109c60203392a2005b6000917c0100000000000000000000000000000000000000000000000000000000833504918263013cf08b14611e315750816306fdde0314611d3a578163095ea7b314611d105781630abdc64014611ce85781630d61b519146119095781631694505e146118e157816318160ddd146118c25781631b45a47a146118a357816323b872dd146117c95781632a9af7ba146117aa578163313ce5671461178e578163392627731461176f57816339509351146117275781633ccfd60b146114f6578163553000c1146114d8578163562e9df9146114b057816370a082311461147a5781637918447e1461145b5781637a594a2b146114335781637d81936c146114145781638198c34114610f3357816385a6a09114610e1e5781638da5cb5b14610df6578163933f5e0714610dd757816395d89b4114610cd157816398951b5614610bb0578163a457c2d714610ad3578163a6f2ae3a14610a68578163a9059cbb14610a37578163b6bba0ae14610a18578163c4ce220b146109f9578163c84ad9a5146109d5578163d7196dd914610873578163d8a0f828146107fb578163dce165a61461029957508063dd62ed3e146102505763fe7441e7146102165780610013565b903461024c57602036600319011261024c5780602092600160a060020a0361023c612109565b168152600e845220549051908152f35b5080fd5b50903461024c578060031936011261024c578060209261026e612109565b610276612124565b600160a060020a0391821683526001865283832091168252845220549051908152f35b905082346107f757610180806003193601126107f3578383359182151580930361024c576024938435918215158093036107f357604435948515158096036107ef5760643593841515968786036107eb5760a4359788151590818a036107e757610144358015159a8b82036107e3576101643599600160a060020a039b8c8c16809c036107e05760ff8b61033792338152600a602052205416612188565b610764575b6106d0575b610660575b8651966101c0880188811067ffffffffffffffff82111761064a57908e918152338952602089019182528801958652606088019485526080880193845260a0880191825260c0880191608435835260e0890193845261010089019460c43586526101208a019660e43588526101408b0198610104358a526101608c019a610124358c528c019e8f526101a08c019c8d5260055468010000000000000000811015610630578060016103fa920160055561206c565b9c909c61061757518c5495519151925193519451151578010000000000000000000000000000000000000000000000000278ff00000000000000000000000000000000000000000000000016941515770100000000000000000000000000000000000000000000000277ff0000000000000000000000000000000000000000000000169315157601000000000000000000000000000000000000000000000276ff000000000000000000000000000000000000000000001692151575010000000000000000000000000000000000000000000275ff0000000000000000000000000000000000000000001691151560a060020a0274ff000000000000000000000000000000000000000016908f1678ffffffffffffffffffffffffffffffffffffffffffffffffff1990961695909517949094179390931792909217919091171787555160018701555160028601805460ff191691151560ff1691909117905551600385015551888401555160058301555160068201556007019251151561058e90849060ff801983541691151516179055565b51168154906101000274ffffffffffffffffffffffffffffffffffffffff00169074ffffffffffffffffffffffffffffffffffffffff0019161790556005549160001983019283116106035750507f096aa03a7cd4aba017b05ce697df0e528a91d045a01285c50e931b0c0c4939ce8280a280f35b6011849160e060020a634e487b7102835252fd5b50505050508b8e808f60e060020a634e487b7102825252fd5b50505050508b8e60418f60e060020a634e487b7102835252fd5b508b8e60418f60e060020a634e487b7102835252fd5b876103465760848c60338d60208b519360e560020a62461bcd0285528401528201527f4d756c74695369676e617475726557616c6c65743a206e6577206f776e65722060448201527f697320746865207a65726f2061646472657373000000000000000000000000006064820152fd5b600a6106f3610124356106ee610104356106ee60e43560c4356121d6565b6121d6565b11156103415760848d60338e60208c519360e560020a62461bcd0285528401528201527f4d756c74695369676e617475726557616c6c65743a204d757374206b6565702060448201527f6665657320617420313025206f72206c657373000000000000000000000000006064820152fd5b6611c37937e08000601354111561033c5760848e603c8f60208d519360e560020a62461bcd0285528401528201527f4d756c74695369676e617475726557616c6c65743a204d757374206b6565702060448201527f3530303030303030303030303030303020576569206f72206c657373000000006064820152fd5b80fd5b8a80fd5b8880fd5b8680fd5b8480fd5b8380fd5b8280fd5b83915060203660031901126107f7577fc5d4fbaddd2087d369f5cf16ad7544f41ef0dc291b510e4cb1cb6e6eaae745399161086b602092338652600a845261084860ff8488205416612188565b600d5461085b60ff61010083041661213a565b61ff001916600d55349035612253565b51348152a180f35b90503461024c578160031936011261024c57338252602090600a825261089e60ff8585205416612188565b600160a060020a03906108b98260175416601e549030612815565b6108cb8260185416601f549030612815565b6108dc826019541684549030612815565b838080806108fa6108f2601e54601f54906121d6565b8854906121d6565b9581601e5581601f55818855601754163031905af13d156109d0573d67ffffffffffffffff81116109ba5786519061093b601f8201601f1916870183612231565b815285853d92013e5b1561097557507f21a3a3648d0b2afc084acd733d71600b506fa4eca7ef1f5e24718c5e17f4e7ff929351908152a180f35b6064908386519160e560020a62461bcd028352820152601260248201527f4661696c656420746f2073656e6420424e4200000000000000000000000000006044820152fd5b60248660418560e060020a634e487b7102835252fd5b610944565b82843461024c578160031936011261024c5760209060ff600d541690519015158152f35b82843461024c578160031936011261024c57602090601a549051908152f35b82843461024c578160031936011261024c57602090601c549051908152f35b82843461024c578060031936011261024c57602090610a61610a57612109565b602435903361273e565b5160018152f35b82848160031936011261024c57610a99610aac91610a8a60ff600d541661213a565b30845283602052832054612bb0565b610aa1612bf6565b506064349104612253565b7f6cd8c20496fa31dba3f83c7adca278c356a6caa5529741a5d2b9b774613c198b8180a180f35b919050346107e057826003193601126107e057610aee612109565b9183602435923381526001602052818120600160a060020a0386168252602052205490828210610b4457602085610a6186610b3d8787610b38610b2f612a6c565b82841115612aa5565b6123b6565b903361291d565b608490602086519160e560020a62461bcd028352820152602560248201527f45524332303a2064656372656173656420616c6c6f77616e63652062656c6f7760448201527f207a65726f0000000000000000000000000000000000000000000000000000006064820152fd5b905082346107f7576020806003193601126107f357823592338552600a8252610bde60ff8487205416612188565b610beb60055485106123c3565b83855260068252828520338652825260ff8386205416610c675750610c2360ff60a060020a610c198661206c565b5054041615612437565b8284526006815281842090338552528220600160ff19825416179055337f12c8d6025943157cbcb4e904b3e3d97d2ac7eae9f61f343b2e7cb23be24bdbb78380a380f35b90608492519160e560020a62461bcd028352820152603c60248201527f4d756c74695369676e617475726557616c6c65743a2070726f706f73616c206160448201527f6c72656164792077617320617070726f766564206279206f776e6572000000006064820152fd5b905082346107f757826003193601126107f757805191838154916002830491600191828516948515610dcd575b6020958686108114610db757858952908115610d945750600114610d3c575b610d388787610d2e828c0383612231565b51918291826120c0565b0390f35b81529295507f8a35acfbc15ff81a39ae7d344fd709f28e8600b4aa8c65c6b64bfe7fe36bd19b5b828410610d815750505082610d3894610d2e92820101948680610d1d565b8054868501880152928601928101610d63565b60ff19168887015250505050151581028301019250610d2e82610d388680610d1d565b60248460228560e060020a634e487b7102835252fd5b93607f1693610cfe565b82843461024c578160031936011261024c57602090601d549051908152f35b82843461024c578160031936011261024c57602090600160a060020a03600854169051908152f35b905082346107f7576020806003193601126107f357823592338552600a8252610e4c60ff8487205416612188565b610e5960055485106123c3565b610e6c60ff60a060020a610c198761206c565b83855260068252828520338652825260ff838620541615610ec95750828452600681528184209033855252822060ff198154169055337fb8b1cbdd07c030bed9e01f4ee5465e3a3fd2aa8f7135c84467c0f3cf203925eb8380a380f35b90608492519160e560020a62461bcd028352820152602e60248201527f4d756c74695369676e617475726557616c6c65743a2050726f706f73616c206960448201527f73206e6f7420617070726f7665640000000000000000000000000000000000006064820152fd5b905082346107f75760603660031901126107f757610f4f612109565b906024803593604490813590600160a060020a03928360075416943386036113aa578489981694858b52602096600a885260ff898d20541661136757861461132457806017541686146112e1578060185416861461129e5760195416851461125b57604b841161121857848a52600e8652868a20546111d557601654891161116c57505050610fe060649187612bd1565b610fe8612bf6565b500494601a5490601b54610ffc81846121d6565b9261100a601c5480956121d6565b9081611032575050505050611025600e939495601e54612a57565b601e555b85525282205580f35b611043919294999395979850612b8f565b8161104c612bf6565b5061105691612ad0565b9261106090612b8f565b81611069612bf6565b5061107391612ad0565b9761107d90612b8f565b90611086612bf6565b5061109091612ad0565b9161109b9082612bd1565b6110a3612bf6565b5060649004966110b39082612bd1565b6110bb612bf6565b5060649004916110ca91612bd1565b6110d2612bf6565b506064900491866110e1612a6c565b6110ee9083831115612aa5565b6110f7916123b6565b81611100612a6c565b61110d9083831115612aa5565b611116916123b6565b8261111f612a6c565b61112c9083831115612aa5565b611135916123b6565b95601e549061114391612a57565b601e55601f549061115391612a57565b601f5581549061116291612a57565b8155600e91611029565b6084929160387f416d6f756e742063616e2774206578636565647320746865206d61782074726192888a519560e560020a62461bcd0287528601528401528201527f6e73616374696f6e20776974686472617720616d6f756e7400000000000000006064820152fd5b60649291601c7f55736572206861732070656e64696e67205769746864726177616c730000000092888a519560e560020a62461bcd028752860152840152820152fd5b6064929160197f546865206665652063616e6e6f7420657863656564203735250000000000000092888a519560e560020a62461bcd028752860152840152820152fd5b60649291601b7f5465616d2063616e2774206d616b65207769746864726177616c73000000000092888a519560e560020a62461bcd028752860152840152820152fd5b6064847f536b796c65722063616e2774206d616b65207769746864726177616c7300000085601d868c8e519560e560020a62461bcd028752860152840152820152fd5b6064847f48656973656e2063616e2774206d616b65207769746864726177616c7300000085601d868c8e519560e560020a62461bcd028752860152840152820152fd5b6064847f4261636b656e642063616e2774206d616b65207769746864726177616c73000085601e868c8e519560e560020a62461bcd028752860152840152820152fd5b6064857f4f776e6572732063616e2774206d616b65207769746864726177616c7300000086601d878d8f519560e560020a62461bcd028752860152840152820152fd5b6084929160227f4f776e61626c653a2063616c6c6572206973206e6f7420746865206261636b659260208a519560e560020a62461bcd0287528601528401528201527f6e640000000000000000000000000000000000000000000000000000000000006064820152fd5b82843461024c578160031936011261024c57602090601b549051908152f35b82843461024c578160031936011261024c57602090600160a060020a03601754169051908152f35b82843461024c578160031936011261024c576020906013549051908152f35b82843461024c57602036600319011261024c5780602092600160a060020a036114a1612109565b16815280845220549051908152f35b82843461024c578160031936011261024c57602090600160a060020a03601954169051908152f35b82843461024c578160031936011261024c5760209081549051908152f35b90508160031936011261024c573382526020906011825283832054620151808101908181116116f75781106116b257421161170d575b338352601282528383205460018101908181116116f75781106116b257338452601283528484205583832054601554106116485760135434106115b857507f5b6b431d4476a211bb7d41c20d1aab9ae2321deee0d20be3d9fc9b1093fa6e3d9192338452600e825280842054906115a4823330612815565b338552600e8352848181205551908152a180f35b60a49184519160e560020a62461bcd028352820152604460248201527f54686520616d6f756e742073656e74206973206e6f7420657175616c20746f2060448201527f74686520424e4220616d6f756e7420726571756972656420666f72207769746860648201527f64726177000000000000000000000000000000000000000000000000000000006084820152fd5b60849184519160e560020a62461bcd028352820152603060248201527f596f752063616e6e6f74206d616b65206d6f7265207468616e206f6e6520776960448201527f746864726177616c2070657220646179000000000000000000000000000000006064820152fd5b5060649184519160e560020a62461bcd028352820152601b60248201527f536166654d6174683a206164646974696f6e206f766572666c6f7700000000006044820152fd5b60248560118560e060020a634e487b7102835252fd5b33835260118252428484205560128252828481205561152c565b82843461024c578060031936011261024c57610a61602092610b3d61174a612109565b9133815260018652848120600160a060020a0384168252865284602435912054612a57565b82843461024c578160031936011261024c57602090601e549051908152f35b82843461024c578160031936011261024c576020905160128152f35b82843461024c578160031936011261024c576020906021549051908152f35b90503461024c57606036600319011261024c576117e4612109565b6117ec612124565b918460443594600160a060020a038416815260016020528181203382526020522054906000198203611827575b602086610a6187878761273e565b84821061185d575091839161185261184b60209796610a6196610b38610b2f612a6c565b338361291d565b919394819350611819565b606490602087519160e560020a62461bcd028352820152601d60248201527f45524332303a20696e73756666696369656e7420616c6c6f77616e63650000006044820152fd5b82843461024c578160031936011261024c57602090601f549051908152f35b82843461024c578160031936011261024c576020906002549051908152f35b82843461024c578160031936011261024c57602090600160a060020a03600b54169051908152f35b839150346107f7576020806003193601126107f357813561192d60055482106123c3565b6119368161206c565b5060ff9161194e8360a060020a809454041615612437565b60095487805b828110611c69575010611bfd579061196d60079261206c565b509074ff000000000000000000000000000000000000000019825416178082558484807501000000000000000000000000000000000000000000840416611ba3575b9150507701000000000000000000000000000000000000000000000082540416611b67575b82780100000000000000000000000000000000000000000000000082540416611b31575b82600282015416611ad2575b0154908116611a11578480f35b610100600160a060020a03910416928315611a685750505080600160a060020a03196007541617600755817f8be0079c531659141344cd1fd0a4f28419497f9722a3daafe3b4186f6b6457e08180a3818080808480f35b60849350519160e560020a62461bcd028352820152602660248201527f4f776e61626c653a206e6577206f776e657220697320746865207a65726f206160448201527f64647265737300000000000000000000000000000000000000000000000000006064820152fd5b7fac9d517045a5ec57da9f145e5c349535857baa98b41fa00aea81886b40b65ee96080600383015487840154600585015460068601549183601a5580601b5581601c5582601d558b51938452898401528a8301526060820152a1611a04565b7f7752c7a6d518ab1cf03b50e7d7fd3da3258eb319dc343789e0a7bed06c43066c846001830154806013558851908152a16119f8565b611b9a3031611b776021546124ab565b3089528886526064611b8b898b2054612af3565b611b93612bf6565b5004612253565b866021556119d4565b7601000000000000000000000000000000000000000000007f01b48326d6e9158a921c6006b9d6ad4b9d777c488e9b7924b3e0c8b0b1304604930416151560ff19600d541686821617600d558851908152a18784846119af565b505050608492519160e560020a62461bcd028352820152603560248201527f4d756c74695369676e617475726557616c6c65743a20617070726f76616c732060448201527f6973206c657373207468616e20726571756972656400000000000000000000006064820152fd5b838a5260068752888a20600160a060020a03827f6e1540171b6c0c960b71a7020d9f60077f6af931a8bbf590da0223dacf75c7af0154168b52875285898b205416611cd6575b6000198114611cc057600101611954565b60248a60118a60e060020a634e487b7102835252fd5b9060018101809111611cc05790611caf565b82843461024c578160031936011261024c57602090600160a060020a03601854169051908152f35b82843461024c578060031936011261024c57602090610a61611d30612109565b602435903361291d565b905082346107f757826003193601126107f7578051918360035460028104916001918281168015611e27575b6020958686108214611e115750848852908115611df05750600114611d97575b610d388686610d2e828b0383612231565b929550600383527fc2575a0e9e593c00f959f8c92f12db2869c3395a3b0502d05e2516446f71f85b5b828410611ddd5750505082610d3894610d2e928201019486611d86565b8054868501880152928601928101611dc0565b60ff191687860152505050151581028301019250610d2e82610d3886611d86565b83602260249260e060020a634e487b7102835252fd5b93607f1693611d66565b848492346107f35760203660031901126107f357356005548110156107f35760089060056101c0955202807f036b6384b5eca791c62761152d0c79bb0604c104a5fb6f4eb0703f3154bb3db001547f036b6384b5eca791c62761152d0c79bb0604c104a5fb6f4eb0703f3154bb3db18201549160ff90817f036b6384b5eca791c62761152d0c79bb0604c104a5fb6f4eb0703f3154bb3db282015416937f036b6384b5eca791c62761152d0c79bb0604c104a5fb6f4eb0703f3154bb3db3820154947f036b6384b5eca791c62761152d0c79bb0604c104a5fb6f4eb0703f3154bb3db4830154907f036b6384b5eca791c62761152d0c79bb0604c104a5fb6f4eb0703f3154bb3db5840154928578010000000000000000000000000000000000000000000000007f036b6384b5eca791c62761152d0c79bb0604c104a5fb6f4eb0703f3154bb3db77f036b6384b5eca791c62761152d0c79bb0604c104a5fb6f4eb0703f3154bb3db6880154970154988c600160a060020a039c8d831682528460a060020a8404161515602083015284750100000000000000000000000000000000000000000084041615159101528c60608476010000000000000000000000000000000000000000000084041615159101528c6080847701000000000000000000000000000000000000000000000084041615159101520416151560a08b015260c08a0152151560e089015261010095868901526101208801526101408701526101608601528116151561018085015204166101a0820152f35b6005548110156120a7576008906005600052027f036b6384b5eca791c62761152d0c79bb0604c104a5fb6f4eb0703f3154bb3db00190600090565b60e060020a634e487b7102600052603260045260246000fd5b6020808252825181830181905290939260005b8281106120f557505060409293506000838284010152601f8019910116010190565b8181018601518482016040015285016120d3565b60043590600160a060020a038216820361211f57565b600080fd5b60243590600160a060020a038216820361211f57565b1561214157565b606460405160e560020a62461bcd02815260206004820152601560248201527f50726573616c652069736e277420656e61626c656400000000000000000000006044820152fd5b1561218f57565b606460405160e560020a62461bcd02815260206004820152601f60248201527f4f776e61626c653a2063616c6c6572206973206e6f7420616e206f776e6572006044820152fd5b919082018092116121e357565b60e060020a634e487b7102600052601160045260246000fd5b6040810190811067ffffffffffffffff82111761221857604052565b60e060020a634e487b7102600052604160045260246000fd5b90601f8019910116810190811067ffffffffffffffff82111761221857604052565b600160a060020a039081600b54169161227b600093308552846020526040852054903061291d565b600b54169061012c420180421161239f574281106123585760c46060928660405195869485937ff305d719000000000000000000000000000000000000000000000000000000008552306004860152602485015288604485015288606485015230608485015260a48401525af1801561234d57612322575b505060207ffdb748c915e4e67b4bb23287bf4295a4595ce48b50343214369f72ccfb974cfa91604051908152a1565b606090813d8111612346575b6123388183612231565b810103126107e057806122f3565b503d61232e565b6040513d84823e3d90fd5b606460405160e560020a62461bcd02815260206004820152601b60248201527f536166654d6174683a206164646974696f6e206f766572666c6f7700000000006044820152fd5b60248460e060020a634e487b710281526011600452fd5b919082039182116121e357565b156123ca57565b608460405160e560020a62461bcd02815260206004820152602d60248201527f4d756c74695369676e617475726557616c6c65743a2070726f706f73616c206460448201527f6f6573206e6f74206578697374000000000000000000000000000000000000006064820152fd5b1561243e57565b608460405160e560020a62461bcd02815260206004820152603360248201527f4d756c74695369676e617475726557616c6c65743a2070726f706f73616c207760448201527f617320616c7265616479206578656375746564000000000000000000000000006064820152fd5b604080519167ffffffffffffffff90606084018281118582101761221857835260028452602080850190843683378551156120a757308252600160a060020a039283600b5416918651927fad5c46480000000000000000000000000000000000000000000000000000000084528184600481845afa93841561264b57600094612611575b508851936001948510156120a75761254f91878592168a8c01523061291d565b84600b541694853b1561211f5791879894939198519889957f791ac94700000000000000000000000000000000000000000000000000000000875260a487019260048801526000602488015260a060448801525180925260c4860194936000905b8382106125f7575050505050509181600081819530606483015242608483015203925af180156125ec576125e357505050565b82116122185752565b82513d6000823e3d90fd5b8551811687528b97509582019594820194908401906125b0565b8281819693963d8311612644575b6126298183612231565b8101031261024c57519086821682036107e05750923861252f565b503d61261f565b88513d6000823e3d90fd5b1561265d57565b608460405160e560020a62461bcd02815260206004820152602560248201527f45524332303a207472616e736665722066726f6d20746865207a65726f20616460448201527f64726573730000000000000000000000000000000000000000000000000000006064820152fd5b156126d157565b608460405160e560020a62461bcd02815260206004820152602360248201527f45524332303a207472616e7366657220746f20746865207a65726f206164647260448201527f65737300000000000000000000000000000000000000000000000000000000006064820152fd5b906127999291600160a060020a038082169061275b821515612656565b8316906127698215156126ca565b600091818352602260205260ff604084205416908115612804575b501590816127ee575b5061279b575b50612815565b565b6127be60646127ac601d5487612bd1565b6127b4612bf6565b5004602154612a57565b6021556127e530316127cf866124ab565b308352826020526064611b8b6040852054612af3565b60215538612793565b8252506024602052604081205460ff163861278d565b835250604082205460ff1638612784565b600160a060020a038091169161282c831515612656565b16916128398315156126ca565b600082815280602052604090818120548381106128b1579183916128867fddf252ad1be2c89b69c2b068fc378daa952ba7f163c4a11628f55a4df523b3ef95602095610b38610b2f612a6c565b86825281855282822055868152816128a18482842054612a57565b91888152808652205551908152a3565b6084835160e560020a62461bcd02815260206004820152602660248201527f45524332303a207472616e7366657220616d6f756e742065786365656473206260448201527f616c616e636500000000000000000000000000000000000000000000000000006064820152fd5b600160a060020a038091169182156129eb571691821561297e5760207f8c5be1e5ebec7d5bd14f71427d1e84f3dd0314c0f7b2291e5b200ac8c7c3b925918360005260018252604060002085600052825280604060002055604051908152a3565b608460405160e560020a62461bcd02815260206004820152602260248201527f45524332303a20617070726f766520746f20746865207a65726f20616464726560448201527f73730000000000000000000000000000000000000000000000000000000000006064820152fd5b608460405160e560020a62461bcd028152602060048201526024808201527f45524332303a20617070726f76652066726f6d20746865207a65726f2061646460448201527f72657373000000000000000000000000000000000000000000000000000000006064820152fd5b90612a6290826121d6565b9081106123585790565b60405190612a79826121fc565b601e82527f536166654d6174683a207375627472616374696f6e206f766572666c6f7700006020830152565b15612aad5750565b612acc9060405191829160e560020a62461bcd028352600483016120c0565b0390fd5b8115612ada570490565b60e060020a634e487b7102600052601260045260246000fd5b8015612b8957601e810290808204601e036121e357612b14601e9183612ad0565b03612b1c5790565b608460405160e560020a62461bcd02815260206004820152602160248201527f536166654d6174683a206d756c7469706c69636174696f6e206f766572666c6f60448201527f77000000000000000000000000000000000000000000000000000000000000006064820152fd5b50600090565b8015612b895760648102908082046064036121e357612b1460649183612ad0565b8015612b8957600a810290808204600a036121e357612b14600a9183612ad0565b908115612bef578082029180830482036121e357612b149083612ad0565b5050600090565b60405190612c03826121fc565b601a82527f536166654d6174683a206469766973696f6e206279207a65726f000000000000602083015256fea2646970667358221220b9f1a0edcc7a52a47c82615094e790ebe5a3fb9dc62c8479e9c1ce783f3b9e7364736f6c634300081100338be0079c531659141344cd1fd0a4f28419497f9722a3daafe3b4186f6b6457e0",
					"opcodes": "PUSH1 0x80 PUSH1 0x40 SWAP1 DUP1 DUP3 MSTORE CALLVALUE PUSH3 0x660 JUMPI PUSH1 0x80 DUP2 PUSH3 0x3636 DUP1 CODESIZE SUB DUP1 SWAP2 PUSH3 0x25 DUP3 DUP6 PUSH3 0x665 JUMP JUMPDEST DUP4 CODECOPY DUP2 ADD SUB SLT PUSH3 0x660 JUMPI PUSH3 0x3B DUP2 PUSH3 0x6B7 JUMP JUMPDEST PUSH1 0x20 PUSH3 0x4A DUP2 DUP5 ADD PUSH3 0x6B7 JUMP JUMPDEST SWAP2 PUSH3 0x66 PUSH1 0x60 PUSH3 0x5E DUP8 DUP8 ADD PUSH3 0x6B7 JUMP JUMPDEST SWAP6 ADD PUSH3 0x6B7 JUMP JUMPDEST PUSH3 0x73 PUSH1 0x3 SLOAD PUSH3 0x6CC JUMP JUMPDEST SWAP1 PUSH1 0x1F SWAP2 DUP3 DUP2 GT PUSH3 0x632 JUMPI JUMPDEST POP PUSH1 0x12 PUSH32 0x5377697368466973680000000000000000000000000000000000000000000000 ADD PUSH1 0x3 SSTORE PUSH1 0x4 SWAP6 PUSH3 0xB7 DUP8 SLOAD PUSH3 0x6CC JUMP JUMPDEST DUP4 DUP2 GT PUSH3 0x605 JUMPI JUMPDEST POP PUSH1 0x6 PUSH32 0x5346480000000000000000000000000000000000000000000000000000000000 ADD DUP8 SSTORE PUSH1 0x1 PUSH1 0xA0 PUSH1 0x2 EXP SUB NOT SWAP2 CALLER DUP4 PUSH1 0x8 SLOAD AND OR PUSH1 0x8 SSTORE DUP9 MLOAD SWAP2 PUSH1 0x0 SWAP8 PUSH1 0x0 DUP1 MLOAD PUSH1 0x20 PUSH3 0x3616 DUP4 CODECOPY DUP2 MLOAD SWAP2 MSTORE SWAP7 CALLER DUP11 DUP10 DUP2 DUP1 LOG3 PUSH12 0x33B2E3C9FD0803CE8000000 PUSH1 0xC SSTORE PUSH2 0x100 PUSH2 0xFFFF NOT PUSH1 0xD SLOAD AND OR PUSH1 0xD SSTORE PUSH7 0x11C37937E08000 PUSH1 0x13 SSTORE PUSH1 0x1 DUP1 PUSH1 0x14 SSTORE DUP1 PUSH1 0x15 SSTORE PUSH10 0x152D02C7E14AF6800000 PUSH1 0x16 SSTORE PUSH20 0xEDA73409D4BBD147F4E1295A73A2CA243A529338 DUP8 PUSH1 0x17 SLOAD AND OR PUSH1 0x17 SSTORE PUSH20 0x3C1CD83D8850803C9C42FF5083F56B66B00FBD61 DUP8 PUSH1 0x18 SLOAD AND OR PUSH1 0x18 SSTORE PUSH20 0x63024AC73FE77427F20E8247FA26F470C0D9700B DUP8 PUSH1 0x19 SLOAD AND OR PUSH1 0x19 SSTORE PUSH1 0x2 PUSH1 0x1A SSTORE PUSH1 0x3 PUSH1 0x1B SSTORE PUSH1 0x3 PUSH1 0x1C SSTORE PUSH1 0x2 PUSH1 0x1D SSTORE DUP11 PUSH1 0x1E SSTORE DUP11 DUP9 SSTORE DUP11 DUP11 SSTORE DUP11 PUSH1 0x21 SSTORE PUSH32 0xC45A015500000000000000000000000000000000000000000000000000000000 DUP7 MSTORE DUP12 DUP11 DUP8 PUSH20 0x9AC64CC6E4415144C455BD8E4837FEA55603E5C3 SWAP3 DUP2 DUP5 GAS STATICCALL SWAP7 DUP8 ISZERO PUSH3 0x5FB JUMPI DUP12 DUP16 DUP16 SWAP3 DUP16 SWAP11 PUSH3 0x5A7 JUMPI JUMPDEST POP MLOAD DUP1 SWAP3 PUSH32 0xAD5C464800000000000000000000000000000000000000000000000000000000 DUP3 MSTORE DUP2 DUP6 GAS STATICCALL SWAP1 DUP2 ISZERO PUSH3 0x551 JUMPI DUP16 SWAP2 DUP16 DUP16 SWAP5 SWAP4 DUP16 SWAP4 DUP7 SWAP4 PUSH3 0x55C JUMPI JUMPDEST POP SWAP1 PUSH1 0x44 SWAP2 MLOAD SWAP6 DUP7 SWAP4 DUP5 SWAP3 PUSH32 0xC9C6539600000000000000000000000000000000000000000000000000000000 DUP5 MSTORE ADDRESS SWAP1 DUP5 ADD MSTORE PUSH1 0x1 PUSH1 0xA0 PUSH1 0x2 EXP SUB SWAP14 DUP15 DUP1 SWAP3 AND PUSH1 0x24 DUP6 ADD MSTORE AND GAS CALL SWAP2 DUP3 ISZERO PUSH3 0x551 JUMPI DUP16 SWAP2 DUP10 SWAP5 SWAP4 DUP16 SWAP3 SWAP2 DUP16 SWAP3 DUP14 SWAP1 DUP6 SWAP4 PUSH3 0x4E2 JUMPI JUMPDEST POP SWAP3 PUSH1 0x23 DUP9 PUSH3 0x373 SWAP11 SWAP8 SWAP5 PUSH3 0x379 SWAP14 SWAP13 SWAP11 SWAP8 SWAP5 PUSH3 0x373 SWAP11 SWAP8 PUSH1 0xB SLOAD AND OR PUSH1 0xB SSTORE AND SWAP2 DUP3 DUP5 MSTORE PUSH1 0x24 DUP2 MSTORE DUP5 DUP5 KECCAK256 SWAP7 PUSH1 0xFF NOT SWAP8 DUP8 DUP10 DUP3 SLOAD AND OR SWAP1 SSTORE ADDRESS DUP6 MSTORE PUSH1 0x22 DUP3 MSTORE DUP6 DUP6 KECCAK256 DUP8 DUP10 DUP3 SLOAD AND OR SWAP1 SSTORE DUP1 PUSH1 0x17 SLOAD AND DUP6 MSTORE DUP6 DUP6 KECCAK256 DUP8 DUP10 DUP3 SLOAD AND OR SWAP1 SSTORE DUP1 PUSH1 0x18 SLOAD AND DUP6 MSTORE DUP6 DUP6 KECCAK256 DUP8 DUP10 DUP3 SLOAD AND OR SWAP1 SSTORE PUSH1 0x19 SLOAD AND DUP5 MSTORE DUP5 DUP5 KECCAK256 DUP7 DUP9 DUP3 SLOAD AND OR SWAP1 SSTORE ADDRESS DUP5 MSTORE MSTORE DUP3 DUP3 KECCAK256 DUP5 DUP7 DUP3 SLOAD AND OR SWAP1 SSTORE DUP2 MSTORE KECCAK256 SWAP2 DUP3 SLOAD AND OR SWAP1 SSTORE PUSH3 0x723 JUMP JUMPDEST PUSH3 0x723 JUMP JUMPDEST AND SWAP1 DUP2 ISZERO PUSH3 0x460 JUMPI DUP2 SWAP1 PUSH1 0x7 SLOAD AND OR PUSH1 0x7 SSTORE DUP5 DUP8 MLOAD SWAP4 DUP2 DUP1 LOG3 PUSH1 0xC SLOAD SWAP5 ADDRESS ISZERO PUSH3 0x409 JUMPI POP POP POP PUSH32 0xDDF252AD1BE2C89B69C2B068FC378DAA952BA7F163C4A11628F55A4DF523B3EF SWAP1 PUSH3 0x3D1 DUP5 PUSH1 0x2 SLOAD PUSH3 0x90D JUMP JUMPDEST PUSH1 0x2 SSTORE ADDRESS DUP4 MSTORE DUP3 DUP2 MSTORE PUSH3 0x3E9 DUP5 DUP7 DUP6 KECCAK256 SLOAD PUSH3 0x90D JUMP JUMPDEST ADDRESS DUP5 MSTORE DUP4 DUP3 MSTORE DUP6 DUP5 KECCAK256 SSTORE DUP5 MLOAD SWAP4 DUP5 MSTORE ADDRESS SWAP4 LOG3 MLOAD PUSH2 0x2C65 SWAP1 DUP2 PUSH3 0x9B1 DUP3 CODECOPY RETURN JUMPDEST SWAP3 PUSH1 0x64 SWAP4 PUSH32 0x8C379A000000000000000000000000000000000000000000000000000000000 DUP5 MSTORE DUP4 ADD MSTORE PUSH1 0x24 DUP3 ADD MSTORE PUSH32 0x45524332303A206D696E7420746F20746865207A65726F206164647265737300 PUSH1 0x44 DUP3 ADD MSTORE REVERT JUMPDEST PUSH1 0x84 DUP8 DUP7 DUP11 MLOAD SWAP2 PUSH32 0x8C379A000000000000000000000000000000000000000000000000000000000 DUP4 MSTORE DUP3 ADD MSTORE PUSH1 0x26 PUSH1 0x24 DUP3 ADD MSTORE PUSH32 0x4F776E61626C653A206E6577206F776E657220697320746865207A65726F2061 PUSH1 0x44 DUP3 ADD MSTORE PUSH32 0x6464726573730000000000000000000000000000000000000000000000000000 PUSH1 0x64 DUP3 ADD MSTORE REVERT JUMPDEST SWAP6 POP POP SWAP5 SWAP6 POP POP SWAP1 POP DUP2 DUP2 RETURNDATASIZE DUP4 GT PUSH3 0x549 JUMPI JUMPDEST PUSH3 0x502 DUP2 DUP4 PUSH3 0x665 JUMP JUMPDEST DUP2 ADD SUB SLT PUSH3 0x545 JUMPI SWAP3 DUP8 DUP16 SWAP4 PUSH3 0x379 SWAP8 SWAP7 SWAP5 DUP16 DUP16 PUSH1 0x23 DUP6 DUP16 PUSH3 0x373 SWAP10 PUSH3 0x530 PUSH3 0x373 SWAP14 PUSH3 0x6B7 JUMP JUMPDEST SWAP7 SWAP10 SWAP13 POP SWAP5 SWAP8 POP SWAP3 SWAP6 SWAP9 POP SWAP9 SWAP11 SWAP12 POP PUSH3 0x2D1 JUMP JUMPDEST DUP13 DUP1 REVERT JUMPDEST POP RETURNDATASIZE PUSH3 0x4F6 JUMP JUMPDEST POP DUP15 MLOAD RETURNDATASIZE DUP15 DUP3 RETURNDATACOPY RETURNDATASIZE SWAP1 REVERT JUMPDEST SWAP5 SWAP6 POP POP POP POP DUP2 DUP2 RETURNDATASIZE DUP4 GT PUSH3 0x59F JUMPI JUMPDEST PUSH3 0x579 DUP2 DUP4 PUSH3 0x665 JUMP JUMPDEST DUP2 ADD SUB SLT PUSH3 0x545 JUMPI SWAP1 DUP12 DUP16 DUP16 DUP16 SWAP5 SWAP1 PUSH3 0x596 PUSH1 0x44 SWAP3 PUSH3 0x6B7 JUMP JUMPDEST SWAP3 SWAP1 SWAP2 PUSH3 0x26D JUMP JUMPDEST POP RETURNDATASIZE PUSH3 0x56D JUMP JUMPDEST SWAP4 SWAP5 SWAP6 SWAP7 SWAP8 SWAP9 SWAP10 POP POP SWAP1 POP DUP2 DUP2 RETURNDATASIZE DUP4 GT PUSH3 0x5F3 JUMPI JUMPDEST PUSH3 0x5C9 DUP2 DUP4 PUSH3 0x665 JUMP JUMPDEST DUP2 ADD SUB SLT PUSH3 0x5EF JUMPI SWAP1 DUP13 DUP12 DUP16 SWAP9 SWAP8 SWAP7 SWAP6 SWAP5 SWAP4 PUSH3 0x5E7 SWAP1 PUSH3 0x6B7 JUMP JUMPDEST SWAP9 CODESIZE PUSH3 0x22A JUMP JUMPDEST DUP12 DUP1 REVERT JUMPDEST POP RETURNDATASIZE PUSH3 0x5BD JUMP JUMPDEST DUP15 MLOAD RETURNDATASIZE DUP15 DUP3 RETURNDATACOPY RETURNDATASIZE SWAP1 REVERT JUMPDEST PUSH1 0x0 DUP9 DUP2 MSTORE DUP7 DUP6 DUP2 DUP4 KECCAK256 SWAP4 ADD DIV DUP3 ADD SWAP2 JUMPDEST DUP3 DUP2 LT PUSH3 0x626 JUMPI POP POP PUSH3 0xC0 JUMP JUMPDEST DUP2 DUP2 SSTORE PUSH1 0x1 ADD PUSH3 0x616 JUMP JUMPDEST PUSH1 0x0 PUSH1 0x3 DUP2 MSTORE DUP6 DUP5 DUP2 DUP4 KECCAK256 SWAP4 ADD DIV DUP3 ADD SWAP2 JUMPDEST DUP3 DUP2 LT PUSH3 0x654 JUMPI POP POP PUSH3 0x80 JUMP JUMPDEST DUP2 DUP2 SSTORE PUSH1 0x1 ADD PUSH3 0x644 JUMP JUMPDEST PUSH1 0x0 DUP1 REVERT JUMPDEST SWAP1 PUSH1 0x1F DUP1 NOT SWAP2 ADD AND DUP2 ADD SWAP1 DUP2 LT PUSH8 0xFFFFFFFFFFFFFFFF DUP3 GT OR PUSH3 0x688 JUMPI PUSH1 0x40 MSTORE JUMP JUMPDEST PUSH32 0x4E487B7100000000000000000000000000000000000000000000000000000000 PUSH1 0x0 MSTORE PUSH1 0x41 PUSH1 0x4 MSTORE PUSH1 0x24 PUSH1 0x0 REVERT JUMPDEST MLOAD SWAP1 PUSH1 0x1 PUSH1 0xA0 PUSH1 0x2 EXP SUB DUP3 AND DUP3 SUB PUSH3 0x660 JUMPI JUMP JUMPDEST SWAP1 PUSH1 0x1 PUSH1 0x2 DUP4 DIV SWAP3 AND DUP1 ISZERO PUSH3 0x718 JUMPI JUMPDEST PUSH1 0x20 DUP4 LT EQ PUSH3 0x6E9 JUMPI JUMP JUMPDEST PUSH32 0x4E487B7100000000000000000000000000000000000000000000000000000000 PUSH1 0x0 MSTORE PUSH1 0x22 PUSH1 0x4 MSTORE PUSH1 0x24 PUSH1 0x0 REVERT JUMPDEST SWAP2 PUSH1 0x7F AND SWAP2 PUSH3 0x6DD JUMP JUMPDEST PUSH1 0x1 PUSH1 0xA0 PUSH1 0x2 EXP SUB AND DUP1 ISZERO PUSH3 0x889 JUMPI PUSH1 0x0 DUP2 DUP2 MSTORE PUSH1 0xA PUSH1 0x20 MSTORE PUSH1 0xFF PUSH1 0x40 DUP3 KECCAK256 SLOAD AND PUSH3 0x82B JUMPI DUP2 DUP2 MSTORE PUSH1 0xA PUSH1 0x20 MSTORE PUSH1 0x40 DUP2 KECCAK256 DUP1 SLOAD PUSH1 0xFF NOT AND PUSH1 0x1 OR SWAP1 SSTORE PUSH1 0x9 SLOAD PUSH9 0x10000000000000000 DUP2 LT ISZERO PUSH3 0x7FE JUMPI PUSH1 0x1 DUP2 ADD DUP1 PUSH1 0x9 SSTORE DUP2 LT ISZERO PUSH3 0x7D1 JUMPI PUSH1 0x9 DUP3 MSTORE PUSH32 0x6E1540171B6C0C960B71A7020D9F60077F6AF931A8BBF590DA0223DACF75C7AF ADD DUP1 SLOAD PUSH1 0x1 PUSH1 0xA0 PUSH1 0x2 EXP SUB NOT AND DUP4 OR SWAP1 SSTORE PUSH1 0x0 DUP1 MLOAD PUSH1 0x20 PUSH3 0x3616 DUP4 CODECOPY DUP2 MLOAD SWAP2 MSTORE DUP2 DUP1 LOG3 JUMP JUMPDEST PUSH1 0x24 DUP3 PUSH32 0x4E487B7100000000000000000000000000000000000000000000000000000000 DUP2 MSTORE PUSH1 0x32 PUSH1 0x4 MSTORE REVERT JUMPDEST PUSH1 0x24 DUP3 PUSH32 0x4E487B7100000000000000000000000000000000000000000000000000000000 DUP2 MSTORE PUSH1 0x41 PUSH1 0x4 MSTORE REVERT JUMPDEST PUSH1 0x64 PUSH1 0x40 MLOAD PUSH32 0x8C379A000000000000000000000000000000000000000000000000000000000 DUP2 MSTORE PUSH1 0x20 PUSH1 0x4 DUP3 ADD MSTORE PUSH1 0x1C PUSH1 0x24 DUP3 ADD MSTORE PUSH32 0x4F776E61626C653A204F776E6572206973206E6F7420756E6971756500000000 PUSH1 0x44 DUP3 ADD MSTORE REVERT JUMPDEST PUSH1 0x84 PUSH1 0x40 MLOAD PUSH32 0x8C379A000000000000000000000000000000000000000000000000000000000 DUP2 MSTORE PUSH1 0x20 PUSH1 0x4 DUP3 ADD MSTORE PUSH1 0x22 PUSH1 0x24 DUP3 ADD MSTORE PUSH32 0x4F776E61626C653A204F776E657220697320746865207A65726F206164647265 PUSH1 0x44 DUP3 ADD MSTORE PUSH32 0x7373000000000000000000000000000000000000000000000000000000000000 PUSH1 0x64 DUP3 ADD MSTORE REVERT JUMPDEST SWAP1 DUP2 ADD SWAP1 DUP2 DUP2 GT PUSH3 0x981 JUMPI DUP2 LT PUSH3 0x923 JUMPI SWAP1 JUMP JUMPDEST PUSH1 0x64 PUSH1 0x40 MLOAD PUSH32 0x8C379A000000000000000000000000000000000000000000000000000000000 DUP2 MSTORE PUSH1 0x20 PUSH1 0x4 DUP3 ADD MSTORE PUSH1 0x1B PUSH1 0x24 DUP3 ADD MSTORE PUSH32 0x536166654D6174683A206164646974696F6E206F766572666C6F770000000000 PUSH1 0x44 DUP3 ADD MSTORE REVERT JUMPDEST PUSH32 0x4E487B7100000000000000000000000000000000000000000000000000000000 PUSH1 0x0 MSTORE PUSH1 0x11 PUSH1 0x4 MSTORE PUSH1 0x24 PUSH1 0x0 REVERT INVALID PUSH1 0x80 PUSH1 0x40 SWAP1 DUP1 DUP3 MSTORE PUSH1 0x4 SWAP1 DUP2 CALLDATASIZE LT ISZERO PUSH2 0x53 JUMPI JUMPDEST POP POP CALLDATASIZE ISZERO PUSH2 0x20 JUMPI PUSH1 0x0 DUP1 REVERT JUMPDEST CALLVALUE PUSH2 0x27 JUMPI STOP JUMPDEST MLOAD CALLVALUE DUP2 MSTORE PUSH32 0xE1FFFCC4923D04B559F4D29A8BFC6CDA04EB5B0D3C460751C2402C5C5CC9109C PUSH1 0x20 CALLER SWAP3 LOG2 STOP JUMPDEST PUSH1 0x0 SWAP2 PUSH29 0x100000000000000000000000000000000000000000000000000000000 DUP4 CALLDATALOAD DIV SWAP2 DUP3 PUSH4 0x13CF08B EQ PUSH2 0x1E31 JUMPI POP DUP2 PUSH4 0x6FDDE03 EQ PUSH2 0x1D3A JUMPI DUP2 PUSH4 0x95EA7B3 EQ PUSH2 0x1D10 JUMPI DUP2 PUSH4 0xABDC640 EQ PUSH2 0x1CE8 JUMPI DUP2 PUSH4 0xD61B519 EQ PUSH2 0x1909 JUMPI DUP2 PUSH4 0x1694505E EQ PUSH2 0x18E1 JUMPI DUP2 PUSH4 0x18160DDD EQ PUSH2 0x18C2 JUMPI DUP2 PUSH4 0x1B45A47A EQ PUSH2 0x18A3 JUMPI DUP2 PUSH4 0x23B872DD EQ PUSH2 0x17C9 JUMPI DUP2 PUSH4 0x2A9AF7BA EQ PUSH2 0x17AA JUMPI DUP2 PUSH4 0x313CE567 EQ PUSH2 0x178E JUMPI DUP2 PUSH4 0x39262773 EQ PUSH2 0x176F JUMPI DUP2 PUSH4 0x39509351 EQ PUSH2 0x1727 JUMPI DUP2 PUSH4 0x3CCFD60B EQ PUSH2 0x14F6 JUMPI DUP2 PUSH4 0x553000C1 EQ PUSH2 0x14D8 JUMPI DUP2 PUSH4 0x562E9DF9 EQ PUSH2 0x14B0 JUMPI DUP2 PUSH4 0x70A08231 EQ PUSH2 0x147A JUMPI DUP2 PUSH4 0x7918447E EQ PUSH2 0x145B JUMPI DUP2 PUSH4 0x7A594A2B EQ PUSH2 0x1433 JUMPI DUP2 PUSH4 0x7D81936C EQ PUSH2 0x1414 JUMPI DUP2 PUSH4 0x8198C341 EQ PUSH2 0xF33 JUMPI DUP2 PUSH4 0x85A6A091 EQ PUSH2 0xE1E JUMPI DUP2 PUSH4 0x8DA5CB5B EQ PUSH2 0xDF6 JUMPI DUP2 PUSH4 0x933F5E07 EQ PUSH2 0xDD7 JUMPI DUP2 PUSH4 0x95D89B41 EQ PUSH2 0xCD1 JUMPI DUP2 PUSH4 0x98951B56 EQ PUSH2 0xBB0 JUMPI DUP2 PUSH4 0xA457C2D7 EQ PUSH2 0xAD3 JUMPI DUP2 PUSH4 0xA6F2AE3A EQ PUSH2 0xA68 JUMPI DUP2 PUSH4 0xA9059CBB EQ PUSH2 0xA37 JUMPI DUP2 PUSH4 0xB6BBA0AE EQ PUSH2 0xA18 JUMPI DUP2 PUSH4 0xC4CE220B EQ PUSH2 0x9F9 JUMPI DUP2 PUSH4 0xC84AD9A5 EQ PUSH2 0x9D5 JUMPI DUP2 PUSH4 0xD7196DD9 EQ PUSH2 0x873 JUMPI DUP2 PUSH4 0xD8A0F828 EQ PUSH2 0x7FB JUMPI DUP2 PUSH4 0xDCE165A6 EQ PUSH2 0x299 JUMPI POP DUP1 PUSH4 0xDD62ED3E EQ PUSH2 0x250 JUMPI PUSH4 0xFE7441E7 EQ PUSH2 0x216 JUMPI DUP1 PUSH2 0x13 JUMP JUMPDEST SWAP1 CALLVALUE PUSH2 0x24C JUMPI PUSH1 0x20 CALLDATASIZE PUSH1 0x3 NOT ADD SLT PUSH2 0x24C JUMPI DUP1 PUSH1 0x20 SWAP3 PUSH1 0x1 PUSH1 0xA0 PUSH1 0x2 EXP SUB PUSH2 0x23C PUSH2 0x2109 JUMP JUMPDEST AND DUP2 MSTORE PUSH1 0xE DUP5 MSTORE KECCAK256 SLOAD SWAP1 MLOAD SWAP1 DUP2 MSTORE RETURN JUMPDEST POP DUP1 REVERT JUMPDEST POP SWAP1 CALLVALUE PUSH2 0x24C JUMPI DUP1 PUSH1 0x3 NOT CALLDATASIZE ADD SLT PUSH2 0x24C JUMPI DUP1 PUSH1 0x20 SWAP3 PUSH2 0x26E PUSH2 0x2109 JUMP JUMPDEST PUSH2 0x276 PUSH2 0x2124 JUMP JUMPDEST PUSH1 0x1 PUSH1 0xA0 PUSH1 0x2 EXP SUB SWAP2 DUP3 AND DUP4 MSTORE PUSH1 0x1 DUP7 MSTORE DUP4 DUP4 KECCAK256 SWAP2 AND DUP3 MSTORE DUP5 MSTORE KECCAK256 SLOAD SWAP1 MLOAD SWAP1 DUP2 MSTORE RETURN JUMPDEST SWAP1 POP DUP3 CALLVALUE PUSH2 0x7F7 JUMPI PUSH2 0x180 DUP1 PUSH1 0x3 NOT CALLDATASIZE ADD SLT PUSH2 0x7F3 JUMPI DUP4 DUP4 CALLDATALOAD SWAP2 DUP3 ISZERO ISZERO DUP1 SWAP4 SUB PUSH2 0x24C JUMPI PUSH1 0x24 SWAP4 DUP5 CALLDATALOAD SWAP2 DUP3 ISZERO ISZERO DUP1 SWAP4 SUB PUSH2 0x7F3 JUMPI PUSH1 0x44 CALLDATALOAD SWAP5 DUP6 ISZERO ISZERO DUP1 SWAP7 SUB PUSH2 0x7EF JUMPI PUSH1 0x64 CALLDATALOAD SWAP4 DUP5 ISZERO ISZERO SWAP7 DUP8 DUP7 SUB PUSH2 0x7EB JUMPI PUSH1 0xA4 CALLDATALOAD SWAP8 DUP9 ISZERO ISZERO SWAP1 DUP2 DUP11 SUB PUSH2 0x7E7 JUMPI PUSH2 0x144 CALLDATALOAD DUP1 ISZERO ISZERO SWAP11 DUP12 DUP3 SUB PUSH2 0x7E3 JUMPI PUSH2 0x164 CALLDATALOAD SWAP10 PUSH1 0x1 PUSH1 0xA0 PUSH1 0x2 EXP SUB SWAP12 DUP13 DUP13 AND DUP1 SWAP13 SUB PUSH2 0x7E0 JUMPI PUSH1 0xFF DUP12 PUSH2 0x337 SWAP3 CALLER DUP2 MSTORE PUSH1 0xA PUSH1 0x20 MSTORE KECCAK256 SLOAD AND PUSH2 0x2188 JUMP JUMPDEST PUSH2 0x764 JUMPI JUMPDEST PUSH2 0x6D0 JUMPI JUMPDEST PUSH2 0x660 JUMPI JUMPDEST DUP7 MLOAD SWAP7 PUSH2 0x1C0 DUP9 ADD DUP9 DUP2 LT PUSH8 0xFFFFFFFFFFFFFFFF DUP3 GT OR PUSH2 0x64A JUMPI SWAP1 DUP15 SWAP2 DUP2 MSTORE CALLER DUP10 MSTORE PUSH1 0x20 DUP10 ADD SWAP2 DUP3 MSTORE DUP9 ADD SWAP6 DUP7 MSTORE PUSH1 0x60 DUP9 ADD SWAP5 DUP6 MSTORE PUSH1 0x80 DUP9 ADD SWAP4 DUP5 MSTORE PUSH1 0xA0 DUP9 ADD SWAP2 DUP3 MSTORE PUSH1 0xC0 DUP9 ADD SWAP2 PUSH1 0x84 CALLDATALOAD DUP4 MSTORE PUSH1 0xE0 DUP10 ADD SWAP4 DUP5 MSTORE PUSH2 0x100 DUP10 ADD SWAP5 PUSH1 0xC4 CALLDATALOAD DUP7 MSTORE PUSH2 0x120 DUP11 ADD SWAP7 PUSH1 0xE4 CALLDATALOAD DUP9 MSTORE PUSH2 0x140 DUP12 ADD SWAP9 PUSH2 0x104 CALLDATALOAD DUP11 MSTORE PUSH2 0x160 DUP13 ADD SWAP11 PUSH2 0x124 CALLDATALOAD DUP13 MSTORE DUP13 ADD SWAP15 DUP16 MSTORE PUSH2 0x1A0 DUP13 ADD SWAP13 DUP14 MSTORE PUSH1 0x5 SLOAD PUSH9 0x10000000000000000 DUP2 LT ISZERO PUSH2 0x630 JUMPI DUP1 PUSH1 0x1 PUSH2 0x3FA SWAP3 ADD PUSH1 0x5 SSTORE PUSH2 0x206C JUMP JUMPDEST SWAP13 SWAP1 SWAP13 PUSH2 0x617 JUMPI MLOAD DUP13 SLOAD SWAP6 MLOAD SWAP2 MLOAD SWAP3 MLOAD SWAP4 MLOAD SWAP5 MLOAD ISZERO ISZERO PUSH25 0x1000000000000000000000000000000000000000000000000 MUL PUSH25 0xFF000000000000000000000000000000000000000000000000 AND SWAP5 ISZERO ISZERO PUSH24 0x10000000000000000000000000000000000000000000000 MUL PUSH24 0xFF0000000000000000000000000000000000000000000000 AND SWAP4 ISZERO ISZERO PUSH23 0x100000000000000000000000000000000000000000000 MUL PUSH23 0xFF00000000000000000000000000000000000000000000 AND SWAP3 ISZERO ISZERO PUSH22 0x1000000000000000000000000000000000000000000 MUL PUSH22 0xFF000000000000000000000000000000000000000000 AND SWAP2 ISZERO ISZERO PUSH1 0xA0 PUSH1 0x2 EXP MUL PUSH21 0xFF0000000000000000000000000000000000000000 AND SWAP1 DUP16 AND PUSH25 0xFFFFFFFFFFFFFFFFFFFFFFFFFFFFFFFFFFFFFFFFFFFFFFFFFF NOT SWAP1 SWAP7 AND SWAP6 SWAP1 SWAP6 OR SWAP5 SWAP1 SWAP5 OR SWAP4 SWAP1 SWAP4 OR SWAP3 SWAP1 SWAP3 OR SWAP2 SWAP1 SWAP2 OR OR DUP8 SSTORE MLOAD PUSH1 0x1 DUP8 ADD SSTORE MLOAD PUSH1 0x2 DUP7 ADD DUP1 SLOAD PUSH1 0xFF NOT AND SWAP2 ISZERO ISZERO PUSH1 0xFF AND SWAP2 SWAP1 SWAP2 OR SWAP1 SSTORE MLOAD PUSH1 0x3 DUP6 ADD SSTORE MLOAD DUP9 DUP5 ADD SSTORE MLOAD PUSH1 0x5 DUP4 ADD SSTORE MLOAD PUSH1 0x6 DUP3 ADD SSTORE PUSH1 0x7 ADD SWAP3 MLOAD ISZERO ISZERO PUSH2 0x58E SWAP1 DUP5 SWAP1 PUSH1 0xFF DUP1 NOT DUP4 SLOAD AND SWAP2 ISZERO ISZERO AND OR SWAP1 SSTORE JUMP JUMPDEST MLOAD AND DUP2 SLOAD SWAP1 PUSH2 0x100 MUL PUSH21 0xFFFFFFFFFFFFFFFFFFFFFFFFFFFFFFFFFFFFFFFF00 AND SWAP1 PUSH21 0xFFFFFFFFFFFFFFFFFFFFFFFFFFFFFFFFFFFFFFFF00 NOT AND OR SWAP1 SSTORE PUSH1 0x5 SLOAD SWAP2 PUSH1 0x0 NOT DUP4 ADD SWAP3 DUP4 GT PUSH2 0x603 JUMPI POP POP PUSH32 0x96AA03A7CD4ABA017B05CE697DF0E528A91D045A01285C50E931B0C0C4939CE DUP3 DUP1 LOG2 DUP1 RETURN JUMPDEST PUSH1 0x11 DUP5 SWAP2 PUSH1 0xE0 PUSH1 0x2 EXP PUSH4 0x4E487B71 MUL DUP4 MSTORE MSTORE REVERT JUMPDEST POP POP POP POP POP DUP12 DUP15 DUP1 DUP16 PUSH1 0xE0 PUSH1 0x2 EXP PUSH4 0x4E487B71 MUL DUP3 MSTORE MSTORE REVERT JUMPDEST POP POP POP POP POP DUP12 DUP15 PUSH1 0x41 DUP16 PUSH1 0xE0 PUSH1 0x2 EXP PUSH4 0x4E487B71 MUL DUP4 MSTORE MSTORE REVERT JUMPDEST POP DUP12 DUP15 PUSH1 0x41 DUP16 PUSH1 0xE0 PUSH1 0x2 EXP PUSH4 0x4E487B71 MUL DUP4 MSTORE MSTORE REVERT JUMPDEST DUP8 PUSH2 0x346 JUMPI PUSH1 0x84 DUP13 PUSH1 0x33 DUP14 PUSH1 0x20 DUP12 MLOAD SWAP4 PUSH1 0xE5 PUSH1 0x2 EXP PUSH3 0x461BCD MUL DUP6 MSTORE DUP5 ADD MSTORE DUP3 ADD MSTORE PUSH32 0x4D756C74695369676E617475726557616C6C65743A206E6577206F776E657220 PUSH1 0x44 DUP3 ADD MSTORE PUSH32 0x697320746865207A65726F206164647265737300000000000000000000000000 PUSH1 0x64 DUP3 ADD MSTORE REVERT JUMPDEST PUSH1 0xA PUSH2 0x6F3 PUSH2 0x124 CALLDATALOAD PUSH2 0x6EE PUSH2 0x104 CALLDATALOAD PUSH2 0x6EE PUSH1 0xE4 CALLDATALOAD PUSH1 0xC4 CALLDATALOAD PUSH2 0x21D6 JUMP JUMPDEST PUSH2 0x21D6 JUMP JUMPDEST GT ISZERO PUSH2 0x341 JUMPI PUSH1 0x84 DUP14 PUSH1 0x33 DUP15 PUSH1 0x20 DUP13 MLOAD SWAP4 PUSH1 0xE5 PUSH1 0x2 EXP PUSH3 0x461BCD MUL DUP6 MSTORE DUP5 ADD MSTORE DUP3 ADD MSTORE PUSH32 0x4D756C74695369676E617475726557616C6C65743A204D757374206B65657020 PUSH1 0x44 DUP3 ADD MSTORE PUSH32 0x6665657320617420313025206F72206C65737300000000000000000000000000 PUSH1 0x64 DUP3 ADD MSTORE REVERT JUMPDEST PUSH7 0x11C37937E08000 PUSH1 0x13 SLOAD GT ISZERO PUSH2 0x33C JUMPI PUSH1 0x84 DUP15 PUSH1 0x3C DUP16 PUSH1 0x20 DUP14 MLOAD SWAP4 PUSH1 0xE5 PUSH1 0x2 EXP PUSH3 0x461BCD MUL DUP6 MSTORE DUP5 ADD MSTORE DUP3 ADD MSTORE PUSH32 0x4D756C74695369676E617475726557616C6C65743A204D757374206B65657020 PUSH1 0x44 DUP3 ADD MSTORE PUSH32 0x3530303030303030303030303030303020576569206F72206C65737300000000 PUSH1 0x64 DUP3 ADD MSTORE REVERT JUMPDEST DUP1 REVERT JUMPDEST DUP11 DUP1 REVERT JUMPDEST DUP9 DUP1 REVERT JUMPDEST DUP7 DUP1 REVERT JUMPDEST DUP5 DUP1 REVERT JUMPDEST DUP4 DUP1 REVERT JUMPDEST DUP3 DUP1 REVERT JUMPDEST DUP4 SWAP2 POP PUSH1 0x20 CALLDATASIZE PUSH1 0x3 NOT ADD SLT PUSH2 0x7F7 JUMPI PUSH32 0xC5D4FBADDD2087D369F5CF16AD7544F41EF0DC291B510E4CB1CB6E6EAAE74539 SWAP2 PUSH2 0x86B PUSH1 0x20 SWAP3 CALLER DUP7 MSTORE PUSH1 0xA DUP5 MSTORE PUSH2 0x848 PUSH1 0xFF DUP5 DUP9 KECCAK256 SLOAD AND PUSH2 0x2188 JUMP JUMPDEST PUSH1 0xD SLOAD PUSH2 0x85B PUSH1 0xFF PUSH2 0x100 DUP4 DIV AND PUSH2 0x213A JUMP JUMPDEST PUSH2 0xFF00 NOT AND PUSH1 0xD SSTORE CALLVALUE SWAP1 CALLDATALOAD PUSH2 0x2253 JUMP JUMPDEST MLOAD CALLVALUE DUP2 MSTORE LOG1 DUP1 RETURN JUMPDEST SWAP1 POP CALLVALUE PUSH2 0x24C JUMPI DUP2 PUSH1 0x3 NOT CALLDATASIZE ADD SLT PUSH2 0x24C JUMPI CALLER DUP3 MSTORE PUSH1 0x20 SWAP1 PUSH1 0xA DUP3 MSTORE PUSH2 0x89E PUSH1 0xFF DUP6 DUP6 KECCAK256 SLOAD AND PUSH2 0x2188 JUMP JUMPDEST PUSH1 0x1 PUSH1 0xA0 PUSH1 0x2 EXP SUB SWAP1 PUSH2 0x8B9 DUP3 PUSH1 0x17 SLOAD AND PUSH1 0x1E SLOAD SWAP1 ADDRESS PUSH2 0x2815 JUMP JUMPDEST PUSH2 0x8CB DUP3 PUSH1 0x18 SLOAD AND PUSH1 0x1F SLOAD SWAP1 ADDRESS PUSH2 0x2815 JUMP JUMPDEST PUSH2 0x8DC DUP3 PUSH1 0x19 SLOAD AND DUP5 SLOAD SWAP1 ADDRESS PUSH2 0x2815 JUMP JUMPDEST DUP4 DUP1 DUP1 DUP1 PUSH2 0x8FA PUSH2 0x8F2 PUSH1 0x1E SLOAD PUSH1 0x1F SLOAD SWAP1 PUSH2 0x21D6 JUMP JUMPDEST DUP9 SLOAD SWAP1 PUSH2 0x21D6 JUMP JUMPDEST SWAP6 DUP2 PUSH1 0x1E SSTORE DUP2 PUSH1 0x1F SSTORE DUP2 DUP9 SSTORE PUSH1 0x17 SLOAD AND ADDRESS BALANCE SWAP1 GAS CALL RETURNDATASIZE ISZERO PUSH2 0x9D0 JUMPI RETURNDATASIZE PUSH8 0xFFFFFFFFFFFFFFFF DUP2 GT PUSH2 0x9BA JUMPI DUP7 MLOAD SWAP1 PUSH2 0x93B PUSH1 0x1F DUP3 ADD PUSH1 0x1F NOT AND DUP8 ADD DUP4 PUSH2 0x2231 JUMP JUMPDEST DUP2 MSTORE DUP6 DUP6 RETURNDATASIZE SWAP3 ADD RETURNDATACOPY JUMPDEST ISZERO PUSH2 0x975 JUMPI POP PUSH32 0x21A3A3648D0B2AFC084ACD733D71600B506FA4ECA7EF1F5E24718C5E17F4E7FF SWAP3 SWAP4 MLOAD SWAP1 DUP2 MSTORE LOG1 DUP1 RETURN JUMPDEST PUSH1 0x64 SWAP1 DUP4 DUP7 MLOAD SWAP2 PUSH1 0xE5 PUSH1 0x2 EXP PUSH3 0x461BCD MUL DUP4 MSTORE DUP3 ADD MSTORE PUSH1 0x12 PUSH1 0x24 DUP3 ADD MSTORE PUSH32 0x4661696C656420746F2073656E6420424E420000000000000000000000000000 PUSH1 0x44 DUP3 ADD MSTORE REVERT JUMPDEST PUSH1 0x24 DUP7 PUSH1 0x41 DUP6 PUSH1 0xE0 PUSH1 0x2 EXP PUSH4 0x4E487B71 MUL DUP4 MSTORE MSTORE REVERT JUMPDEST PUSH2 0x944 JUMP JUMPDEST DUP3 DUP5 CALLVALUE PUSH2 0x24C JUMPI DUP2 PUSH1 0x3 NOT CALLDATASIZE ADD SLT PUSH2 0x24C JUMPI PUSH1 0x20 SWAP1 PUSH1 0xFF PUSH1 0xD SLOAD AND SWAP1 MLOAD SWAP1 ISZERO ISZERO DUP2 MSTORE RETURN JUMPDEST DUP3 DUP5 CALLVALUE PUSH2 0x24C JUMPI DUP2 PUSH1 0x3 NOT CALLDATASIZE ADD SLT PUSH2 0x24C JUMPI PUSH1 0x20 SWAP1 PUSH1 0x1A SLOAD SWAP1 MLOAD SWAP1 DUP2 MSTORE RETURN JUMPDEST DUP3 DUP5 CALLVALUE PUSH2 0x24C JUMPI DUP2 PUSH1 0x3 NOT CALLDATASIZE ADD SLT PUSH2 0x24C JUMPI PUSH1 0x20 SWAP1 PUSH1 0x1C SLOAD SWAP1 MLOAD SWAP1 DUP2 MSTORE RETURN JUMPDEST DUP3 DUP5 CALLVALUE PUSH2 0x24C JUMPI DUP1 PUSH1 0x3 NOT CALLDATASIZE ADD SLT PUSH2 0x24C JUMPI PUSH1 0x20 SWAP1 PUSH2 0xA61 PUSH2 0xA57 PUSH2 0x2109 JUMP JUMPDEST PUSH1 0x24 CALLDATALOAD SWAP1 CALLER PUSH2 0x273E JUMP JUMPDEST MLOAD PUSH1 0x1 DUP2 MSTORE RETURN JUMPDEST DUP3 DUP5 DUP2 PUSH1 0x3 NOT CALLDATASIZE ADD SLT PUSH2 0x24C JUMPI PUSH2 0xA99 PUSH2 0xAAC SWAP2 PUSH2 0xA8A PUSH1 0xFF PUSH1 0xD SLOAD AND PUSH2 0x213A JUMP JUMPDEST ADDRESS DUP5 MSTORE DUP4 PUSH1 0x20 MSTORE DUP4 KECCAK256 SLOAD PUSH2 0x2BB0 JUMP JUMPDEST PUSH2 0xAA1 PUSH2 0x2BF6 JUMP JUMPDEST POP PUSH1 0x64 CALLVALUE SWAP2 DIV PUSH2 0x2253 JUMP JUMPDEST PUSH32 0x6CD8C20496FA31DBA3F83C7ADCA278C356A6CAA5529741A5D2B9B774613C198B DUP2 DUP1 LOG1 DUP1 RETURN JUMPDEST SWAP2 SWAP1 POP CALLVALUE PUSH2 0x7E0 JUMPI DUP3 PUSH1 0x3 NOT CALLDATASIZE ADD SLT PUSH2 0x7E0 JUMPI PUSH2 0xAEE PUSH2 0x2109 JUMP JUMPDEST SWAP2 DUP4 PUSH1 0x24 CALLDATALOAD SWAP3 CALLER DUP2 MSTORE PUSH1 0x1 PUSH1 0x20 MSTORE DUP2 DUP2 KECCAK256 PUSH1 0x1 PUSH1 0xA0 PUSH1 0x2 EXP SUB DUP7 AND DUP3 MSTORE PUSH1 0x20 MSTORE KECCAK256 SLOAD SWAP1 DUP3 DUP3 LT PUSH2 0xB44 JUMPI PUSH1 0x20 DUP6 PUSH2 0xA61 DUP7 PUSH2 0xB3D DUP8 DUP8 PUSH2 0xB38 PUSH2 0xB2F PUSH2 0x2A6C JUMP JUMPDEST DUP3 DUP5 GT ISZERO PUSH2 0x2AA5 JUMP JUMPDEST PUSH2 0x23B6 JUMP JUMPDEST SWAP1 CALLER PUSH2 0x291D JUMP JUMPDEST PUSH1 0x84 SWAP1 PUSH1 0x20 DUP7 MLOAD SWAP2 PUSH1 0xE5 PUSH1 0x2 EXP PUSH3 0x461BCD MUL DUP4 MSTORE DUP3 ADD MSTORE PUSH1 0x25 PUSH1 0x24 DUP3 ADD MSTORE PUSH32 0x45524332303A2064656372656173656420616C6C6F77616E63652062656C6F77 PUSH1 0x44 DUP3 ADD MSTORE PUSH32 0x207A65726F000000000000000000000000000000000000000000000000000000 PUSH1 0x64 DUP3 ADD MSTORE REVERT JUMPDEST SWAP1 POP DUP3 CALLVALUE PUSH2 0x7F7 JUMPI PUSH1 0x20 DUP1 PUSH1 0x3 NOT CALLDATASIZE ADD SLT PUSH2 0x7F3 JUMPI DUP3 CALLDATALOAD SWAP3 CALLER DUP6 MSTORE PUSH1 0xA DUP3 MSTORE PUSH2 0xBDE PUSH1 0xFF DUP5 DUP8 KECCAK256 SLOAD AND PUSH2 0x2188 JUMP JUMPDEST PUSH2 0xBEB PUSH1 0x5 SLOAD DUP6 LT PUSH2 0x23C3 JUMP JUMPDEST DUP4 DUP6 MSTORE PUSH1 0x6 DUP3 MSTORE DUP3 DUP6 KECCAK256 CALLER DUP7 MSTORE DUP3 MSTORE PUSH1 0xFF DUP4 DUP7 KECCAK256 SLOAD AND PUSH2 0xC67 JUMPI POP PUSH2 0xC23 PUSH1 0xFF PUSH1 0xA0 PUSH1 0x2 EXP PUSH2 0xC19 DUP7 PUSH2 0x206C JUMP JUMPDEST POP SLOAD DIV AND ISZERO PUSH2 0x2437 JUMP JUMPDEST DUP3 DUP5 MSTORE PUSH1 0x6 DUP2 MSTORE DUP2 DUP5 KECCAK256 SWAP1 CALLER DUP6 MSTORE MSTORE DUP3 KECCAK256 PUSH1 0x1 PUSH1 0xFF NOT DUP3 SLOAD AND OR SWAP1 SSTORE CALLER PUSH32 0x12C8D6025943157CBCB4E904B3E3D97D2AC7EAE9F61F343B2E7CB23BE24BDBB7 DUP4 DUP1 LOG3 DUP1 RETURN JUMPDEST SWAP1 PUSH1 0x84 SWAP3 MLOAD SWAP2 PUSH1 0xE5 PUSH1 0x2 EXP PUSH3 0x461BCD MUL DUP4 MSTORE DUP3 ADD MSTORE PUSH1 0x3C PUSH1 0x24 DUP3 ADD MSTORE PUSH32 0x4D756C74695369676E617475726557616C6C65743A2070726F706F73616C2061 PUSH1 0x44 DUP3 ADD MSTORE PUSH32 0x6C72656164792077617320617070726F766564206279206F776E657200000000 PUSH1 0x64 DUP3 ADD MSTORE REVERT JUMPDEST SWAP1 POP DUP3 CALLVALUE PUSH2 0x7F7 JUMPI DUP3 PUSH1 0x3 NOT CALLDATASIZE ADD SLT PUSH2 0x7F7 JUMPI DUP1 MLOAD SWAP2 DUP4 DUP2 SLOAD SWAP2 PUSH1 0x2 DUP4 DIV SWAP2 PUSH1 0x1 SWAP2 DUP3 DUP6 AND SWAP5 DUP6 ISZERO PUSH2 0xDCD JUMPI JUMPDEST PUSH1 0x20 SWAP6 DUP7 DUP7 LT DUP2 EQ PUSH2 0xDB7 JUMPI DUP6 DUP10 MSTORE SWAP1 DUP2 ISZERO PUSH2 0xD94 JUMPI POP PUSH1 0x1 EQ PUSH2 0xD3C JUMPI JUMPDEST PUSH2 0xD38 DUP8 DUP8 PUSH2 0xD2E DUP3 DUP13 SUB DUP4 PUSH2 0x2231 JUMP JUMPDEST MLOAD SWAP2 DUP3 SWAP2 DUP3 PUSH2 0x20C0 JUMP JUMPDEST SUB SWAP1 RETURN JUMPDEST DUP2 MSTORE SWAP3 SWAP6 POP PUSH32 0x8A35ACFBC15FF81A39AE7D344FD709F28E8600B4AA8C65C6B64BFE7FE36BD19B JUMPDEST DUP3 DUP5 LT PUSH2 0xD81 JUMPI POP POP POP DUP3 PUSH2 0xD38 SWAP5 PUSH2 0xD2E SWAP3 DUP3 ADD ADD SWAP5 DUP7 DUP1 PUSH2 0xD1D JUMP JUMPDEST DUP1 SLOAD DUP7 DUP6 ADD DUP9 ADD MSTORE SWAP3 DUP7 ADD SWAP3 DUP2 ADD PUSH2 0xD63 JUMP JUMPDEST PUSH1 0xFF NOT AND DUP9 DUP8 ADD MSTORE POP POP POP POP ISZERO ISZERO DUP2 MUL DUP4 ADD ADD SWAP3 POP PUSH2 0xD2E DUP3 PUSH2 0xD38 DUP7 DUP1 PUSH2 0xD1D JUMP JUMPDEST PUSH1 0x24 DUP5 PUSH1 0x22 DUP6 PUSH1 0xE0 PUSH1 0x2 EXP PUSH4 0x4E487B71 MUL DUP4 MSTORE MSTORE REVERT JUMPDEST SWAP4 PUSH1 0x7F AND SWAP4 PUSH2 0xCFE JUMP JUMPDEST DUP3 DUP5 CALLVALUE PUSH2 0x24C JUMPI DUP2 PUSH1 0x3 NOT CALLDATASIZE ADD SLT PUSH2 0x24C JUMPI PUSH1 0x20 SWAP1 PUSH1 0x1D SLOAD SWAP1 MLOAD SWAP1 DUP2 MSTORE RETURN JUMPDEST DUP3 DUP5 CALLVALUE PUSH2 0x24C JUMPI DUP2 PUSH1 0x3 NOT CALLDATASIZE ADD SLT PUSH2 0x24C JUMPI PUSH1 0x20 SWAP1 PUSH1 0x1 PUSH1 0xA0 PUSH1 0x2 EXP SUB PUSH1 0x8 SLOAD AND SWAP1 MLOAD SWAP1 DUP2 MSTORE RETURN JUMPDEST SWAP1 POP DUP3 CALLVALUE PUSH2 0x7F7 JUMPI PUSH1 0x20 DUP1 PUSH1 0x3 NOT CALLDATASIZE ADD SLT PUSH2 0x7F3 JUMPI DUP3 CALLDATALOAD SWAP3 CALLER DUP6 MSTORE PUSH1 0xA DUP3 MSTORE PUSH2 0xE4C PUSH1 0xFF DUP5 DUP8 KECCAK256 SLOAD AND PUSH2 0x2188 JUMP JUMPDEST PUSH2 0xE59 PUSH1 0x5 SLOAD DUP6 LT PUSH2 0x23C3 JUMP JUMPDEST PUSH2 0xE6C PUSH1 0xFF PUSH1 0xA0 PUSH1 0x2 EXP PUSH2 0xC19 DUP8 PUSH2 0x206C JUMP JUMPDEST DUP4 DUP6 MSTORE PUSH1 0x6 DUP3 MSTORE DUP3 DUP6 KECCAK256 CALLER DUP7 MSTORE DUP3 MSTORE PUSH1 0xFF DUP4 DUP7 KECCAK256 SLOAD AND ISZERO PUSH2 0xEC9 JUMPI POP DUP3 DUP5 MSTORE PUSH1 0x6 DUP2 MSTORE DUP2 DUP5 KECCAK256 SWAP1 CALLER DUP6 MSTORE MSTORE DUP3 KECCAK256 PUSH1 0xFF NOT DUP2 SLOAD AND SWAP1 SSTORE CALLER PUSH32 0xB8B1CBDD07C030BED9E01F4EE5465E3A3FD2AA8F7135C84467C0F3CF203925EB DUP4 DUP1 LOG3 DUP1 RETURN JUMPDEST SWAP1 PUSH1 0x84 SWAP3 MLOAD SWAP2 PUSH1 0xE5 PUSH1 0x2 EXP PUSH3 0x461BCD MUL DUP4 MSTORE DUP3 ADD MSTORE PUSH1 0x2E PUSH1 0x24 DUP3 ADD MSTORE PUSH32 0x4D756C74695369676E617475726557616C6C65743A2050726F706F73616C2069 PUSH1 0x44 DUP3 ADD MSTORE PUSH32 0x73206E6F7420617070726F766564000000000000000000000000000000000000 PUSH1 0x64 DUP3 ADD MSTORE REVERT JUMPDEST SWAP1 POP DUP3 CALLVALUE PUSH2 0x7F7 JUMPI PUSH1 0x60 CALLDATASIZE PUSH1 0x3 NOT ADD SLT PUSH2 0x7F7 JUMPI PUSH2 0xF4F PUSH2 0x2109 JUMP JUMPDEST SWAP1 PUSH1 0x24 DUP1 CALLDATALOAD SWAP4 PUSH1 0x44 SWAP1 DUP2 CALLDATALOAD SWAP1 PUSH1 0x1 PUSH1 0xA0 PUSH1 0x2 EXP SUB SWAP3 DUP4 PUSH1 0x7 SLOAD AND SWAP5 CALLER DUP7 SUB PUSH2 0x13AA JUMPI DUP5 DUP10 SWAP9 AND SWAP5 DUP6 DUP12 MSTORE PUSH1 0x20 SWAP7 PUSH1 0xA DUP9 MSTORE PUSH1 0xFF DUP10 DUP14 KECCAK256 SLOAD AND PUSH2 0x1367 JUMPI DUP7 EQ PUSH2 0x1324 JUMPI DUP1 PUSH1 0x17 SLOAD AND DUP7 EQ PUSH2 0x12E1 JUMPI DUP1 PUSH1 0x18 SLOAD AND DUP7 EQ PUSH2 0x129E JUMPI PUSH1 0x19 SLOAD AND DUP6 EQ PUSH2 0x125B JUMPI PUSH1 0x4B DUP5 GT PUSH2 0x1218 JUMPI DUP5 DUP11 MSTORE PUSH1 0xE DUP7 MSTORE DUP7 DUP11 KECCAK256 SLOAD PUSH2 0x11D5 JUMPI PUSH1 0x16 SLOAD DUP10 GT PUSH2 0x116C JUMPI POP POP POP PUSH2 0xFE0 PUSH1 0x64 SWAP2 DUP8 PUSH2 0x2BD1 JUMP JUMPDEST PUSH2 0xFE8 PUSH2 0x2BF6 JUMP JUMPDEST POP DIV SWAP5 PUSH1 0x1A SLOAD SWAP1 PUSH1 0x1B SLOAD PUSH2 0xFFC DUP2 DUP5 PUSH2 0x21D6 JUMP JUMPDEST SWAP3 PUSH2 0x100A PUSH1 0x1C SLOAD DUP1 SWAP6 PUSH2 0x21D6 JUMP JUMPDEST SWAP1 DUP2 PUSH2 0x1032 JUMPI POP POP POP POP POP PUSH2 0x1025 PUSH1 0xE SWAP4 SWAP5 SWAP6 PUSH1 0x1E SLOAD PUSH2 0x2A57 JUMP JUMPDEST PUSH1 0x1E SSTORE JUMPDEST DUP6 MSTORE MSTORE DUP3 KECCAK256 SSTORE DUP1 RETURN JUMPDEST PUSH2 0x1043 SWAP2 SWAP3 SWAP5 SWAP10 SWAP4 SWAP6 SWAP8 SWAP9 POP PUSH2 0x2B8F JUMP JUMPDEST DUP2 PUSH2 0x104C PUSH2 0x2BF6 JUMP JUMPDEST POP PUSH2 0x1056 SWAP2 PUSH2 0x2AD0 JUMP JUMPDEST SWAP3 PUSH2 0x1060 SWAP1 PUSH2 0x2B8F JUMP JUMPDEST DUP2 PUSH2 0x1069 PUSH2 0x2BF6 JUMP JUMPDEST POP PUSH2 0x1073 SWAP2 PUSH2 0x2AD0 JUMP JUMPDEST SWAP8 PUSH2 0x107D SWAP1 PUSH2 0x2B8F JUMP JUMPDEST SWAP1 PUSH2 0x1086 PUSH2 0x2BF6 JUMP JUMPDEST POP PUSH2 0x1090 SWAP2 PUSH2 0x2AD0 JUMP JUMPDEST SWAP2 PUSH2 0x109B SWAP1 DUP3 PUSH2 0x2BD1 JUMP JUMPDEST PUSH2 0x10A3 PUSH2 0x2BF6 JUMP JUMPDEST POP PUSH1 0x64 SWAP1 DIV SWAP7 PUSH2 0x10B3 SWAP1 DUP3 PUSH2 0x2BD1 JUMP JUMPDEST PUSH2 0x10BB PUSH2 0x2BF6 JUMP JUMPDEST POP PUSH1 0x64 SWAP1 DIV SWAP2 PUSH2 0x10CA SWAP2 PUSH2 0x2BD1 JUMP JUMPDEST PUSH2 0x10D2 PUSH2 0x2BF6 JUMP JUMPDEST POP PUSH1 0x64 SWAP1 DIV SWAP2 DUP7 PUSH2 0x10E1 PUSH2 0x2A6C JUMP JUMPDEST PUSH2 0x10EE SWAP1 DUP4 DUP4 GT ISZERO PUSH2 0x2AA5 JUMP JUMPDEST PUSH2 0x10F7 SWAP2 PUSH2 0x23B6 JUMP JUMPDEST DUP2 PUSH2 0x1100 PUSH2 0x2A6C JUMP JUMPDEST PUSH2 0x110D SWAP1 DUP4 DUP4 GT ISZERO PUSH2 0x2AA5 JUMP JUMPDEST PUSH2 0x1116 SWAP2 PUSH2 0x23B6 JUMP JUMPDEST DUP3 PUSH2 0x111F PUSH2 0x2A6C JUMP JUMPDEST PUSH2 0x112C SWAP1 DUP4 DUP4 GT ISZERO PUSH2 0x2AA5 JUMP JUMPDEST PUSH2 0x1135 SWAP2 PUSH2 0x23B6 JUMP JUMPDEST SWAP6 PUSH1 0x1E SLOAD SWAP1 PUSH2 0x1143 SWAP2 PUSH2 0x2A57 JUMP JUMPDEST PUSH1 0x1E SSTORE PUSH1 0x1F SLOAD SWAP1 PUSH2 0x1153 SWAP2 PUSH2 0x2A57 JUMP JUMPDEST PUSH1 0x1F SSTORE DUP2 SLOAD SWAP1 PUSH2 0x1162 SWAP2 PUSH2 0x2A57 JUMP JUMPDEST DUP2 SSTORE PUSH1 0xE SWAP2 PUSH2 0x1029 JUMP JUMPDEST PUSH1 0x84 SWAP3 SWAP2 PUSH1 0x38 PUSH32 0x416D6F756E742063616E2774206578636565647320746865206D617820747261 SWAP3 DUP9 DUP11 MLOAD SWAP6 PUSH1 0xE5 PUSH1 0x2 EXP PUSH3 0x461BCD MUL DUP8 MSTORE DUP7 ADD MSTORE DUP5 ADD MSTORE DUP3 ADD MSTORE PUSH32 0x6E73616374696F6E20776974686472617720616D6F756E740000000000000000 PUSH1 0x64 DUP3 ADD MSTORE REVERT JUMPDEST PUSH1 0x64 SWAP3 SWAP2 PUSH1 0x1C PUSH32 0x55736572206861732070656E64696E67205769746864726177616C7300000000 SWAP3 DUP9 DUP11 MLOAD SWAP6 PUSH1 0xE5 PUSH1 0x2 EXP PUSH3 0x461BCD MUL DUP8 MSTORE DUP7 ADD MSTORE DUP5 ADD MSTORE DUP3 ADD MSTORE REVERT JUMPDEST PUSH1 0x64 SWAP3 SWAP2 PUSH1 0x19 PUSH32 0x546865206665652063616E6E6F74206578636565642037352500000000000000 SWAP3 DUP9 DUP11 MLOAD SWAP6 PUSH1 0xE5 PUSH1 0x2 EXP PUSH3 0x461BCD MUL DUP8 MSTORE DUP7 ADD MSTORE DUP5 ADD MSTORE DUP3 ADD MSTORE REVERT JUMPDEST PUSH1 0x64 SWAP3 SWAP2 PUSH1 0x1B PUSH32 0x5465616D2063616E2774206D616B65207769746864726177616C730000000000 SWAP3 DUP9 DUP11 MLOAD SWAP6 PUSH1 0xE5 PUSH1 0x2 EXP PUSH3 0x461BCD MUL DUP8 MSTORE DUP7 ADD MSTORE DUP5 ADD MSTORE DUP3 ADD MSTORE REVERT JUMPDEST PUSH1 0x64 DUP5 PUSH32 0x536B796C65722063616E2774206D616B65207769746864726177616C73000000 DUP6 PUSH1 0x1D DUP7 DUP13 DUP15 MLOAD SWAP6 PUSH1 0xE5 PUSH1 0x2 EXP PUSH3 0x461BCD MUL DUP8 MSTORE DUP7 ADD MSTORE DUP5 ADD MSTORE DUP3 ADD MSTORE REVERT JUMPDEST PUSH1 0x64 DUP5 PUSH32 0x48656973656E2063616E2774206D616B65207769746864726177616C73000000 DUP6 PUSH1 0x1D DUP7 DUP13 DUP15 MLOAD SWAP6 PUSH1 0xE5 PUSH1 0x2 EXP PUSH3 0x461BCD MUL DUP8 MSTORE DUP7 ADD MSTORE DUP5 ADD MSTORE DUP3 ADD MSTORE REVERT JUMPDEST PUSH1 0x64 DUP5 PUSH32 0x4261636B656E642063616E2774206D616B65207769746864726177616C730000 DUP6 PUSH1 0x1E DUP7 DUP13 DUP15 MLOAD SWAP6 PUSH1 0xE5 PUSH1 0x2 EXP PUSH3 0x461BCD MUL DUP8 MSTORE DUP7 ADD MSTORE DUP5 ADD MSTORE DUP3 ADD MSTORE REVERT JUMPDEST PUSH1 0x64 DUP6 PUSH32 0x4F776E6572732063616E2774206D616B65207769746864726177616C73000000 DUP7 PUSH1 0x1D DUP8 DUP14 DUP16 MLOAD SWAP6 PUSH1 0xE5 PUSH1 0x2 EXP PUSH3 0x461BCD MUL DUP8 MSTORE DUP7 ADD MSTORE DUP5 ADD MSTORE DUP3 ADD MSTORE REVERT JUMPDEST PUSH1 0x84 SWAP3 SWAP2 PUSH1 0x22 PUSH32 0x4F776E61626C653A2063616C6C6572206973206E6F7420746865206261636B65 SWAP3 PUSH1 0x20 DUP11 MLOAD SWAP6 PUSH1 0xE5 PUSH1 0x2 EXP PUSH3 0x461BCD MUL DUP8 MSTORE DUP7 ADD MSTORE DUP5 ADD MSTORE DUP3 ADD MSTORE PUSH32 0x6E64000000000000000000000000000000000000000000000000000000000000 PUSH1 0x64 DUP3 ADD MSTORE REVERT JUMPDEST DUP3 DUP5 CALLVALUE PUSH2 0x24C JUMPI DUP2 PUSH1 0x3 NOT CALLDATASIZE ADD SLT PUSH2 0x24C JUMPI PUSH1 0x20 SWAP1 PUSH1 0x1B SLOAD SWAP1 MLOAD SWAP1 DUP2 MSTORE RETURN JUMPDEST DUP3 DUP5 CALLVALUE PUSH2 0x24C JUMPI DUP2 PUSH1 0x3 NOT CALLDATASIZE ADD SLT PUSH2 0x24C JUMPI PUSH1 0x20 SWAP1 PUSH1 0x1 PUSH1 0xA0 PUSH1 0x2 EXP SUB PUSH1 0x17 SLOAD AND SWAP1 MLOAD SWAP1 DUP2 MSTORE RETURN JUMPDEST DUP3 DUP5 CALLVALUE PUSH2 0x24C JUMPI DUP2 PUSH1 0x3 NOT CALLDATASIZE ADD SLT PUSH2 0x24C JUMPI PUSH1 0x20 SWAP1 PUSH1 0x13 SLOAD SWAP1 MLOAD SWAP1 DUP2 MSTORE RETURN JUMPDEST DUP3 DUP5 CALLVALUE PUSH2 0x24C JUMPI PUSH1 0x20 CALLDATASIZE PUSH1 0x3 NOT ADD SLT PUSH2 0x24C JUMPI DUP1 PUSH1 0x20 SWAP3 PUSH1 0x1 PUSH1 0xA0 PUSH1 0x2 EXP SUB PUSH2 0x14A1 PUSH2 0x2109 JUMP JUMPDEST AND DUP2 MSTORE DUP1 DUP5 MSTORE KECCAK256 SLOAD SWAP1 MLOAD SWAP1 DUP2 MSTORE RETURN JUMPDEST DUP3 DUP5 CALLVALUE PUSH2 0x24C JUMPI DUP2 PUSH1 0x3 NOT CALLDATASIZE ADD SLT PUSH2 0x24C JUMPI PUSH1 0x20 SWAP1 PUSH1 0x1 PUSH1 0xA0 PUSH1 0x2 EXP SUB PUSH1 0x19 SLOAD AND SWAP1 MLOAD SWAP1 DUP2 MSTORE RETURN JUMPDEST DUP3 DUP5 CALLVALUE PUSH2 0x24C JUMPI DUP2 PUSH1 0x3 NOT CALLDATASIZE ADD SLT PUSH2 0x24C JUMPI PUSH1 0x20 SWAP1 DUP2 SLOAD SWAP1 MLOAD SWAP1 DUP2 MSTORE RETURN JUMPDEST SWAP1 POP DUP2 PUSH1 0x3 NOT CALLDATASIZE ADD SLT PUSH2 0x24C JUMPI CALLER DUP3 MSTORE PUSH1 0x20 SWAP1 PUSH1 0x11 DUP3 MSTORE DUP4 DUP4 KECCAK256 SLOAD PUSH3 0x15180 DUP2 ADD SWAP1 DUP2 DUP2 GT PUSH2 0x16F7 JUMPI DUP2 LT PUSH2 0x16B2 JUMPI TIMESTAMP GT PUSH2 0x170D JUMPI JUMPDEST CALLER DUP4 MSTORE PUSH1 0x12 DUP3 MSTORE DUP4 DUP4 KECCAK256 SLOAD PUSH1 0x1 DUP2 ADD SWAP1 DUP2 DUP2 GT PUSH2 0x16F7 JUMPI DUP2 LT PUSH2 0x16B2 JUMPI CALLER DUP5 MSTORE PUSH1 0x12 DUP4 MSTORE DUP5 DUP5 KECCAK256 SSTORE DUP4 DUP4 KECCAK256 SLOAD PUSH1 0x15 SLOAD LT PUSH2 0x1648 JUMPI PUSH1 0x13 SLOAD CALLVALUE LT PUSH2 0x15B8 JUMPI POP PUSH32 0x5B6B431D4476A211BB7D41C20D1AAB9AE2321DEEE0D20BE3D9FC9B1093FA6E3D SWAP2 SWAP3 CALLER DUP5 MSTORE PUSH1 0xE DUP3 MSTORE DUP1 DUP5 KECCAK256 SLOAD SWAP1 PUSH2 0x15A4 DUP3 CALLER ADDRESS PUSH2 0x2815 JUMP JUMPDEST CALLER DUP6 MSTORE PUSH1 0xE DUP4 MSTORE DUP5 DUP2 DUP2 KECCAK256 SSTORE MLOAD SWAP1 DUP2 MSTORE LOG1 DUP1 RETURN JUMPDEST PUSH1 0xA4 SWAP2 DUP5 MLOAD SWAP2 PUSH1 0xE5 PUSH1 0x2 EXP PUSH3 0x461BCD MUL DUP4 MSTORE DUP3 ADD MSTORE PUSH1 0x44 PUSH1 0x24 DUP3 ADD MSTORE PUSH32 0x54686520616D6F756E742073656E74206973206E6F7420657175616C20746F20 PUSH1 0x44 DUP3 ADD MSTORE PUSH32 0x74686520424E4220616D6F756E7420726571756972656420666F722077697468 PUSH1 0x64 DUP3 ADD MSTORE PUSH32 0x6472617700000000000000000000000000000000000000000000000000000000 PUSH1 0x84 DUP3 ADD MSTORE REVERT JUMPDEST PUSH1 0x84 SWAP2 DUP5 MLOAD SWAP2 PUSH1 0xE5 PUSH1 0x2 EXP PUSH3 0x461BCD MUL DUP4 MSTORE DUP3 ADD MSTORE PUSH1 0x30 PUSH1 0x24 DUP3 ADD MSTORE PUSH32 0x596F752063616E6E6F74206D616B65206D6F7265207468616E206F6E65207769 PUSH1 0x44 DUP3 ADD MSTORE PUSH32 0x746864726177616C207065722064617900000000000000000000000000000000 PUSH1 0x64 DUP3 ADD MSTORE REVERT JUMPDEST POP PUSH1 0x64 SWAP2 DUP5 MLOAD SWAP2 PUSH1 0xE5 PUSH1 0x2 EXP PUSH3 0x461BCD MUL DUP4 MSTORE DUP3 ADD MSTORE PUSH1 0x1B PUSH1 0x24 DUP3 ADD MSTORE PUSH32 0x536166654D6174683A206164646974696F6E206F766572666C6F770000000000 PUSH1 0x44 DUP3 ADD MSTORE REVERT JUMPDEST PUSH1 0x24 DUP6 PUSH1 0x11 DUP6 PUSH1 0xE0 PUSH1 0x2 EXP PUSH4 0x4E487B71 MUL DUP4 MSTORE MSTORE REVERT JUMPDEST CALLER DUP4 MSTORE PUSH1 0x11 DUP3 MSTORE TIMESTAMP DUP5 DUP5 KECCAK256 SSTORE PUSH1 0x12 DUP3 MSTORE DUP3 DUP5 DUP2 KECCAK256 SSTORE PUSH2 0x152C JUMP JUMPDEST DUP3 DUP5 CALLVALUE PUSH2 0x24C JUMPI DUP1 PUSH1 0x3 NOT CALLDATASIZE ADD SLT PUSH2 0x24C JUMPI PUSH2 0xA61 PUSH1 0x20 SWAP3 PUSH2 0xB3D PUSH2 0x174A PUSH2 0x2109 JUMP JUMPDEST SWAP2 CALLER DUP2 MSTORE PUSH1 0x1 DUP7 MSTORE DUP5 DUP2 KECCAK256 PUSH1 0x1 PUSH1 0xA0 PUSH1 0x2 EXP SUB DUP5 AND DUP3 MSTORE DUP7 MSTORE DUP5 PUSH1 0x24 CALLDATALOAD SWAP2 KECCAK256 SLOAD PUSH2 0x2A57 JUMP JUMPDEST DUP3 DUP5 CALLVALUE PUSH2 0x24C JUMPI DUP2 PUSH1 0x3 NOT CALLDATASIZE ADD SLT PUSH2 0x24C JUMPI PUSH1 0x20 SWAP1 PUSH1 0x1E SLOAD SWAP1 MLOAD SWAP1 DUP2 MSTORE RETURN JUMPDEST DUP3 DUP5 CALLVALUE PUSH2 0x24C JUMPI DUP2 PUSH1 0x3 NOT CALLDATASIZE ADD SLT PUSH2 0x24C JUMPI PUSH1 0x20 SWAP1 MLOAD PUSH1 0x12 DUP2 MSTORE RETURN JUMPDEST DUP3 DUP5 CALLVALUE PUSH2 0x24C JUMPI DUP2 PUSH1 0x3 NOT CALLDATASIZE ADD SLT PUSH2 0x24C JUMPI PUSH1 0x20 SWAP1 PUSH1 0x21 SLOAD SWAP1 MLOAD SWAP1 DUP2 MSTORE RETURN JUMPDEST SWAP1 POP CALLVALUE PUSH2 0x24C JUMPI PUSH1 0x60 CALLDATASIZE PUSH1 0x3 NOT ADD SLT PUSH2 0x24C JUMPI PUSH2 0x17E4 PUSH2 0x2109 JUMP JUMPDEST PUSH2 0x17EC PUSH2 0x2124 JUMP JUMPDEST SWAP2 DUP5 PUSH1 0x44 CALLDATALOAD SWAP5 PUSH1 0x1 PUSH1 0xA0 PUSH1 0x2 EXP SUB DUP5 AND DUP2 MSTORE PUSH1 0x1 PUSH1 0x20 MSTORE DUP2 DUP2 KECCAK256 CALLER DUP3 MSTORE PUSH1 0x20 MSTORE KECCAK256 SLOAD SWAP1 PUSH1 0x0 NOT DUP3 SUB PUSH2 0x1827 JUMPI JUMPDEST PUSH1 0x20 DUP7 PUSH2 0xA61 DUP8 DUP8 DUP8 PUSH2 0x273E JUMP JUMPDEST DUP5 DUP3 LT PUSH2 0x185D JUMPI POP SWAP2 DUP4 SWAP2 PUSH2 0x1852 PUSH2 0x184B PUSH1 0x20 SWAP8 SWAP7 PUSH2 0xA61 SWAP7 PUSH2 0xB38 PUSH2 0xB2F PUSH2 0x2A6C JUMP JUMPDEST CALLER DUP4 PUSH2 0x291D JUMP JUMPDEST SWAP2 SWAP4 SWAP5 DUP2 SWAP4 POP PUSH2 0x1819 JUMP JUMPDEST PUSH1 0x64 SWAP1 PUSH1 0x20 DUP8 MLOAD SWAP2 PUSH1 0xE5 PUSH1 0x2 EXP PUSH3 0x461BCD MUL DUP4 MSTORE DUP3 ADD MSTORE PUSH1 0x1D PUSH1 0x24 DUP3 ADD MSTORE PUSH32 0x45524332303A20696E73756666696369656E7420616C6C6F77616E6365000000 PUSH1 0x44 DUP3 ADD MSTORE REVERT JUMPDEST DUP3 DUP5 CALLVALUE PUSH2 0x24C JUMPI DUP2 PUSH1 0x3 NOT CALLDATASIZE ADD SLT PUSH2 0x24C JUMPI PUSH1 0x20 SWAP1 PUSH1 0x1F SLOAD SWAP1 MLOAD SWAP1 DUP2 MSTORE RETURN JUMPDEST DUP3 DUP5 CALLVALUE PUSH2 0x24C JUMPI DUP2 PUSH1 0x3 NOT CALLDATASIZE ADD SLT PUSH2 0x24C JUMPI PUSH1 0x20 SWAP1 PUSH1 0x2 SLOAD SWAP1 MLOAD SWAP1 DUP2 MSTORE RETURN JUMPDEST DUP3 DUP5 CALLVALUE PUSH2 0x24C JUMPI DUP2 PUSH1 0x3 NOT CALLDATASIZE ADD SLT PUSH2 0x24C JUMPI PUSH1 0x20 SWAP1 PUSH1 0x1 PUSH1 0xA0 PUSH1 0x2 EXP SUB PUSH1 0xB SLOAD AND SWAP1 MLOAD SWAP1 DUP2 MSTORE RETURN JUMPDEST DUP4 SWAP2 POP CALLVALUE PUSH2 0x7F7 JUMPI PUSH1 0x20 DUP1 PUSH1 0x3 NOT CALLDATASIZE ADD SLT PUSH2 0x7F3 JUMPI DUP2 CALLDATALOAD PUSH2 0x192D PUSH1 0x5 SLOAD DUP3 LT PUSH2 0x23C3 JUMP JUMPDEST PUSH2 0x1936 DUP2 PUSH2 0x206C JUMP JUMPDEST POP PUSH1 0xFF SWAP2 PUSH2 0x194E DUP4 PUSH1 0xA0 PUSH1 0x2 EXP DUP1 SWAP5 SLOAD DIV AND ISZERO PUSH2 0x2437 JUMP JUMPDEST PUSH1 0x9 SLOAD DUP8 DUP1 JUMPDEST DUP3 DUP2 LT PUSH2 0x1C69 JUMPI POP LT PUSH2 0x1BFD JUMPI SWAP1 PUSH2 0x196D PUSH1 0x7 SWAP3 PUSH2 0x206C JUMP JUMPDEST POP SWAP1 PUSH21 0xFF0000000000000000000000000000000000000000 NOT DUP3 SLOAD AND OR DUP1 DUP3 SSTORE DUP5 DUP5 DUP1 PUSH22 0x1000000000000000000000000000000000000000000 DUP5 DIV AND PUSH2 0x1BA3 JUMPI JUMPDEST SWAP2 POP POP PUSH24 0x10000000000000000000000000000000000000000000000 DUP3 SLOAD DIV AND PUSH2 0x1B67 JUMPI JUMPDEST DUP3 PUSH25 0x1000000000000000000000000000000000000000000000000 DUP3 SLOAD DIV AND PUSH2 0x1B31 JUMPI JUMPDEST DUP3 PUSH1 0x2 DUP3 ADD SLOAD AND PUSH2 0x1AD2 JUMPI JUMPDEST ADD SLOAD SWAP1 DUP2 AND PUSH2 0x1A11 JUMPI DUP5 DUP1 RETURN JUMPDEST PUSH2 0x100 PUSH1 0x1 PUSH1 0xA0 PUSH1 0x2 EXP SUB SWAP2 DIV AND SWAP3 DUP4 ISZERO PUSH2 0x1A68 JUMPI POP POP POP DUP1 PUSH1 0x1 PUSH1 0xA0 PUSH1 0x2 EXP SUB NOT PUSH1 0x7 SLOAD AND OR PUSH1 0x7 SSTORE DUP2 PUSH32 0x8BE0079C531659141344CD1FD0A4F28419497F9722A3DAAFE3B4186F6B6457E0 DUP2 DUP1 LOG3 DUP2 DUP1 DUP1 DUP1 DUP5 DUP1 RETURN JUMPDEST PUSH1 0x84 SWAP4 POP MLOAD SWAP2 PUSH1 0xE5 PUSH1 0x2 EXP PUSH3 0x461BCD MUL DUP4 MSTORE DUP3 ADD MSTORE PUSH1 0x26 PUSH1 0x24 DUP3 ADD MSTORE PUSH32 0x4F776E61626C653A206E6577206F776E657220697320746865207A65726F2061 PUSH1 0x44 DUP3 ADD MSTORE PUSH32 0x6464726573730000000000000000000000000000000000000000000000000000 PUSH1 0x64 DUP3 ADD MSTORE REVERT JUMPDEST PUSH32 0xAC9D517045A5EC57DA9F145E5C349535857BAA98B41FA00AEA81886B40B65EE9 PUSH1 0x80 PUSH1 0x3 DUP4 ADD SLOAD DUP8 DUP5 ADD SLOAD PUSH1 0x5 DUP6 ADD SLOAD PUSH1 0x6 DUP7 ADD SLOAD SWAP2 DUP4 PUSH1 0x1A SSTORE DUP1 PUSH1 0x1B SSTORE DUP2 PUSH1 0x1C SSTORE DUP3 PUSH1 0x1D SSTORE DUP12 MLOAD SWAP4 DUP5 MSTORE DUP10 DUP5 ADD MSTORE DUP11 DUP4 ADD MSTORE PUSH1 0x60 DUP3 ADD MSTORE LOG1 PUSH2 0x1A04 JUMP JUMPDEST PUSH32 0x7752C7A6D518AB1CF03B50E7D7FD3DA3258EB319DC343789E0A7BED06C43066C DUP5 PUSH1 0x1 DUP4 ADD SLOAD DUP1 PUSH1 0x13 SSTORE DUP9 MLOAD SWAP1 DUP2 MSTORE LOG1 PUSH2 0x19F8 JUMP JUMPDEST PUSH2 0x1B9A ADDRESS BALANCE PUSH2 0x1B77 PUSH1 0x21 SLOAD PUSH2 0x24AB JUMP JUMPDEST ADDRESS DUP10 MSTORE DUP9 DUP7 MSTORE PUSH1 0x64 PUSH2 0x1B8B DUP10 DUP12 KECCAK256 SLOAD PUSH2 0x2AF3 JUMP JUMPDEST PUSH2 0x1B93 PUSH2 0x2BF6 JUMP JUMPDEST POP DIV PUSH2 0x2253 JUMP JUMPDEST DUP7 PUSH1 0x21 SSTORE PUSH2 0x19D4 JUMP JUMPDEST PUSH23 0x100000000000000000000000000000000000000000000 PUSH32 0x1B48326D6E9158A921C6006B9D6AD4B9D777C488E9B7924B3E0C8B0B1304604 SWAP4 DIV AND ISZERO ISZERO PUSH1 0xFF NOT PUSH1 0xD SLOAD AND DUP7 DUP3 AND OR PUSH1 0xD SSTORE DUP9 MLOAD SWAP1 DUP2 MSTORE LOG1 DUP8 DUP5 DUP5 PUSH2 0x19AF JUMP JUMPDEST POP POP POP PUSH1 0x84 SWAP3 MLOAD SWAP2 PUSH1 0xE5 PUSH1 0x2 EXP PUSH3 0x461BCD MUL DUP4 MSTORE DUP3 ADD MSTORE PUSH1 0x35 PUSH1 0x24 DUP3 ADD MSTORE PUSH32 0x4D756C74695369676E617475726557616C6C65743A20617070726F76616C7320 PUSH1 0x44 DUP3 ADD MSTORE PUSH32 0x6973206C657373207468616E2072657175697265640000000000000000000000 PUSH1 0x64 DUP3 ADD MSTORE REVERT JUMPDEST DUP4 DUP11 MSTORE PUSH1 0x6 DUP8 MSTORE DUP9 DUP11 KECCAK256 PUSH1 0x1 PUSH1 0xA0 PUSH1 0x2 EXP SUB DUP3 PUSH32 0x6E1540171B6C0C960B71A7020D9F60077F6AF931A8BBF590DA0223DACF75C7AF ADD SLOAD AND DUP12 MSTORE DUP8 MSTORE DUP6 DUP10 DUP12 KECCAK256 SLOAD AND PUSH2 0x1CD6 JUMPI JUMPDEST PUSH1 0x0 NOT DUP2 EQ PUSH2 0x1CC0 JUMPI PUSH1 0x1 ADD PUSH2 0x1954 JUMP JUMPDEST PUSH1 0x24 DUP11 PUSH1 0x11 DUP11 PUSH1 0xE0 PUSH1 0x2 EXP PUSH4 0x4E487B71 MUL DUP4 MSTORE MSTORE REVERT JUMPDEST SWAP1 PUSH1 0x1 DUP2 ADD DUP1 SWAP2 GT PUSH2 0x1CC0 JUMPI SWAP1 PUSH2 0x1CAF JUMP JUMPDEST DUP3 DUP5 CALLVALUE PUSH2 0x24C JUMPI DUP2 PUSH1 0x3 NOT CALLDATASIZE ADD SLT PUSH2 0x24C JUMPI PUSH1 0x20 SWAP1 PUSH1 0x1 PUSH1 0xA0 PUSH1 0x2 EXP SUB PUSH1 0x18 SLOAD AND SWAP1 MLOAD SWAP1 DUP2 MSTORE RETURN JUMPDEST DUP3 DUP5 CALLVALUE PUSH2 0x24C JUMPI DUP1 PUSH1 0x3 NOT CALLDATASIZE ADD SLT PUSH2 0x24C JUMPI PUSH1 0x20 SWAP1 PUSH2 0xA61 PUSH2 0x1D30 PUSH2 0x2109 JUMP JUMPDEST PUSH1 0x24 CALLDATALOAD SWAP1 CALLER PUSH2 0x291D JUMP JUMPDEST SWAP1 POP DUP3 CALLVALUE PUSH2 0x7F7 JUMPI DUP3 PUSH1 0x3 NOT CALLDATASIZE ADD SLT PUSH2 0x7F7 JUMPI DUP1 MLOAD SWAP2 DUP4 PUSH1 0x3 SLOAD PUSH1 0x2 DUP2 DIV SWAP2 PUSH1 0x1 SWAP2 DUP3 DUP2 AND DUP1 ISZERO PUSH2 0x1E27 JUMPI JUMPDEST PUSH1 0x20 SWAP6 DUP7 DUP7 LT DUP3 EQ PUSH2 0x1E11 JUMPI POP DUP5 DUP9 MSTORE SWAP1 DUP2 ISZERO PUSH2 0x1DF0 JUMPI POP PUSH1 0x1 EQ PUSH2 0x1D97 JUMPI JUMPDEST PUSH2 0xD38 DUP7 DUP7 PUSH2 0xD2E DUP3 DUP12 SUB DUP4 PUSH2 0x2231 JUMP JUMPDEST SWAP3 SWAP6 POP PUSH1 0x3 DUP4 MSTORE PUSH32 0xC2575A0E9E593C00F959F8C92F12DB2869C3395A3B0502D05E2516446F71F85B JUMPDEST DUP3 DUP5 LT PUSH2 0x1DDD JUMPI POP POP POP DUP3 PUSH2 0xD38 SWAP5 PUSH2 0xD2E SWAP3 DUP3 ADD ADD SWAP5 DUP7 PUSH2 0x1D86 JUMP JUMPDEST DUP1 SLOAD DUP7 DUP6 ADD DUP9 ADD MSTORE SWAP3 DUP7 ADD SWAP3 DUP2 ADD PUSH2 0x1DC0 JUMP JUMPDEST PUSH1 0xFF NOT AND DUP8 DUP7 ADD MSTORE POP POP POP ISZERO ISZERO DUP2 MUL DUP4 ADD ADD SWAP3 POP PUSH2 0xD2E DUP3 PUSH2 0xD38 DUP7 PUSH2 0x1D86 JUMP JUMPDEST DUP4 PUSH1 0x22 PUSH1 0x24 SWAP3 PUSH1 0xE0 PUSH1 0x2 EXP PUSH4 0x4E487B71 MUL DUP4 MSTORE MSTORE REVERT JUMPDEST SWAP4 PUSH1 0x7F AND SWAP4 PUSH2 0x1D66 JUMP JUMPDEST DUP5 DUP5 SWAP3 CALLVALUE PUSH2 0x7F3 JUMPI PUSH1 0x20 CALLDATASIZE PUSH1 0x3 NOT ADD SLT PUSH2 0x7F3 JUMPI CALLDATALOAD PUSH1 0x5 SLOAD DUP2 LT ISZERO PUSH2 0x7F3 JUMPI PUSH1 0x8 SWAP1 PUSH1 0x5 PUSH2 0x1C0 SWAP6 MSTORE MUL DUP1 PUSH32 0x36B6384B5ECA791C62761152D0C79BB0604C104A5FB6F4EB0703F3154BB3DB0 ADD SLOAD PUSH32 0x36B6384B5ECA791C62761152D0C79BB0604C104A5FB6F4EB0703F3154BB3DB1 DUP3 ADD SLOAD SWAP2 PUSH1 0xFF SWAP1 DUP2 PUSH32 0x36B6384B5ECA791C62761152D0C79BB0604C104A5FB6F4EB0703F3154BB3DB2 DUP3 ADD SLOAD AND SWAP4 PUSH32 0x36B6384B5ECA791C62761152D0C79BB0604C104A5FB6F4EB0703F3154BB3DB3 DUP3 ADD SLOAD SWAP5 PUSH32 0x36B6384B5ECA791C62761152D0C79BB0604C104A5FB6F4EB0703F3154BB3DB4 DUP4 ADD SLOAD SWAP1 PUSH32 0x36B6384B5ECA791C62761152D0C79BB0604C104A5FB6F4EB0703F3154BB3DB5 DUP5 ADD SLOAD SWAP3 DUP6 PUSH25 0x1000000000000000000000000000000000000000000000000 PUSH32 0x36B6384B5ECA791C62761152D0C79BB0604C104A5FB6F4EB0703F3154BB3DB7 PUSH32 0x36B6384B5ECA791C62761152D0C79BB0604C104A5FB6F4EB0703F3154BB3DB6 DUP9 ADD SLOAD SWAP8 ADD SLOAD SWAP9 DUP13 PUSH1 0x1 PUSH1 0xA0 PUSH1 0x2 EXP SUB SWAP13 DUP14 DUP4 AND DUP3 MSTORE DUP5 PUSH1 0xA0 PUSH1 0x2 EXP DUP5 DIV AND ISZERO ISZERO PUSH1 0x20 DUP4 ADD MSTORE DUP5 PUSH22 0x1000000000000000000000000000000000000000000 DUP5 DIV AND ISZERO ISZERO SWAP2 ADD MSTORE DUP13 PUSH1 0x60 DUP5 PUSH23 0x100000000000000000000000000000000000000000000 DUP5 DIV AND ISZERO ISZERO SWAP2 ADD MSTORE DUP13 PUSH1 0x80 DUP5 PUSH24 0x10000000000000000000000000000000000000000000000 DUP5 DIV AND ISZERO ISZERO SWAP2 ADD MSTORE DIV AND ISZERO ISZERO PUSH1 0xA0 DUP12 ADD MSTORE PUSH1 0xC0 DUP11 ADD MSTORE ISZERO ISZERO PUSH1 0xE0 DUP10 ADD MSTORE PUSH2 0x100 SWAP6 DUP7 DUP10 ADD MSTORE PUSH2 0x120 DUP9 ADD MSTORE PUSH2 0x140 DUP8 ADD MSTORE PUSH2 0x160 DUP7 ADD MSTORE DUP2 AND ISZERO ISZERO PUSH2 0x180 DUP6 ADD MSTORE DIV AND PUSH2 0x1A0 DUP3 ADD MSTORE RETURN JUMPDEST PUSH1 0x5 SLOAD DUP2 LT ISZERO PUSH2 0x20A7 JUMPI PUSH1 0x8 SWAP1 PUSH1 0x5 PUSH1 0x0 MSTORE MUL PUSH32 0x36B6384B5ECA791C62761152D0C79BB0604C104A5FB6F4EB0703F3154BB3DB0 ADD SWAP1 PUSH1 0x0 SWAP1 JUMP JUMPDEST PUSH1 0xE0 PUSH1 0x2 EXP PUSH4 0x4E487B71 MUL PUSH1 0x0 MSTORE PUSH1 0x32 PUSH1 0x4 MSTORE PUSH1 0x24 PUSH1 0x0 REVERT JUMPDEST PUSH1 0x20 DUP1 DUP3 MSTORE DUP3 MLOAD DUP2 DUP4 ADD DUP2 SWAP1 MSTORE SWAP1 SWAP4 SWAP3 PUSH1 0x0 JUMPDEST DUP3 DUP2 LT PUSH2 0x20F5 JUMPI POP POP PUSH1 0x40 SWAP3 SWAP4 POP PUSH1 0x0 DUP4 DUP3 DUP5 ADD ADD MSTORE PUSH1 0x1F DUP1 NOT SWAP2 ADD AND ADD ADD SWAP1 JUMP JUMPDEST DUP2 DUP2 ADD DUP7 ADD MLOAD DUP5 DUP3 ADD PUSH1 0x40 ADD MSTORE DUP6 ADD PUSH2 0x20D3 JUMP JUMPDEST PUSH1 0x4 CALLDATALOAD SWAP1 PUSH1 0x1 PUSH1 0xA0 PUSH1 0x2 EXP SUB DUP3 AND DUP3 SUB PUSH2 0x211F JUMPI JUMP JUMPDEST PUSH1 0x0 DUP1 REVERT JUMPDEST PUSH1 0x24 CALLDATALOAD SWAP1 PUSH1 0x1 PUSH1 0xA0 PUSH1 0x2 EXP SUB DUP3 AND DUP3 SUB PUSH2 0x211F JUMPI JUMP JUMPDEST ISZERO PUSH2 0x2141 JUMPI JUMP JUMPDEST PUSH1 0x64 PUSH1 0x40 MLOAD PUSH1 0xE5 PUSH1 0x2 EXP PUSH3 0x461BCD MUL DUP2 MSTORE PUSH1 0x20 PUSH1 0x4 DUP3 ADD MSTORE PUSH1 0x15 PUSH1 0x24 DUP3 ADD MSTORE PUSH32 0x50726573616C652069736E277420656E61626C65640000000000000000000000 PUSH1 0x44 DUP3 ADD MSTORE REVERT JUMPDEST ISZERO PUSH2 0x218F JUMPI JUMP JUMPDEST PUSH1 0x64 PUSH1 0x40 MLOAD PUSH1 0xE5 PUSH1 0x2 EXP PUSH3 0x461BCD MUL DUP2 MSTORE PUSH1 0x20 PUSH1 0x4 DUP3 ADD MSTORE PUSH1 0x1F PUSH1 0x24 DUP3 ADD MSTORE PUSH32 0x4F776E61626C653A2063616C6C6572206973206E6F7420616E206F776E657200 PUSH1 0x44 DUP3 ADD MSTORE REVERT JUMPDEST SWAP2 SWAP1 DUP3 ADD DUP1 SWAP3 GT PUSH2 0x21E3 JUMPI JUMP JUMPDEST PUSH1 0xE0 PUSH1 0x2 EXP PUSH4 0x4E487B71 MUL PUSH1 0x0 MSTORE PUSH1 0x11 PUSH1 0x4 MSTORE PUSH1 0x24 PUSH1 0x0 REVERT JUMPDEST PUSH1 0x40 DUP2 ADD SWAP1 DUP2 LT PUSH8 0xFFFFFFFFFFFFFFFF DUP3 GT OR PUSH2 0x2218 JUMPI PUSH1 0x40 MSTORE JUMP JUMPDEST PUSH1 0xE0 PUSH1 0x2 EXP PUSH4 0x4E487B71 MUL PUSH1 0x0 MSTORE PUSH1 0x41 PUSH1 0x4 MSTORE PUSH1 0x24 PUSH1 0x0 REVERT JUMPDEST SWAP1 PUSH1 0x1F DUP1 NOT SWAP2 ADD AND DUP2 ADD SWAP1 DUP2 LT PUSH8 0xFFFFFFFFFFFFFFFF DUP3 GT OR PUSH2 0x2218 JUMPI PUSH1 0x40 MSTORE JUMP JUMPDEST PUSH1 0x1 PUSH1 0xA0 PUSH1 0x2 EXP SUB SWAP1 DUP2 PUSH1 0xB SLOAD AND SWAP2 PUSH2 0x227B PUSH1 0x0 SWAP4 ADDRESS DUP6 MSTORE DUP5 PUSH1 0x20 MSTORE PUSH1 0x40 DUP6 KECCAK256 SLOAD SWAP1 ADDRESS PUSH2 0x291D JUMP JUMPDEST PUSH1 0xB SLOAD AND SWAP1 PUSH2 0x12C TIMESTAMP ADD DUP1 TIMESTAMP GT PUSH2 0x239F JUMPI TIMESTAMP DUP2 LT PUSH2 0x2358 JUMPI PUSH1 0xC4 PUSH1 0x60 SWAP3 DUP7 PUSH1 0x40 MLOAD SWAP6 DUP7 SWAP5 DUP6 SWAP4 PUSH32 0xF305D71900000000000000000000000000000000000000000000000000000000 DUP6 MSTORE ADDRESS PUSH1 0x4 DUP7 ADD MSTORE PUSH1 0x24 DUP6 ADD MSTORE DUP9 PUSH1 0x44 DUP6 ADD MSTORE DUP9 PUSH1 0x64 DUP6 ADD MSTORE ADDRESS PUSH1 0x84 DUP6 ADD MSTORE PUSH1 0xA4 DUP5 ADD MSTORE GAS CALL DUP1 ISZERO PUSH2 0x234D JUMPI PUSH2 0x2322 JUMPI JUMPDEST POP POP PUSH1 0x20 PUSH32 0xFDB748C915E4E67B4BB23287BF4295A4595CE48B50343214369F72CCFB974CFA SWAP2 PUSH1 0x40 MLOAD SWAP1 DUP2 MSTORE LOG1 JUMP JUMPDEST PUSH1 0x60 SWAP1 DUP2 RETURNDATASIZE DUP2 GT PUSH2 0x2346 JUMPI JUMPDEST PUSH2 0x2338 DUP2 DUP4 PUSH2 0x2231 JUMP JUMPDEST DUP2 ADD SUB SLT PUSH2 0x7E0 JUMPI DUP1 PUSH2 0x22F3 JUMP JUMPDEST POP RETURNDATASIZE PUSH2 0x232E JUMP JUMPDEST PUSH1 0x40 MLOAD RETURNDATASIZE DUP5 DUP3 RETURNDATACOPY RETURNDATASIZE SWAP1 REVERT JUMPDEST PUSH1 0x64 PUSH1 0x40 MLOAD PUSH1 0xE5 PUSH1 0x2 EXP PUSH3 0x461BCD MUL DUP2 MSTORE PUSH1 0x20 PUSH1 0x4 DUP3 ADD MSTORE PUSH1 0x1B PUSH1 0x24 DUP3 ADD MSTORE PUSH32 0x536166654D6174683A206164646974696F6E206F766572666C6F770000000000 PUSH1 0x44 DUP3 ADD MSTORE REVERT JUMPDEST PUSH1 0x24 DUP5 PUSH1 0xE0 PUSH1 0x2 EXP PUSH4 0x4E487B71 MUL DUP2 MSTORE PUSH1 0x11 PUSH1 0x4 MSTORE REVERT JUMPDEST SWAP2 SWAP1 DUP3 SUB SWAP2 DUP3 GT PUSH2 0x21E3 JUMPI JUMP JUMPDEST ISZERO PUSH2 0x23CA JUMPI JUMP JUMPDEST PUSH1 0x84 PUSH1 0x40 MLOAD PUSH1 0xE5 PUSH1 0x2 EXP PUSH3 0x461BCD MUL DUP2 MSTORE PUSH1 0x20 PUSH1 0x4 DUP3 ADD MSTORE PUSH1 0x2D PUSH1 0x24 DUP3 ADD MSTORE PUSH32 0x4D756C74695369676E617475726557616C6C65743A2070726F706F73616C2064 PUSH1 0x44 DUP3 ADD MSTORE PUSH32 0x6F6573206E6F7420657869737400000000000000000000000000000000000000 PUSH1 0x64 DUP3 ADD MSTORE REVERT JUMPDEST ISZERO PUSH2 0x243E JUMPI JUMP JUMPDEST PUSH1 0x84 PUSH1 0x40 MLOAD PUSH1 0xE5 PUSH1 0x2 EXP PUSH3 0x461BCD MUL DUP2 MSTORE PUSH1 0x20 PUSH1 0x4 DUP3 ADD MSTORE PUSH1 0x33 PUSH1 0x24 DUP3 ADD MSTORE PUSH32 0x4D756C74695369676E617475726557616C6C65743A2070726F706F73616C2077 PUSH1 0x44 DUP3 ADD MSTORE PUSH32 0x617320616C726561647920657865637574656400000000000000000000000000 PUSH1 0x64 DUP3 ADD MSTORE REVERT JUMPDEST PUSH1 0x40 DUP1 MLOAD SWAP2 PUSH8 0xFFFFFFFFFFFFFFFF SWAP1 PUSH1 0x60 DUP5 ADD DUP3 DUP2 GT DUP6 DUP3 LT OR PUSH2 0x2218 JUMPI DUP4 MSTORE PUSH1 0x2 DUP5 MSTORE PUSH1 0x20 DUP1 DUP6 ADD SWAP1 DUP5 CALLDATASIZE DUP4 CALLDATACOPY DUP6 MLOAD ISZERO PUSH2 0x20A7 JUMPI ADDRESS DUP3 MSTORE PUSH1 0x1 PUSH1 0xA0 PUSH1 0x2 EXP SUB SWAP3 DUP4 PUSH1 0xB SLOAD AND SWAP2 DUP7 MLOAD SWAP3 PUSH32 0xAD5C464800000000000000000000000000000000000000000000000000000000 DUP5 MSTORE DUP2 DUP5 PUSH1 0x4 DUP2 DUP5 GAS STATICCALL SWAP4 DUP5 ISZERO PUSH2 0x264B JUMPI PUSH1 0x0 SWAP5 PUSH2 0x2611 JUMPI JUMPDEST POP DUP9 MLOAD SWAP4 PUSH1 0x1 SWAP5 DUP6 LT ISZERO PUSH2 0x20A7 JUMPI PUSH2 0x254F SWAP2 DUP8 DUP6 SWAP3 AND DUP11 DUP13 ADD MSTORE ADDRESS PUSH2 0x291D JUMP JUMPDEST DUP5 PUSH1 0xB SLOAD AND SWAP5 DUP6 EXTCODESIZE ISZERO PUSH2 0x211F JUMPI SWAP2 DUP8 SWAP9 SWAP5 SWAP4 SWAP2 SWAP9 MLOAD SWAP9 DUP10 SWAP6 PUSH32 0x791AC94700000000000000000000000000000000000000000000000000000000 DUP8 MSTORE PUSH1 0xA4 DUP8 ADD SWAP3 PUSH1 0x4 DUP9 ADD MSTORE PUSH1 0x0 PUSH1 0x24 DUP9 ADD MSTORE PUSH1 0xA0 PUSH1 0x44 DUP9 ADD MSTORE MLOAD DUP1 SWAP3 MSTORE PUSH1 0xC4 DUP7 ADD SWAP5 SWAP4 PUSH1 0x0 SWAP1 JUMPDEST DUP4 DUP3 LT PUSH2 0x25F7 JUMPI POP POP POP POP POP POP SWAP2 DUP2 PUSH1 0x0 DUP2 DUP2 SWAP6 ADDRESS PUSH1 0x64 DUP4 ADD MSTORE TIMESTAMP PUSH1 0x84 DUP4 ADD MSTORE SUB SWAP3 GAS CALL DUP1 ISZERO PUSH2 0x25EC JUMPI PUSH2 0x25E3 JUMPI POP POP POP JUMP JUMPDEST DUP3 GT PUSH2 0x2218 JUMPI MSTORE JUMP JUMPDEST DUP3 MLOAD RETURNDATASIZE PUSH1 0x0 DUP3 RETURNDATACOPY RETURNDATASIZE SWAP1 REVERT JUMPDEST DUP6 MLOAD DUP2 AND DUP8 MSTORE DUP12 SWAP8 POP SWAP6 DUP3 ADD SWAP6 SWAP5 DUP3 ADD SWAP5 SWAP1 DUP5 ADD SWAP1 PUSH2 0x25B0 JUMP JUMPDEST DUP3 DUP2 DUP2 SWAP7 SWAP4 SWAP7 RETURNDATASIZE DUP4 GT PUSH2 0x2644 JUMPI JUMPDEST PUSH2 0x2629 DUP2 DUP4 PUSH2 0x2231 JUMP JUMPDEST DUP2 ADD SUB SLT PUSH2 0x24C JUMPI MLOAD SWAP1 DUP7 DUP3 AND DUP3 SUB PUSH2 0x7E0 JUMPI POP SWAP3 CODESIZE PUSH2 0x252F JUMP JUMPDEST POP RETURNDATASIZE PUSH2 0x261F JUMP JUMPDEST DUP9 MLOAD RETURNDATASIZE PUSH1 0x0 DUP3 RETURNDATACOPY RETURNDATASIZE SWAP1 REVERT JUMPDEST ISZERO PUSH2 0x265D JUMPI JUMP JUMPDEST PUSH1 0x84 PUSH1 0x40 MLOAD PUSH1 0xE5 PUSH1 0x2 EXP PUSH3 0x461BCD MUL DUP2 MSTORE PUSH1 0x20 PUSH1 0x4 DUP3 ADD MSTORE PUSH1 0x25 PUSH1 0x24 DUP3 ADD MSTORE PUSH32 0x45524332303A207472616E736665722066726F6D20746865207A65726F206164 PUSH1 0x44 DUP3 ADD MSTORE PUSH32 0x6472657373000000000000000000000000000000000000000000000000000000 PUSH1 0x64 DUP3 ADD MSTORE REVERT JUMPDEST ISZERO PUSH2 0x26D1 JUMPI JUMP JUMPDEST PUSH1 0x84 PUSH1 0x40 MLOAD PUSH1 0xE5 PUSH1 0x2 EXP PUSH3 0x461BCD MUL DUP2 MSTORE PUSH1 0x20 PUSH1 0x4 DUP3 ADD MSTORE PUSH1 0x23 PUSH1 0x24 DUP3 ADD MSTORE PUSH32 0x45524332303A207472616E7366657220746F20746865207A65726F2061646472 PUSH1 0x44 DUP3 ADD MSTORE PUSH32 0x6573730000000000000000000000000000000000000000000000000000000000 PUSH1 0x64 DUP3 ADD MSTORE REVERT JUMPDEST SWAP1 PUSH2 0x2799 SWAP3 SWAP2 PUSH1 0x1 PUSH1 0xA0 PUSH1 0x2 EXP SUB DUP1 DUP3 AND SWAP1 PUSH2 0x275B DUP3 ISZERO ISZERO PUSH2 0x2656 JUMP JUMPDEST DUP4 AND SWAP1 PUSH2 0x2769 DUP3 ISZERO ISZERO PUSH2 0x26CA JUMP JUMPDEST PUSH1 0x0 SWAP2 DUP2 DUP4 MSTORE PUSH1 0x22 PUSH1 0x20 MSTORE PUSH1 0xFF PUSH1 0x40 DUP5 KECCAK256 SLOAD AND SWAP1 DUP2 ISZERO PUSH2 0x2804 JUMPI JUMPDEST POP ISZERO SWAP1 DUP2 PUSH2 0x27EE JUMPI JUMPDEST POP PUSH2 0x279B JUMPI JUMPDEST POP PUSH2 0x2815 JUMP JUMPDEST JUMP JUMPDEST PUSH2 0x27BE PUSH1 0x64 PUSH2 0x27AC PUSH1 0x1D SLOAD DUP8 PUSH2 0x2BD1 JUMP JUMPDEST PUSH2 0x27B4 PUSH2 0x2BF6 JUMP JUMPDEST POP DIV PUSH1 0x21 SLOAD PUSH2 0x2A57 JUMP JUMPDEST PUSH1 0x21 SSTORE PUSH2 0x27E5 ADDRESS BALANCE PUSH2 0x27CF DUP7 PUSH2 0x24AB JUMP JUMPDEST ADDRESS DUP4 MSTORE DUP3 PUSH1 0x20 MSTORE PUSH1 0x64 PUSH2 0x1B8B PUSH1 0x40 DUP6 KECCAK256 SLOAD PUSH2 0x2AF3 JUMP JUMPDEST PUSH1 0x21 SSTORE CODESIZE PUSH2 0x2793 JUMP JUMPDEST DUP3 MSTORE POP PUSH1 0x24 PUSH1 0x20 MSTORE PUSH1 0x40 DUP2 KECCAK256 SLOAD PUSH1 0xFF AND CODESIZE PUSH2 0x278D JUMP JUMPDEST DUP4 MSTORE POP PUSH1 0x40 DUP3 KECCAK256 SLOAD PUSH1 0xFF AND CODESIZE PUSH2 0x2784 JUMP JUMPDEST PUSH1 0x1 PUSH1 0xA0 PUSH1 0x2 EXP SUB DUP1 SWAP2 AND SWAP2 PUSH2 0x282C DUP4 ISZERO ISZERO PUSH2 0x2656 JUMP JUMPDEST AND SWAP2 PUSH2 0x2839 DUP4 ISZERO ISZERO PUSH2 0x26CA JUMP JUMPDEST PUSH1 0x0 DUP3 DUP2 MSTORE DUP1 PUSH1 0x20 MSTORE PUSH1 0x40 SWAP1 DUP2 DUP2 KECCAK256 SLOAD DUP4 DUP2 LT PUSH2 0x28B1 JUMPI SWAP2 DUP4 SWAP2 PUSH2 0x2886 PUSH32 0xDDF252AD1BE2C89B69C2B068FC378DAA952BA7F163C4A11628F55A4DF523B3EF SWAP6 PUSH1 0x20 SWAP6 PUSH2 0xB38 PUSH2 0xB2F PUSH2 0x2A6C JUMP JUMPDEST DUP7 DUP3 MSTORE DUP2 DUP6 MSTORE DUP3 DUP3 KECCAK256 SSTORE DUP7 DUP2 MSTORE DUP2 PUSH2 0x28A1 DUP5 DUP3 DUP5 KECCAK256 SLOAD PUSH2 0x2A57 JUMP JUMPDEST SWAP2 DUP9 DUP2 MSTORE DUP1 DUP7 MSTORE KECCAK256 SSTORE MLOAD SWAP1 DUP2 MSTORE LOG3 JUMP JUMPDEST PUSH1 0x84 DUP4 MLOAD PUSH1 0xE5 PUSH1 0x2 EXP PUSH3 0x461BCD MUL DUP2 MSTORE PUSH1 0x20 PUSH1 0x4 DUP3 ADD MSTORE PUSH1 0x26 PUSH1 0x24 DUP3 ADD MSTORE PUSH32 0x45524332303A207472616E7366657220616D6F756E7420657863656564732062 PUSH1 0x44 DUP3 ADD MSTORE PUSH32 0x616C616E63650000000000000000000000000000000000000000000000000000 PUSH1 0x64 DUP3 ADD MSTORE REVERT JUMPDEST PUSH1 0x1 PUSH1 0xA0 PUSH1 0x2 EXP SUB DUP1 SWAP2 AND SWAP2 DUP3 ISZERO PUSH2 0x29EB JUMPI AND SWAP2 DUP3 ISZERO PUSH2 0x297E JUMPI PUSH1 0x20 PUSH32 0x8C5BE1E5EBEC7D5BD14F71427D1E84F3DD0314C0F7B2291E5B200AC8C7C3B925 SWAP2 DUP4 PUSH1 0x0 MSTORE PUSH1 0x1 DUP3 MSTORE PUSH1 0x40 PUSH1 0x0 KECCAK256 DUP6 PUSH1 0x0 MSTORE DUP3 MSTORE DUP1 PUSH1 0x40 PUSH1 0x0 KECCAK256 SSTORE PUSH1 0x40 MLOAD SWAP1 DUP2 MSTORE LOG3 JUMP JUMPDEST PUSH1 0x84 PUSH1 0x40 MLOAD PUSH1 0xE5 PUSH1 0x2 EXP PUSH3 0x461BCD MUL DUP2 MSTORE PUSH1 0x20 PUSH1 0x4 DUP3 ADD MSTORE PUSH1 0x22 PUSH1 0x24 DUP3 ADD MSTORE PUSH32 0x45524332303A20617070726F766520746F20746865207A65726F206164647265 PUSH1 0x44 DUP3 ADD MSTORE PUSH32 0x7373000000000000000000000000000000000000000000000000000000000000 PUSH1 0x64 DUP3 ADD MSTORE REVERT JUMPDEST PUSH1 0x84 PUSH1 0x40 MLOAD PUSH1 0xE5 PUSH1 0x2 EXP PUSH3 0x461BCD MUL DUP2 MSTORE PUSH1 0x20 PUSH1 0x4 DUP3 ADD MSTORE PUSH1 0x24 DUP1 DUP3 ADD MSTORE PUSH32 0x45524332303A20617070726F76652066726F6D20746865207A65726F20616464 PUSH1 0x44 DUP3 ADD MSTORE PUSH32 0x7265737300000000000000000000000000000000000000000000000000000000 PUSH1 0x64 DUP3 ADD MSTORE REVERT JUMPDEST SWAP1 PUSH2 0x2A62 SWAP1 DUP3 PUSH2 0x21D6 JUMP JUMPDEST SWAP1 DUP2 LT PUSH2 0x2358 JUMPI SWAP1 JUMP JUMPDEST PUSH1 0x40 MLOAD SWAP1 PUSH2 0x2A79 DUP3 PUSH2 0x21FC JUMP JUMPDEST PUSH1 0x1E DUP3 MSTORE PUSH32 0x536166654D6174683A207375627472616374696F6E206F766572666C6F770000 PUSH1 0x20 DUP4 ADD MSTORE JUMP JUMPDEST ISZERO PUSH2 0x2AAD JUMPI POP JUMP JUMPDEST PUSH2 0x2ACC SWAP1 PUSH1 0x40 MLOAD SWAP2 DUP3 SWAP2 PUSH1 0xE5 PUSH1 0x2 EXP PUSH3 0x461BCD MUL DUP4 MSTORE PUSH1 0x4 DUP4 ADD PUSH2 0x20C0 JUMP JUMPDEST SUB SWAP1 REVERT JUMPDEST DUP2 ISZERO PUSH2 0x2ADA JUMPI DIV SWAP1 JUMP JUMPDEST PUSH1 0xE0 PUSH1 0x2 EXP PUSH4 0x4E487B71 MUL PUSH1 0x0 MSTORE PUSH1 0x12 PUSH1 0x4 MSTORE PUSH1 0x24 PUSH1 0x0 REVERT JUMPDEST DUP1 ISZERO PUSH2 0x2B89 JUMPI PUSH1 0x1E DUP2 MUL SWAP1 DUP1 DUP3 DIV PUSH1 0x1E SUB PUSH2 0x21E3 JUMPI PUSH2 0x2B14 PUSH1 0x1E SWAP2 DUP4 PUSH2 0x2AD0 JUMP JUMPDEST SUB PUSH2 0x2B1C JUMPI SWAP1 JUMP JUMPDEST PUSH1 0x84 PUSH1 0x40 MLOAD PUSH1 0xE5 PUSH1 0x2 EXP PUSH3 0x461BCD MUL DUP2 MSTORE PUSH1 0x20 PUSH1 0x4 DUP3 ADD MSTORE PUSH1 0x21 PUSH1 0x24 DUP3 ADD MSTORE PUSH32 0x536166654D6174683A206D756C7469706C69636174696F6E206F766572666C6F PUSH1 0x44 DUP3 ADD MSTORE PUSH32 0x7700000000000000000000000000000000000000000000000000000000000000 PUSH1 0x64 DUP3 ADD MSTORE REVERT JUMPDEST POP PUSH1 0x0 SWAP1 JUMP JUMPDEST DUP1 ISZERO PUSH2 0x2B89 JUMPI PUSH1 0x64 DUP2 MUL SWAP1 DUP1 DUP3 DIV PUSH1 0x64 SUB PUSH2 0x21E3 JUMPI PUSH2 0x2B14 PUSH1 0x64 SWAP2 DUP4 PUSH2 0x2AD0 JUMP JUMPDEST DUP1 ISZERO PUSH2 0x2B89 JUMPI PUSH1 0xA DUP2 MUL SWAP1 DUP1 DUP3 DIV PUSH1 0xA SUB PUSH2 0x21E3 JUMPI PUSH2 0x2B14 PUSH1 0xA SWAP2 DUP4 PUSH2 0x2AD0 JUMP JUMPDEST SWAP1 DUP2 ISZERO PUSH2 0x2BEF JUMPI DUP1 DUP3 MUL SWAP2 DUP1 DUP4 DIV DUP3 SUB PUSH2 0x21E3 JUMPI PUSH2 0x2B14 SWAP1 DUP4 PUSH2 0x2AD0 JUMP JUMPDEST POP POP PUSH1 0x0 SWAP1 JUMP JUMPDEST PUSH1 0x40 MLOAD SWAP1 PUSH2 0x2C03 DUP3 PUSH2 0x21FC JUMP JUMPDEST PUSH1 0x1A DUP3 MSTORE PUSH32 0x536166654D6174683A206469766973696F6E206279207A65726F000000000000 PUSH1 0x20 DUP4 ADD MSTORE JUMP INVALID LOG2 PUSH5 0x6970667358 0x22 SLT KECCAK256 0xB9 CALL LOG0 0xED 0xCC PUSH27 0x52A47C82615094E790EBE5A3FB9DC62C8479E9C1CE783F3B9E7364 PUSH20 0x6F6C634300081100338BE0079C531659141344CD 0x1F 0xD0 LOG4 CALLCODE DUP5 NOT 0x49 PUSH32 0x9722A3DAAFE3B4186F6B6457E000000000000000000000000000000000000000 "
				},
				"gasEstimates": {
					"creation": {
						"codeDepositCost": "2273000",
						"executionCost": "infinite",
						"totalCost": "infinite"
					},
					"external": {
						"_poolHeisenDev()": "629",
						"_poolLiquidity()": "585",
						"_poolMarketing()": "541",
						"_poolTeam()": "695",
						"addressHeisenDev()": "858",
						"addressMarketing()": "528",
						"addressTeam()": "792",
						"allowance(address,address)": "1622",
						"approve(address,uint256)": "22430",
						"approveProposal(uint256)": "24099",
						"balanceOf(address)": "1001",
						"buy()": "infinite",
						"decimals()": "401",
						"decreaseAllowance(address,uint256)": "infinite",
						"executeProposal(uint256)": "infinite",
						"firstLiquidity(uint256)": "infinite",
						"increaseAllowance(address,uint256)": "23172",
						"name()": "infinite",
						"owner()": "946",
						"proposals(uint256)": "2615",
						"revokeProposal(uint256)": "24008",
						"salesEnabled()": "1081",
						"submitProposal(bool,bool,bool,bool,uint256,bool,uint256,uint256,uint256,uint256,bool,address)": "infinite",
						"symbol()": "infinite",
						"taxFeeHeisenDev()": "1047",
						"taxFeeLiquidity()": "893",
						"taxFeeMarketing()": "805",
						"taxFeeTeam()": "1025",
						"teamPayment()": "infinite",
						"totalSupply()": "519",
						"transfer(address,uint256)": "infinite",
						"transferFrom(address,address,uint256)": "infinite",
						"uniswapV2Router()": "572",
						"withdraw()": "infinite",
						"withdrawAllowance(address)": "1437",
						"withdrawAuthorization(address,uint256,uint256)": "infinite",
						"withdrawPrice()": "761"
					},
					"internal": {
						"_getApprovalCount(uint256)": "infinite",
						"_transfer(address,address,uint256)": "infinite",
						"addLiquidity(uint256,uint256)": "infinite",
						"isUnderDailyWithdrawalLimit(address)": "infinite",
						"swapAndAddLiquidity()": "infinite",
						"swapAndAddLiquidityTokens(uint256)": "infinite",
						"swapTokensForEth(uint256)": "infinite",
						"updateSalesStatus(bool)": "infinite",
						"updateTaxesFees(uint256,uint256,uint256,uint256)": "infinite",
						"updateWithdrawOptions(uint256)": "infinite"
					}
				},
				"methodIdentifiers": {
					"_poolHeisenDev()": "39262773",
					"_poolLiquidity()": "2a9af7ba",
					"_poolMarketing()": "1b45a47a",
					"_poolTeam()": "553000c1",
					"addressHeisenDev()": "7a594a2b",
					"addressMarketing()": "0abdc640",
					"addressTeam()": "562e9df9",
					"allowance(address,address)": "dd62ed3e",
					"approve(address,uint256)": "095ea7b3",
					"approveProposal(uint256)": "98951b56",
					"balanceOf(address)": "70a08231",
					"buy()": "a6f2ae3a",
					"decimals()": "313ce567",
					"decreaseAllowance(address,uint256)": "a457c2d7",
					"executeProposal(uint256)": "0d61b519",
					"firstLiquidity(uint256)": "d8a0f828",
					"increaseAllowance(address,uint256)": "39509351",
					"name()": "06fdde03",
					"owner()": "8da5cb5b",
					"proposals(uint256)": "013cf08b",
					"revokeProposal(uint256)": "85a6a091",
					"salesEnabled()": "c84ad9a5",
					"submitProposal(bool,bool,bool,bool,uint256,bool,uint256,uint256,uint256,uint256,bool,address)": "dce165a6",
					"symbol()": "95d89b41",
					"taxFeeHeisenDev()": "c4ce220b",
					"taxFeeLiquidity()": "933f5e07",
					"taxFeeMarketing()": "7d81936c",
					"taxFeeTeam()": "b6bba0ae",
					"teamPayment()": "d7196dd9",
					"totalSupply()": "18160ddd",
					"transfer(address,uint256)": "a9059cbb",
					"transferFrom(address,address,uint256)": "23b872dd",
					"uniswapV2Router()": "1694505e",
					"withdraw()": "3ccfd60b",
					"withdrawAllowance(address)": "fe7441e7",
					"withdrawAuthorization(address,uint256,uint256)": "8198c341",
					"withdrawPrice()": "7918447e"
				}
			},
			"storageLayout": {
				"storage": [
					{
						"astId": 1613,
						"contract": "SwishFishToken.sol:SwishFish",
						"label": "_balances",
						"offset": 0,
						"slot": "0",
						"type": "t_mapping(t_address,t_uint256)"
					},
					{
						"astId": 1619,
						"contract": "SwishFishToken.sol:SwishFish",
						"label": "_allowances",
						"offset": 0,
						"slot": "1",
						"type": "t_mapping(t_address,t_mapping(t_address,t_uint256))"
					},
					{
						"astId": 1621,
						"contract": "SwishFishToken.sol:SwishFish",
						"label": "_totalSupply",
						"offset": 0,
						"slot": "2",
						"type": "t_uint256"
					},
					{
						"astId": 1623,
						"contract": "SwishFishToken.sol:SwishFish",
						"label": "_name",
						"offset": 0,
						"slot": "3",
						"type": "t_string_storage"
					},
					{
						"astId": 1625,
						"contract": "SwishFishToken.sol:SwishFish",
						"label": "_symbol",
						"offset": 0,
						"slot": "4",
						"type": "t_string_storage"
					},
					{
						"astId": 3040,
						"contract": "SwishFishToken.sol:SwishFish",
						"label": "proposals",
						"offset": 0,
						"slot": "5",
						"type": "t_array(t_struct(Proposal)3036_storage)dyn_storage"
					},
					{
						"astId": 3046,
						"contract": "SwishFishToken.sol:SwishFish",
						"label": "proposalApproved",
						"offset": 0,
						"slot": "6",
						"type": "t_mapping(t_uint256,t_mapping(t_address,t_bool))"
					},
					{
						"astId": 1401,
						"contract": "SwishFishToken.sol:SwishFish",
						"label": "_backend",
						"offset": 0,
						"slot": "7",
						"type": "t_address"
					},
					{
						"astId": 1403,
						"contract": "SwishFishToken.sol:SwishFish",
						"label": "_owner",
						"offset": 0,
						"slot": "8",
						"type": "t_address"
					},
					{
						"astId": 1406,
						"contract": "SwishFishToken.sol:SwishFish",
						"label": "_owners",
						"offset": 0,
						"slot": "9",
						"type": "t_array(t_address)dyn_storage"
					},
					{
						"astId": 1410,
						"contract": "SwishFishToken.sol:SwishFish",
						"label": "isOwner",
						"offset": 0,
						"slot": "10",
						"type": "t_mapping(t_address,t_bool)"
					},
					{
						"astId": 16,
						"contract": "SwishFishToken.sol:SwishFish",
						"label": "uniswapV2Router",
						"offset": 0,
						"slot": "11",
						"type": "t_contract(IUniswapV2Router02)2765"
					},
					{
						"astId": 24,
						"contract": "SwishFishToken.sol:SwishFish",
						"label": "_tokenTotalSupply",
						"offset": 0,
						"slot": "12",
						"type": "t_uint256"
					},
					{
						"astId": 27,
						"contract": "SwishFishToken.sol:SwishFish",
						"label": "salesEnabled",
						"offset": 0,
						"slot": "13",
						"type": "t_bool"
					},
					{
						"astId": 30,
						"contract": "SwishFishToken.sol:SwishFish",
						"label": "firstLiquidityEnabled",
						"offset": 1,
						"slot": "13",
						"type": "t_bool"
					},
					{
						"astId": 34,
						"contract": "SwishFishToken.sol:SwishFish",
						"label": "_authorizedWithdraws",
						"offset": 0,
						"slot": "14",
						"type": "t_mapping(t_address,t_uint256)"
					},
					{
						"astId": 38,
						"contract": "SwishFishToken.sol:SwishFish",
						"label": "_accountTransactionLast",
						"offset": 0,
						"slot": "15",
						"type": "t_mapping(t_address,t_uint256)"
					},
					{
						"astId": 42,
						"contract": "SwishFishToken.sol:SwishFish",
						"label": "_accountTransactionCount",
						"offset": 0,
						"slot": "16",
						"type": "t_mapping(t_address,t_uint256)"
					},
					{
						"astId": 46,
						"contract": "SwishFishToken.sol:SwishFish",
						"label": "_accountWithdrawalLast",
						"offset": 0,
						"slot": "17",
						"type": "t_mapping(t_address,t_uint256)"
					},
					{
						"astId": 50,
						"contract": "SwishFishToken.sol:SwishFish",
						"label": "_accountWithdrawalCount",
						"offset": 0,
						"slot": "18",
						"type": "t_mapping(t_address,t_uint256)"
					},
					{
						"astId": 53,
						"contract": "SwishFishToken.sol:SwishFish",
						"label": "withdrawPrice",
						"offset": 0,
						"slot": "19",
						"type": "t_uint256"
					},
					{
						"astId": 56,
						"contract": "SwishFishToken.sol:SwishFish",
						"label": "_maxTransactionCount",
						"offset": 0,
						"slot": "20",
						"type": "t_uint256"
					},
					{
						"astId": 59,
						"contract": "SwishFishToken.sol:SwishFish",
						"label": "_maxWithdrawalCount",
						"offset": 0,
						"slot": "21",
						"type": "t_uint256"
					},
					{
						"astId": 62,
						"contract": "SwishFishToken.sol:SwishFish",
						"label": "_maxTransactionWithdrawAmount",
						"offset": 0,
						"slot": "22",
						"type": "t_uint256"
					},
					{
						"astId": 69,
						"contract": "SwishFishToken.sol:SwishFish",
						"label": "addressHeisenDev",
						"offset": 0,
						"slot": "23",
						"type": "t_address_payable"
					},
					{
						"astId": 75,
						"contract": "SwishFishToken.sol:SwishFish",
						"label": "addressMarketing",
						"offset": 0,
						"slot": "24",
						"type": "t_address_payable"
					},
					{
						"astId": 81,
						"contract": "SwishFishToken.sol:SwishFish",
						"label": "addressTeam",
						"offset": 0,
						"slot": "25",
						"type": "t_address_payable"
					},
					{
						"astId": 85,
						"contract": "SwishFishToken.sol:SwishFish",
						"label": "taxFeeHeisenDev",
						"offset": 0,
						"slot": "26",
						"type": "t_uint256"
					},
					{
						"astId": 88,
						"contract": "SwishFishToken.sol:SwishFish",
						"label": "taxFeeMarketing",
						"offset": 0,
						"slot": "27",
						"type": "t_uint256"
					},
					{
						"astId": 91,
						"contract": "SwishFishToken.sol:SwishFish",
						"label": "taxFeeTeam",
						"offset": 0,
						"slot": "28",
						"type": "t_uint256"
					},
					{
						"astId": 94,
						"contract": "SwishFishToken.sol:SwishFish",
						"label": "taxFeeLiquidity",
						"offset": 0,
						"slot": "29",
						"type": "t_uint256"
					},
					{
						"astId": 98,
						"contract": "SwishFishToken.sol:SwishFish",
						"label": "_poolHeisenDev",
						"offset": 0,
						"slot": "30",
						"type": "t_uint256"
					},
					{
						"astId": 101,
						"contract": "SwishFishToken.sol:SwishFish",
						"label": "_poolMarketing",
						"offset": 0,
						"slot": "31",
						"type": "t_uint256"
					},
					{
						"astId": 104,
						"contract": "SwishFishToken.sol:SwishFish",
						"label": "_poolTeam",
						"offset": 0,
						"slot": "32",
						"type": "t_uint256"
					},
					{
						"astId": 107,
						"contract": "SwishFishToken.sol:SwishFish",
						"label": "_poolLiquidity",
						"offset": 0,
						"slot": "33",
						"type": "t_uint256"
					},
					{
						"astId": 111,
						"contract": "SwishFishToken.sol:SwishFish",
						"label": "_isExcludedFromFees",
						"offset": 0,
						"slot": "34",
						"type": "t_mapping(t_address,t_bool)"
					},
					{
						"astId": 115,
						"contract": "SwishFishToken.sol:SwishFish",
						"label": "_isExcludedFromLimits",
						"offset": 0,
						"slot": "35",
						"type": "t_mapping(t_address,t_bool)"
					},
					{
						"astId": 119,
						"contract": "SwishFishToken.sol:SwishFish",
						"label": "automatedMarketMakerPairs",
						"offset": 0,
						"slot": "36",
						"type": "t_mapping(t_address,t_bool)"
					}
				],
				"types": {
					"t_address": {
						"encoding": "inplace",
						"label": "address",
						"numberOfBytes": "20"
					},
					"t_address_payable": {
						"encoding": "inplace",
						"label": "address payable",
						"numberOfBytes": "20"
					},
					"t_array(t_address)dyn_storage": {
						"base": "t_address",
						"encoding": "dynamic_array",
						"label": "address[]",
						"numberOfBytes": "32"
					},
					"t_array(t_struct(Proposal)3036_storage)dyn_storage": {
						"base": "t_struct(Proposal)3036_storage",
						"encoding": "dynamic_array",
						"label": "struct MultiSignature.Proposal[]",
						"numberOfBytes": "32"
					},
					"t_bool": {
						"encoding": "inplace",
						"label": "bool",
						"numberOfBytes": "1"
					},
					"t_contract(IUniswapV2Router02)2765": {
						"encoding": "inplace",
						"label": "contract IUniswapV2Router02",
						"numberOfBytes": "20"
					},
					"t_mapping(t_address,t_bool)": {
						"encoding": "mapping",
						"key": "t_address",
						"label": "mapping(address => bool)",
						"numberOfBytes": "32",
						"value": "t_bool"
					},
					"t_mapping(t_address,t_mapping(t_address,t_uint256))": {
						"encoding": "mapping",
						"key": "t_address",
						"label": "mapping(address => mapping(address => uint256))",
						"numberOfBytes": "32",
						"value": "t_mapping(t_address,t_uint256)"
					},
					"t_mapping(t_address,t_uint256)": {
						"encoding": "mapping",
						"key": "t_address",
						"label": "mapping(address => uint256)",
						"numberOfBytes": "32",
						"value": "t_uint256"
					},
					"t_mapping(t_uint256,t_mapping(t_address,t_bool))": {
						"encoding": "mapping",
						"key": "t_uint256",
						"label": "mapping(uint256 => mapping(address => bool))",
						"numberOfBytes": "32",
						"value": "t_mapping(t_address,t_bool)"
					},
					"t_string_storage": {
						"encoding": "bytes",
						"label": "string",
						"numberOfBytes": "32"
					},
					"t_struct(Proposal)3036_storage": {
						"encoding": "inplace",
						"label": "struct MultiSignature.Proposal",
						"members": [
							{
								"astId": 3009,
								"contract": "SwishFishToken.sol:SwishFish",
								"label": "author",
								"offset": 0,
								"slot": "0",
								"type": "t_address"
							},
							{
								"astId": 3011,
								"contract": "SwishFishToken.sol:SwishFish",
								"label": "executed",
								"offset": 20,
								"slot": "0",
								"type": "t_bool"
							},
							{
								"astId": 3013,
								"contract": "SwishFishToken.sol:SwishFish",
								"label": "updateSalesStatus",
								"offset": 21,
								"slot": "0",
								"type": "t_bool"
							},
							{
								"astId": 3015,
								"contract": "SwishFishToken.sol:SwishFish",
								"label": "salesEnabled",
								"offset": 22,
								"slot": "0",
								"type": "t_bool"
							},
							{
								"astId": 3017,
								"contract": "SwishFishToken.sol:SwishFish",
								"label": "swapAndAddLiquidity",
								"offset": 23,
								"slot": "0",
								"type": "t_bool"
							},
							{
								"astId": 3019,
								"contract": "SwishFishToken.sol:SwishFish",
								"label": "updateWithdrawOptions",
								"offset": 24,
								"slot": "0",
								"type": "t_bool"
							},
							{
								"astId": 3021,
								"contract": "SwishFishToken.sol:SwishFish",
								"label": "withdrawPrice",
								"offset": 0,
								"slot": "1",
								"type": "t_uint256"
							},
							{
								"astId": 3023,
								"contract": "SwishFishToken.sol:SwishFish",
								"label": "updateTaxesFees",
								"offset": 0,
								"slot": "2",
								"type": "t_bool"
							},
							{
								"astId": 3025,
								"contract": "SwishFishToken.sol:SwishFish",
								"label": "heisenVerseTaxFee",
								"offset": 0,
								"slot": "3",
								"type": "t_uint256"
							},
							{
								"astId": 3027,
								"contract": "SwishFishToken.sol:SwishFish",
								"label": "marketingTaxFee",
								"offset": 0,
								"slot": "4",
								"type": "t_uint256"
							},
							{
								"astId": 3029,
								"contract": "SwishFishToken.sol:SwishFish",
								"label": "teamTaxFee",
								"offset": 0,
								"slot": "5",
								"type": "t_uint256"
							},
							{
								"astId": 3031,
								"contract": "SwishFishToken.sol:SwishFish",
								"label": "liquidityTaxFee",
								"offset": 0,
								"slot": "6",
								"type": "t_uint256"
							},
							{
								"astId": 3033,
								"contract": "SwishFishToken.sol:SwishFish",
								"label": "transferBackend",
								"offset": 0,
								"slot": "7",
								"type": "t_bool"
							},
							{
								"astId": 3035,
								"contract": "SwishFishToken.sol:SwishFish",
								"label": "backendAddress",
								"offset": 1,
								"slot": "7",
								"type": "t_address"
							}
						],
						"numberOfBytes": "256"
					},
					"t_uint256": {
						"encoding": "inplace",
						"label": "uint256",
						"numberOfBytes": "32"
					}
				}
			},
			"userdoc": {
				"kind": "user",
				"methods": {
					"_poolHeisenDev()": {
						"notice": "Definition of pools `_poolHeisenDev` `_poolMarketing` `_poolTeam` `_poolLiquidity`"
					},
					"addressHeisenDev()": {
						"notice": "Definition of the Project Wallets `addressHeisenDev` Corresponds to the wallet address where the development team will receive their payments `addressMarketing` Corresponds to the wallet address where the funds for marketing will be received `addressTeam` Represents the wallet where teams and other collaborators will receive their payments"
					},
					"taxFeeHeisenDev()": {
						"notice": "Definition of the taxes fees for swaps `taxFeeHeisenDev` 2%  Initial tax fee during presale `taxFeeMarketing` 3%  Initial tax fee during presale `taxFeeTeam` 3%  Initial tax fee during presale `taxFeeLiquidity` 2%  Initial tax fee during presale This value can be modified by the method {updateTaxesFees}"
					}
				},
				"version": 1
			}
		}
	}
}