{
	"data": {
		"bytecode": {
			"linkReferences": {},
			"object": "60808060405234610016576102db908161001c8239f35b600080fdfe608080604052600436101561001357600080fd5b6000907c010000000000000000000000000000000000000000000000000000000082350463013cf08b1461004657600080fd5b346102a15760203660031901126102a157600435825481101561029d57600890836101c0945202807f290decd9548b62a8d60345a988386fc84ba6bc95484008f6362f93160ef3e5630154907f290decd9548b62a8d60345a988386fc84ba6bc95484008f6362f93160ef3e56481015460ff807f290decd9548b62a8d60345a988386fc84ba6bc95484008f6362f93160ef3e56584015416927f290decd9548b62a8d60345a988386fc84ba6bc95484008f6362f93160ef3e566810154937f290decd9548b62a8d60345a988386fc84ba6bc95484008f6362f93160ef3e5678201547f290decd9548b62a8d60345a988386fc84ba6bc95484008f6362f93160ef3e568830154917f290decd9548b62a8d60345a988386fc84ba6bc95484008f6362f93160ef3e56a7f290decd9548b62a8d60345a988386fc84ba6bc95484008f6362f93160ef3e5698501549401549585780100000000000000000000000000000000000000000000000073ffffffffffffffffffffffffffffffffffffffff9a8b81168d528c6020847401000000000000000000000000000000000000000084041615159101528c604084750100000000000000000000000000000000000000000084041615159101528c60608476010000000000000000000000000000000000000000000084041615159101528c6080847701000000000000000000000000000000000000000000000084041615159101520416151560a08b015260c08a0152151560e089015261010095868901526101208801526101408701526101608601528116151561018085015204166101a0820152f35b8280fd5b5080fdfea26469706673582212202975bdde4be71743bb743fb26a879b5bad0d83b68e1902582f32ff9ed7df812164736f6c63430008110033",
			"opcodes": "PUSH1 0x80 DUP1 PUSH1 0x40 MSTORE CALLVALUE PUSH2 0x16 JUMPI PUSH2 0x2DB SWAP1 DUP2 PUSH2 0x1C DUP3 CODECOPY RETURN JUMPDEST PUSH1 0x0 DUP1 REVERT INVALID PUSH1 0x80 DUP1 PUSH1 0x40 MSTORE PUSH1 0x4 CALLDATASIZE LT ISZERO PUSH2 0x13 JUMPI PUSH1 0x0 DUP1 REVERT JUMPDEST PUSH1 0x0 SWAP1 PUSH29 0x100000000000000000000000000000000000000000000000000000000 DUP3 CALLDATALOAD DIV PUSH4 0x13CF08B EQ PUSH2 0x46 JUMPI PUSH1 0x0 DUP1 REVERT JUMPDEST CALLVALUE PUSH2 0x2A1 JUMPI PUSH1 0x20 CALLDATASIZE PUSH1 0x3 NOT ADD SLT PUSH2 0x2A1 JUMPI PUSH1 0x4 CALLDATALOAD DUP3 SLOAD DUP2 LT ISZERO PUSH2 0x29D JUMPI PUSH1 0x8 SWAP1 DUP4 PUSH2 0x1C0 SWAP5 MSTORE MUL DUP1 PUSH32 0x290DECD9548B62A8D60345A988386FC84BA6BC95484008F6362F93160EF3E563 ADD SLOAD SWAP1 PUSH32 0x290DECD9548B62A8D60345A988386FC84BA6BC95484008F6362F93160EF3E564 DUP2 ADD SLOAD PUSH1 0xFF DUP1 PUSH32 0x290DECD9548B62A8D60345A988386FC84BA6BC95484008F6362F93160EF3E565 DUP5 ADD SLOAD AND SWAP3 PUSH32 0x290DECD9548B62A8D60345A988386FC84BA6BC95484008F6362F93160EF3E566 DUP2 ADD SLOAD SWAP4 PUSH32 0x290DECD9548B62A8D60345A988386FC84BA6BC95484008F6362F93160EF3E567 DUP3 ADD SLOAD PUSH32 0x290DECD9548B62A8D60345A988386FC84BA6BC95484008F6362F93160EF3E568 DUP4 ADD SLOAD SWAP2 PUSH32 0x290DECD9548B62A8D60345A988386FC84BA6BC95484008F6362F93160EF3E56A PUSH32 0x290DECD9548B62A8D60345A988386FC84BA6BC95484008F6362F93160EF3E569 DUP6 ADD SLOAD SWAP5 ADD SLOAD SWAP6 DUP6 PUSH25 0x1000000000000000000000000000000000000000000000000 PUSH20 0xFFFFFFFFFFFFFFFFFFFFFFFFFFFFFFFFFFFFFFFF SWAP11 DUP12 DUP2 AND DUP14 MSTORE DUP13 PUSH1 0x20 DUP5 PUSH21 0x10000000000000000000000000000000000000000 DUP5 DIV AND ISZERO ISZERO SWAP2 ADD MSTORE DUP13 PUSH1 0x40 DUP5 PUSH22 0x1000000000000000000000000000000000000000000 DUP5 DIV AND ISZERO ISZERO SWAP2 ADD MSTORE DUP13 PUSH1 0x60 DUP5 PUSH23 0x100000000000000000000000000000000000000000000 DUP5 DIV AND ISZERO ISZERO SWAP2 ADD MSTORE DUP13 PUSH1 0x80 DUP5 PUSH24 0x10000000000000000000000000000000000000000000000 DUP5 DIV AND ISZERO ISZERO SWAP2 ADD MSTORE DIV AND ISZERO ISZERO PUSH1 0xA0 DUP12 ADD MSTORE PUSH1 0xC0 DUP11 ADD MSTORE ISZERO ISZERO PUSH1 0xE0 DUP10 ADD MSTORE PUSH2 0x100 SWAP6 DUP7 DUP10 ADD MSTORE PUSH2 0x120 DUP9 ADD MSTORE PUSH2 0x140 DUP8 ADD MSTORE PUSH2 0x160 DUP7 ADD MSTORE DUP2 AND ISZERO ISZERO PUSH2 0x180 DUP6 ADD MSTORE DIV AND PUSH2 0x1A0 DUP3 ADD MSTORE RETURN JUMPDEST DUP3 DUP1 REVERT JUMPDEST POP DUP1 REVERT INVALID LOG2 PUSH5 0x6970667358 0x22 SLT KECCAK256 0x29 PUSH22 0xBDDE4BE71743BB743FB26A879B5BAD0D83B68E190258 0x2F ORIGIN SELFDESTRUCT SWAP15 0xD7 0xDF DUP2 0x21 PUSH5 0x736F6C6343 STOP ADDMOD GT STOP CALLER "
		},
		"gasEstimates": {
			"creation": {
				"codeDepositCost": "146200",
				"executionCost": "196",
				"totalCost": "146396"
			},
			"external": {
				"proposals(uint256)": "2459"
			}
		},
		"methodIdentifiers": {
			"proposals(uint256)": "013cf08b"
		}
	},
	"abi": [
		{
			"inputs": [],
			"stateMutability": "nonpayable",
			"type": "constructor"
		},
		{
			"anonymous": false,
			"inputs": [
				{
					"indexed": true,
					"internalType": "address",
					"name": "owner",
					"type": "address"
				},
				{
					"indexed": true,
					"internalType": "uint256",
					"name": "proposalId",
					"type": "uint256"
				}
			],
			"name": "ApproveProposal",
			"type": "event"
		},
		{
			"anonymous": false,
			"inputs": [
				{
					"indexed": true,
					"internalType": "address",
					"name": "sender",
					"type": "address"
				},
				{
					"indexed": false,
					"internalType": "uint256",
					"name": "amount",
					"type": "uint256"
				}
			],
			"name": "DepositProposal",
			"type": "event"
		},
		{
			"anonymous": false,
			"inputs": [
				{
					"indexed": true,
					"internalType": "address",
					"name": "owner",
					"type": "address"
				},
				{
					"indexed": true,
					"internalType": "uint256",
					"name": "proposalId",
					"type": "uint256"
				}
			],
			"name": "RevokeProposal",
			"type": "event"
		},
		{
			"anonymous": false,
			"inputs": [
				{
					"indexed": true,
					"internalType": "uint256",
					"name": "proposalId",
					"type": "uint256"
				}
			],
			"name": "SubmitProposal",
			"type": "event"
		},
		{
			"inputs": [
				{
					"internalType": "uint256",
					"name": "",
					"type": "uint256"
				}
			],
			"name": "proposals",
			"outputs": [
				{
					"internalType": "address",
					"name": "author",
					"type": "address"
				},
				{
					"internalType": "bool",
					"name": "executed",
					"type": "bool"
				},
				{
					"internalType": "bool",
					"name": "updateSalesStatus",
					"type": "bool"
				},
				{
					"internalType": "bool",
					"name": "salesEnabled",
					"type": "bool"
				},
				{
					"internalType": "bool",
					"name": "swapAndAddLiquidity",
					"type": "bool"
				},
				{
					"internalType": "bool",
					"name": "updateWithdrawOptions",
					"type": "bool"
				},
				{
					"internalType": "uint256",
					"name": "withdrawPrice",
					"type": "uint256"
				},
				{
					"internalType": "bool",
					"name": "updateTaxesFees",
					"type": "bool"
				},
				{
					"internalType": "uint256",
					"name": "heisenVerseTaxFee",
					"type": "uint256"
				},
				{
					"internalType": "uint256",
					"name": "marketingTaxFee",
					"type": "uint256"
				},
				{
					"internalType": "uint256",
					"name": "teamTaxFee",
					"type": "uint256"
				},
				{
					"internalType": "uint256",
					"name": "liquidityTaxFee",
					"type": "uint256"
				},
				{
					"internalType": "bool",
					"name": "transferBackend",
					"type": "bool"
				},
				{
					"internalType": "address",
					"name": "backendAddress",
					"type": "address"
				}
			],
			"stateMutability": "view",
			"type": "function"
		}
	]
}