{
  "contractName": "MultiSignature",
  "abi": [
    {
      "inputs": [],
      "stateMutability": "nonpayable",
      "type": "constructor"
    },
    {
      "anonymous": false,
      "inputs": [
        {
          "indexed": true,
          "internalType": "address",
          "name": "owner",
          "type": "address"
        },
        {
          "indexed": true,
          "internalType": "uint256",
          "name": "proposalId",
          "type": "uint256"
        }
      ],
      "name": "ApproveProposal",
      "type": "event"
    },
    {
      "anonymous": false,
      "inputs": [
        {
          "indexed": true,
          "internalType": "address",
          "name": "sender",
          "type": "address"
        },
        {
          "indexed": false,
          "internalType": "uint256",
          "name": "amount",
          "type": "uint256"
        }
      ],
      "name": "DepositProposal",
      "type": "event"
    },
    {
      "anonymous": false,
      "inputs": [
        {
          "indexed": true,
          "internalType": "address",
          "name": "owner",
          "type": "address"
        },
        {
          "indexed": true,
          "internalType": "uint256",
          "name": "proposalId",
          "type": "uint256"
        }
      ],
      "name": "RevokeProposal",
      "type": "event"
    },
    {
      "anonymous": false,
      "inputs": [
        {
          "indexed": true,
          "internalType": "uint256",
          "name": "proposalId",
          "type": "uint256"
        }
      ],
      "name": "SubmitProposal",
      "type": "event"
    },
    {
      "inputs": [
        {
          "internalType": "uint256",
          "name": "",
          "type": "uint256"
        }
      ],
      "name": "proposals",
      "outputs": [
        {
          "internalType": "address",
          "name": "author",
          "type": "address"
        },
        {
          "internalType": "bool",
          "name": "executed",
          "type": "bool"
        },
        {
          "internalType": "bool",
          "name": "updateSalesStatus",
          "type": "bool"
        },
        {
          "internalType": "bool",
          "name": "salesEnabled",
          "type": "bool"
        },
        {
          "internalType": "bool",
          "name": "updateTaxesFees",
          "type": "bool"
        },
        {
          "internalType": "uint256",
          "name": "heisenVerseTaxFee",
          "type": "uint256"
        },
        {
          "internalType": "uint256",
          "name": "marketingTaxFee",
          "type": "uint256"
        },
        {
          "internalType": "uint256",
          "name": "teamTaxFee",
          "type": "uint256"
        },
        {
          "internalType": "uint256",
          "name": "liquidityTaxFee",
          "type": "uint256"
        },
        {
          "internalType": "bool",
          "name": "transferBackend",
          "type": "bool"
        },
        {
          "internalType": "address",
          "name": "backendAddress",
          "type": "address"
        }
      ],
      "stateMutability": "view",
      "type": "function"
    }
  ],
  "bytecode": "0x60808060405234610016576101d9908161001c8239f35b600080fdfe608080604052600436101561001357600080fd5b600090813560e01c63013cf08b1461002a57600080fd5b3461019f57602036600319011261019f57600435825481101561019b5760069083610160945202807f290decd9548b62a8d60345a988386fc84ba6bc95484008f6362f93160ef3e5630154907f290decd9548b62a8d60345a988386fc84ba6bc95484008f6362f93160ef3e564810154907f290decd9548b62a8d60345a988386fc84ba6bc95484008f6362f93160ef3e5658101547f290decd9548b62a8d60345a988386fc84ba6bc95484008f6362f93160ef3e566820154907f290decd9548b62a8d60345a988386fc84ba6bc95484008f6362f93160ef3e5687f290decd9548b62a8d60345a988386fc84ba6bc95484008f6362f93160ef3e5678401549301549360ff60018060a01b03968781168952818160a01c16151560208a0152818160a81c16151560408a0152818160b01c16151560608a015260b81c161515608088015260a087015260c086015260e085015261010084015260ff8116151561012084015260081c16610140820152f35b8280fd5b5080fdfea26469706673582212203d9002090429bde6930b93a2770c1d8c86cc84fa501e4b8db953d6422fe0d4b164736f6c63430008110033",
  "immutableReferences": {},
  "source": "// SPDX-License-Identifier: MIT\n// Coin2Fish Contract (utils/MultiSigWallet.sol)\n\npragma solidity 0.8.17;\n\ncontract MultiSignature {\n    event DepositProposal(address indexed sender, uint amount);\n    event SubmitProposal(uint indexed proposalId);\n    event ApproveProposal(address indexed owner, uint indexed proposalId);\n    event RevokeProposal(address indexed owner, uint indexed proposalId);\n\n    struct Proposal {\n        address author;\n        bool executed;\n        bool updateSalesStatus;\n        bool salesEnabled;\n        bool updateTaxesFees;\n        uint256 heisenVerseTaxFee;\n        uint256 marketingTaxFee;\n        uint256 teamTaxFee;\n        uint256 liquidityTaxFee;\n        bool transferBackend;\n        address backendAddress;\n    }\n\n    Proposal[] public proposals;\n\n    mapping(uint => mapping(address => bool)) internal proposalApproved;\n    constructor() {}\n\n    modifier proposalExists(uint _proposalId) {\n        require(_proposalId < proposals.length, \"MultiSignatureWallet: proposal does not exist\");\n        _;\n    }\n\n    modifier proposalNotApproved(uint _proposalId) {\n        require(!proposalApproved[_proposalId][msg.sender], \"MultiSignatureWallet: proposal already was approved by owner\");\n        _;\n    }\n\n    modifier proposalNotExecuted(uint _proposalId) {\n        require(!proposals[_proposalId].executed, \"MultiSignatureWallet: proposal was already executed\");\n        _;\n    }\n}\n",
  "sourcePath": "/Users/ivanvalenzuela/WebstormProjects/swishfish-contract/contracts/utils/MultiSignature.sol",
  "compiler": {
    "name": "solc",
    "version": "0.8.17+commit.8df45f5f.Emscripten.clang"
  },
  "schemaVersion": "3.4.10",
  "updatedAt": "2022-11-09T19:57:12.741Z",
  "devdoc": {
    "kind": "dev",
    "methods": {},
    "version": 1
  },
  "userdoc": {
    "kind": "user",
    "methods": {},
    "version": 1
  }
}