{
  "contractName": "Ownable",
  "abi": [
    {
      "inputs": [],
      "stateMutability": "nonpayable",
      "type": "constructor"
    },
    {
      "anonymous": false,
      "inputs": [
        {
          "indexed": true,
          "internalType": "address",
          "name": "owner",
          "type": "address"
        },
        {
          "indexed": true,
          "internalType": "uint256",
          "name": "proposalId",
          "type": "uint256"
        }
      ],
      "name": "ApproveProposal",
      "type": "event"
    },
    {
      "anonymous": false,
      "inputs": [
        {
          "indexed": true,
          "internalType": "address",
          "name": "sender",
          "type": "address"
        },
        {
          "indexed": false,
          "internalType": "uint256",
          "name": "amount",
          "type": "uint256"
        }
      ],
      "name": "DepositProposal",
      "type": "event"
    },
    {
      "anonymous": false,
      "inputs": [
        {
          "indexed": true,
          "internalType": "address",
          "name": "previousOwner",
          "type": "address"
        },
        {
          "indexed": true,
          "internalType": "address",
          "name": "newOwner",
          "type": "address"
        }
      ],
      "name": "OwnershipTransferred",
      "type": "event"
    },
    {
      "anonymous": false,
      "inputs": [
        {
          "indexed": true,
          "internalType": "address",
          "name": "owner",
          "type": "address"
        },
        {
          "indexed": true,
          "internalType": "uint256",
          "name": "proposalId",
          "type": "uint256"
        }
      ],
      "name": "RevokeProposal",
      "type": "event"
    },
    {
      "anonymous": false,
      "inputs": [
        {
          "indexed": true,
          "internalType": "uint256",
          "name": "proposalId",
          "type": "uint256"
        }
      ],
      "name": "SubmitProposal",
      "type": "event"
    },
    {
      "inputs": [
        {
          "internalType": "uint256",
          "name": "",
          "type": "uint256"
        }
      ],
      "name": "proposals",
      "outputs": [
        {
          "internalType": "address",
          "name": "author",
          "type": "address"
        },
        {
          "internalType": "bool",
          "name": "executed",
          "type": "bool"
        },
        {
          "internalType": "bool",
          "name": "updateSalesStatus",
          "type": "bool"
        },
        {
          "internalType": "bool",
          "name": "salesEnabled",
          "type": "bool"
        },
        {
          "internalType": "bool",
          "name": "updateTaxesFees",
          "type": "bool"
        },
        {
          "internalType": "uint256",
          "name": "heisenVerseTaxFee",
          "type": "uint256"
        },
        {
          "internalType": "uint256",
          "name": "marketingTaxFee",
          "type": "uint256"
        },
        {
          "internalType": "uint256",
          "name": "teamTaxFee",
          "type": "uint256"
        },
        {
          "internalType": "uint256",
          "name": "liquidityTaxFee",
          "type": "uint256"
        },
        {
          "internalType": "bool",
          "name": "transferBackend",
          "type": "bool"
        },
        {
          "internalType": "address",
          "name": "backendAddress",
          "type": "address"
        }
      ],
      "stateMutability": "view",
      "type": "function"
    },
    {
      "inputs": [],
      "name": "owner",
      "outputs": [
        {
          "internalType": "address",
          "name": "",
          "type": "address"
        }
      ],
      "stateMutability": "view",
      "type": "function"
    }
  ],
  "bytecode": "0x6080806040523461005157600380546001600160a01b0319163390811790915560007f8be0079c531659141344cd1fd0a4f28419497f9722a3daafe3b4186f6b6457e08180a361021390816100578239f35b600080fdfe608080604052600436101561001357600080fd5b600090813560e01c908163013cf08b146100625750638da5cb5b1461003757600080fd5b3461005f578060031936011261005f576003546040516001600160a01b039091168152602090f35b80fd5b9050346101d95760203660031901126101d95760043582548110156101d55760069083610160945202807f290decd9548b62a8d60345a988386fc84ba6bc95484008f6362f93160ef3e5630154907f290decd9548b62a8d60345a988386fc84ba6bc95484008f6362f93160ef3e564810154907f290decd9548b62a8d60345a988386fc84ba6bc95484008f6362f93160ef3e5658101547f290decd9548b62a8d60345a988386fc84ba6bc95484008f6362f93160ef3e566820154907f290decd9548b62a8d60345a988386fc84ba6bc95484008f6362f93160ef3e5687f290decd9548b62a8d60345a988386fc84ba6bc95484008f6362f93160ef3e5678401549301549360ff60018060a01b03968781168952818160a01c16151560208a0152818160a81c16151560408a0152818160b01c16151560608a015260b81c161515608088015260a087015260c086015260e085015261010084015260ff8116151561012084015260081c16610140820152f35b8280fd5b5080fdfea2646970667358221220978426982a8b3ea36f39ed5d47b681660675fda2421adad2e910dfe8e511ec0264736f6c63430008110033",
  "immutableReferences": {},
  "source": "// SPDX-License-Identifier: MIT\r\n// SwishFish Contract (access/Ownable.sol)\r\n\r\npragma solidity 0.8.17;\r\n\r\nimport \"../utils/Context.sol\";\r\nimport \"../utils/MultiSignature.sol\";\r\n\r\n/**\r\n * @dev Contract module which provides a basic access control mechanism, where\r\n * there is an account (an owner) that can be granted exclusive access to\r\n * specific functions.\r\n *\r\n * By default, the owner account will be the one that deploys the contract. This\r\n * can later be changed with {transferOwnership}.\r\n *\r\n * This module is used through inheritance. It will make available the modifier\r\n * `onlyOwner`, which can be applied to your functions to restrict their use to\r\n * the owner.\r\n */\r\ncontract Ownable is Context, MultiSignature {\r\n    address private _backend;\r\n    address private _owner;\r\n    address[] private _owners;\r\n    mapping(address => bool) private isOwner;\r\n    event OwnershipTransferred(address indexed previousOwner, address indexed newOwner);\r\n\r\n    /**\r\n     * @dev Initializes the contract setting the deployer as the initial owner.\r\n     */\r\n    constructor () {\r\n        address msgSender = _msgSender();\r\n        _owner = msgSender;\r\n        emit OwnershipTransferred(address(0), msgSender);\r\n    }\r\n\r\n    /**\r\n     * @dev Returns the address of the current owner.\r\n     */\r\n    function owner() public view returns (address) {\r\n        return _owner;\r\n    }\r\n    function requiredConfirmations() internal view returns (uint256) {\r\n        return _owners.length;\r\n    }\r\n    /**\r\n     * @dev Returns the address of the current backend.\r\n     */\r\n    function backend() internal view returns (address) {\r\n        return _backend;\r\n    }\r\n    /**\r\n     * @dev Throws if called by any account other than the owner.\r\n     */\r\n    modifier onlyOwner() {\r\n        require(isOwner[_msgSender()],  \"Ownable: caller is not an owner\");\r\n        _;\r\n    }\r\n    /**\r\n     * @dev Throws if called by any account other than the owner.\r\n     */\r\n    modifier onlyBackend() {\r\n        require(backend() == _msgSender(), \"Ownable: caller is not the backend\");\r\n        _;\r\n    }\r\n\r\n    /**\r\n     * @dev Throws if account is an owner.\r\n     */\r\n    function isAnOwner(address account) internal view returns (bool) {\r\n        return isOwner[account];\r\n    }\r\n    /**\r\n     * @dev Returns owner by Index.\r\n     */\r\n    function getOwner(uint256 index) internal view returns (address) {\r\n        return _owners[index];\r\n    }\r\n    /**\r\n     * @dev Transfers backend Control of the contract to a new account (`newBackend`).\r\n     * Can only be called by the current owner.\r\n     */\r\n    function _transferBackend(address newBackend) internal  {\r\n        require(newBackend != address(0), \"Ownable: new owner is the zero address\");\r\n        _backend = newBackend;\r\n        emit OwnershipTransferred(address(0), newBackend);\r\n    }\r\n    /**\r\n     * @dev Set owners of the contract\r\n     * Is Only called in the contract creation\r\n     */\r\n    function _addOwner(address newOwner) internal {\r\n        require(newOwner != address(0), \"Ownable: Owner is the zero address\");\r\n        require(!isOwner[newOwner], \"Ownable: Owner is not unique\");\r\n        isOwner[newOwner] = true;\r\n        _owners.push(newOwner);\r\n        emit OwnershipTransferred(address(0), newOwner);\r\n    }\r\n}\r\n",
  "sourcePath": "C:\\Users\\Ivan Valenzuela\\WebstormProjects\\swishfish-contract\\contracts\\access\\Ownable.sol",
  "compiler": {
    "name": "solc",
    "version": "0.8.17+commit.8df45f5f.Emscripten.clang"
  },
  "schemaVersion": "3.4.10",
  "updatedAt": "2022-11-10T02:41:57.785Z",
  "devdoc": {
    "details": "Contract module which provides a basic access control mechanism, where there is an account (an owner) that can be granted exclusive access to specific functions. By default, the owner account will be the one that deploys the contract. This can later be changed with {transferOwnership}. This module is used through inheritance. It will make available the modifier `onlyOwner`, which can be applied to your functions to restrict their use to the owner.",
    "kind": "dev",
    "methods": {
      "constructor": {
        "details": "Initializes the contract setting the deployer as the initial owner."
      },
      "owner()": {
        "details": "Returns the address of the current owner."
      }
    },
    "version": 1
  },
  "userdoc": {
    "kind": "user",
    "methods": {},
    "version": 1
  }
}