{
  "contractName": "SwishFish",
  "abi": [
    {
      "inputs": [
        {
          "internalType": "address",
          "name": "_owner1",
          "type": "address"
        },
        {
          "internalType": "address",
          "name": "_owner2",
          "type": "address"
        },
        {
          "internalType": "address",
          "name": "_owner3",
          "type": "address"
        },
        {
          "internalType": "address",
          "name": "_backend",
          "type": "address"
        }
      ],
      "stateMutability": "nonpayable",
      "type": "constructor"
    },
    {
      "anonymous": false,
      "inputs": [
        {
          "indexed": true,
          "internalType": "address",
          "name": "owner",
          "type": "address"
        },
        {
          "indexed": true,
          "internalType": "address",
          "name": "spender",
          "type": "address"
        },
        {
          "indexed": false,
          "internalType": "uint256",
          "name": "value",
          "type": "uint256"
        }
      ],
      "name": "Approval",
      "type": "event"
    },
    {
      "anonymous": false,
      "inputs": [
        {
          "indexed": true,
          "internalType": "address",
          "name": "owner",
          "type": "address"
        },
        {
          "indexed": true,
          "internalType": "uint256",
          "name": "proposalId",
          "type": "uint256"
        }
      ],
      "name": "ApproveProposal",
      "type": "event"
    },
    {
      "anonymous": false,
      "inputs": [
        {
          "indexed": true,
          "internalType": "address",
          "name": "sender",
          "type": "address"
        },
        {
          "indexed": false,
          "internalType": "uint256",
          "name": "amount",
          "type": "uint256"
        },
        {
          "indexed": false,
          "internalType": "uint256",
          "name": "eth",
          "type": "uint256"
        }
      ],
      "name": "Buy",
      "type": "event"
    },
    {
      "anonymous": false,
      "inputs": [
        {
          "indexed": true,
          "internalType": "address",
          "name": "sender",
          "type": "address"
        },
        {
          "indexed": false,
          "internalType": "uint256",
          "name": "amount",
          "type": "uint256"
        }
      ],
      "name": "Deposit",
      "type": "event"
    },
    {
      "anonymous": false,
      "inputs": [
        {
          "indexed": true,
          "internalType": "address",
          "name": "sender",
          "type": "address"
        },
        {
          "indexed": false,
          "internalType": "uint256",
          "name": "amount",
          "type": "uint256"
        }
      ],
      "name": "DepositProposal",
      "type": "event"
    },
    {
      "anonymous": false,
      "inputs": [
        {
          "indexed": true,
          "internalType": "address",
          "name": "sender",
          "type": "address"
        },
        {
          "indexed": false,
          "internalType": "uint256",
          "name": "amount",
          "type": "uint256"
        },
        {
          "indexed": false,
          "internalType": "uint256",
          "name": "bnb",
          "type": "uint256"
        }
      ],
      "name": "FirstLiquidity",
      "type": "event"
    },
    {
      "anonymous": false,
      "inputs": [
        {
          "indexed": true,
          "internalType": "address",
          "name": "sender",
          "type": "address"
        },
        {
          "indexed": false,
          "internalType": "uint256",
          "name": "amount",
          "type": "uint256"
        },
        {
          "indexed": false,
          "internalType": "uint256",
          "name": "bnb",
          "type": "uint256"
        }
      ],
      "name": "Liquidity",
      "type": "event"
    },
    {
      "anonymous": false,
      "inputs": [
        {
          "indexed": true,
          "internalType": "address",
          "name": "previousOwner",
          "type": "address"
        },
        {
          "indexed": true,
          "internalType": "address",
          "name": "newOwner",
          "type": "address"
        }
      ],
      "name": "OwnershipTransferred",
      "type": "event"
    },
    {
      "anonymous": false,
      "inputs": [
        {
          "indexed": true,
          "internalType": "address",
          "name": "owner",
          "type": "address"
        },
        {
          "indexed": true,
          "internalType": "uint256",
          "name": "proposalId",
          "type": "uint256"
        }
      ],
      "name": "RevokeProposal",
      "type": "event"
    },
    {
      "anonymous": false,
      "inputs": [
        {
          "indexed": false,
          "internalType": "bool",
          "name": "status",
          "type": "bool"
        }
      ],
      "name": "SalesState",
      "type": "event"
    },
    {
      "anonymous": false,
      "inputs": [
        {
          "indexed": true,
          "internalType": "uint256",
          "name": "proposalId",
          "type": "uint256"
        }
      ],
      "name": "SubmitProposal",
      "type": "event"
    },
    {
      "anonymous": false,
      "inputs": [
        {
          "indexed": false,
          "internalType": "uint256",
          "name": "amount",
          "type": "uint256"
        }
      ],
      "name": "TeamPayment",
      "type": "event"
    },
    {
      "anonymous": false,
      "inputs": [
        {
          "indexed": true,
          "internalType": "address",
          "name": "from",
          "type": "address"
        },
        {
          "indexed": true,
          "internalType": "address",
          "name": "to",
          "type": "address"
        },
        {
          "indexed": false,
          "internalType": "uint256",
          "name": "value",
          "type": "uint256"
        }
      ],
      "name": "Transfer",
      "type": "event"
    },
    {
      "anonymous": false,
      "inputs": [
        {
          "indexed": false,
          "internalType": "uint256",
          "name": "taxFeeHeisenverse",
          "type": "uint256"
        },
        {
          "indexed": false,
          "internalType": "uint256",
          "name": "taxFeeMarketing",
          "type": "uint256"
        },
        {
          "indexed": false,
          "internalType": "uint256",
          "name": "taxFeeTeam",
          "type": "uint256"
        },
        {
          "indexed": false,
          "internalType": "uint256",
          "name": "taxFeeLiquidity",
          "type": "uint256"
        }
      ],
      "name": "UpdateTaxesFees",
      "type": "event"
    },
    {
      "anonymous": false,
      "inputs": [
        {
          "indexed": true,
          "internalType": "address",
          "name": "sender",
          "type": "address"
        },
        {
          "indexed": false,
          "internalType": "uint256",
          "name": "amount",
          "type": "uint256"
        }
      ],
      "name": "Withdraw",
      "type": "event"
    },
    {
      "inputs": [
        {
          "internalType": "address",
          "name": "",
          "type": "address"
        }
      ],
      "name": "_maxTransactionWithdrawAmount",
      "outputs": [
        {
          "internalType": "uint256",
          "name": "",
          "type": "uint256"
        }
      ],
      "stateMutability": "view",
      "type": "function",
      "constant": true
    },
    {
      "inputs": [
        {
          "internalType": "uint256",
          "name": "",
          "type": "uint256"
        }
      ],
      "name": "_players",
      "outputs": [
        {
          "internalType": "address",
          "name": "",
          "type": "address"
        }
      ],
      "stateMutability": "view",
      "type": "function",
      "constant": true
    },
    {
      "inputs": [],
      "name": "_poolHeisenverse",
      "outputs": [
        {
          "internalType": "uint256",
          "name": "",
          "type": "uint256"
        }
      ],
      "stateMutability": "view",
      "type": "function",
      "constant": true
    },
    {
      "inputs": [],
      "name": "_poolLiquidity",
      "outputs": [
        {
          "internalType": "uint256",
          "name": "",
          "type": "uint256"
        }
      ],
      "stateMutability": "view",
      "type": "function",
      "constant": true
    },
    {
      "inputs": [],
      "name": "_poolMarketing",
      "outputs": [
        {
          "internalType": "uint256",
          "name": "",
          "type": "uint256"
        }
      ],
      "stateMutability": "view",
      "type": "function",
      "constant": true
    },
    {
      "inputs": [],
      "name": "_poolTeam",
      "outputs": [
        {
          "internalType": "uint256",
          "name": "",
          "type": "uint256"
        }
      ],
      "stateMutability": "view",
      "type": "function",
      "constant": true
    },
    {
      "inputs": [],
      "name": "addressHeisenverse",
      "outputs": [
        {
          "internalType": "address payable",
          "name": "",
          "type": "address"
        }
      ],
      "stateMutability": "view",
      "type": "function",
      "constant": true
    },
    {
      "inputs": [],
      "name": "addressMarketing",
      "outputs": [
        {
          "internalType": "address payable",
          "name": "",
          "type": "address"
        }
      ],
      "stateMutability": "view",
      "type": "function",
      "constant": true
    },
    {
      "inputs": [],
      "name": "addressPriceKeeper",
      "outputs": [
        {
          "internalType": "address payable",
          "name": "",
          "type": "address"
        }
      ],
      "stateMutability": "view",
      "type": "function",
      "constant": true
    },
    {
      "inputs": [],
      "name": "addressTeam",
      "outputs": [
        {
          "internalType": "address payable",
          "name": "",
          "type": "address"
        }
      ],
      "stateMutability": "view",
      "type": "function",
      "constant": true
    },
    {
      "inputs": [
        {
          "internalType": "address",
          "name": "owner",
          "type": "address"
        },
        {
          "internalType": "address",
          "name": "spender",
          "type": "address"
        }
      ],
      "name": "allowance",
      "outputs": [
        {
          "internalType": "uint256",
          "name": "",
          "type": "uint256"
        }
      ],
      "stateMutability": "view",
      "type": "function",
      "constant": true
    },
    {
      "inputs": [
        {
          "internalType": "address",
          "name": "spender",
          "type": "address"
        },
        {
          "internalType": "uint256",
          "name": "amount",
          "type": "uint256"
        }
      ],
      "name": "approve",
      "outputs": [
        {
          "internalType": "bool",
          "name": "",
          "type": "bool"
        }
      ],
      "stateMutability": "nonpayable",
      "type": "function"
    },
    {
      "inputs": [
        {
          "internalType": "address",
          "name": "account",
          "type": "address"
        }
      ],
      "name": "balanceOf",
      "outputs": [
        {
          "internalType": "uint256",
          "name": "",
          "type": "uint256"
        }
      ],
      "stateMutability": "view",
      "type": "function",
      "constant": true
    },
    {
      "inputs": [],
      "name": "decimals",
      "outputs": [
        {
          "internalType": "uint8",
          "name": "",
          "type": "uint8"
        }
      ],
      "stateMutability": "view",
      "type": "function",
      "constant": true
    },
    {
      "inputs": [
        {
          "internalType": "address",
          "name": "spender",
          "type": "address"
        },
        {
          "internalType": "uint256",
          "name": "subtractedValue",
          "type": "uint256"
        }
      ],
      "name": "decreaseAllowance",
      "outputs": [
        {
          "internalType": "bool",
          "name": "",
          "type": "bool"
        }
      ],
      "stateMutability": "nonpayable",
      "type": "function"
    },
    {
      "inputs": [
        {
          "internalType": "address",
          "name": "spender",
          "type": "address"
        },
        {
          "internalType": "uint256",
          "name": "addedValue",
          "type": "uint256"
        }
      ],
      "name": "increaseAllowance",
      "outputs": [
        {
          "internalType": "bool",
          "name": "",
          "type": "bool"
        }
      ],
      "stateMutability": "nonpayable",
      "type": "function"
    },
    {
      "inputs": [],
      "name": "name",
      "outputs": [
        {
          "internalType": "string",
          "name": "",
          "type": "string"
        }
      ],
      "stateMutability": "view",
      "type": "function",
      "constant": true
    },
    {
      "inputs": [],
      "name": "owner",
      "outputs": [
        {
          "internalType": "address",
          "name": "",
          "type": "address"
        }
      ],
      "stateMutability": "view",
      "type": "function",
      "constant": true
    },
    {
      "inputs": [],
      "name": "paymentToken",
      "outputs": [
        {
          "internalType": "address",
          "name": "",
          "type": "address"
        }
      ],
      "stateMutability": "view",
      "type": "function",
      "constant": true
    },
    {
      "inputs": [
        {
          "internalType": "uint256",
          "name": "",
          "type": "uint256"
        }
      ],
      "name": "proposals",
      "outputs": [
        {
          "internalType": "address",
          "name": "author",
          "type": "address"
        },
        {
          "internalType": "bool",
          "name": "executed",
          "type": "bool"
        },
        {
          "internalType": "bool",
          "name": "updateSalesStatus",
          "type": "bool"
        },
        {
          "internalType": "bool",
          "name": "salesEnabled",
          "type": "bool"
        },
        {
          "internalType": "bool",
          "name": "updateTaxesFees",
          "type": "bool"
        },
        {
          "internalType": "uint256",
          "name": "heisenVerseTaxFee",
          "type": "uint256"
        },
        {
          "internalType": "uint256",
          "name": "marketingTaxFee",
          "type": "uint256"
        },
        {
          "internalType": "uint256",
          "name": "teamTaxFee",
          "type": "uint256"
        },
        {
          "internalType": "uint256",
          "name": "liquidityTaxFee",
          "type": "uint256"
        },
        {
          "internalType": "bool",
          "name": "transferBackend",
          "type": "bool"
        },
        {
          "internalType": "address",
          "name": "backendAddress",
          "type": "address"
        }
      ],
      "stateMutability": "view",
      "type": "function",
      "constant": true
    },
    {
      "inputs": [],
      "name": "salesEnabled",
      "outputs": [
        {
          "internalType": "bool",
          "name": "",
          "type": "bool"
        }
      ],
      "stateMutability": "view",
      "type": "function",
      "constant": true
    },
    {
      "inputs": [],
      "name": "symbol",
      "outputs": [
        {
          "internalType": "string",
          "name": "",
          "type": "string"
        }
      ],
      "stateMutability": "view",
      "type": "function",
      "constant": true
    },
    {
      "inputs": [],
      "name": "taxFeeHeisenverse",
      "outputs": [
        {
          "internalType": "uint256",
          "name": "",
          "type": "uint256"
        }
      ],
      "stateMutability": "view",
      "type": "function",
      "constant": true
    },
    {
      "inputs": [],
      "name": "taxFeeLiquidity",
      "outputs": [
        {
          "internalType": "uint256",
          "name": "",
          "type": "uint256"
        }
      ],
      "stateMutability": "view",
      "type": "function",
      "constant": true
    },
    {
      "inputs": [],
      "name": "taxFeeMarketing",
      "outputs": [
        {
          "internalType": "uint256",
          "name": "",
          "type": "uint256"
        }
      ],
      "stateMutability": "view",
      "type": "function",
      "constant": true
    },
    {
      "inputs": [],
      "name": "taxFeeTeam",
      "outputs": [
        {
          "internalType": "uint256",
          "name": "",
          "type": "uint256"
        }
      ],
      "stateMutability": "view",
      "type": "function",
      "constant": true
    },
    {
      "inputs": [],
      "name": "totalSupply",
      "outputs": [
        {
          "internalType": "uint256",
          "name": "",
          "type": "uint256"
        }
      ],
      "stateMutability": "view",
      "type": "function",
      "constant": true
    },
    {
      "inputs": [
        {
          "internalType": "address",
          "name": "to",
          "type": "address"
        },
        {
          "internalType": "uint256",
          "name": "amount",
          "type": "uint256"
        }
      ],
      "name": "transfer",
      "outputs": [
        {
          "internalType": "bool",
          "name": "",
          "type": "bool"
        }
      ],
      "stateMutability": "nonpayable",
      "type": "function"
    },
    {
      "inputs": [
        {
          "internalType": "address",
          "name": "from",
          "type": "address"
        },
        {
          "internalType": "address",
          "name": "to",
          "type": "address"
        },
        {
          "internalType": "uint256",
          "name": "amount",
          "type": "uint256"
        }
      ],
      "name": "transferFrom",
      "outputs": [
        {
          "internalType": "bool",
          "name": "",
          "type": "bool"
        }
      ],
      "stateMutability": "nonpayable",
      "type": "function"
    },
    {
      "inputs": [],
      "name": "uniswapV2PairBUSD",
      "outputs": [
        {
          "internalType": "contract IUniswapV2Pair",
          "name": "",
          "type": "address"
        }
      ],
      "stateMutability": "view",
      "type": "function",
      "constant": true
    },
    {
      "inputs": [],
      "name": "uniswapV2PairHSF",
      "outputs": [
        {
          "internalType": "contract IUniswapV2Pair",
          "name": "",
          "type": "address"
        }
      ],
      "stateMutability": "view",
      "type": "function",
      "constant": true
    },
    {
      "inputs": [],
      "name": "uniswapV2Router",
      "outputs": [
        {
          "internalType": "contract IUniswapV2Router02",
          "name": "",
          "type": "address"
        }
      ],
      "stateMutability": "view",
      "type": "function",
      "constant": true
    },
    {
      "stateMutability": "payable",
      "type": "receive",
      "payable": true
    },
    {
      "inputs": [
        {
          "internalType": "uint256",
          "name": "amount",
          "type": "uint256"
        }
      ],
      "name": "buy",
      "outputs": [],
      "stateMutability": "payable",
      "type": "function",
      "payable": true
    },
    {
      "inputs": [
        {
          "internalType": "uint256",
          "name": "priceWei_",
          "type": "uint256"
        }
      ],
      "name": "firstLiquidity",
      "outputs": [],
      "stateMutability": "payable",
      "type": "function",
      "payable": true
    },
    {
      "inputs": [],
      "name": "teamPayment",
      "outputs": [],
      "stateMutability": "nonpayable",
      "type": "function"
    },
    {
      "inputs": [
        {
          "internalType": "address",
          "name": "account",
          "type": "address"
        }
      ],
      "name": "withdrawAllowance",
      "outputs": [
        {
          "internalType": "uint256",
          "name": "",
          "type": "uint256"
        }
      ],
      "stateMutability": "view",
      "type": "function",
      "constant": true
    },
    {
      "inputs": [
        {
          "internalType": "bytes",
          "name": "signature",
          "type": "bytes"
        },
        {
          "internalType": "uint256",
          "name": "amount",
          "type": "uint256"
        },
        {
          "internalType": "uint256",
          "name": "timestamp",
          "type": "uint256"
        }
      ],
      "name": "withdraw",
      "outputs": [],
      "stateMutability": "payable",
      "type": "function",
      "payable": true
    },
    {
      "inputs": [
        {
          "internalType": "bool",
          "name": "_updateEggSales",
          "type": "bool"
        },
        {
          "internalType": "bool",
          "name": "_salesEnabled",
          "type": "bool"
        },
        {
          "internalType": "bool",
          "name": "_updateTaxesFees",
          "type": "bool"
        },
        {
          "internalType": "uint256",
          "name": "_heisenVerseTaxFee",
          "type": "uint256"
        },
        {
          "internalType": "uint256",
          "name": "_marketingTaxFee",
          "type": "uint256"
        },
        {
          "internalType": "uint256",
          "name": "_teamTaxFee",
          "type": "uint256"
        },
        {
          "internalType": "uint256",
          "name": "_liquidityTaxFee",
          "type": "uint256"
        },
        {
          "internalType": "bool",
          "name": "_transferBackend",
          "type": "bool"
        },
        {
          "internalType": "address",
          "name": "_backendAddress",
          "type": "address"
        }
      ],
      "name": "submitProposal",
      "outputs": [],
      "stateMutability": "nonpayable",
      "type": "function"
    },
    {
      "inputs": [
        {
          "internalType": "uint256",
          "name": "_proposalId",
          "type": "uint256"
        }
      ],
      "name": "approveProposal",
      "outputs": [],
      "stateMutability": "nonpayable",
      "type": "function"
    },
    {
      "inputs": [
        {
          "internalType": "uint256",
          "name": "_proposalId",
          "type": "uint256"
        }
      ],
      "name": "executeProposal",
      "outputs": [],
      "stateMutability": "nonpayable",
      "type": "function"
    },
    {
      "inputs": [
        {
          "internalType": "address",
          "name": "contractAddress_",
          "type": "address"
        },
        {
          "internalType": "bool",
          "name": "allowed_",
          "type": "bool"
        }
      ],
      "name": "allowContract",
      "outputs": [],
      "stateMutability": "nonpayable",
      "type": "function"
    },
    {
      "inputs": [
        {
          "internalType": "uint256",
          "name": "_proposalId",
          "type": "uint256"
        }
      ],
      "name": "revokeProposal",
      "outputs": [],
      "stateMutability": "nonpayable",
      "type": "function"
    },
    {
      "inputs": [
        {
          "internalType": "bytes",
          "name": "sig",
          "type": "bytes"
        }
      ],
      "name": "splitSignature",
      "outputs": [
        {
          "internalType": "bytes32",
          "name": "r",
          "type": "bytes32"
        },
        {
          "internalType": "bytes32",
          "name": "s",
          "type": "bytes32"
        },
        {
          "internalType": "uint8",
          "name": "v",
          "type": "uint8"
        }
      ],
      "stateMutability": "pure",
      "type": "function",
      "constant": true
    }
  ],
  "bytecode": "0x60806040818152346200068b57608082620038a6803803809162000024828562000690565b8339810103126200068b576200003a82620006e3565b916020906200004b828201620006e3565b916200006760606200005f868501620006e3565b9301620006e3565b9462000075600354620006f8565b601f81116200065b575b5060127f537769736846697368000000000000000000000000000000000000000000000001600355600495620000b68754620006f8565b601f81116200062c575b5060067f485346000000000000000000000000000000000000000000000000000000000001875560018060a01b0319903382600854161760085586519460009660008051602062003886833981519152943389878180a36a52b7d2dcc80cd2e4000000600e5561010061ffff19600f541617600f5573e9e7cea3dedca5984780bafc599bd69add087d56856014541617601455601460155560016016557334390458758b6efaac5680fbeab8de17f2951ad085601854161760185573eda73409d4bbd147f4e1295a73a2ca243a529338856019541617601955733c1cd83d8850803c9c42ff5083f56b66b00fbd6185601a541617601a557363024ac73fe77427f20e8247fa26f470c0d9700b85601b541617601b556002601c556003601d556003601e556002601f558887558860215588602255886023557fc45a01550000000000000000000000000000000000000000000000000000000088527310ed43c718714eb63d5aa57b78b54704e256024e87898d81845afa9889156200062257908c918b9a620005dc575b50888c5180937fad5c464800000000000000000000000000000000000000000000000000000000825281845afa9182156200058c578d8c8e8c93829662000596575b5051809581937fc9c653960000000000000000000000000000000000000000000000000000000083523090830152600160a01b600190039e8f809216602484015216915a92604493f19182156200058c578b888c98979695948f93948d95849262000507575b5093620003ac9693837358f876857a02d6762e0101bb5c46a8c1ed44dc168d600195620003ac99620003b29e9d9b98600b541617600b5516918281600c541617600c55600d541617600d5581526026845260248282209460ff199585878254161790556025815283832085878254161790553083525281812083858254161790558b60195416815281812083858254161790558b601a5416815281812083858254161790558b601b5416815220918254161790556200074e565b6200074e565b169283156200048557509082859260075416176007558180a3600e54605f810290808204605f149015171562000459576064620003f191043062000938565b6018541690600e54906005820291808304600514901517156200042d57509060646200041f92049062000938565b51612dda908162000aac8239f35b806011867f4e487b71000000000000000000000000000000000000000000000000000000006024945252fd5b6024836011877f4e487b7100000000000000000000000000000000000000000000000000000000835252fd5b876084918851917f08c379a0000000000000000000000000000000000000000000000000000000008352820152602660248201527f4f776e61626c653a206e6577206f776e657220697320746865207a65726f206160448201527f64647265737300000000000000000000000000000000000000000000000000006064820152fd5b95945095969798995050505081813d831162000584575b6200052a818362000690565b81010312620005805792620003ac8a9695938a60018f8f8c7358f876857a02d6762e0101bb5c46a8c1ed44dc168d620003ac9a6200056c620003b29e620006e3565b9650949850505093969899509396620002f2565b8a80fd5b503d6200051e565b8c513d8d823e3d90fd5b94955050505081813d8311620005d4575b620005b3818362000690565b81010312620005805790888d8c620005cc8f95620006e3565b94386200028c565b503d620005a7565b8980929b508193503d83116200061a575b620005f9818362000690565b8101031262000616576200060e8c91620006e3565b98386200024a565b8980fd5b503d620005ed565b8b513d8c823e3d90fd5b6000888152601f858220920160051c8201915b8281106200064f575050620000c0565b8181556001016200063f565b600060038152601f848220920160051c8201915b8281106200067f5750506200007f565b8181556001016200066f565b600080fd5b601f909101601f19168101906001600160401b03821190821017620006b457604052565b7f4e487b7100000000000000000000000000000000000000000000000000000000600052604160045260246000fd5b51906001600160a01b03821682036200068b57565b90600182811c9216801562000743575b60208310146200071457565b7f4e487b7100000000000000000000000000000000000000000000000000000000600052602260045260246000fd5b91607f169162000708565b6001600160a01b03168015620008b4576000818152600a60205260ff6040822054166200085657818152600a60205260408120805460ff191660011790556009546801000000000000000081101562000829576001810180600955811015620007fc57600982527f6e1540171b6c0c960b71a7020d9f60077f6af931a8bbf590da0223dacf75c7af0180546001600160a01b03191683179055600080516020620038868339815191528180a3565b6024827f4e487b710000000000000000000000000000000000000000000000000000000081526032600452fd5b6024827f4e487b710000000000000000000000000000000000000000000000000000000081526041600452fd5b60646040517f08c379a000000000000000000000000000000000000000000000000000000000815260206004820152601c60248201527f4f776e61626c653a204f776e6572206973206e6f7420756e69717565000000006044820152fd5b60846040517f08c379a000000000000000000000000000000000000000000000000000000000815260206004820152602260248201527f4f776e61626c653a204f776e657220697320746865207a65726f20616464726560448201527f73730000000000000000000000000000000000000000000000000000000000006064820152fd5b6001600160a01b0316908115620009aa57620009578160025462000a08565b6002557fddf252ad1be2c89b69c2b068fc378daa952ba7f163c4a11628f55a4df523b3ef60206000928484528382526200099681604086205462000a08565b8585528483526040852055604051908152a3565b60646040517f08c379a000000000000000000000000000000000000000000000000000000000815260206004820152601f60248201527f45524332303a206d696e7420746f20746865207a65726f2061646472657373006044820152fd5b9081019081811162000a7c57811062000a1e5790565b60646040517f08c379a000000000000000000000000000000000000000000000000000000000815260206004820152601b60248201527f536166654d6174683a206164646974696f6e206f766572666c6f7700000000006044820152fd5b7f4e487b7100000000000000000000000000000000000000000000000000000000600052601160045260246000fdfe60806040526004361015610023575b361561001957600080fd5b61002161191b565b005b60003560e01c8063013cf08b1461037f57806306fdde0314610376578063095ea7b31461036d5780630abdc640146103645780630d61b5191461035b5780631234dee8146103525780631694505e1461034957806318160ddd146103405780631b45a47a1461033757806323b872dd1461032e5780632a9af7ba146103255780633013ce291461031c578063313ce56714610313578063395093511461030a5780634158782314610301578063553000c1146102f8578063562e9df9146102ef5780636b3be2a8146102e657806370a08231146102dd578063737a9ed6146102d457806375a42f55146102cb5780637d81936c146102c257806385a6a091146102b95780638da5cb5b146102b0578063933f5e07146102a757806395d89b411461029e57806398951b56146102955780639e5cd74a1461028c578063a457c2d714610283578063a7bb58031461027a578063a9059cbb14610271578063a990c72914610268578063b6bba0ae1461025f578063c84ad9a514610256578063cfe4f26c1461024d578063d7196dd914610244578063d78af5f11461023b578063d8a0f82814610232578063d96a094a14610229578063dd62ed3e14610220578063fe3b2b9a14610217578063fe7441e71461020e5763ffb3a3a60361000e576102096118f1565b61000e565b506102096118b6565b50610209611758565b506102096116ff565b50610209611635565b5061020961152e565b506102096114c6565b5061020961139f565b50610209611375565b50610209611351565b50610209611332565b50610209611314565b506102096112ed565b50610209611298565b506102096111e5565b506102096111c6565b506102096110f1565b5061020961102d565b5061020961100e565b50610209610fe4565b50610209610eb7565b50610209610e98565b50610209610e5d565b50610209610c3c565b50610209610b0c565b50610209610ae2565b50610209610ab8565b50610209610a99565b50610209610a3d565b506102096109e4565b506102096109c7565b5061020961099d565b5061020961097e565b506102096108a2565b50610209610883565b50610209610864565b5061020961083a565b50610209610810565b5061020961069c565b50610209610672565b50610209610640565b5061020961050b565b506102096103e8565b50634e487b7160e01b600052603260045260246000fd5b6006906005548110156103db575b6005600052027f036b6384b5eca791c62761152d0c79bb0604c104a5fb6f4eb0703f3154bb3db00190600090565b6103e3610388565b6103ad565b50346104bd5760203660031901126104bd576004356005548110156104bd576104109061039f565b5080546001820154600283015460038401546004850154600590950154604080516001600160a01b03808816825260ff60a089811c82161515602085015260a88a901c821615159484019490945260b089901c81161515606084015260b89890981c8816151560808301529181019590955260c085019390935260e0840191909152610100830194909452918316151561012082015260089290921c1661014082015261016090f35b0390f35b600080fd5b6020808252825181830181905290939260005b8281106104f757505060409293506000838284010152601f8019910116010190565b8181018601518482016040015285016104d5565b50346104bd576000806003193601126106115760405190806003549060019180831c92808216928315610607575b60209283861085146105f35785885260208801949081156105d25750600114610579575b6104b98761056d81890382610b87565b604051918291826104c2565b600360005294509192917fc2575a0e9e593c00f959f8c92f12db2869c3395a3b0502d05e2516446f71f85b5b8386106105c1575050509101905061056d826104b9388061055d565b8054858701529482019481016105a5565b60ff191685525050505090151560051b01905061056d826104b9388061055d565b634e487b7160e01b82526022600452602482fd5b93607f1693610539565b80fd5b600435906001600160a01b03821682036104bd57565b602435906001600160a01b03821682036104bd57565b50346104bd5760403660031901126104bd5761066761065d610614565b6024359033612aeb565b602060405160018152f35b50346104bd5760003660031901126104bd57601a546040516001600160a01b039091168152602090f35b50346104bd576020806003193601126104bd57600435906106c0600554831061215b565b6106da60ff6106ce8461039f565b505460a01c16156121bd565b6000809160098054935b848110610789576005610702876106fd8888101561227f565b61039f565b50805460ff60a01b1916600160a01b178155805460ff8160a81c16610774575b50805460b81c60ff16610751575b015460ff811661073c57005b6100219060081c6001600160a01b03166124e7565b61076f600182015460028301546003840154906004850154926122e9565b610730565b60ff6107839160b01c16612338565b82610722565b60008681526006845260408082207f6e1540171b6c0c960b71a7020d9f60077f6af931a8bbf590da0223dacf75c7af8401546001600160a01b0316835260205290206107d7905b5460ff1690565b6107fc575b60019060001981146107ef575b016106e4565b6107f7611a3f565b6107e9565b92610808600191611aa9565b9390506107dc565b50346104bd5760003660031901126104bd576018546040516001600160a01b039091168152602090f35b50346104bd5760003660031901126104bd57600b546040516001600160a01b039091168152602090f35b50346104bd5760003660031901126104bd576020600254604051908152f35b50346104bd5760003660031901126104bd576020602154604051908152f35b50346104bd5760603660031901126104bd576108bc610614565b6108c461062a565b6001600160a01b03821660009081526001602090815260408083203384529091529020604435919054926001840161090d575b6109019350612636565b60405160018152602090f35b8284106109395761093461092d6109019585610927612c3b565b91612c74565b3383612aeb565b6108f7565b60405162461bcd60e51b815260206004820152601d60248201527f45524332303a20696e73756666696369656e7420616c6c6f77616e63650000006044820152606490fd5b50346104bd5760003660031901126104bd576020602354604051908152f35b50346104bd5760003660031901126104bd576014546040516001600160a01b039091168152602090f35b50346104bd5760003660031901126104bd57602060405160128152f35b50346104bd5760403660031901126104bd57610667610a01610614565b336000526001602052610a36602435610a308360406000209060018060a01b0316600052602052604060002090565b54612c27565b9033612aeb565b50346104bd5760203660031901126104bd576004356017548110156104bd5760176000527fc624b66cc0138b8fabc209247f72d758e1cf3343756d543badbf24212bed8c1501546040516001600160a01b039091168152602090f35b50346104bd5760003660031901126104bd576020602254604051908152f35b50346104bd5760003660031901126104bd57601b546040516001600160a01b039091168152602090f35b50346104bd5760003660031901126104bd57600d546040516001600160a01b039091168152602090f35b50346104bd5760203660031901126104bd576001600160a01b03610b2e610614565b1660005260006020526020604060002054604051908152f35b50634e487b7160e01b600052604160045260246000fd5b6040810190811067ffffffffffffffff821117610b7a57604052565b610b82610b47565b604052565b90601f8019910116810190811067ffffffffffffffff821117610b7a57604052565b60405190610160820182811067ffffffffffffffff821117610b7a57604052565b60209067ffffffffffffffff8111610be8575b601f01601f19160190565b610bf0610b47565b610bdd565b81601f820112156104bd57803590610c0c82610bca565b92610c1a6040519485610b87565b828452602083830101116104bd57816000926020809301838601378301015290565b5060603660031901126104bd5760043567ffffffffffffffff81116104bd57610c69903690600401610bf5565b610c82610c7d602435928360443591612376565b611c66565b610c93610c8e33611de5565b611cb2565b3360009081526013602052604090205415610e3d575b336000908152601360205260409020610cc59082905411611d24565b610d40610d39610d33610d2e60046060610cf5610ce9600d5460018060a01b031690565b6001600160a01b031690565b604051630240bc6b60e21b815292839182905afa908115610e30575b6000908192610dfe575b506001600160701b038091169116611a56565b611a76565b83611a56565b3411611d81565b601454610d5790610ce9906001600160a01b031681565b60405163a9059cbb60e01b81523360048201526024810183905290602090829060449082906000905af18015610df1575b610dc3575b5060405190815233907f884edad9ce6fa2440d8a54cc123490eb96d2768479d49ff9c7366125a94243649080602081015b0390a2005b610de39060203d8111610dea575b610ddb8183610b87565b810190611dcd565b5038610d8d565b503d610dd1565b610df9611a32565b610d88565b9050610e21915060603d8111610e29575b610e198183610b87565b8101906119fc565b509038610d1b565b503d610e0f565b610e38611a32565b610d11565b3360009081526013602052604090206801a055690d9db800009055610ca9565b50346104bd5760203660031901126104bd576001600160a01b03610e7f610614565b1660005260136020526020604060002054604051908152f35b50346104bd5760003660031901126104bd576020601d54604051908152f35b50346104bd5760203660031901126104bd57600435600090338252600a602052610ee760ff604084205416611950565b610ef4600554821061215b565b610f0260ff6106ce8361039f565b808252600660209081526040808420336000908152925290205460ff1615610f8857610f60610f5633610f3f846000526006602052604060002090565b9060018060a01b0316600052602052604060002090565b805460ff19169055565b337fb8b1cbdd07c030bed9e01f4ee5465e3a3fd2aa8f7135c84467c0f3cf203925eb8380a380f35b60405162461bcd60e51b815260206004820152602e60248201527f4d756c74695369676e617475726557616c6c65743a2050726f706f73616c206960448201526d1cc81b9bdd08185c1c1c9bdd995960921b6064820152608490fd5b50346104bd5760003660031901126104bd576008546040516001600160a01b039091168152602090f35b50346104bd5760003660031901126104bd576020601f54604051908152f35b50346104bd576000806003193601126106115760405190806004549060019180831c928082169283156110e7575b60209283861085146105f35785885260208801949081156105d2575060011461108e576104b98761056d81890382610b87565b600460005294509192917f8a35acfbc15ff81a39ae7d344fd709f28e8600b4aa8c65c6b64bfe7fe36bd19b5b8386106110d6575050509101905061056d826104b9388061055d565b8054858701529482019481016110ba565b93607f169361105b565b50346104bd5760203660031901126104bd57600435600090338252600a60205261112160ff604084205416611950565b61112e600554821061215b565b808252600660209081526040808420336000908152925290205460ff1661115b5761115890612225565b80f35b60405162461bcd60e51b815260206004820152603c60248201527f4d756c74695369676e617475726557616c6c65743a2070726f706f73616c206160448201527f6c72656164792077617320617070726f766564206279206f776e6572000000006064820152608490fd5b50346104bd5760003660031901126104bd576020601c54604051908152f35b50346104bd5760403660031901126104bd576111ff610614565b6024359033600052600160205261122c8160406000209060018060a01b0316600052602052604060002090565b54918083106112455761090192610a3691610927612c3b565b60405162461bcd60e51b815260206004820152602560248201527f45524332303a2064656372656173656420616c6c6f77616e63652062656c6f77604482015264207a65726f60d81b6064820152608490fd5b50346104bd5760203660031901126104bd5760043567ffffffffffffffff81116104bd5760ff6112d66112d16060933690600401610bf5565b612483565b906040939293519384526020840152166040820152f35b50346104bd5760403660031901126104bd5761066761130a610614565b6024359033612636565b50346104bd5760003660031901126104bd5760208054604051908152f35b50346104bd5760003660031901126104bd576020601e54604051908152f35b50346104bd5760003660031901126104bd57602060ff600f54166040519015158152f35b50346104bd5760003660031901126104bd57600c546040516001600160a01b039091168152602090f35b50346104bd5760008060031936011261061157338152600a6020526113ca60ff604083205416611950565b60195460205461141b916001600160a01b03916113e9918316306129d2565b601a546021546114049183166001600160a01b0316306129d2565b601b546001600160a01b03166022549116306129d2565b7f21a3a3648d0b2afc084acd733d71600b506fa4eca7ef1f5e24718c5e17f4e7ff6114b661145a61145160205460215490611ab7565b60225490611ab7565b6114646000602055565b61146e6000602155565b6114786000602255565b6114a684808080611493610ce960195460018060a01b031690565b3031905af16114a0611ac4565b50611af4565b6040519081529081906020820190565b0390a180f35b801515036104bd57565b50346104bd5760403660031901126104bd576114e0610614565b6111586024356114ef816114bc565b600092338452600a60205261150a60ff604086205416611950565b60018060a01b031683526025602052604083209060ff801983541691151516179055565b5060203660031901126104bd576000338152600a60205261155560ff604083205416611950565b600f546115679060081c60ff1661199c565b6115d86115c56115bf60046060611588610ce9600d5460018060a01b031690565b604051630240bc6b60e21b815292839182905afa908115611628575b85908692610dfe57506001600160701b038091169116611a56565b34611a96565b670de0b6b3a76400006004350490611a56565b6115e861ff0019600f5416600f55565b6115f23482611b50565b6040805191825234602083015233917f1b975f707de5a6cdb5179622fe20b69e78f03587622408bed94b618299045aa99190a280f35b611630611a32565b6115a4565b5060203660031901126104bd5760ff600f5416156116c2573060009081526020819052604090206116859061167e9061166e9054612cb1565b611676612d5b565b506064900490565b3490611b50565b60408051600435815234602082015233917f1cbc5ab135991bd2b6a4b034a04aa2aa086dac1371cb9b16b8b5e2ed6b036bed919081908101610dbe565b60405162461bcd60e51b8152602060048201526015602482015274141c995cd85b19481a5cdb89dd08195b98589b1959605a1b6044820152606490fd5b50346104bd5760403660031901126104bd57602061174f61171e610614565b61172661062a565b6001600160a01b0391821660009081526001855260408082209290931681526020919091522090565b54604051908152f35b50346104bd57610120806003193601126104bd57600435611778816114bc565b60243591611785836114bc565b60443590611792826114bc565b60e4359060c43560a4356084356064356117ab866114bc565b610104356001600160a01b038116999097908a89036104bd5760009a338c5288838d600a602052604090205460ff166117e390611950565b61188e575b61187d575b506117f6610ba9565b3381529960208b018c9052151560408b0152151560608a01521515608089015260a088015260c087015260e0860152610100850152901515908301526001600160a01b031661014082015261184a90611fad565b6005546118569061214c565b7f096aa03a7cd4aba017b05ce697df0e528a91d045a01285c50e931b0c0c4939ce8280a280f35b611888901515611f45565b386117ed565b6118b1600a6118aa8a6118a58b6118a58c8c611ab7565b611ab7565b1115611edd565b6117e8565b50346104bd5760203660031901126104bd576001600160a01b036118d8610614565b1660005260106020526020604060002054604051908152f35b50346104bd5760003660031901126104bd576019546040516001600160a01b039091168152602090f35b3461192257565b6040513481527fe1fffcc4923d04b559f4d29a8bfc6cda04eb5b0d3c460751c2402c5c5cc9109c60203392a2565b1561195757565b60405162461bcd60e51b815260206004820152601f60248201527f4f776e61626c653a2063616c6c6572206973206e6f7420616e206f776e6572006044820152606490fd5b156119a357565b60405162461bcd60e51b815260206004820152601c60248201527f4669727374206c697175696469747920776173206578656375746564000000006044820152606490fd5b51906001600160701b03821682036104bd57565b908160609103126104bd57611a10816119e8565b916040611a1f602084016119e8565b92015163ffffffff811681036104bd5790565b506040513d6000823e3d90fd5b50634e487b7160e01b600052601160045260246000fd5b8115611a60570490565b634e487b7160e01b600052601260045260246000fd5b90600a820291808304600a1490151715611a8c57565b611a94611a3f565b565b81810292918115918404141715611a8c57565b9060018201809211611a8c57565b91908201809211611a8c57565b3d15611aef573d90611ad582610bca565b91611ae36040519384610b87565b82523d6000602084013e565b606090565b15611afb57565b60405162461bcd60e51b81526020600482015260126024820152712330b4b632b2103a379039b2b7321021272160711b6044820152606490fd5b908160609103126104bd578051916040602083015192015190565b600b54909190611b7a906001600160a01b0316306000908152602081905260409020549030612aeb565b600b54606090611be590611b96906001600160a01b0316610ce9565b611b9f42612bee565b60405163f305d71960e01b81523060048201819052602482018890526000604483018190526064830152608482015260a4810191909152938492839190829060c4820190565b03925af18015611c59575b611c2b575b506040805191825234602083015233917f7c300dc57e5d90ec9510fe63dee9156c75c1f20562adae3076248b0c1b27e90c9190a2565b611c4b9060603d8111611c52575b611c438183610b87565b810190611b35565b5050611bf5565b503d611c39565b611c61611a32565b611bf0565b15611c6d57565b60405162461bcd60e51b815260206004820152601860248201527f57697468647261773a204e6f7420617574686f72697a656400000000000000006044820152606490fd5b15611cb957565b60405162461bcd60e51b815260206004820152603a60248201527f57697468647261773a20596f752063616e6e6f74206d616b65206d6f7265207460448201527f68616e206f6e65207769746864726177616c20706572206461790000000000006064820152608490fd5b15611d2b57565b60405162461bcd60e51b815260206004820152602860248201527f57697468647261773a2055736572206861736e277420726571756972656420616044820152676c6c6f77616e636560c01b6064820152608490fd5b15611d8857565b60405162461bcd60e51b815260206004820152601a60248201527f57697468647261773a20526571756972652054617820313025200000000000006044820152606490fd5b908160209103126104bd5751611de2816114bc565b90565b6001600160a01b038116600081815260116020526040812054620151808101939290848111611ed0575b8410611e8b57611e64934211611e6d575b50506001600160a01b0381166000908152601260205260409020611e449054612c12565b6001600160a01b0391909116600090815260126020526040902090815590565b54601654101590565b81526011602052426040822055601260205260408120553880611e20565b60405162461bcd60e51b815260206004820152601b60248201527f536166654d6174683a206164646974696f6e206f766572666c6f7700000000006044820152606490fd5b611ed8611a3f565b611e0f565b15611ee457565b60405162461bcd60e51b815260206004820152603360248201527f4d756c74695369676e617475726557616c6c65743a204d757374206b656570206044820152726665657320617420313025206f72206c65737360681b6064820152608490fd5b15611f4c57565b60405162461bcd60e51b815260206004820152603360248201527f4d756c74695369676e617475726557616c6c65743a206e6577206f776e657220604482015272697320746865207a65726f206164647265737360681b6064820152608490fd5b611fd16005546801000000000000000081101561213f575b6001810160055561039f565b91909161212957805182546001600160a01b0319166001600160a01b03909116178255611a9491612107906101409060059061202d6120136020870151151590565b825460ff60a01b191690151560a01b60ff60a01b16178255565b61205761203d6040870151151590565b825460ff60a81b191690151560a81b60ff60a81b16178255565b6120816120676060870151151590565b825460ff60b01b191690151560b01b60ff60b01b16178255565b6120ab6120916080870151151590565b825460ff60b81b191690151560b81b60ff60b81b16178255565b60a0850151600182015560c0850151600282015560e08501516003820155610100850151600482015501926120f96120e7610120830151151590565b859060ff801983541691151516179055565b01516001600160a01b031690565b8154610100600160a81b03191660089190911b610100600160a81b0316179055565b634e487b7160e01b600052600060045260246000fd5b612147610b47565b611fc5565b600019810191908211611a8c57565b1561216257565b60405162461bcd60e51b815260206004820152602d60248201527f4d756c74695369676e617475726557616c6c65743a2070726f706f73616c206460448201526c1bd95cc81b9bdd08195e1a5cdd609a1b6064820152608490fd5b156121c457565b60405162461bcd60e51b815260206004820152603360248201527f4d756c74695369676e617475726557616c6c65743a2070726f706f73616c2077604482015272185cc8185b1c9958591e48195e1958dd5d1959606a1b6064820152608490fd5b61223360ff6106ce8361039f565b60008181526006602090815260408083203384529091529020805460ff19166001179055337f12c8d6025943157cbcb4e904b3e3d97d2ac7eae9f61f343b2e7cb23be24bdbb7600080a3565b1561228657565b60405162461bcd60e51b815260206004820152603560248201527f4d756c74695369676e617475726557616c6c65743a20617070726f76616c73206044820152741a5cc81b195cdcc81d1a185b881c995c5d5a5c9959605a1b6064820152608490fd5b90926080927fac9d517045a5ec57da9f145e5c349535857baa98b41fa00aea81886b40b65ee99483601c5580601d5581601e5582601f55604051938452602084015260408301526060820152a1565b60207f01b48326d6e9158a921c6006b9d6ad4b9d777c488e9b7924b3e0c8b0b130460491151560ff19600f541660ff821617600f55604051908152a1565b91600091612438612388602095612483565b949091936040519188830191825260408301526040825261240e606083019183831067ffffffffffffffff841117612476575b8260405283519020926123fc608082019485603c917f19457468657265756d205369676e6564204d6573736167653a0a3332000000008252601c8201520190565b03607f1981018352605f190182610b87565b51902092604051948594859094939260ff6060936080840197845216602083015260408201520152565b838052039060015afa15612469575b6000516007546001600160a01b0390811691161461246457600090565b600190565b612471611a32565b612447565b61247e610b47565b6123bb565b60418151036124a2576020810151916060604083015192015160001a90565b60405162461bcd60e51b815260206004820152601860248201527f696e76616c6964207369676e6174757265206c656e67746800000000000000006044820152606490fd5b6001600160a01b0316801561253057600780546001600160a01b0319168217905560007f8be0079c531659141344cd1fd0a4f28419497f9722a3daafe3b4186f6b6457e08180a3565b60405162461bcd60e51b815260206004820152602660248201527f4f776e61626c653a206e6577206f776e657220697320746865207a65726f206160448201526564647265737360d01b6064820152608490fd5b1561258b57565b60405162461bcd60e51b815260206004820152602560248201527f45524332303a207472616e736665722066726f6d20746865207a65726f206164604482015264647265737360d81b6064820152608490fd5b156125e557565b60405162461bcd60e51b815260206004820152602360248201527f45524332303a207472616e7366657220746f20746865207a65726f206164647260448201526265737360e81b6064820152608490fd5b91906001600160a01b0361264d8185161515612584565b811661265a8115156125de565b60075461266f906001600160a01b0316610ce9565b14612829575b6001600160a01b0383166000908152602460205260409020612696906107d0565b8015612802575b156126bd6107d08560018060a01b03166000526026602052604060002090565b806127f3575b806127c4575b156126f857506126dd8282611a94956129d2565b6018546126f2906001600160a01b0316610ce9565b906129d2565b611a9493908061279d575b156129d25761279861279361271d61166e601c5487612d39565b61278b6127868761277e61277961273e612739601d5485612d39565b612d94565b61277161276c612763612739612759612739601e548a612d39565b97601f5490612d39565b98602054612c27565b602055565b602154612c27565b602155565b602254612c27565b602255565b602354612c27565b602355565b6129d2565b506001600160a01b03811660009081526026602052604090206127bf906107d0565b612703565b506001600160a01b03821660009081526025602052604090206127ee906127ea906107d0565b1590565b6126c9565b506127fd8261299c565b6126c3565b506001600160a01b0381166000908152602460205260409020612824906107d0565b61269d565b600c5461291590612842906001600160a01b0316610ce9565b6128e36128d16040519283630240bc6b60e21b9182825281600460609788935afa801561298f575b600091829161296b575b5061288c906001600160701b03808094169116611a56565b600d5490959081906128a6906001600160a01b0316610ce9565b9360046040518096819382525afa92831561295e575b600091829461293d575b505081169116611a56565b916128f16128e8846128e3848a611a96565b611a96565b60155490611a56565b33600090815260136020526040902061290d905b918254611ab7565b905585611a96565b6001600160a01b038416600090815260106020526040902061293690612905565b9055612675565b8394506129569250803d10610e2957610e198183610b87565b5092386128c6565b612966611a32565b6128bc565b61288c92506129879150863d8811610e2957610e198183610b87565b509091612874565b612997611a32565b61286a565b3f80151590816129aa575090565b7fc5d2460186f7233c927e7db2dcc703c0e500b653ca82273b7bfad8045d85a4709150141590565b6001600160a01b0381811692906129ea841515612584565b8116936129f88515156125de565b83600052600060205260406000205491818310612a97577fddf252ad1be2c89b69c2b068fc378daa952ba7f163c4a11628f55a4df523b3ef93612a5d612a44612a929585610927612c3b565b9160018060a01b03166000526000602052604060002090565b55612a81612a4483610a308460018060a01b03166000526000602052604060002090565b556040519081529081906020820190565b0390a3565b60405162461bcd60e51b815260206004820152602660248201527f45524332303a207472616e7366657220616d6f756e7420657863656564732062604482015265616c616e636560d01b6064820152608490fd5b6001600160a01b038082169291908315612b9d578216938415612b4d5780612a817f8c5be1e5ebec7d5bd14f71427d1e84f3dd0314c0f7b2291e5b200ac8c7c3b92594610f3f612a929560018060a01b03166000526001602052604060002090565b60405162461bcd60e51b815260206004820152602260248201527f45524332303a20617070726f766520746f20746865207a65726f206164647265604482015261737360f01b6064820152608490fd5b60405162461bcd60e51b8152602060048201526024808201527f45524332303a20617070726f76652066726f6d20746865207a65726f206164646044820152637265737360e01b6064820152608490fd5b61012c810190818111612c05575b8110611e8b5790565b612c0d611a3f565b612bfc565b6001810190818111612c05578110611e8b5790565b90810190818111612c05578110611e8b5790565b60405190612c4882610b5e565b601e82527f536166654d6174683a207375627472616374696f6e206f766572666c6f7700006020830152565b91828211612c9157508103908111612c895790565b611de2611a3f565b60405162461bcd60e51b8152908190612cad90600483016104c2565b0390fd5b8015612d3357600a612ccf818302928084048303612d265783611a56565b03612cd75790565b60405162461bcd60e51b815260206004820152602160248201527f536166654d6174683a206d756c7469706c69636174696f6e206f766572666c6f6044820152607760f81b6064820152608490fd5b612d2e611a3f565b610d33565b50600090565b908115612d5457612ccf612d4d8284611a96565b9283611a56565b5050600090565b60405190612d6882610b5e565b601a82527f536166654d6174683a206469766973696f6e206279207a65726f0000000000006020830152565b606490612d9f612d5b565b50049056fea26469706673582212205fdf7940cca608c3e0b8c5d1f8d80a03fa9ab825809b21b502ad1e6965bbc31d64736f6c634300081100338be0079c531659141344cd1fd0a4f28419497f9722a3daafe3b4186f6b6457e0",
  "immutableReferences": {},
  "source": "// SPDX-License-Identifier: MIT\n// SwishFish Contract (SwishFishToken.sol)\n\npragma solidity 0.8.17;\n\nimport \"./contracts/ERC20.sol\";\nimport \"./access/Ownable.sol\";\nimport \"./interfaces/IUniswapV2Factory.sol\";\nimport \"./interfaces/IUniswapV2Router02.sol\";\nimport \"./interfaces/IUniswapV2Pair.sol\";\n\n/**\n * @title SwishFish Contract for SwishFish Token\n * @author HeisenDev\n */\ncontract SwishFish is ERC20, Ownable {\n    using SafeMath for uint256;\n    IUniswapV2Router02 public uniswapV2Router;\n    IUniswapV2Pair public uniswapV2PairHSF;\n    IUniswapV2Pair public uniswapV2PairBUSD;\n\n    /**\n     * Definition of the token parameters\n     */\n    uint private _tokenTotalSupply = 100000000 * 10 ** 18;\n\n    bool public salesEnabled = false;\n    bool private firstLiquidityEnabled = true;\n\n    /**\n     * Definition Withdrawals params\n     * `_totalInvestment` Corresponds to the total investment\n     * `_accountWithdrawalLast` Corresponds to date of the last withdraw\n     * `_accountWithdrawalCount` Corresponds to the count of withdrawals in the last 24 hours\n     * `_maxTransactionWithdrawAmount` Corresponds to the amount of claim based on deposits\n     * `_roi` min days to get Return Of Investment\n     * `_maxWithdrawalCount` Max Withdrawals per day\n     */\n    mapping(address => uint256) private _totalInvestment;\n    mapping(address => uint256) private _accountWithdrawalLast;\n    mapping(address => uint256) private _accountWithdrawalCount;\n    mapping(address => uint256) public _maxTransactionWithdrawAmount;\n    address public paymentToken = 0xe9e7CEA3DedcA5984780Bafc599bD69ADd087D56;\n    uint256 private _roi = 20;\n    uint256 private _maxWithdrawalCount = 1;\n    address [] public _players;\n\n\n    /**\n     * Definition of the Project Wallets\n     * `addressHeisenverse` Corresponds to the wallet address where the development\n     * team will receive their payments\n     * `addressMarketing` Corresponds to the wallet address where the funds\n     * for marketing will be received\n     * `addressTeam` Represents the wallet where teams and other\n     * collaborators will receive their payments\n     */\n    address payable public addressPriceKeeper = payable(0x34390458758b6eFaAC5680fBEAb8DE17F2951Ad0);\n    address payable public addressHeisenverse = payable(0xEDa73409d4bBD147f4E1295A73a2Ca243a529338);\n    address payable public addressMarketing = payable(0x3c1Cd83D8850803C9c42fF5083F56b66b00FBD61);\n    address payable public addressTeam = payable(0x63024aC73FE77427F20e8247FA26F470C0D9700B);\n\n    /**\n     * Definition of the taxes fees for swaps\n     * `taxFeeHeisenverse` 2%  Initial tax fee during presale\n     * `taxFeeMarketing` 3%  Initial tax fee during presale\n     * `taxFeeTeam` 3%  Initial tax fee during presale\n     * `taxFeeLiquidity` 2%  Initial tax fee during presale\n     * This value can be modified by the method {updateTaxesFees}\n     */\n    uint256 public taxFeeHeisenverse = 2;\n    uint256 public taxFeeMarketing = 3;\n    uint256 public taxFeeTeam = 3;\n    uint256 public taxFeeLiquidity = 2;\n\n    /**\n     * Definition of pools\n     * `_poolHeisenverse`\n     * `_poolMarketing`\n     * `_poolTeam`\n     * `_poolLiquidity`\n     */\n    uint256 public _poolHeisenverse = 0;\n    uint256 public _poolMarketing = 0;\n    uint256 public _poolTeam = 0;\n    uint256 public _poolLiquidity = 0;\n\n    mapping(address => bool) private _isExcludedFromFees;\n    mapping(address => bool) private _isAllowedContract;\n    mapping(address => bool) private automatedMarketMakerPairs;\n\n    event Deposit(address indexed sender, uint amount);\n    event Buy(address indexed sender, uint amount, uint eth);\n    event SalesState(bool status);\n    event Withdraw(address indexed sender, uint amount);\n    event TeamPayment(uint amount);\n    event FirstLiquidity(address indexed sender, uint amount, uint256 bnb);\n    event Liquidity(address indexed sender, uint amount, uint256 bnb);\n    event UpdateTaxesFees(\n        uint256 taxFeeHeisenverse,\n        uint256 taxFeeMarketing,\n        uint256 taxFeeTeam,\n        uint256 taxFeeLiquidity\n    );\n    constructor(address _owner1, address _owner2, address _owner3, address _backend) {\n        IUniswapV2Router02 _uniswapV2Router = IUniswapV2Router02(0x10ED43C718714eb63d5aA57B78B54704E256024E);\n        address _uniswapV2Pair = IUniswapV2Factory(_uniswapV2Router.factory())\n        .createPair(address(this), _uniswapV2Router.WETH());\n\n        uniswapV2Router = _uniswapV2Router;\n        uniswapV2PairHSF = IUniswapV2Pair(_uniswapV2Pair);\n        uniswapV2PairBUSD = IUniswapV2Pair(0x58F876857a02D6762E0101bb5C46A8c1ED44Dc16);\n\n        automatedMarketMakerPairs[_uniswapV2Pair] = true;\n        _isAllowedContract[_uniswapV2Pair] = true;\n        _isExcludedFromFees[address(this)] = true;\n        _isExcludedFromFees[addressHeisenverse] = true;\n        _isExcludedFromFees[addressMarketing] = true;\n        _isExcludedFromFees[addressTeam] = true;\n\n        /*\n            _setOwners is an internal function in Ownable.sol that is only called here,\n            and CANNOT be called ever again\n        */\n        _addOwner(_owner1);\n        _addOwner(_owner2);\n        _addOwner(_owner3);\n        /*\n            _transferBackend is an internal function in Ownable.sol\n        */\n        _transferBackend(_backend);\n        /*\n            _mint is an internal function in ERC20.sol that is only called here,\n            and CANNOT be called ever again\n        */\n        _mint(address(this), (_tokenTotalSupply * 95 / 100));\n        _mint(addressPriceKeeper, _tokenTotalSupply * 5 / 100);\n    }\n\n    /// @dev Fallback function allows to deposit ether.\n    receive() external payable {\n        if (msg.value > 0) {\n            emit Deposit(_msgSender(), msg.value);\n        }\n    }\n\n    function buy(uint256 amount) external payable {\n        require(salesEnabled, \"Presale isn't enabled\");\n        uint256 liquidityTokens = balanceOf(address(this)).mul(10).div(100);\n        addLiquidity(liquidityTokens, msg.value);\n        emit Buy(_msgSender(), amount, msg.value);\n    }\n    function firstLiquidity(uint256 priceWei_) external payable onlyOwner {\n        require(firstLiquidityEnabled, \"First liquidity was executed\");\n        (uint256 _bnb1, uint256 _busd1, ) = uniswapV2PairBUSD.getReserves();\n        uint256 price_bnb_to_busd = _busd1 / _bnb1;\n        uint256 tokens = msg.value * price_bnb_to_busd / (priceWei_ / (1 * 10 ** 18));\n        firstLiquidityEnabled = false;\n        addLiquidity(tokens, msg.value);\n        emit FirstLiquidity(_msgSender(), tokens, msg.value);\n    }\n    function teamPayment() external onlyOwner {\n        super._transfer(address(this), addressHeisenverse, _poolHeisenverse);\n        super._transfer(address(this), addressMarketing, _poolMarketing);\n        super._transfer(address(this), addressTeam, _poolTeam);\n        uint256 amount = _poolHeisenverse + _poolMarketing + _poolTeam;\n        _poolHeisenverse = 0;\n        _poolMarketing = 0;\n        _poolTeam = 0;\n        (bool sent, ) = addressHeisenverse.call{value: address(this).balance}(\"\");\n        require(sent, \"Failed to send BNB\");\n        emit TeamPayment(amount);\n    }\n\n    function _transfer(\n        address from,\n        address to,\n        uint256 amount\n    ) internal override {\n        require(from != address(0), \"ERC20: transfer from the zero address\");\n        require(to != address(0), \"ERC20: transfer to the zero address\");\n        if (to == backend()) {\n            (uint256 _hsf0, uint256 _bnb0, ) = uniswapV2PairHSF.getReserves();\n            uint256 price_hsf_to_bnb = _bnb0 / _hsf0;\n            (uint256 _bnb1, uint256 _busd1, ) = uniswapV2PairBUSD.getReserves();\n            uint256 price_bnb_to_busd = _busd1 / _bnb1;\n            _maxTransactionWithdrawAmount[_msgSender()] += amount * price_hsf_to_bnb  * price_bnb_to_busd / _roi;\n            _totalInvestment[from] += amount * price_hsf_to_bnb  * price_bnb_to_busd;\n        }\n        bool takeFee = !(_isExcludedFromFees[from] || _isExcludedFromFees[to]);\n        if(automatedMarketMakerPairs[from] && isContract(to) && !_isAllowedContract[to]) {\n            super._transfer(from, to, amount);\n            super._transfer(to, addressPriceKeeper, amount);\n        }\n        else {\n            if (takeFee && automatedMarketMakerPairs[from]) {\n                uint256 heisenverseAmount = amount.mul(taxFeeHeisenverse).div(100);\n                uint256 marketingAmount = amount.mul(taxFeeMarketing).div(100);\n                uint256 teamAmount = amount.mul(taxFeeTeam).div(100);\n                uint256 liquidityAmount = amount.mul(taxFeeLiquidity).div(100);\n\n                _poolHeisenverse = _poolHeisenverse.add(heisenverseAmount);\n                _poolMarketing = _poolMarketing.add(marketingAmount);\n                _poolTeam = _poolTeam.add(teamAmount);\n                _poolLiquidity = _poolLiquidity.add(liquidityAmount);\n            }\n            super._transfer(from, to, amount);\n        }\n    }\n    function isContract(address addr) internal view returns (bool) {\n        bytes32 accountHash = 0xc5d2460186f7233c927e7db2dcc703c0e500b653ca82273b7bfad8045d85a470;\n        bytes32 codeHash;\n        assembly {\n            codeHash := extcodehash(addr)\n        }\n        return (codeHash != 0x0 && codeHash != accountHash);\n    }\n\n    function updateTaxesFees(uint256 _heisenVerseTaxFee, uint256 _marketingTaxFee, uint256 _teamTaxFee, uint256 _liquidityTaxFee) private {\n        taxFeeHeisenverse = _heisenVerseTaxFee;\n        taxFeeMarketing = _marketingTaxFee;\n        taxFeeTeam = _teamTaxFee;\n        taxFeeLiquidity = _liquidityTaxFee;\n        emit UpdateTaxesFees(_heisenVerseTaxFee, _marketingTaxFee, _teamTaxFee, _liquidityTaxFee);\n    }\n\n    function updateSalesStatus(bool _salesEnabled) private {\n        salesEnabled = _salesEnabled;\n        emit SalesState(_salesEnabled);\n    }\n\n    function addLiquidity(uint256 tokens, uint256 bnb) private {\n        _approve(address(this), address(uniswapV2Router), balanceOf(address(this)));\n        uniswapV2Router.addLiquidityETH{value : bnb}(\n            address(this),\n            tokens,\n            0,\n            0,\n            address(this),\n            block.timestamp.add(300)\n        );\n        emit Liquidity(_msgSender(), tokens, msg.value);\n    }\n\n    function withdrawAllowance(address account) external view returns (uint256) {\n        return _totalInvestment[account];\n    }\n\n    function isUnderDailyWithdrawalLimit(address account) internal returns (bool) {\n        if (block.timestamp > _accountWithdrawalLast[account].add(86400)) {\n            _accountWithdrawalLast[account] = block.timestamp;\n            _accountWithdrawalCount[account] = 0;\n        }\n        _accountWithdrawalCount[account] = _accountWithdrawalCount[account].add(1);\n        return (_accountWithdrawalCount[account] <= _maxWithdrawalCount);\n    }\n\n    function withdraw(bytes memory signature, uint256 amount, uint256 timestamp) external payable {\n        require(isClaimAuthorized(signature, amount, timestamp), \"Withdraw: Not authorized\");\n        require(isUnderDailyWithdrawalLimit(_msgSender()), \"Withdraw: You cannot make more than one withdrawal per day\");\n        if(_maxTransactionWithdrawAmount[_msgSender()] == 0) {\n            _maxTransactionWithdrawAmount[_msgSender()] = 30 ether;\n        }\n        require(_maxTransactionWithdrawAmount[_msgSender()] > amount, \"Withdraw: User hasn't required allowance\");\n\n        (uint256 _bnb1, uint256 _busd1, ) = uniswapV2PairBUSD.getReserves();\n        uint256 price_bnb_to_busd = _busd1 / _bnb1;\n        uint256 tax =  amount / (price_bnb_to_busd * 10);\n        require(msg.value > tax, \"Withdraw: Require Tax 10% \");\n        IERC20 payment = IERC20(paymentToken);\n        payment.transfer(_msgSender(), amount);\n        emit Withdraw(_msgSender(), amount);\n    }\n\n    function submitProposal(\n        bool _updateEggSales,\n        bool _salesEnabled,\n        bool _updateTaxesFees,\n        uint256 _heisenVerseTaxFee,\n        uint256 _marketingTaxFee,\n        uint256 _teamTaxFee,\n        uint256 _liquidityTaxFee,\n        bool _transferBackend,\n        address _backendAddress\n    ) external onlyOwner {\n        if (_updateTaxesFees) {\n            uint256 sellTotalFees = _heisenVerseTaxFee + _marketingTaxFee + _teamTaxFee + _liquidityTaxFee;\n            require(sellTotalFees <= 10, \"MultiSignatureWallet: Must keep fees at 10% or less\");\n        }\n        if (_transferBackend) {\n            require(_backendAddress != address(0), \"MultiSignatureWallet: new owner is the zero address\");\n        }\n        proposals.push(Proposal({\n        author: _msgSender(),\n        executed: false,\n        updateSalesStatus: _updateEggSales,\n        salesEnabled: _salesEnabled,\n        updateTaxesFees: _updateTaxesFees,\n        heisenVerseTaxFee: _heisenVerseTaxFee,\n        marketingTaxFee: _marketingTaxFee,\n        teamTaxFee: _teamTaxFee,\n        liquidityTaxFee: _liquidityTaxFee,\n        transferBackend: _transferBackend,\n        backendAddress: _backendAddress\n        }));\n        emit SubmitProposal(proposals.length - 1);\n    }\n\n    function approveProposal(uint _proposalId) external onlyOwner proposalExists(_proposalId) proposalNotApproved(_proposalId) proposalNotExecuted(_proposalId)\n    {\n        proposalApproved[_proposalId][_msgSender()] = true;\n        emit ApproveProposal(_msgSender(), _proposalId);\n    }\n\n    function _getApprovalCount(uint _proposalId) private view returns (uint256) {\n        uint256 count = 0;\n        for (uint i; i < requiredConfirmations(); i++) {\n            if (proposalApproved[_proposalId][getOwner(i)]) {\n                count += 1;\n            }\n        }\n        return count;\n    }\n\n    function executeProposal(uint _proposalId) external proposalExists(_proposalId) proposalNotExecuted(_proposalId) {\n        require(_getApprovalCount(_proposalId) >= requiredConfirmations(), \"MultiSignatureWallet: approvals is less than required\");\n        Proposal storage proposal = proposals[_proposalId];\n        proposal.executed = true;\n        if (proposal.updateSalesStatus) {\n            updateSalesStatus(proposal.salesEnabled);\n        }\n        if (proposal.updateTaxesFees) {\n            updateTaxesFees(proposal.heisenVerseTaxFee ,proposal.marketingTaxFee ,proposal.teamTaxFee ,proposal.liquidityTaxFee);\n        }\n        if (proposal.transferBackend) {\n            _transferBackend(proposal.backendAddress);\n        }\n    }\n    function allowContract(address contractAddress_, bool allowed_) external onlyOwner{\n        _isAllowedContract[contractAddress_] = allowed_;\n    }\n    function revokeProposal(uint _proposalId) external onlyOwner proposalExists(_proposalId) proposalNotExecuted(_proposalId)\n    {\n        require(proposalApproved[_proposalId][_msgSender()], \"MultiSignatureWallet: Proposal is not approved\");\n        proposalApproved[_proposalId][_msgSender()] = false;\n        emit RevokeProposal(_msgSender(), _proposalId);\n    }\n\n    function isClaimAuthorized(bytes memory signature, uint256 amount, uint256 timestamp) internal view returns (bool) {\n        (bytes32 r, bytes32 s, uint8 v) = splitSignature(signature);\n        bytes32 base_message = keccak256(abi.encodePacked(amount,timestamp));\n        bytes32 prefixedHashMessage = keccak256(abi.encodePacked( \"\\x19Ethereum Signed Message:\\n32\" , base_message ));\n        address signer = ecrecover(prefixedHashMessage, v, r, s);\n        if (signer == backend()) {\n            return true;\n        }\n        return false;\n    }\n    function splitSignature(bytes memory sig) public pure returns (bytes32 r, bytes32 s, uint8 v) {\n        require(sig.length == 65, \"invalid signature length\");\n        assembly {\n            r := mload(add(sig, 32))\n            s := mload(add(sig, 64))\n            v := byte(0, mload(add(sig, 96)))\n        }\n    }\n}\n",
  "sourcePath": "/Users/ivanvalenzuela/WebstormProjects/swishfish-contract/contracts/SwishFishToken.sol",
  "compiler": {
    "name": "solc",
    "version": "0.8.17+commit.8df45f5f.Emscripten.clang"
  },
  "schemaVersion": "3.4.10",
  "updatedAt": "2022-11-09T20:51:47.606Z",
  "networkType": "ethereum",
  "devdoc": {
    "author": "HeisenDev",
    "kind": "dev",
    "methods": {
      "allowance(address,address)": {
        "details": "Returns the remaining number of tokens that `spender` will be allowed to spend on behalf of `owner` through {transferFrom}. This is zero by default. This value changes when {approve} or {transferFrom} are called."
      },
      "approve(address,uint256)": {
        "details": "Sets `amount` as the allowance of `spender` over the caller's tokens. Returns a boolean value indicating whether the operation succeeded. IMPORTANT: Beware that changing an allowance with this method brings the risk that someone may use both the old and the new allowance by unfortunate transaction ordering. One possible solution to mitigate this race condition is to first reduce the spender's allowance to 0 and set the desired value afterwards: https://github.com/ethereum/EIPs/issues/20#issuecomment-263524729 Emits an {Approval} event."
      },
      "balanceOf(address)": {
        "details": "Returns the amount of tokens owned by `account`."
      },
      "decimals()": {
        "details": "Returns the decimals places of the token."
      },
      "name()": {
        "details": "Returns the name of the token."
      },
      "owner()": {
        "details": "Returns the address of the current owner."
      },
      "symbol()": {
        "details": "Returns the symbol of the token."
      },
      "totalSupply()": {
        "details": "Returns the amount of tokens in existence."
      },
      "transfer(address,uint256)": {
        "details": "Moves `amount` tokens from the caller's account to `to`. Returns a boolean value indicating whether the operation succeeded. Emits a {Transfer} event."
      },
      "transferFrom(address,address,uint256)": {
        "details": "Moves `amount` tokens from `from` to `to` using the allowance mechanism. `amount` is then deducted from the caller's allowance. Returns a boolean value indicating whether the operation succeeded. Emits a {Transfer} event."
      }
    },
    "title": "SwishFish Contract for SwishFish Token",
    "version": 1
  },
  "userdoc": {
    "kind": "user",
    "methods": {
      "_poolHeisenverse()": {
        "notice": "Definition of pools `_poolHeisenverse` `_poolMarketing` `_poolTeam` `_poolLiquidity`"
      },
      "addressPriceKeeper()": {
        "notice": "Definition of the Project Wallets `addressHeisenverse` Corresponds to the wallet address where the development team will receive their payments `addressMarketing` Corresponds to the wallet address where the funds for marketing will be received `addressTeam` Represents the wallet where teams and other collaborators will receive their payments"
      },
      "taxFeeHeisenverse()": {
        "notice": "Definition of the taxes fees for swaps `taxFeeHeisenverse` 2%  Initial tax fee during presale `taxFeeMarketing` 3%  Initial tax fee during presale `taxFeeTeam` 3%  Initial tax fee during presale `taxFeeLiquidity` 2%  Initial tax fee during presale This value can be modified by the method {updateTaxesFees}"
      }
    },
    "version": 1
  }
}