{
  "contractName": "SwishFish",
  "abi": [
    {
      "inputs": [
        {
          "internalType": "address",
          "name": "_owner1",
          "type": "address"
        },
        {
          "internalType": "address",
          "name": "_owner2",
          "type": "address"
        },
        {
          "internalType": "address",
          "name": "_owner3",
          "type": "address"
        },
        {
          "internalType": "address",
          "name": "_backend",
          "type": "address"
        }
      ],
      "stateMutability": "nonpayable",
      "type": "constructor"
    },
    {
      "anonymous": false,
      "inputs": [
        {
          "indexed": true,
          "internalType": "address",
          "name": "owner",
          "type": "address"
        },
        {
          "indexed": true,
          "internalType": "address",
          "name": "spender",
          "type": "address"
        },
        {
          "indexed": false,
          "internalType": "uint256",
          "name": "value",
          "type": "uint256"
        }
      ],
      "name": "Approval",
      "type": "event"
    },
    {
      "anonymous": false,
      "inputs": [
        {
          "indexed": true,
          "internalType": "address",
          "name": "owner",
          "type": "address"
        },
        {
          "indexed": true,
          "internalType": "uint256",
          "name": "proposalId",
          "type": "uint256"
        }
      ],
      "name": "ApproveProposal",
      "type": "event"
    },
    {
      "anonymous": false,
      "inputs": [
        {
          "indexed": true,
          "internalType": "address",
          "name": "sender",
          "type": "address"
        },
        {
          "indexed": false,
          "internalType": "uint256",
          "name": "amount",
          "type": "uint256"
        },
        {
          "indexed": false,
          "internalType": "uint256",
          "name": "eth",
          "type": "uint256"
        }
      ],
      "name": "Buy",
      "type": "event"
    },
    {
      "anonymous": false,
      "inputs": [
        {
          "indexed": true,
          "internalType": "address",
          "name": "sender",
          "type": "address"
        },
        {
          "indexed": false,
          "internalType": "uint256",
          "name": "amount",
          "type": "uint256"
        }
      ],
      "name": "Deposit",
      "type": "event"
    },
    {
      "anonymous": false,
      "inputs": [
        {
          "indexed": true,
          "internalType": "address",
          "name": "sender",
          "type": "address"
        },
        {
          "indexed": false,
          "internalType": "uint256",
          "name": "amount",
          "type": "uint256"
        }
      ],
      "name": "DepositProposal",
      "type": "event"
    },
    {
      "anonymous": false,
      "inputs": [
        {
          "indexed": true,
          "internalType": "address",
          "name": "sender",
          "type": "address"
        },
        {
          "indexed": false,
          "internalType": "uint256",
          "name": "amount",
          "type": "uint256"
        },
        {
          "indexed": false,
          "internalType": "uint256",
          "name": "bnb",
          "type": "uint256"
        }
      ],
      "name": "FirstLiquidity",
      "type": "event"
    },
    {
      "anonymous": false,
      "inputs": [
        {
          "indexed": true,
          "internalType": "address",
          "name": "sender",
          "type": "address"
        },
        {
          "indexed": false,
          "internalType": "uint256",
          "name": "amount",
          "type": "uint256"
        },
        {
          "indexed": false,
          "internalType": "uint256",
          "name": "bnb",
          "type": "uint256"
        }
      ],
      "name": "Liquidity",
      "type": "event"
    },
    {
      "anonymous": false,
      "inputs": [
        {
          "indexed": true,
          "internalType": "address",
          "name": "previousOwner",
          "type": "address"
        },
        {
          "indexed": true,
          "internalType": "address",
          "name": "newOwner",
          "type": "address"
        }
      ],
      "name": "OwnershipTransferred",
      "type": "event"
    },
    {
      "anonymous": false,
      "inputs": [
        {
          "indexed": true,
          "internalType": "address",
          "name": "sender",
          "type": "address"
        },
        {
          "indexed": false,
          "internalType": "address",
          "name": "token",
          "type": "address"
        },
        {
          "indexed": false,
          "internalType": "uint256",
          "name": "amount",
          "type": "uint256"
        }
      ],
      "name": "RecoverTokens",
      "type": "event"
    },
    {
      "anonymous": false,
      "inputs": [
        {
          "indexed": true,
          "internalType": "address",
          "name": "owner",
          "type": "address"
        },
        {
          "indexed": true,
          "internalType": "uint256",
          "name": "proposalId",
          "type": "uint256"
        }
      ],
      "name": "RevokeProposal",
      "type": "event"
    },
    {
      "anonymous": false,
      "inputs": [
        {
          "indexed": false,
          "internalType": "bool",
          "name": "status",
          "type": "bool"
        }
      ],
      "name": "SalesState",
      "type": "event"
    },
    {
      "anonymous": false,
      "inputs": [
        {
          "indexed": true,
          "internalType": "uint256",
          "name": "proposalId",
          "type": "uint256"
        }
      ],
      "name": "SubmitProposal",
      "type": "event"
    },
    {
      "anonymous": false,
      "inputs": [
        {
          "indexed": false,
          "internalType": "uint256",
          "name": "amount",
          "type": "uint256"
        }
      ],
      "name": "TeamPayment",
      "type": "event"
    },
    {
      "anonymous": false,
      "inputs": [
        {
          "indexed": true,
          "internalType": "address",
          "name": "from",
          "type": "address"
        },
        {
          "indexed": true,
          "internalType": "address",
          "name": "to",
          "type": "address"
        },
        {
          "indexed": false,
          "internalType": "uint256",
          "name": "value",
          "type": "uint256"
        }
      ],
      "name": "Transfer",
      "type": "event"
    },
    {
      "anonymous": false,
      "inputs": [
        {
          "indexed": false,
          "internalType": "uint256",
          "name": "taxFeeHeisenverse",
          "type": "uint256"
        },
        {
          "indexed": false,
          "internalType": "uint256",
          "name": "taxFeeMarketing",
          "type": "uint256"
        },
        {
          "indexed": false,
          "internalType": "uint256",
          "name": "taxFeeTeam",
          "type": "uint256"
        },
        {
          "indexed": false,
          "internalType": "uint256",
          "name": "taxFeeLiquidity",
          "type": "uint256"
        }
      ],
      "name": "UpdateTaxesFees",
      "type": "event"
    },
    {
      "anonymous": false,
      "inputs": [
        {
          "indexed": true,
          "internalType": "address",
          "name": "sender",
          "type": "address"
        },
        {
          "indexed": false,
          "internalType": "uint256",
          "name": "amount",
          "type": "uint256"
        }
      ],
      "name": "Withdraw",
      "type": "event"
    },
    {
      "inputs": [],
      "name": "_maxTransactionWithdrawAmount",
      "outputs": [
        {
          "internalType": "uint256",
          "name": "",
          "type": "uint256"
        }
      ],
      "stateMutability": "view",
      "type": "function",
      "constant": true
    },
    {
      "inputs": [],
      "name": "_paymentToken",
      "outputs": [
        {
          "internalType": "address",
          "name": "",
          "type": "address"
        }
      ],
      "stateMutability": "view",
      "type": "function",
      "constant": true
    },
    {
      "inputs": [],
      "name": "_poolHeisenverse",
      "outputs": [
        {
          "internalType": "uint256",
          "name": "",
          "type": "uint256"
        }
      ],
      "stateMutability": "view",
      "type": "function",
      "constant": true
    },
    {
      "inputs": [],
      "name": "_poolLiquidity",
      "outputs": [
        {
          "internalType": "uint256",
          "name": "",
          "type": "uint256"
        }
      ],
      "stateMutability": "view",
      "type": "function",
      "constant": true
    },
    {
      "inputs": [],
      "name": "_poolMarketing",
      "outputs": [
        {
          "internalType": "uint256",
          "name": "",
          "type": "uint256"
        }
      ],
      "stateMutability": "view",
      "type": "function",
      "constant": true
    },
    {
      "inputs": [],
      "name": "_poolTeam",
      "outputs": [
        {
          "internalType": "uint256",
          "name": "",
          "type": "uint256"
        }
      ],
      "stateMutability": "view",
      "type": "function",
      "constant": true
    },
    {
      "inputs": [],
      "name": "addressHeisenverse",
      "outputs": [
        {
          "internalType": "address payable",
          "name": "",
          "type": "address"
        }
      ],
      "stateMutability": "view",
      "type": "function",
      "constant": true
    },
    {
      "inputs": [],
      "name": "addressMarketing",
      "outputs": [
        {
          "internalType": "address payable",
          "name": "",
          "type": "address"
        }
      ],
      "stateMutability": "view",
      "type": "function",
      "constant": true
    },
    {
      "inputs": [],
      "name": "addressPriceKeeper",
      "outputs": [
        {
          "internalType": "address payable",
          "name": "",
          "type": "address"
        }
      ],
      "stateMutability": "view",
      "type": "function",
      "constant": true
    },
    {
      "inputs": [],
      "name": "addressTeam",
      "outputs": [
        {
          "internalType": "address payable",
          "name": "",
          "type": "address"
        }
      ],
      "stateMutability": "view",
      "type": "function",
      "constant": true
    },
    {
      "inputs": [
        {
          "internalType": "address",
          "name": "owner",
          "type": "address"
        },
        {
          "internalType": "address",
          "name": "spender",
          "type": "address"
        }
      ],
      "name": "allowance",
      "outputs": [
        {
          "internalType": "uint256",
          "name": "",
          "type": "uint256"
        }
      ],
      "stateMutability": "view",
      "type": "function",
      "constant": true
    },
    {
      "inputs": [
        {
          "internalType": "address",
          "name": "spender",
          "type": "address"
        },
        {
          "internalType": "uint256",
          "name": "amount",
          "type": "uint256"
        }
      ],
      "name": "approve",
      "outputs": [
        {
          "internalType": "bool",
          "name": "",
          "type": "bool"
        }
      ],
      "stateMutability": "nonpayable",
      "type": "function"
    },
    {
      "inputs": [
        {
          "internalType": "address",
          "name": "account",
          "type": "address"
        }
      ],
      "name": "balanceOf",
      "outputs": [
        {
          "internalType": "uint256",
          "name": "",
          "type": "uint256"
        }
      ],
      "stateMutability": "view",
      "type": "function",
      "constant": true
    },
    {
      "inputs": [],
      "name": "decimals",
      "outputs": [
        {
          "internalType": "uint8",
          "name": "",
          "type": "uint8"
        }
      ],
      "stateMutability": "view",
      "type": "function",
      "constant": true
    },
    {
      "inputs": [
        {
          "internalType": "address",
          "name": "spender",
          "type": "address"
        },
        {
          "internalType": "uint256",
          "name": "subtractedValue",
          "type": "uint256"
        }
      ],
      "name": "decreaseAllowance",
      "outputs": [
        {
          "internalType": "bool",
          "name": "",
          "type": "bool"
        }
      ],
      "stateMutability": "nonpayable",
      "type": "function"
    },
    {
      "inputs": [
        {
          "internalType": "address",
          "name": "spender",
          "type": "address"
        },
        {
          "internalType": "uint256",
          "name": "addedValue",
          "type": "uint256"
        }
      ],
      "name": "increaseAllowance",
      "outputs": [
        {
          "internalType": "bool",
          "name": "",
          "type": "bool"
        }
      ],
      "stateMutability": "nonpayable",
      "type": "function"
    },
    {
      "inputs": [],
      "name": "name",
      "outputs": [
        {
          "internalType": "string",
          "name": "",
          "type": "string"
        }
      ],
      "stateMutability": "view",
      "type": "function",
      "constant": true
    },
    {
      "inputs": [],
      "name": "owner",
      "outputs": [
        {
          "internalType": "address",
          "name": "",
          "type": "address"
        }
      ],
      "stateMutability": "view",
      "type": "function",
      "constant": true
    },
    {
      "inputs": [
        {
          "internalType": "uint256",
          "name": "",
          "type": "uint256"
        }
      ],
      "name": "proposals",
      "outputs": [
        {
          "internalType": "address",
          "name": "author",
          "type": "address"
        },
        {
          "internalType": "bool",
          "name": "executed",
          "type": "bool"
        },
        {
          "internalType": "bool",
          "name": "updateSalesStatus",
          "type": "bool"
        },
        {
          "internalType": "bool",
          "name": "salesEnabled",
          "type": "bool"
        },
        {
          "internalType": "bool",
          "name": "updateTaxesFees",
          "type": "bool"
        },
        {
          "internalType": "uint256",
          "name": "heisenVerseTaxFee",
          "type": "uint256"
        },
        {
          "internalType": "uint256",
          "name": "marketingTaxFee",
          "type": "uint256"
        },
        {
          "internalType": "uint256",
          "name": "teamTaxFee",
          "type": "uint256"
        },
        {
          "internalType": "uint256",
          "name": "liquidityTaxFee",
          "type": "uint256"
        },
        {
          "internalType": "bool",
          "name": "transferBackend",
          "type": "bool"
        },
        {
          "internalType": "address",
          "name": "backendAddress",
          "type": "address"
        }
      ],
      "stateMutability": "view",
      "type": "function",
      "constant": true
    },
    {
      "inputs": [],
      "name": "salesEnabled",
      "outputs": [
        {
          "internalType": "bool",
          "name": "",
          "type": "bool"
        }
      ],
      "stateMutability": "view",
      "type": "function",
      "constant": true
    },
    {
      "inputs": [],
      "name": "symbol",
      "outputs": [
        {
          "internalType": "string",
          "name": "",
          "type": "string"
        }
      ],
      "stateMutability": "view",
      "type": "function",
      "constant": true
    },
    {
      "inputs": [],
      "name": "taxFeeHeisenverse",
      "outputs": [
        {
          "internalType": "uint256",
          "name": "",
          "type": "uint256"
        }
      ],
      "stateMutability": "view",
      "type": "function",
      "constant": true
    },
    {
      "inputs": [],
      "name": "taxFeeLiquidity",
      "outputs": [
        {
          "internalType": "uint256",
          "name": "",
          "type": "uint256"
        }
      ],
      "stateMutability": "view",
      "type": "function",
      "constant": true
    },
    {
      "inputs": [],
      "name": "taxFeeMarketing",
      "outputs": [
        {
          "internalType": "uint256",
          "name": "",
          "type": "uint256"
        }
      ],
      "stateMutability": "view",
      "type": "function",
      "constant": true
    },
    {
      "inputs": [],
      "name": "taxFeeTeam",
      "outputs": [
        {
          "internalType": "uint256",
          "name": "",
          "type": "uint256"
        }
      ],
      "stateMutability": "view",
      "type": "function",
      "constant": true
    },
    {
      "inputs": [],
      "name": "totalSupply",
      "outputs": [
        {
          "internalType": "uint256",
          "name": "",
          "type": "uint256"
        }
      ],
      "stateMutability": "view",
      "type": "function",
      "constant": true
    },
    {
      "inputs": [
        {
          "internalType": "address",
          "name": "to",
          "type": "address"
        },
        {
          "internalType": "uint256",
          "name": "amount",
          "type": "uint256"
        }
      ],
      "name": "transfer",
      "outputs": [
        {
          "internalType": "bool",
          "name": "",
          "type": "bool"
        }
      ],
      "stateMutability": "nonpayable",
      "type": "function"
    },
    {
      "inputs": [
        {
          "internalType": "address",
          "name": "from",
          "type": "address"
        },
        {
          "internalType": "address",
          "name": "to",
          "type": "address"
        },
        {
          "internalType": "uint256",
          "name": "amount",
          "type": "uint256"
        }
      ],
      "name": "transferFrom",
      "outputs": [
        {
          "internalType": "bool",
          "name": "",
          "type": "bool"
        }
      ],
      "stateMutability": "nonpayable",
      "type": "function"
    },
    {
      "inputs": [],
      "name": "uniswapV2Router",
      "outputs": [
        {
          "internalType": "contract IUniswapV2Router02",
          "name": "",
          "type": "address"
        }
      ],
      "stateMutability": "view",
      "type": "function",
      "constant": true
    },
    {
      "stateMutability": "payable",
      "type": "receive",
      "payable": true
    },
    {
      "inputs": [
        {
          "internalType": "address",
          "name": "contractAddress_",
          "type": "address"
        },
        {
          "internalType": "bool",
          "name": "allowed_",
          "type": "bool"
        }
      ],
      "name": "allowContract",
      "outputs": [],
      "stateMutability": "nonpayable",
      "type": "function"
    },
    {
      "inputs": [
        {
          "internalType": "uint256",
          "name": "_proposalId",
          "type": "uint256"
        }
      ],
      "name": "approveProposal",
      "outputs": [],
      "stateMutability": "nonpayable",
      "type": "function"
    },
    {
      "inputs": [
        {
          "internalType": "uint256",
          "name": "amount",
          "type": "uint256"
        }
      ],
      "name": "buy",
      "outputs": [],
      "stateMutability": "payable",
      "type": "function",
      "payable": true
    },
    {
      "inputs": [
        {
          "internalType": "uint256",
          "name": "_proposalId",
          "type": "uint256"
        }
      ],
      "name": "executeProposal",
      "outputs": [],
      "stateMutability": "nonpayable",
      "type": "function"
    },
    {
      "inputs": [
        {
          "internalType": "uint256",
          "name": "tokens",
          "type": "uint256"
        }
      ],
      "name": "firstLiquidity",
      "outputs": [],
      "stateMutability": "payable",
      "type": "function",
      "payable": true
    },
    {
      "inputs": [
        {
          "internalType": "address",
          "name": "token_",
          "type": "address"
        }
      ],
      "name": "recoverTokens",
      "outputs": [],
      "stateMutability": "nonpayable",
      "type": "function"
    },
    {
      "inputs": [
        {
          "internalType": "uint256",
          "name": "_proposalId",
          "type": "uint256"
        }
      ],
      "name": "revokeProposal",
      "outputs": [],
      "stateMutability": "nonpayable",
      "type": "function"
    },
    {
      "inputs": [
        {
          "internalType": "bool",
          "name": "_updateEggSales",
          "type": "bool"
        },
        {
          "internalType": "bool",
          "name": "_salesEnabled",
          "type": "bool"
        },
        {
          "internalType": "bool",
          "name": "_updateTaxesFees",
          "type": "bool"
        },
        {
          "internalType": "uint256",
          "name": "_heisenVerseTaxFee",
          "type": "uint256"
        },
        {
          "internalType": "uint256",
          "name": "_marketingTaxFee",
          "type": "uint256"
        },
        {
          "internalType": "uint256",
          "name": "_teamTaxFee",
          "type": "uint256"
        },
        {
          "internalType": "uint256",
          "name": "_liquidityTaxFee",
          "type": "uint256"
        },
        {
          "internalType": "bool",
          "name": "_transferBackend",
          "type": "bool"
        },
        {
          "internalType": "address",
          "name": "_backendAddress",
          "type": "address"
        }
      ],
      "name": "submitProposal",
      "outputs": [],
      "stateMutability": "nonpayable",
      "type": "function"
    },
    {
      "inputs": [],
      "name": "teamPayment",
      "outputs": [],
      "stateMutability": "nonpayable",
      "type": "function"
    },
    {
      "inputs": [
        {
          "internalType": "address",
          "name": "addressHeisenverse_",
          "type": "address"
        }
      ],
      "name": "updatePaymentAddressHeisenverse",
      "outputs": [],
      "stateMutability": "nonpayable",
      "type": "function"
    },
    {
      "inputs": [
        {
          "internalType": "address",
          "name": "paymentToken_",
          "type": "address"
        }
      ],
      "name": "updatePaymentToken",
      "outputs": [],
      "stateMutability": "nonpayable",
      "type": "function"
    },
    {
      "inputs": [
        {
          "internalType": "bytes",
          "name": "signature",
          "type": "bytes"
        },
        {
          "internalType": "uint256",
          "name": "amount",
          "type": "uint256"
        },
        {
          "internalType": "uint256",
          "name": "timestamp",
          "type": "uint256"
        }
      ],
      "name": "withdraw",
      "outputs": [],
      "stateMutability": "payable",
      "type": "function",
      "payable": true
    }
  ],
  "bytecode": "0x608060408181523462000637576080826200366180380380916200002482856200063c565b83398101031262000637576200003a826200068f565b916020926200004b8483016200068f565b936200006760606200005f8686016200068f565b94016200068f565b9062000075600354620006a4565b601f811162000607575b5060127f537769736846697368000000000000000000000000000000000000000000000001600355600495620000b68754620006a4565b601f8111620005d8575b5060067f485346000000000000000000000000000000000000000000000000000000000001875560018060a01b03193381600854161760085586519360009660008051602062003641833981519152933389868180a36a52b7d2dcc80cd2e4000000600c5561010061ffff19600d541617600d5569152d02c7e14af6800000600e5573e9e7cea3dedca5984780bafc599bd69add087d56846012541617601255600197886013557334390458758b6efaac5680fbeab8de17f2951ad085601454161760145573eda73409d4bbd147f4e1295a73a2ca243a529338856015541617601555733c1cd83d8850803c9c42ff5083f56b66b00fbd618560165416176016557363024ac73fe77427f20e8247fa26f470c0d9700b856017541617601755600260185560036019556003601a556002601b5589601c5589601d5589601e5589601f558b87897310ed43c718714eb63d5aa57b78b54704e256024e928389600b541617600b557fc45a015500000000000000000000000000000000000000000000000000000000825281845afa9889156200054457908d918c9a62000595575b5088908d51928380927fad5c46480000000000000000000000000000000000000000000000000000000082525afa90811562000544578b918e8e8b9385936200054e575b50906044915194859384927fc9c65396000000000000000000000000000000000000000000000000000000008452309084015260018060a01b039e8f8092166024850152165af190811562000544578a8d8d8c98979695948c948291620004da575b508916815260228452818120805460ff1990811685179091556021855282822080548216851790553082529380528181208054851684179055601554891681528181208054851684179055601654891681528181208054851684179055601754891681522080549092161790556200038c929162000386918290620006fa565b620006fa565b169283156200045857509082869260075416176007558180a3600c546063810290808204606314901517156200042c576064620003cb910430620008e4565b6014541691600c54918280041482151715620004005750906064620003f2920490620008e4565b51612be9908162000a588239f35b806011867f4e487b71000000000000000000000000000000000000000000000000000000006024945252fd5b6024846011887f4e487b7100000000000000000000000000000000000000000000000000000000835252fd5b886084918951917f08c379a0000000000000000000000000000000000000000000000000000000008352820152602660248201527f4f776e61626c653a206e6577206f776e657220697320746865207a65726f206160448201527f64647265737300000000000000000000000000000000000000000000000000006064820152fd5b9596979899505050505081813d83116200053c575b620004fb81836200063c565b8101031262000538576200038c92620003868a9695938a8f8f908f918b6200052762000386996200068f565b939650509295979850929562000306565b8a80fd5b503d620004ef565b8c513d8d823e3d90fd5b945050505081813d83116200058d575b6200056a81836200063c565b810103126200053857878c60448f620005848f956200068f565b929091620002a4565b503d6200055e565b8980929b508193503d8311620005d0575b620005b281836200063c565b81010312620005385787620005c88e926200068f565b999062000260565b503d620005a6565b6000888152601f848220920160051c8201915b828110620005fb575050620000c0565b818155600101620005eb565b600060038152601f838220920160051c8201915b8281106200062b5750506200007f565b8181556001016200061b565b600080fd5b601f909101601f19168101906001600160401b038211908210176200066057604052565b7f4e487b7100000000000000000000000000000000000000000000000000000000600052604160045260246000fd5b51906001600160a01b03821682036200063757565b90600182811c92168015620006ef575b6020831014620006c057565b7f4e487b7100000000000000000000000000000000000000000000000000000000600052602260045260246000fd5b91607f1691620006b4565b6001600160a01b0316801562000860576000818152600a60205260ff6040822054166200080257818152600a60205260408120805460ff1916600117905560095468010000000000000000811015620007d5576001810180600955811015620007a857600982527f6e1540171b6c0c960b71a7020d9f60077f6af931a8bbf590da0223dacf75c7af0180546001600160a01b03191683179055600080516020620036418339815191528180a3565b6024827f4e487b710000000000000000000000000000000000000000000000000000000081526032600452fd5b6024827f4e487b710000000000000000000000000000000000000000000000000000000081526041600452fd5b60646040517f08c379a000000000000000000000000000000000000000000000000000000000815260206004820152601c60248201527f4f776e61626c653a204f776e6572206973206e6f7420756e69717565000000006044820152fd5b60846040517f08c379a000000000000000000000000000000000000000000000000000000000815260206004820152602260248201527f4f776e61626c653a204f776e657220697320746865207a65726f20616464726560448201527f73730000000000000000000000000000000000000000000000000000000000006064820152fd5b6001600160a01b031690811562000956576200090381600254620009b4565b6002557fddf252ad1be2c89b69c2b068fc378daa952ba7f163c4a11628f55a4df523b3ef602060009284845283825262000942816040862054620009b4565b8585528483526040852055604051908152a3565b60646040517f08c379a000000000000000000000000000000000000000000000000000000000815260206004820152601f60248201527f45524332303a206d696e7420746f20746865207a65726f2061646472657373006044820152fd5b9081019081811162000a28578110620009ca5790565b60646040517f08c379a000000000000000000000000000000000000000000000000000000000815260206004820152601b60248201527f536166654d6174683a206164646974696f6e206f766572666c6f7700000000006044820152fd5b7f4e487b7100000000000000000000000000000000000000000000000000000000600052601160045260246000fdfe60806040526004361015610023575b361561001957600080fd5b6100216117a8565b005b60003560e01c8063013cf08b14610357578063024d8a3c1461034e57806306fdde0314610345578063095ea7b31461033c5780630abdc640146103335780630d61b5191461032a5780631234dee81461032157806316114acd146103185780631694505e1461030f57806318160ddd146103065780631b45a47a146102fd57806323b872dd146102f45780632a9af7ba146102eb578063313ce567146102e257806339509351146102d95780634ccf1b34146102d0578063553000c1146102c7578063562e9df9146102be5780635a2f5963146102b55780636eaf7f52146102ac57806370a08231146102a3578063737a9ed61461029a5780637d81936c1461029157806385a6a091146102885780638da5cb5b1461027f578063933f5e071461027657806395d89b411461026d57806398951b56146102645780639e5cd74a1461025b578063a457c2d714610252578063a9059cbb14610249578063a990c72914610240578063b6bba0ae14610237578063c84ad9a51461022e578063d7196dd914610225578063d78af5f11461021c578063d8a0f82814610213578063d96a094a1461020a578063dd62ed3e14610201578063fe3b2b9a146101f85763ffb3a3a60361000e576101f361177e565b61000e565b506101f3611620565b506101f36115c7565b506101f36114ff565b506101f3611435565b506101f36113cd565b506101f361129a565b506101f3611276565b506101f3611257565b506101f3611238565b506101f3611211565b506101f361115e565b506101f361113f565b506101f361106a565b506101f3610fa6565b506101f3610f87565b506101f3610f5d565b506101f3610e30565b506101f3610e11565b506101f3610d9a565b506101f3610cb1565b506101f3610c92565b506101f3610c68565b506101f3610c3e565b506101f3610c1f565b506101f3610bc9565b506101f3610b70565b506101f3610b53565b506101f3610b34565b506101f3610a58565b506101f3610a39565b506101f3610a1a565b506101f36109f0565b506101f3610868565b506101f361083e565b506101f36106ca565b506101f36106a0565b506101f361066e565b506101f3610565565b506101f36104c6565b506101f36103c0565b50634e487b7160e01b600052603260045260246000fd5b6006906005548110156103b3575b6005600052027f036b6384b5eca791c62761152d0c79bb0604c104a5fb6f4eb0703f3154bb3db00190600090565b6103bb610360565b610385565b503461049557602036600319011261049557600435600554811015610495576103e890610377565b5080546001820154600283015460038401546004850154600590950154604080516001600160a01b03808816825260ff60a089811c82161515602085015260a88a901c821615159484019490945260b089901c81161515606084015260b89890981c8816151560808301529181019590955260c085019390935260e0840191909152610100830194909452918316151561012082015260089290921c1661014082015261016090f35b0390f35b600080fd5b600435906001600160a01b038216820361049557565b602435906001600160a01b038216820361049557565b5034610495576020366003190112610495576104e061049a565b33600052600a6020526104fa60ff604060002054166117dd565b601580546001600160a01b0319166001600160a01b0392909216919091179055005b6020808252825181830181905290939260005b82811061055157505060409293506000838284010152601f8019910116010190565b81810186015184820160400152850161052f565b50346104955760008060031936011261066b5760405190806003549060019180831c92808216928315610661575b602092838610851461064d57858852602088019490811561062c57506001146105d3575b610491876105c781890382610d2c565b6040519182918261051c565b600360005294509192917fc2575a0e9e593c00f959f8c92f12db2869c3395a3b0502d05e2516446f71f85b5b83861061061b57505050910190506105c78261049138806105b7565b8054858701529482019481016105ff565b60ff191685525050505090151560051b0190506105c78261049138806105b7565b634e487b7160e01b82526022600452602482fd5b93607f1693610593565b80fd5b50346104955760403660031901126104955761069561068b61049a565b60243590336128c1565b602060405160018152f35b5034610495576000366003190112610495576016546040516001600160a01b039091168152602090f35b50346104955760208060031936011261049557600435906106ee6005548310611829565b61070860ff6106fc84610377565b505460a01c161561188b565b6000809160098054935b8481106107b75760056107308761072b88881015611a90565b610377565b50805460ff60a01b1916600160a01b178155805460ff8160a81c166107a2575b50805460b81c60ff1661077f575b015460ff811661076a57005b6100219060081c6001600160a01b03166123d2565b61079d60018201546002830154600384015490600485015492611e98565b61075e565b60ff6107b19160b01c16611ee7565b82610750565b60008681526006845260408082207f6e1540171b6c0c960b71a7020d9f60077f6af931a8bbf590da0223dacf75c7af8401546001600160a01b031683526020529020610805905b5460ff1690565b61082a575b600190600019811461081d575b01610712565b610825611afa565b610817565b92610836600191611b11565b93905061080a565b5034610495576000366003190112610495576014546040516001600160a01b039091168152602090f35b5034610495576020806003193601126104955761088361049a565b7ff257030c31bb22cecbd0a9bea0d918587e896dc16262b204350c435850a333ab61096d600093338552600a81526108c160ff6040872054166117dd565b6001600160a01b038416906108d830831415611b36565b6040516370a0823160e01b8152306004820152918183602481845afa9283156109e3575b87936109ae575b5060145460405163a9059cbb60e01b81526001600160a01b039091166004820152602481018490529082908290818a81604481015b03925af180156109a1575b610973575b5050604080516001600160a01b03909516855260208501919091523393918291820190565b0390a280f35b8161099292903d1061099a575b61098a8183610d2c565b810190611b91565b503880610948565b503d610980565b6109a9611968565b610943565b6109389193506109d48391823d84116109dc575b6109cc8183610d2c565b810190611b82565b939150610903565b503d6109c2565b6109eb611968565b6108fc565b503461049557600036600319011261049557600b546040516001600160a01b039091168152602090f35b5034610495576000366003190112610495576020600254604051908152f35b5034610495576000366003190112610495576020601d54604051908152f35b503461049557606036600319011261049557610a7261049a565b610a7a6104b0565b6001600160a01b038216600090815260016020908152604080832033845290915290206044359190549260018401610ac3575b610ab79350612558565b60405160018152602090f35b828410610aef57610aea610ae3610ab79585610add612a27565b91612a60565b33836128c1565b610aad565b60405162461bcd60e51b815260206004820152601d60248201527f45524332303a20696e73756666696369656e7420616c6c6f77616e63650000006044820152606490fd5b5034610495576000366003190112610495576020601f54604051908152f35b503461049557600036600319011261049557602060405160128152f35b503461049557604036600319011261049557610695610b8d61049a565b336000526001602052610bc2602435610bbc8360406000209060018060a01b0316600052602052604060002090565b54612a13565b90336128c1565b503461049557602036600319011261049557610be361049a565b33600052600a602052610bfd60ff604060002054166117dd565b601280546001600160a01b0319166001600160a01b0392909216919091179055005b5034610495576000366003190112610495576020601e54604051908152f35b5034610495576000366003190112610495576017546040516001600160a01b039091168152602090f35b5034610495576000366003190112610495576012546040516001600160a01b039091168152602090f35b5034610495576000366003190112610495576020600e54604051908152f35b5034610495576020366003190112610495576001600160a01b03610cd361049a565b1660005260006020526020604060002054604051908152f35b50634e487b7160e01b600052604160045260246000fd5b6040810190811067ffffffffffffffff821117610d1f57604052565b610d27610cec565b604052565b90601f8019910116810190811067ffffffffffffffff821117610d1f57604052565b60405190610160820182811067ffffffffffffffff821117610d1f57604052565b60209067ffffffffffffffff8111610d8d575b601f01601f19160190565b610d95610cec565b610d82565b5060603660031901126104955760043567ffffffffffffffff81116104955736602382011215610495578060040135610dd281610d6f565b90610de06040519283610d2c565b808252366024828501011161049557602081600092602461002196018386013783010152604435906024359061208c565b5034610495576000366003190112610495576020601954604051908152f35b503461049557602036600319011261049557600435600090338252600a602052610e6060ff6040842054166117dd565b610e6d6005548210611829565b610e7b60ff6106fc83610377565b808252600660209081526040808420336000908152925290205460ff1615610f0157610ed9610ecf33610eb8846000526006602052604060002090565b9060018060a01b0316600052602052604060002090565b805460ff19169055565b337fb8b1cbdd07c030bed9e01f4ee5465e3a3fd2aa8f7135c84467c0f3cf203925eb8380a380f35b60405162461bcd60e51b815260206004820152602e60248201527f4d756c74695369676e617475726557616c6c65743a2050726f706f73616c206960448201526d1cc81b9bdd08185c1c1c9bdd995960921b6064820152608490fd5b5034610495576000366003190112610495576008546040516001600160a01b039091168152602090f35b5034610495576000366003190112610495576020601b54604051908152f35b50346104955760008060031936011261066b5760405190806004549060019180831c92808216928315611060575b602092838610851461064d57858852602088019490811561062c575060011461100757610491876105c781890382610d2c565b600460005294509192917f8a35acfbc15ff81a39ae7d344fd709f28e8600b4aa8c65c6b64bfe7fe36bd19b5b83861061104f57505050910190506105c78261049138806105b7565b805485870152948201948101611033565b93607f1693610fd4565b503461049557602036600319011261049557600435600090338252600a60205261109a60ff6040842054166117dd565b6110a76005548210611829565b808252600660209081526040808420336000908152925290205460ff166110d4576110d1906118f3565b80f35b60405162461bcd60e51b815260206004820152603c60248201527f4d756c74695369676e617475726557616c6c65743a2070726f706f73616c206160448201527f6c72656164792077617320617070726f766564206279206f776e6572000000006064820152608490fd5b5034610495576000366003190112610495576020601854604051908152f35b50346104955760403660031901126104955761117861049a565b602435903360005260016020526111a58160406000209060018060a01b0316600052602052604060002090565b54918083106111be57610ab792610bc291610add612a27565b60405162461bcd60e51b815260206004820152602560248201527f45524332303a2064656372656173656420616c6c6f77616e63652062656c6f77604482015264207a65726f60d81b6064820152608490fd5b50346104955760403660031901126104955761069561122e61049a565b6024359033612558565b5034610495576000366003190112610495576020601c54604051908152f35b5034610495576000366003190112610495576020601a54604051908152f35b503461049557600036600319011261049557602060ff600d54166040519015158152f35b50346104955760008060031936011261066b57338152600a6020526112c560ff6040832054166117dd565b601554601c54611316916001600160a01b03916112e4918316306127a8565b601654601d546112ff9183166001600160a01b0316306127a8565b6017546001600160a01b0316601e549116306127a8565b7f21a3a3648d0b2afc084acd733d71600b506fa4eca7ef1f5e24718c5e17f4e7ff6113bd61135561134c601c54601d5490611b29565b601e5490611b29565b61135f6000601c55565b6113696000601d55565b6113736000601e55565b6113ad8480808061139a61138e60155460018060a01b031690565b6001600160a01b031690565b3031905af16113a7611e27565b50611e57565b6040519081529081906020820190565b0390a180f35b8015150361049557565b5034610495576040366003190112610495576113e761049a565b6110d16024356113f6816113c3565b600092338452600a60205261141160ff6040862054166117dd565b60018060a01b031683526021602052604083209060ff801983541691151516179055565b5060203660031901126104955760043533600052600a60205261145f60ff604060002054166117dd565b600d5460ff8160081c16156114ba5761ff001916600d5561147f81611975565b6040805191825234602083015233917f1b975f707de5a6cdb5179622fe20b69e78f03587622408bed94b618299045aa991819081015b0390a2005b60405162461bcd60e51b815260206004820152601c60248201527f4669727374206c697175696469747920776173206578656375746564000000006044820152606490fd5b5060203660031901126104955760ff600d54161561158a5730600090815260208190526040902061154d90611548906115389054612abd565b611540612b6a565b506064900490565b611975565b60408051600435815234602082015233917f1cbc5ab135991bd2b6a4b034a04aa2aa086dac1371cb9b16b8b5e2ed6b036bed9190819081016114b5565b60405162461bcd60e51b8152602060048201526015602482015274141c995cd85b19481a5cdb89dd08195b98589b1959605a1b6044820152606490fd5b50346104955760403660031901126104955760206116176115e661049a565b6115ee6104b0565b6001600160a01b0391821660009081526001855260408082209290931681526020919091522090565b54604051908152f35b5034610495576101208060031936011261049557600435611640816113c3565b6024359161164d836113c3565b6044359061165a826113c3565b60e4359060c43560a435608435606435611673866113c3565b610104356001600160a01b038116999097908a89036104955760009a338c5288838d600a602052604090205460ff166116ab906117dd565b611756575b611745575b506116be610d4e565b3381529960208b018c9052151560408b0152151560608a01521515608089015260a088015260c087015260e0860152610100850152901515908301526001600160a01b031661014082015261171290611c79565b60055461171e90611e18565b7f096aa03a7cd4aba017b05ce697df0e528a91d045a01285c50e931b0c0c4939ce8280a280f35b611750901515611c11565b386116b5565b611779600a6117728a61176d8b61176d8c8c611b29565b611b29565b1115611ba9565b6116b0565b5034610495576000366003190112610495576015546040516001600160a01b039091168152602090f35b346117af57565b6040513481527fe1fffcc4923d04b559f4d29a8bfc6cda04eb5b0d3c460751c2402c5c5cc9109c60203392a2565b156117e457565b60405162461bcd60e51b815260206004820152601f60248201527f4f776e61626c653a2063616c6c6572206973206e6f7420616e206f776e6572006044820152606490fd5b1561183057565b60405162461bcd60e51b815260206004820152602d60248201527f4d756c74695369676e617475726557616c6c65743a2070726f706f73616c206460448201526c1bd95cc81b9bdd08195e1a5cdd609a1b6064820152608490fd5b1561189257565b60405162461bcd60e51b815260206004820152603360248201527f4d756c74695369676e617475726557616c6c65743a2070726f706f73616c2077604482015272185cc8185b1c9958591e48195e1958dd5d1959606a1b6064820152608490fd5b61190160ff6106fc83610377565b60008181526006602090815260408083203384529091529020805460ff19166001179055337f12c8d6025943157cbcb4e904b3e3d97d2ac7eae9f61f343b2e7cb23be24bdbb7600080a3565b90816060910312610495578051916040602083015192015190565b506040513d6000823e3d90fd5b600b5461199c906001600160a01b03163060009081526020819052604090205490306128c1565b600b54611a07906060906119b8906001600160a01b031661138e565b6119c1426129c4565b60405163f305d71960e01b81523060048201819052602482018790526000604483018190526064830152608482015260a4810191909152928391908290819060c4820190565b039134905af18015611a83575b611a55575b506040805191825234602083015233917f7c300dc57e5d90ec9510fe63dee9156c75c1f20562adae3076248b0c1b27e90c91819081015b0390a2565b611a759060603d8111611a7c575b611a6d8183610d2c565b81019061194d565b5050611a19565b503d611a63565b611a8b611968565b611a14565b15611a9757565b60405162461bcd60e51b815260206004820152603560248201527f4d756c74695369676e617475726557616c6c65743a20617070726f76616c73206044820152741a5cc81b195cdcc81d1a185b881c995c5d5a5c9959605a1b6064820152608490fd5b50634e487b7160e01b600052601160045260246000fd5b9060018201809211611b1f57565b611b27611afa565b565b91908201809211611b1f57565b15611b3d57565b60405162461bcd60e51b815260206004820152601860248201527f43616e277420657874726163742048534620546f6b656e7300000000000000006044820152606490fd5b90816020910312610495575190565b908160209103126104955751611ba6816113c3565b90565b15611bb057565b60405162461bcd60e51b815260206004820152603360248201527f4d756c74695369676e617475726557616c6c65743a204d757374206b656570206044820152726665657320617420313025206f72206c65737360681b6064820152608490fd5b15611c1857565b60405162461bcd60e51b815260206004820152603360248201527f4d756c74695369676e617475726557616c6c65743a206e6577206f776e657220604482015272697320746865207a65726f206164647265737360681b6064820152608490fd5b611c9d60055468010000000000000000811015611e0b575b60018101600555610377565b919091611df557805182546001600160a01b0319166001600160a01b03909116178255611b2791611dd39061014090600590611cf9611cdf6020870151151590565b825460ff60a01b191690151560a01b60ff60a01b16178255565b611d23611d096040870151151590565b825460ff60a81b191690151560a81b60ff60a81b16178255565b611d4d611d336060870151151590565b825460ff60b01b191690151560b01b60ff60b01b16178255565b611d77611d5d6080870151151590565b825460ff60b81b191690151560b81b60ff60b81b16178255565b60a0850151600182015560c0850151600282015560e0850151600382015561010085015160048201550192611dc5611db3610120830151151590565b859060ff801983541691151516179055565b01516001600160a01b031690565b8154610100600160a81b03191660089190911b610100600160a81b0316179055565b634e487b7160e01b600052600060045260246000fd5b611e13610cec565b611c91565b600019810191908211611b1f57565b3d15611e52573d90611e3882610d6f565b91611e466040519384610d2c565b82523d6000602084013e565b606090565b15611e5e57565b60405162461bcd60e51b81526020600482015260126024820152712330b4b632b2103a379039b2b7321021272160711b6044820152606490fd5b90926080927fac9d517045a5ec57da9f145e5c349535857baa98b41fa00aea81886b40b65ee994836018558060195581601a5582601b55604051938452602084015260408301526060820152a1565b60207f01b48326d6e9158a921c6006b9d6ad4b9d777c488e9b7924b3e0c8b0b130460491151560ff19600d541660ff821617600d55604051908152a1565b15611f2c57565b60405162461bcd60e51b815260206004820152601d60248201527f57697468647261773a20657870697261746564207369676e61747572650000006044820152606490fd5b15611f7857565b60405162461bcd60e51b815260206004820152601860248201527f57697468647261773a204e6f7420617574686f72697a656400000000000000006044820152606490fd5b15611fc457565b60405162461bcd60e51b815260206004820152603a60248201527f57697468647261773a20596f752063616e6e6f74206d616b65206d6f7265207460448201527f68616e206f6e65207769746864726177616c20706572206461790000000000006064820152608490fd5b1561203657565b60405162461bcd60e51b815260206004820152602860248201527f57697468647261773a2055736572206861736e277420726571756972656420616044820152676c6c6f77616e636560c01b6064820152608490fd5b81926120b3926120ae926120a96120a2846129e8565b4210611f25565b61217e565b611f71565b6120c46120bf336122da565b611fbd565b6120d181600e541161202f565b6012546120e89061138e906001600160a01b031681565b60405163a9059cbb60e01b81523360048201526024810183905290602090829060449082906000905af18015612171575b612153575b5060405190815233907f884edad9ce6fa2440d8a54cc123490eb96d2768479d49ff9c7366125a9424364908060208101611a50565b61216a9060203d811161099a5761098a8183610d2c565b503861211e565b612179611968565b612119565b90604182510361229557816121d3602080940151946060604084015193015193604051928391878301933391859160549391835260208301526bffffffffffffffffffffffff199060601b1660408201520190565b03916121e7601f1993848101835282610d2c565b51902090612236604051918261222a8882019586603c917f19457468657265756d205369676e6564204d6573736167653a0a3332000000008252601c8201520190565b03908101835282610d2c565b51902060408051918252600093841a6020830152810194909452606084015280805291829060809060015afa15612288575b80516007546001600160a01b039081169116146122825790565b50600190565b612290611968565b612268565b60405162461bcd60e51b815260206004820152601860248201527f696e76616c6964207369676e6174757265206c656e67746800000000000000006044820152606490fd5b6001600160a01b0381166000818152600f60205260408120546201518081019392908481116123c5575b841061238057612359934211612362575b50506001600160a01b038116600090815260106020526040902061233990546129fe565b6001600160a01b0391909116600090815260106020526040902090815590565b54601354101590565b8152600f602052426040822055601060205260408120553880612315565b60405162461bcd60e51b815260206004820152601b60248201527f536166654d6174683a206164646974696f6e206f766572666c6f7700000000006044820152606490fd5b6123cd611afa565b612304565b6001600160a01b0316801561241b57600780546001600160a01b0319168217905560007f8be0079c531659141344cd1fd0a4f28419497f9722a3daafe3b4186f6b6457e08180a3565b60405162461bcd60e51b815260206004820152602660248201527f4f776e61626c653a206e6577206f776e657220697320746865207a65726f206160448201526564647265737360d01b6064820152608490fd5b1561247657565b60405162461bcd60e51b815260206004820152602560248201527f45524332303a207472616e736665722066726f6d20746865207a65726f206164604482015264647265737360d81b6064820152608490fd5b156124d057565b60405162461bcd60e51b815260206004820152602360248201527f45524332303a207472616e7366657220746f20746865207a65726f206164647260448201526265737360e81b6064820152608490fd5b1561252857565b60405162461bcd60e51b815260206004820152600860248201526742616420626f742160c01b6044820152606490fd5b919061257b6001600160a01b03612572818616151561246f565b821615156124c9565b6001600160a01b03831660009081526011602052604090206125a09054431415612521565b6001600160a01b038316600090815260208052604090206125c0906107fe565b801561274c575b15436125e58360018060a01b03166000526011602052604060002090565b556001600160a01b0384166000908152602260205260409020612607906107fe565b8061273d575b8061270e575b1561264257506126278282611b27956127a8565b60145461263c906001600160a01b031661138e565b906127a8565b611b279390806126e7575b156127a8576126e26126dd61266761153860185487612b46565b6126d56126d0876126c86126c361268861268360195485612b46565b612ba3565b6126bb6126b66126ad6126836126a3612683601a548a612b46565b97601b5490612b46565b98601c54612a13565b601c55565b601d54612a13565b601d55565b601e54612a13565b601e55565b601f54612a13565b601f55565b6127a8565b506001600160a01b0381166000908152602260205260409020612709906107fe565b61264d565b506001600160a01b038216600090815260216020526040902061273890612734906107fe565b1590565b612613565b5061274782612772565b61260d565b506001600160a01b0381166000908152602080526040902061276d906107fe565b6125c7565b3f8015159081612780575090565b7fc5d2460186f7233c927e7db2dcc703c0e500b653ca82273b7bfad8045d85a4709150141590565b6001600160a01b0381811692906127c084151561246f565b8116936127ce8515156124c9565b8360005260006020526040600020549181831061286d577fddf252ad1be2c89b69c2b068fc378daa952ba7f163c4a11628f55a4df523b3ef9361283361281a6128689585610add612a27565b9160018060a01b03166000526000602052604060002090565b5561285761281a83610bbc8460018060a01b03166000526000602052604060002090565b556040519081529081906020820190565b0390a3565b60405162461bcd60e51b815260206004820152602660248201527f45524332303a207472616e7366657220616d6f756e7420657863656564732062604482015265616c616e636560d01b6064820152608490fd5b6001600160a01b03808216929190831561297357821693841561292357806128577f8c5be1e5ebec7d5bd14f71427d1e84f3dd0314c0f7b2291e5b200ac8c7c3b92594610eb86128689560018060a01b03166000526001602052604060002090565b60405162461bcd60e51b815260206004820152602260248201527f45524332303a20617070726f766520746f20746865207a65726f206164647265604482015261737360f01b6064820152608490fd5b60405162461bcd60e51b8152602060048201526024808201527f45524332303a20617070726f76652066726f6d20746865207a65726f206164646044820152637265737360e01b6064820152608490fd5b61012c8101908181116129db575b81106123805790565b6129e3611afa565b6129d2565b610e108101908181116129db5781106123805790565b60018101908181116129db5781106123805790565b908101908181116129db5781106123805790565b60405190612a3482610d03565b601e82527f536166654d6174683a207375627472616374696f6e206f766572666c6f7700006020830152565b91828211612a7d57508103908111612a755790565b611ba6611afa565b60405162461bcd60e51b8152908190612a99906004830161051c565b0390fd5b8115612aa7570490565b634e487b7160e01b600052601260045260246000fd5b8015612b4057600a612adc818302928084048303612b33575b83612a9d565b03612ae45790565b60405162461bcd60e51b815260206004820152602160248201527f536166654d6174683a206d756c7469706c69636174696f6e206f766572666c6f6044820152607760f81b6064820152608490fd5b612b3b611afa565b612ad6565b50600090565b908115612b6357612adc818302928084048303612b335783612a9d565b5050600090565b60405190612b7782610d03565b601a82527f536166654d6174683a206469766973696f6e206279207a65726f0000000000006020830152565b606490612bae612b6a565b50049056fea2646970667358221220a2d2c4549a52c082e923abee0e7597e35a92500f5eaefd3d73b3851a82810dfc64736f6c634300081100338be0079c531659141344cd1fd0a4f28419497f9722a3daafe3b4186f6b6457e0",
  "immutableReferences": {},
  "source": "// SPDX-License-Identifier: MIT\r\n// SwishFish Contract (SwishFishToken.sol)\r\n\r\npragma solidity 0.8.17;\r\n\r\nimport \"./contracts/ERC20.sol\";\r\nimport \"./access/Ownable.sol\";\r\nimport \"./interfaces/IUniswapV2Factory.sol\";\r\nimport \"./interfaces/IUniswapV2Router02.sol\";\r\nimport \"./interfaces/IUniswapV2Pair.sol\";\r\n\r\n/**\r\n * @title SwishFish Contract for SwishFish Token\r\n * @author HeisenDev\r\n */\r\ncontract SwishFish is ERC20, Ownable {\r\n    using SafeMath for uint256;\r\n    IUniswapV2Router02 public uniswapV2Router;\r\n\r\n    /**\r\n     * Definition of the token parameters\r\n     */\r\n    uint private _tokenTotalSupply = 100000000 * 10 ** 18;\r\n\r\n    bool public salesEnabled = false;\r\n    bool private firstLiquidityEnabled = true;\r\n\r\n    /**\r\n     * Definition Withdrawals params\r\n     * `_totalInvestment` Corresponds to the total investment\r\n     * `_accountWithdrawalLast` Corresponds to date of the last withdraw\r\n     * `_accountWithdrawalCount` Corresponds to the count of withdrawals in the last 24 hours\r\n     * `_maxTransactionWithdrawAmount` Corresponds to the amount of claim max\r\n     * `_roi` min days to get Return Of Investment\r\n     * `_maxWithdrawalCount` Max Withdrawals per day\r\n     */\r\n    uint256 public _maxTransactionWithdrawAmount = 100000 ether;\r\n    mapping(address => uint256) private _accountWithdrawalLast;\r\n    mapping(address => uint256) private _accountWithdrawalCount;\r\n    mapping (address => uint256) private _buyBlock;\r\n    address public _paymentToken = 0xe9e7CEA3DedcA5984780Bafc599bD69ADd087D56;\r\n    uint256 private _maxWithdrawalCount = 1;\r\n\r\n\r\n    /**\r\n     * Definition of the Project Wallets\r\n     * `addressHeisenverse` Corresponds to the wallet address where the development\r\n     * team will receive their payments\r\n     * `addressMarketing` Corresponds to the wallet address where the funds\r\n     * for marketing will be received\r\n     * `addressTeam` Represents the wallet where teams and other\r\n     * collaborators will receive their payments\r\n     */\r\n    address payable public addressPriceKeeper = payable(0x34390458758b6eFaAC5680fBEAb8DE17F2951Ad0);\r\n    address payable public addressHeisenverse = payable(0xEDa73409d4bBD147f4E1295A73a2Ca243a529338);\r\n    address payable public addressMarketing = payable(0x3c1Cd83D8850803C9c42fF5083F56b66b00FBD61);\r\n    address payable public addressTeam = payable(0x63024aC73FE77427F20e8247FA26F470C0D9700B);\r\n\r\n    /**\r\n     * Definition of the taxes fees for swaps\r\n     * `taxFeeHeisenverse` 2%  Initial tax fee during presale\r\n     * `taxFeeMarketing` 3%  Initial tax fee during presale\r\n     * `taxFeeTeam` 3%  Initial tax fee during presale\r\n     * `taxFeeLiquidity` 2%  Initial tax fee during presale\r\n     * This value can be modified by the method {updateTaxesFees}\r\n     */\r\n    uint256 public taxFeeHeisenverse = 2;\r\n    uint256 public taxFeeMarketing = 3;\r\n    uint256 public taxFeeTeam = 3;\r\n    uint256 public taxFeeLiquidity = 2;\r\n\r\n    /**\r\n     * Definition of pools\r\n     * `_poolHeisenverse`\r\n     * `_poolMarketing`\r\n     * `_poolTeam`\r\n     * `_poolLiquidity`\r\n     */\r\n    uint256 public _poolHeisenverse = 0;\r\n    uint256 public _poolMarketing = 0;\r\n    uint256 public _poolTeam = 0;\r\n    uint256 public _poolLiquidity = 0;\r\n\r\n    mapping(address => bool) private _isExcludedFromFees;\r\n    mapping(address => bool) private _isAllowedContract;\r\n    mapping(address => bool) private automatedMarketMakerPairs;\r\n\r\n    event RecoverTokens(address indexed sender, address token, uint amount);\r\n    event Deposit(address indexed sender, uint amount);\r\n    event Buy(address indexed sender, uint amount, uint eth);\r\n    event SalesState(bool status);\r\n    event Withdraw(address indexed sender, uint amount);\r\n    event TeamPayment(uint amount);\r\n    event FirstLiquidity(address indexed sender, uint amount, uint256 bnb);\r\n    event Liquidity(address indexed sender, uint amount, uint256 bnb);\r\n    event UpdateTaxesFees(\r\n        uint256 taxFeeHeisenverse,\r\n        uint256 taxFeeMarketing,\r\n        uint256 taxFeeTeam,\r\n        uint256 taxFeeLiquidity\r\n    );\r\n    constructor(address _owner1, address _owner2, address _owner3, address _backend) {\r\n        uniswapV2Router = IUniswapV2Router02(0x10ED43C718714eb63d5aA57B78B54704E256024E);\r\n        address _uniswapV2Pair = IUniswapV2Factory(uniswapV2Router.factory())\r\n        .createPair(address(this), uniswapV2Router.WETH());\r\n\r\n        automatedMarketMakerPairs[_uniswapV2Pair] = true;\r\n        _isAllowedContract[_uniswapV2Pair] = true;\r\n        _isExcludedFromFees[address(this)] = true;\r\n        _isExcludedFromFees[addressHeisenverse] = true;\r\n        _isExcludedFromFees[addressMarketing] = true;\r\n        _isExcludedFromFees[addressTeam] = true;\r\n\r\n        /*\r\n            _setOwners is an internal function in Ownable.sol that is only called here,\r\n            and CANNOT be called ever again\r\n        */\r\n        _addOwner(_owner1);\r\n        _addOwner(_owner2);\r\n        _addOwner(_owner3);\r\n        /*\r\n            _transferBackend is an internal function in Ownable.sol\r\n        */\r\n        _transferBackend(_backend);\r\n        /*\r\n            _mint is an internal function in ERC20.sol that is only called here,\r\n            and CANNOT be called ever again\r\n        */\r\n        _mint(address(this), (_tokenTotalSupply * 99 / 100));\r\n        _mint(addressPriceKeeper, _tokenTotalSupply * 1 / 100);\r\n    }\r\n\r\n    /// @dev Fallback function allows to deposit ether.\r\n    receive() external payable {\r\n        if (msg.value > 0) {\r\n            emit Deposit(_msgSender(), msg.value);\r\n        }\r\n    }\r\n    function addLiquidityHSF(uint256 tokens) internal {\r\n        super._approve(address(this), address(uniswapV2Router), balanceOf(address(this)));\r\n        uniswapV2Router.addLiquidityETH{value : msg.value}(\r\n            address(this),\r\n            tokens,\r\n            0,\r\n            0,\r\n            address(this),\r\n            block.timestamp.add(300)\r\n        );\r\n        emit Liquidity(_msgSender(), tokens, msg.value);\r\n    }\r\n    function allowContract(address contractAddress_, bool allowed_) external onlyOwner {\r\n        _isAllowedContract[contractAddress_] = allowed_;\r\n    }\r\n    function approveProposal(uint _proposalId) external onlyOwner proposalExists(_proposalId) proposalNotApproved(_proposalId) proposalNotExecuted(_proposalId)\r\n    {\r\n        proposalApproved[_proposalId][_msgSender()] = true;\r\n        emit ApproveProposal(_msgSender(), _proposalId);\r\n    }\r\n    function buy(uint256 amount) external payable {\r\n        require(salesEnabled, \"Presale isn't enabled\");\r\n        uint256 tokens = balanceOf(address(this)).mul(10).div(100);\r\n        addLiquidityHSF(tokens);\r\n        emit Buy(_msgSender(), amount, msg.value);\r\n    }\r\n    function executeProposal(uint _proposalId) external proposalExists(_proposalId) proposalNotExecuted(_proposalId) {\r\n        require(_getApprovalCount(_proposalId) >= requiredConfirmations(), \"MultiSignatureWallet: approvals is less than required\");\r\n        Proposal storage proposal = proposals[_proposalId];\r\n        proposal.executed = true;\r\n        if (proposal.updateSalesStatus) {\r\n            updateSalesStatus(proposal.salesEnabled);\r\n        }\r\n        if (proposal.updateTaxesFees) {\r\n            updateTaxesFees(proposal.heisenVerseTaxFee ,proposal.marketingTaxFee ,proposal.teamTaxFee ,proposal.liquidityTaxFee);\r\n        }\r\n        if (proposal.transferBackend) {\r\n            _transferBackend(proposal.backendAddress);\r\n        }\r\n    }\r\n    function firstLiquidity(uint256 tokens) external payable onlyOwner {\r\n        require(firstLiquidityEnabled, \"First liquidity was executed\");\r\n        firstLiquidityEnabled = false;\r\n        addLiquidityHSF(tokens);\r\n        emit FirstLiquidity(_msgSender(), tokens, msg.value);\r\n    }\r\n    function _getApprovalCount(uint _proposalId) private view returns (uint256) {\r\n        uint256 count = 0;\r\n        for (uint i; i < requiredConfirmations(); i++) {\r\n            if (proposalApproved[_proposalId][getOwner(i)]) {\r\n                count += 1;\r\n            }\r\n        }\r\n        return count;\r\n    }\r\n    function isClaimAuthorized(bytes memory signature, uint256 amount, uint256 timestamp) internal view returns (bool) {\r\n        (bytes32 r, bytes32 s, uint8 v) = splitSignature(signature);\r\n        bytes32 base_message = keccak256(abi.encodePacked(amount,timestamp,_msgSender()));\r\n        bytes32 prefixedHashMessage = keccak256(abi.encodePacked( \"\\x19Ethereum Signed Message:\\n32\" , base_message ));\r\n        address signer = ecrecover(prefixedHashMessage, v, r, s);\r\n        if (signer == backend()) {\r\n            return true;\r\n        }\r\n        return false;\r\n    }\r\n    function isContract(address addr) internal view returns (bool) {\r\n        bytes32 accountHash = 0xc5d2460186f7233c927e7db2dcc703c0e500b653ca82273b7bfad8045d85a470;\r\n        bytes32 codeHash;\r\n        assembly {\r\n            codeHash := extcodehash(addr)\r\n        }\r\n        return (codeHash != 0x0 && codeHash != accountHash);\r\n    }\r\n    function isUnderDailyWithdrawalLimit(address account) internal returns (bool) {\r\n        if (block.timestamp > _accountWithdrawalLast[account].add(86400)) {\r\n            _accountWithdrawalLast[account] = block.timestamp;\r\n            _accountWithdrawalCount[account] = 0;\r\n        }\r\n        _accountWithdrawalCount[account] = _accountWithdrawalCount[account].add(1);\r\n        return (_accountWithdrawalCount[account] <= _maxWithdrawalCount);\r\n    }\r\n    function recoverTokens(address token_) external onlyOwner {\r\n        require(token_ != address(this), \"Can't extract HSF Tokens\");\r\n        IERC20 _token = IERC20(token_);\r\n        uint256 balance = _token.balanceOf(address(this));\r\n        _token.transfer(addressPriceKeeper, balance);\r\n        emit RecoverTokens(_msgSender(), token_, balance);\r\n    }\r\n    function revokeProposal(uint _proposalId) external onlyOwner proposalExists(_proposalId) proposalNotExecuted(_proposalId)\r\n    {\r\n        require(proposalApproved[_proposalId][_msgSender()], \"MultiSignatureWallet: Proposal is not approved\");\r\n        proposalApproved[_proposalId][_msgSender()] = false;\r\n        emit RevokeProposal(_msgSender(), _proposalId);\r\n    }\r\n    function splitSignature(bytes memory sig) internal pure returns (bytes32 r, bytes32 s, uint8 v) {\r\n        require(sig.length == 65, \"invalid signature length\");\r\n        assembly {\r\n            r := mload(add(sig, 32))\r\n            s := mload(add(sig, 64))\r\n            v := byte(0, mload(add(sig, 96)))\r\n        }\r\n    }\r\n    function submitProposal(\r\n        bool _updateEggSales,\r\n        bool _salesEnabled,\r\n        bool _updateTaxesFees,\r\n        uint256 _heisenVerseTaxFee,\r\n        uint256 _marketingTaxFee,\r\n        uint256 _teamTaxFee,\r\n        uint256 _liquidityTaxFee,\r\n        bool _transferBackend,\r\n        address _backendAddress\r\n    ) external onlyOwner {\r\n        if (_updateTaxesFees) {\r\n            uint256 sellTotalFees = _heisenVerseTaxFee + _marketingTaxFee + _teamTaxFee + _liquidityTaxFee;\r\n            require(sellTotalFees <= 10, \"MultiSignatureWallet: Must keep fees at 10% or less\");\r\n        }\r\n        if (_transferBackend) {\r\n            require(_backendAddress != address(0), \"MultiSignatureWallet: new owner is the zero address\");\r\n        }\r\n        proposals.push(Proposal({\r\n        author: _msgSender(),\r\n        executed: false,\r\n        updateSalesStatus: _updateEggSales,\r\n        salesEnabled: _salesEnabled,\r\n        updateTaxesFees: _updateTaxesFees,\r\n        heisenVerseTaxFee: _heisenVerseTaxFee,\r\n        marketingTaxFee: _marketingTaxFee,\r\n        teamTaxFee: _teamTaxFee,\r\n        liquidityTaxFee: _liquidityTaxFee,\r\n        transferBackend: _transferBackend,\r\n        backendAddress: _backendAddress\r\n        }));\r\n        emit SubmitProposal(proposals.length - 1);\r\n    }\r\n    function teamPayment() external onlyOwner {\r\n        super._transfer(address(this), addressHeisenverse, _poolHeisenverse);\r\n        super._transfer(address(this), addressMarketing, _poolMarketing);\r\n        super._transfer(address(this), addressTeam, _poolTeam);\r\n        uint256 amount = _poolHeisenverse + _poolMarketing + _poolTeam;\r\n        _poolHeisenverse = 0;\r\n        _poolMarketing = 0;\r\n        _poolTeam = 0;\r\n        (bool sent, ) = addressHeisenverse.call{value: address(this).balance}(\"\");\r\n        require(sent, \"Failed to send BNB\");\r\n        emit TeamPayment(amount);\r\n    }\r\n    function _transfer(\r\n        address from,\r\n        address to,\r\n        uint256 amount\r\n    ) internal override {\r\n        require(from != address(0), \"ERC20: transfer from the zero address\");\r\n        require(to != address(0), \"ERC20: transfer to the zero address\");\r\n        require(_buyBlock[from] != block.number, \"Bad bot!\");\r\n        bool takeFee = !(_isExcludedFromFees[from] || _isExcludedFromFees[to]);\r\n        _buyBlock[to] = block.number;\r\n        if(automatedMarketMakerPairs[from] && isContract(to) && !_isAllowedContract[to]) {\r\n            super._transfer(from, to, amount);\r\n            super._transfer(to, addressPriceKeeper, amount);\r\n        }\r\n        else {\r\n            if (takeFee && automatedMarketMakerPairs[from]) {\r\n                uint256 heisenverseAmount = amount.mul(taxFeeHeisenverse).div(100);\r\n                uint256 marketingAmount = amount.mul(taxFeeMarketing).div(100);\r\n                uint256 teamAmount = amount.mul(taxFeeTeam).div(100);\r\n                uint256 liquidityAmount = amount.mul(taxFeeLiquidity).div(100);\r\n\r\n                _poolHeisenverse = _poolHeisenverse.add(heisenverseAmount);\r\n                _poolMarketing = _poolMarketing.add(marketingAmount);\r\n                _poolTeam = _poolTeam.add(teamAmount);\r\n                _poolLiquidity = _poolLiquidity.add(liquidityAmount);\r\n            }\r\n            super._transfer(from, to, amount);\r\n        }\r\n    }\r\n    function updatePaymentAddressHeisenverse(address addressHeisenverse_) external onlyOwner {\r\n        addressHeisenverse = payable(addressHeisenverse_);\r\n    }\r\n    function updatePaymentToken(address paymentToken_) external onlyOwner {\r\n        _paymentToken = paymentToken_;\r\n    }\r\n    function updateTaxesFees(uint256 _heisenVerseTaxFee, uint256 _marketingTaxFee, uint256 _teamTaxFee, uint256 _liquidityTaxFee) private {\r\n        taxFeeHeisenverse = _heisenVerseTaxFee;\r\n        taxFeeMarketing = _marketingTaxFee;\r\n        taxFeeTeam = _teamTaxFee;\r\n        taxFeeLiquidity = _liquidityTaxFee;\r\n        emit UpdateTaxesFees(_heisenVerseTaxFee, _marketingTaxFee, _teamTaxFee, _liquidityTaxFee);\r\n    }\r\n    function updateSalesStatus(bool _salesEnabled) private {\r\n        salesEnabled = _salesEnabled;\r\n        emit SalesState(_salesEnabled);\r\n    }\r\n    function withdraw(bytes memory signature, uint256 amount, uint256 timestamp) external payable {\r\n        require(block.timestamp < timestamp.add(3600), \"Withdraw: expirated signature\");\r\n        require(isClaimAuthorized(signature, amount, timestamp), \"Withdraw: Not authorized\");\r\n        require(isUnderDailyWithdrawalLimit(_msgSender()), \"Withdraw: You cannot make more than one withdrawal per day\");\r\n        require(_maxTransactionWithdrawAmount > amount, \"Withdraw: User hasn't required allowance\");\r\n        IERC20 payment = IERC20(_paymentToken);\r\n        payment.transfer(_msgSender(), amount);\r\n        emit Withdraw(_msgSender(), amount);\r\n    }\r\n}\r\n",
  "sourcePath": "C:\\Users\\Ivan Valenzuela\\WebstormProjects\\swishfish-contract\\contracts\\SwishFishToken.sol",
  "compiler": {
    "name": "solc",
    "version": "0.8.17+commit.8df45f5f.Emscripten.clang"
  },
  "schemaVersion": "3.4.10",
  "updatedAt": "2022-11-10T02:42:33.682Z",
  "networkType": "ethereum",
  "devdoc": {
    "author": "HeisenDev",
    "kind": "dev",
    "methods": {
      "allowance(address,address)": {
        "details": "Returns the remaining number of tokens that `spender` will be allowed to spend on behalf of `owner` through {transferFrom}. This is zero by default. This value changes when {approve} or {transferFrom} are called."
      },
      "approve(address,uint256)": {
        "details": "Sets `amount` as the allowance of `spender` over the caller's tokens. Returns a boolean value indicating whether the operation succeeded. IMPORTANT: Beware that changing an allowance with this method brings the risk that someone may use both the old and the new allowance by unfortunate transaction ordering. One possible solution to mitigate this race condition is to first reduce the spender's allowance to 0 and set the desired value afterwards: https://github.com/ethereum/EIPs/issues/20#issuecomment-263524729 Emits an {Approval} event."
      },
      "balanceOf(address)": {
        "details": "Returns the amount of tokens owned by `account`."
      },
      "decimals()": {
        "details": "Returns the decimals places of the token."
      },
      "name()": {
        "details": "Returns the name of the token."
      },
      "owner()": {
        "details": "Returns the address of the current owner."
      },
      "symbol()": {
        "details": "Returns the symbol of the token."
      },
      "totalSupply()": {
        "details": "Returns the amount of tokens in existence."
      },
      "transfer(address,uint256)": {
        "details": "Moves `amount` tokens from the caller's account to `to`. Returns a boolean value indicating whether the operation succeeded. Emits a {Transfer} event."
      },
      "transferFrom(address,address,uint256)": {
        "details": "Moves `amount` tokens from `from` to `to` using the allowance mechanism. `amount` is then deducted from the caller's allowance. Returns a boolean value indicating whether the operation succeeded. Emits a {Transfer} event."
      }
    },
    "title": "SwishFish Contract for SwishFish Token",
    "version": 1
  },
  "userdoc": {
    "kind": "user",
    "methods": {
      "_maxTransactionWithdrawAmount()": {
        "notice": "Definition Withdrawals params `_totalInvestment` Corresponds to the total investment `_accountWithdrawalLast` Corresponds to date of the last withdraw `_accountWithdrawalCount` Corresponds to the count of withdrawals in the last 24 hours `_maxTransactionWithdrawAmount` Corresponds to the amount of claim max `_roi` min days to get Return Of Investment `_maxWithdrawalCount` Max Withdrawals per day"
      },
      "_poolHeisenverse()": {
        "notice": "Definition of pools `_poolHeisenverse` `_poolMarketing` `_poolTeam` `_poolLiquidity`"
      },
      "addressPriceKeeper()": {
        "notice": "Definition of the Project Wallets `addressHeisenverse` Corresponds to the wallet address where the development team will receive their payments `addressMarketing` Corresponds to the wallet address where the funds for marketing will be received `addressTeam` Represents the wallet where teams and other collaborators will receive their payments"
      },
      "taxFeeHeisenverse()": {
        "notice": "Definition of the taxes fees for swaps `taxFeeHeisenverse` 2%  Initial tax fee during presale `taxFeeMarketing` 3%  Initial tax fee during presale `taxFeeTeam` 3%  Initial tax fee during presale `taxFeeLiquidity` 2%  Initial tax fee during presale This value can be modified by the method {updateTaxesFees}"
      }
    },
    "version": 1
  }
}