{
	"data": {
		"bytecode": {
			"linkReferences": {},
			"object": "608060409080825234620006715760808162003668803803809162000025828562000676565b83398101031262000671576200003b81620006c8565b60206200004a818401620006c8565b916200006660606200005e878701620006c8565b9501620006c8565b9262000074600354620006dd565b90601f9182811162000643575b5060127f537769736846697368000000000000000000000000000000000000000000000001600355600495620000b88754620006dd565b83811162000616575b5060067f5346480000000000000000000000000000000000000000000000000000000000018755600160a060020a031991338360085416176008558851946000976000805160206200364883398151915296338a898180a36b033b2e3c9fd0803ce8000000600c5561010061ffff19600d541617600d556611c37937e080006011556001918260125569d3c21bcecceda100000060135573eda73409d4bbd147f4e1295a73a2ca243a529338876014541617601455733c1cd83d8850803c9c42ff5083f56b66b00fbd618760155416176015557363024ac73fe77427f20e8247fa26f470c0d9700b8760165416176016556002601755600360185560036019556002601a558a601b558a601c558a601d558a601e557fc45a01550000000000000000000000000000000000000000000000000000000082528b8a837310ed43c718714eb63d5aa57b78b54704e256024e9281845afa9283156200060c578b8f8f928f96620005c0575b505180927fad5c464800000000000000000000000000000000000000000000000000000000825281855afa9081156200056a578f918f8f94938f93869362000575575b50906044915195869384927fc9c653960000000000000000000000000000000000000000000000000000000084523090840152600160a060020a03998a8092166024850152165af19182156200056a57928f928d908f9b9a99989795938d97948d92620004ee575b50600b80548d1690911790558316808c5260218252848c20805460ff19908116881790915530808e52978352858d20805482168817905560145485168d52858d20805482168817905560155485168d52858d20805482168817905560165485168d52858d208054821688179055968c52908052838b2080548716861790558a52828a20805486168517905516808952972080549092161790556200038792916200038191829062000734565b62000734565b81156200046c5781906007541617600755848751938180a3600c5494301562000415575050507fddf252ad1be2c89b69c2b068fc378daa952ba7f163c4a11628f55a4df523b3ef90620003dd846002546200091e565b600255308352828152620003f584868520546200091e565b3084528382528584205584519384523093a351612c869081620009c28239f35b926064937f08c379a000000000000000000000000000000000000000000000000000000000845283015260248201527f45524332303a206d696e7420746f20746865207a65726f2061646472657373006044820152fd5b608487868a51917f08c379a0000000000000000000000000000000000000000000000000000000008352820152602660248201527f4f776e61626c653a206e6577206f776e657220697320746865207a65726f206160448201527f64647265737300000000000000000000000000000000000000000000000000006064820152fd5b949750945050909395969798995081813d831162000562575b62000513818362000676565b810103126200055e5762000381948f858f9b9a9894958f838f968f909a8f620003879f9c9b62000547620003819d620006c8565b975095989b5050979a9c9d505050929598620002d5565b8c80fd5b503d62000507565b508e513d8e823e3d90fd5b94955050505081813d8311620005b8575b62000592818362000676565b810103126200055e57908b8f8f8f9490620005af604492620006c8565b9290916200026d565b503d62000586565b9394955050905081813d831162000604575b620005de818362000676565b810103126200060057908c8b8f9493620005f890620006c8565b94386200022a565b8b80fd5b503d620005d2565b8e513d8e823e3d90fd5b600088815286858183209301048201915b82811062000637575050620000c1565b81815560010162000627565b60006003815285848183209301048201915b8281106200066557505062000081565b81815560010162000655565b600080fd5b90601f8019910116810190811067ffffffffffffffff8211176200069957604052565b7f4e487b7100000000000000000000000000000000000000000000000000000000600052604160045260246000fd5b5190600160a060020a03821682036200067157565b906001600283049216801562000729575b6020831014620006fa57565b7f4e487b7100000000000000000000000000000000000000000000000000000000600052602260045260246000fd5b91607f1691620006ee565b600160a060020a031680156200089a576000818152600a60205260ff6040822054166200083c57818152600a60205260408120805460ff19166001179055600954680100000000000000008110156200080f576001810180600955811015620007e257600982527f6e1540171b6c0c960b71a7020d9f60077f6af931a8bbf590da0223dacf75c7af018054600160a060020a03191683179055600080516020620036488339815191528180a3565b6024827f4e487b710000000000000000000000000000000000000000000000000000000081526032600452fd5b6024827f4e487b710000000000000000000000000000000000000000000000000000000081526041600452fd5b60646040517f08c379a000000000000000000000000000000000000000000000000000000000815260206004820152601c60248201527f4f776e61626c653a204f776e6572206973206e6f7420756e69717565000000006044820152fd5b60846040517f08c379a000000000000000000000000000000000000000000000000000000000815260206004820152602260248201527f4f776e61626c653a204f776e657220697320746865207a65726f20616464726560448201527f73730000000000000000000000000000000000000000000000000000000000006064820152fd5b9081019081811162000992578110620009345790565b60646040517f08c379a000000000000000000000000000000000000000000000000000000000815260206004820152601b60248201527f536166654d6174683a206164646974696f6e206f766572666c6f7700000000006044820152fd5b7f4e487b7100000000000000000000000000000000000000000000000000000000600052601160045260246000fdfe608060409080825260049081361015610053575b5050361561002057600080fd5b3461002757005b513481527fe1fffcc4923d04b559f4d29a8bfc6cda04eb5b0d3c460751c2402c5c5cc9109c60203392a2005b6000917c0100000000000000000000000000000000000000000000000000000000833504918263013cf08b14611e525750816306fdde0314611d5b578163095ea7b314611d315781630abdc64014611d095781630d61b519146119125781631694505e146118ea57816318160ddd146118cb5781631b45a47a146118ac57816323b872dd146117d25781632a9af7ba146117b3578163313ce56714611797578163392627731461177857816339509351146117305781633ccfd60b146114ff578163553000c1146114e0578163562e9df9146114b857816370a08231146114825781637918447e146114635781637a594a2b1461143b5781637d81936c1461141c5781638198c34114610f3957816385a6a09114610e245781638da5cb5b14610dfc578163933f5e0714610ddd57816395d89b4114610cd757816398951b5614610bb65781639e5cd74a14610b97578163a457c2d714610aba578163a6f2ae3a14610a4f578163a9059cbb14610a1e578163b6bba0ae146109ff578163c84ad9a5146109db578163d7196dd914610873578163d8a0f828146107fb578163dce165a61461029957508063dd62ed3e146102505763fe7441e7146102165780610013565b903461024c57602036600319011261024c5780602092600160a060020a0361023c61212a565b168152600e845220549051908152f35b5080fd5b50903461024c578060031936011261024c578060209261026e61212a565b610276612145565b600160a060020a0391821683526001865283832091168252845220549051908152f35b905082346107f757610180806003193601126107f3578383359182151580930361024c576024938435918215158093036107f357604435948515158096036107ef5760643593841515968786036107eb5760a4359788151590818a036107e757610144358015159a8b82036107e3576101643599600160a060020a039b8c8c16809c036107e05760ff8b61033792338152600a6020522054166121a9565b610764575b6106d0575b610660575b8651966101c0880188811067ffffffffffffffff82111761064a57908e918152338952602089019182528801958652606088019485526080880193845260a0880191825260c0880191608435835260e0890193845261010089019460c43586526101208a019660e43588526101408b0198610104358a526101608c019a610124358c528c019e8f526101a08c019c8d5260055468010000000000000000811015610630578060016103fa920160055561208d565b9c909c61061757518c5495519151925193519451151578010000000000000000000000000000000000000000000000000278ff00000000000000000000000000000000000000000000000016941515770100000000000000000000000000000000000000000000000277ff0000000000000000000000000000000000000000000000169315157601000000000000000000000000000000000000000000000276ff000000000000000000000000000000000000000000001692151575010000000000000000000000000000000000000000000275ff0000000000000000000000000000000000000000001691151560a060020a0274ff000000000000000000000000000000000000000016908f1678ffffffffffffffffffffffffffffffffffffffffffffffffff1990961695909517949094179390931792909217919091171787555160018701555160028601805460ff191691151560ff1691909117905551600385015551888401555160058301555160068201556007019251151561058e90849060ff801983541691151516179055565b51168154906101000274ffffffffffffffffffffffffffffffffffffffff00169074ffffffffffffffffffffffffffffffffffffffff0019161790556005549160001983019283116106035750507f096aa03a7cd4aba017b05ce697df0e528a91d045a01285c50e931b0c0c4939ce8280a280f35b6011849160e060020a634e487b7102835252fd5b50505050508b8e808f60e060020a634e487b7102825252fd5b50505050508b8e60418f60e060020a634e487b7102835252fd5b508b8e60418f60e060020a634e487b7102835252fd5b876103465760848c60338d60208b519360e560020a62461bcd0285528401528201527f4d756c74695369676e617475726557616c6c65743a206e6577206f776e65722060448201527f697320746865207a65726f2061646472657373000000000000000000000000006064820152fd5b600a6106f3610124356106ee610104356106ee60e43560c4356121f7565b6121f7565b11156103415760848d60338e60208c519360e560020a62461bcd0285528401528201527f4d756c74695369676e617475726557616c6c65743a204d757374206b6565702060448201527f6665657320617420313025206f72206c657373000000000000000000000000006064820152fd5b6611c37937e08000601154111561033c5760848e603c8f60208d519360e560020a62461bcd0285528401528201527f4d756c74695369676e617475726557616c6c65743a204d757374206b6565702060448201527f3530303030303030303030303030303020576569206f72206c657373000000006064820152fd5b80fd5b8a80fd5b8880fd5b8680fd5b8480fd5b8380fd5b8280fd5b83915060203660031901126107f7577fc5d4fbaddd2087d369f5cf16ad7544f41ef0dc291b510e4cb1cb6e6eaae745399161086b602092338652600a845261084860ff84882054166121a9565b600d5461085b60ff61010083041661215b565b61ff001916600d55349035612274565b51348152a180f35b905082346107f757826003193601126107f757338352600a60205261089d60ff82852054166121a9565b600160a060020a03916108b88360145416601b549030612836565b6108ca8360155416601c549030612836565b6108dc8360165416601d549030612836565b838080806108fb6108f2601b54601c54906121f7565b601d54906121f7565b9681601b5581601c5581601d55601454163031905af13d156109d6573d67ffffffffffffffff81116109c05783519061093e601f8201601f191660200183612252565b81528560203d92013e5b1561097b57507f21a3a3648d0b2afc084acd733d71600b506fa4eca7ef1f5e24718c5e17f4e7ff9160209151908152a180f35b6020606492519160e560020a62461bcd028352820152601260248201527f4661696c656420746f2073656e6420424e4200000000000000000000000000006044820152fd5b60248660418560e060020a634e487b7102835252fd5b610948565b82843461024c578160031936011261024c5760209060ff600d541690519015158152f35b82843461024c578160031936011261024c576020906019549051908152f35b82843461024c578060031936011261024c57602090610a48610a3e61212a565b602435903361275f565b5160018152f35b82848160031936011261024c57610a80610a9391610a7160ff600d541661215b565b30845283602052832054612bd1565b610a88612c17565b506064349104612274565b7f6cd8c20496fa31dba3f83c7adca278c356a6caa5529741a5d2b9b774613c198b8180a180f35b919050346107e057826003193601126107e057610ad561212a565b9183602435923381526001602052818120600160a060020a0386168252602052205490828210610b2b57602085610a4886610b248787610b1f610b16612a8d565b82841115612ac6565b6123d7565b903361293e565b608490602086519160e560020a62461bcd028352820152602560248201527f45524332303a2064656372656173656420616c6c6f77616e63652062656c6f7760448201527f207a65726f0000000000000000000000000000000000000000000000000000006064820152fd5b82843461024c578160031936011261024c576020906017549051908152f35b905082346107f7576020806003193601126107f357823592338552600a8252610be460ff84872054166121a9565b610bf160055485106123e4565b83855260068252828520338652825260ff8386205416610c6d5750610c2960ff60a060020a610c1f8661208d565b5054041615612458565b8284526006815281842090338552528220600160ff19825416179055337f12c8d6025943157cbcb4e904b3e3d97d2ac7eae9f61f343b2e7cb23be24bdbb78380a380f35b90608492519160e560020a62461bcd028352820152603c60248201527f4d756c74695369676e617475726557616c6c65743a2070726f706f73616c206160448201527f6c72656164792077617320617070726f766564206279206f776e6572000000006064820152fd5b905082346107f757826003193601126107f757805191838154916002830491600191828516948515610dd3575b6020958686108114610dbd57858952908115610d9a5750600114610d42575b610d3e8787610d34828c0383612252565b51918291826120e1565b0390f35b81529295507f8a35acfbc15ff81a39ae7d344fd709f28e8600b4aa8c65c6b64bfe7fe36bd19b5b828410610d875750505082610d3e94610d3492820101948680610d23565b8054868501880152928601928101610d69565b60ff19168887015250505050151581028301019250610d3482610d3e8680610d23565b60248460228560e060020a634e487b7102835252fd5b93607f1693610d04565b82843461024c578160031936011261024c57602090601a549051908152f35b82843461024c578160031936011261024c57602090600160a060020a03600854169051908152f35b905082346107f7576020806003193601126107f357823592338552600a8252610e5260ff84872054166121a9565b610e5f60055485106123e4565b610e7260ff60a060020a610c1f8761208d565b83855260068252828520338652825260ff838620541615610ecf5750828452600681528184209033855252822060ff198154169055337fb8b1cbdd07c030bed9e01f4ee5465e3a3fd2aa8f7135c84467c0f3cf203925eb8380a380f35b90608492519160e560020a62461bcd028352820152602e60248201527f4d756c74695369676e617475726557616c6c65743a2050726f706f73616c206960448201527f73206e6f7420617070726f7665640000000000000000000000000000000000006064820152fd5b905082346107f75760603660031901126107f757610f5561212a565b906024803593604490813590600160a060020a03928360075416943386036113b2578489981694858b52602096600a885260ff898d20541661136f57861461132c57806014541686146112e957806015541686146112a65760165416851461126357604b841161122057848a52600e8652868a20546111dd57601354891161117457505050610fe660649187612bf2565b610fee612c17565b5004946017549060185461100281846121f7565b9261101060195480956121f7565b908161103857505050505061102b600e939495601b54612a78565b601b555b85525282205580f35b611049919294999395979850612bb0565b81611052612c17565b5061105c91612af1565b9261106690612bb0565b8161106f612c17565b5061107991612af1565b9761108390612bb0565b9061108c612c17565b5061109691612af1565b916110a19082612bf2565b6110a9612c17565b5060649004966110b99082612bf2565b6110c1612c17565b5060649004916110d091612bf2565b6110d8612c17565b506064900491866110e7612a8d565b6110f49083831115612ac6565b6110fd916123d7565b81611106612a8d565b6111139083831115612ac6565b61111c916123d7565b82611125612a8d565b6111329083831115612ac6565b61113b916123d7565b95601b549061114991612a78565b601b55601c549061115991612a78565b601c55601d549061116991612a78565b601d55600e9161102f565b6084929160387f416d6f756e742063616e2774206578636565647320746865206d61782074726192888a519560e560020a62461bcd0287528601528401528201527f6e73616374696f6e20776974686472617720616d6f756e7400000000000000006064820152fd5b60649291601c7f55736572206861732070656e64696e67205769746864726177616c730000000092888a519560e560020a62461bcd028752860152840152820152fd5b6064929160197f546865206665652063616e6e6f7420657863656564203735250000000000000092888a519560e560020a62461bcd028752860152840152820152fd5b60649291601b7f5465616d2063616e2774206d616b65207769746864726177616c73000000000092888a519560e560020a62461bcd028752860152840152820152fd5b6064847f536b796c65722063616e2774206d616b65207769746864726177616c7300000085601d868c8e519560e560020a62461bcd028752860152840152820152fd5b6064847f48656973656e2063616e2774206d616b65207769746864726177616c7300000085601d868c8e519560e560020a62461bcd028752860152840152820152fd5b6064847f4261636b656e642063616e2774206d616b65207769746864726177616c73000085601e868c8e519560e560020a62461bcd028752860152840152820152fd5b6064857f4f776e6572732063616e2774206d616b65207769746864726177616c7300000086601d878d8f519560e560020a62461bcd028752860152840152820152fd5b6084929160227f4f776e61626c653a2063616c6c6572206973206e6f7420746865206261636b659260208a519560e560020a62461bcd0287528601528401528201527f6e640000000000000000000000000000000000000000000000000000000000006064820152fd5b82843461024c578160031936011261024c576020906018549051908152f35b82843461024c578160031936011261024c57602090600160a060020a03601454169051908152f35b82843461024c578160031936011261024c576020906011549051908152f35b82843461024c57602036600319011261024c5780602092600160a060020a036114a961212a565b16815280845220549051908152f35b82843461024c578160031936011261024c57602090600160a060020a03601654169051908152f35b82843461024c578160031936011261024c57602090601d549051908152f35b90508160031936011261024c57338252602090600f825283832054620151808101908181116117005781106116bb574211611716575b338352601082528383205460018101908181116117005781106116bb57338452601083528484205583832054601254106116515760115434106115c157507f5b6b431d4476a211bb7d41c20d1aab9ae2321deee0d20be3d9fc9b1093fa6e3d9192338452600e825280842054906115ad823330612836565b338552600e8352848181205551908152a180f35b60a49184519160e560020a62461bcd028352820152604460248201527f54686520616d6f756e742073656e74206973206e6f7420657175616c20746f2060448201527f74686520424e4220616d6f756e7420726571756972656420666f72207769746860648201527f64726177000000000000000000000000000000000000000000000000000000006084820152fd5b60849184519160e560020a62461bcd028352820152603060248201527f596f752063616e6e6f74206d616b65206d6f7265207468616e206f6e6520776960448201527f746864726177616c2070657220646179000000000000000000000000000000006064820152fd5b5060649184519160e560020a62461bcd028352820152601b60248201527f536166654d6174683a206164646974696f6e206f766572666c6f7700000000006044820152fd5b60248560118560e060020a634e487b7102835252fd5b338352600f82524284842055601082528284812055611535565b82843461024c578060031936011261024c57610a48602092610b2461175361212a565b9133815260018652848120600160a060020a0384168252865284602435912054612a78565b82843461024c578160031936011261024c57602090601b549051908152f35b82843461024c578160031936011261024c576020905160128152f35b82843461024c578160031936011261024c57602090601e549051908152f35b90503461024c57606036600319011261024c576117ed61212a565b6117f5612145565b918460443594600160a060020a038416815260016020528181203382526020522054906000198203611830575b602086610a4887878761275f565b848210611866575091839161185b61185460209796610a4896610b1f610b16612a8d565b338361293e565b919394819350611822565b606490602087519160e560020a62461bcd028352820152601d60248201527f45524332303a20696e73756666696369656e7420616c6c6f77616e63650000006044820152fd5b82843461024c578160031936011261024c57602090601c549051908152f35b82843461024c578160031936011261024c576020906002549051908152f35b82843461024c578160031936011261024c57602090600160a060020a03600b54169051908152f35b839150346107f757602090816003193601126107f357803561193760055482106123e4565b6119408161208d565b5060ff916119588360a060020a809454041615612458565b60095487805b828110611c8a575010611c1f579061197760079261208d565b509074ff000000000000000000000000000000000000000019825416178082558584807501000000000000000000000000000000000000000000840416611bc5575b9150507701000000000000000000000000000000000000000000000082540416611b89575b82780100000000000000000000000000000000000000000000000082540416611b53575b82600282015416611af4575b018054918216611a1c578580f35b600160a060020a03928361010080940416908115611a89575080600160a060020a03196007541617600755867f8be0079c531659141344cd1fd0a4f28419497f9722a3daafe3b4186f6b6457e08180a3540416835280528120805460ff1916600117905581808080808580f35b6084908688519160e560020a62461bcd028352820152602660248201527f4f776e61626c653a206e6577206f776e657220697320746865207a65726f206160448201527f64647265737300000000000000000000000000000000000000000000000000006064820152fd5b7fac9d517045a5ec57da9f145e5c349535857baa98b41fa00aea81886b40b65ee96080600383015486840154600585015460068601549183601755806018558160195582601a558b519384528a8401528a8301526060820152a1611a0e565b7f7752c7a6d518ab1cf03b50e7d7fd3da3258eb319dc343789e0a7bed06c43066c856001830154806011558851908152a1611a02565b611bbc3031611b99601e546124cc565b3089528887526064611bad898b2054612b14565b611bb5612c17565b5004612274565b86601e556119de565b7601000000000000000000000000000000000000000000007f01b48326d6e9158a921c6006b9d6ad4b9d777c488e9b7924b3e0c8b0b1304604930416151560ff19600d541686821617600d558851908152a18785846119b9565b6084848688519160e560020a62461bcd028352820152603560248201527f4d756c74695369676e617475726557616c6c65743a20617070726f76616c732060448201527f6973206c657373207468616e20726571756972656400000000000000000000006064820152fd5b838a5260068852888a20600160a060020a03827f6e1540171b6c0c960b71a7020d9f60077f6af931a8bbf590da0223dacf75c7af0154168b52885285898b205416611cf7575b6000198114611ce15760010161195e565b60248a60118960e060020a634e487b7102835252fd5b9060018101809111611ce15790611cd0565b82843461024c578160031936011261024c57602090600160a060020a03601554169051908152f35b82843461024c578060031936011261024c57602090610a48611d5161212a565b602435903361293e565b905082346107f757826003193601126107f7578051918360035460028104916001918281168015611e48575b6020958686108214611e325750848852908115611e115750600114611db8575b610d3e8686610d34828b0383612252565b929550600383527fc2575a0e9e593c00f959f8c92f12db2869c3395a3b0502d05e2516446f71f85b5b828410611dfe5750505082610d3e94610d34928201019486611da7565b8054868501880152928601928101611de1565b60ff191687860152505050151581028301019250610d3482610d3e86611da7565b83602260249260e060020a634e487b7102835252fd5b93607f1693611d87565b848492346107f35760203660031901126107f357356005548110156107f35760089060056101c0955202807f036b6384b5eca791c62761152d0c79bb0604c104a5fb6f4eb0703f3154bb3db001547f036b6384b5eca791c62761152d0c79bb0604c104a5fb6f4eb0703f3154bb3db18201549160ff90817f036b6384b5eca791c62761152d0c79bb0604c104a5fb6f4eb0703f3154bb3db282015416937f036b6384b5eca791c62761152d0c79bb0604c104a5fb6f4eb0703f3154bb3db3820154947f036b6384b5eca791c62761152d0c79bb0604c104a5fb6f4eb0703f3154bb3db4830154907f036b6384b5eca791c62761152d0c79bb0604c104a5fb6f4eb0703f3154bb3db5840154928578010000000000000000000000000000000000000000000000007f036b6384b5eca791c62761152d0c79bb0604c104a5fb6f4eb0703f3154bb3db77f036b6384b5eca791c62761152d0c79bb0604c104a5fb6f4eb0703f3154bb3db6880154970154988c600160a060020a039c8d831682528460a060020a8404161515602083015284750100000000000000000000000000000000000000000084041615159101528c60608476010000000000000000000000000000000000000000000084041615159101528c6080847701000000000000000000000000000000000000000000000084041615159101520416151560a08b015260c08a0152151560e089015261010095868901526101208801526101408701526101608601528116151561018085015204166101a0820152f35b6005548110156120c8576008906005600052027f036b6384b5eca791c62761152d0c79bb0604c104a5fb6f4eb0703f3154bb3db00190600090565b60e060020a634e487b7102600052603260045260246000fd5b6020808252825181830181905290939260005b82811061211657505060409293506000838284010152601f8019910116010190565b8181018601518482016040015285016120f4565b60043590600160a060020a038216820361214057565b600080fd5b60243590600160a060020a038216820361214057565b1561216257565b606460405160e560020a62461bcd02815260206004820152601560248201527f50726573616c652069736e277420656e61626c656400000000000000000000006044820152fd5b156121b057565b606460405160e560020a62461bcd02815260206004820152601f60248201527f4f776e61626c653a2063616c6c6572206973206e6f7420616e206f776e6572006044820152fd5b9190820180921161220457565b60e060020a634e487b7102600052601160045260246000fd5b6040810190811067ffffffffffffffff82111761223957604052565b60e060020a634e487b7102600052604160045260246000fd5b90601f8019910116810190811067ffffffffffffffff82111761223957604052565b600160a060020a039081600b54169161229c600093308552846020526040852054903061293e565b600b54169061012c42018042116123c0574281106123795760c46060928660405195869485937ff305d719000000000000000000000000000000000000000000000000000000008552306004860152602485015288604485015288606485015230608485015260a48401525af1801561236e57612343575b505060207ffdb748c915e4e67b4bb23287bf4295a4595ce48b50343214369f72ccfb974cfa91604051908152a1565b606090813d8111612367575b6123598183612252565b810103126107e05780612314565b503d61234f565b6040513d84823e3d90fd5b606460405160e560020a62461bcd02815260206004820152601b60248201527f536166654d6174683a206164646974696f6e206f766572666c6f7700000000006044820152fd5b60248460e060020a634e487b710281526011600452fd5b9190820391821161220457565b156123eb57565b608460405160e560020a62461bcd02815260206004820152602d60248201527f4d756c74695369676e617475726557616c6c65743a2070726f706f73616c206460448201527f6f6573206e6f74206578697374000000000000000000000000000000000000006064820152fd5b1561245f57565b608460405160e560020a62461bcd02815260206004820152603360248201527f4d756c74695369676e617475726557616c6c65743a2070726f706f73616c207760448201527f617320616c7265616479206578656375746564000000000000000000000000006064820152fd5b604080519167ffffffffffffffff90606084018281118582101761223957835260028452602080850190843683378551156120c857308252600160a060020a039283600b5416918651927fad5c46480000000000000000000000000000000000000000000000000000000084528184600481845afa93841561266c57600094612632575b508851936001948510156120c85761257091878592168a8c01523061293e565b84600b541694853b156121405791879894939198519889957f791ac94700000000000000000000000000000000000000000000000000000000875260a487019260048801526000602488015260a060448801525180925260c4860194936000905b838210612618575050505050509181600081819530606483015242608483015203925af1801561260d5761260457505050565b82116122395752565b82513d6000823e3d90fd5b8551811687528b97509582019594820194908401906125d1565b8281819693963d8311612665575b61264a8183612252565b8101031261024c57519086821682036107e057509238612550565b503d612640565b88513d6000823e3d90fd5b1561267e57565b608460405160e560020a62461bcd02815260206004820152602560248201527f45524332303a207472616e736665722066726f6d20746865207a65726f20616460448201527f64726573730000000000000000000000000000000000000000000000000000006064820152fd5b156126f257565b608460405160e560020a62461bcd02815260206004820152602360248201527f45524332303a207472616e7366657220746f20746865207a65726f206164647260448201527f65737300000000000000000000000000000000000000000000000000000000006064820152fd5b906127ba9291600160a060020a038082169061277c821515612677565b83169061278a8215156126eb565b600091818352601f60205260ff604084205416908115612825575b5015908161280f575b506127bc575b50612836565b565b6127df60646127cd601a5487612bf2565b6127d5612c17565b5004601e54612a78565b601e5561280630316127f0866124cc565b308352826020526064611bad6040852054612b14565b601e55386127b4565b8252506021602052604081205460ff16386127ae565b835250604082205460ff16386127a5565b600160a060020a038091169161284d831515612677565b169161285a8315156126eb565b600082815280602052604090818120548381106128d2579183916128a77fddf252ad1be2c89b69c2b068fc378daa952ba7f163c4a11628f55a4df523b3ef95602095610b1f610b16612a8d565b86825281855282822055868152816128c28482842054612a78565b91888152808652205551908152a3565b6084835160e560020a62461bcd02815260206004820152602660248201527f45524332303a207472616e7366657220616d6f756e742065786365656473206260448201527f616c616e636500000000000000000000000000000000000000000000000000006064820152fd5b600160a060020a03809116918215612a0c571691821561299f5760207f8c5be1e5ebec7d5bd14f71427d1e84f3dd0314c0f7b2291e5b200ac8c7c3b925918360005260018252604060002085600052825280604060002055604051908152a3565b608460405160e560020a62461bcd02815260206004820152602260248201527f45524332303a20617070726f766520746f20746865207a65726f20616464726560448201527f73730000000000000000000000000000000000000000000000000000000000006064820152fd5b608460405160e560020a62461bcd028152602060048201526024808201527f45524332303a20617070726f76652066726f6d20746865207a65726f2061646460448201527f72657373000000000000000000000000000000000000000000000000000000006064820152fd5b90612a8390826121f7565b9081106123795790565b60405190612a9a8261221d565b601e82527f536166654d6174683a207375627472616374696f6e206f766572666c6f7700006020830152565b15612ace5750565b612aed9060405191829160e560020a62461bcd028352600483016120e1565b0390fd5b8115612afb570490565b60e060020a634e487b7102600052601260045260246000fd5b8015612baa57601e810290808204601e0361220457612b35601e9183612af1565b03612b3d5790565b608460405160e560020a62461bcd02815260206004820152602160248201527f536166654d6174683a206d756c7469706c69636174696f6e206f766572666c6f60448201527f77000000000000000000000000000000000000000000000000000000000000006064820152fd5b50600090565b8015612baa57606481029080820460640361220457612b3560649183612af1565b8015612baa57600a810290808204600a0361220457612b35600a9183612af1565b908115612c105780820291808304820361220457612b359083612af1565b5050600090565b60405190612c248261221d565b601a82527f536166654d6174683a206469766973696f6e206279207a65726f000000000000602083015256fea26469706673582212208eb8834cf6c8abccf2f956d52f570061bde875ecd8b76473e9413892bfa8345264736f6c634300081100338be0079c531659141344cd1fd0a4f28419497f9722a3daafe3b4186f6b6457e0",
			"opcodes": "PUSH1 0x80 PUSH1 0x40 SWAP1 DUP1 DUP3 MSTORE CALLVALUE PUSH3 0x671 JUMPI PUSH1 0x80 DUP2 PUSH3 0x3668 DUP1 CODESIZE SUB DUP1 SWAP2 PUSH3 0x25 DUP3 DUP6 PUSH3 0x676 JUMP JUMPDEST DUP4 CODECOPY DUP2 ADD SUB SLT PUSH3 0x671 JUMPI PUSH3 0x3B DUP2 PUSH3 0x6C8 JUMP JUMPDEST PUSH1 0x20 PUSH3 0x4A DUP2 DUP5 ADD PUSH3 0x6C8 JUMP JUMPDEST SWAP2 PUSH3 0x66 PUSH1 0x60 PUSH3 0x5E DUP8 DUP8 ADD PUSH3 0x6C8 JUMP JUMPDEST SWAP6 ADD PUSH3 0x6C8 JUMP JUMPDEST SWAP3 PUSH3 0x74 PUSH1 0x3 SLOAD PUSH3 0x6DD JUMP JUMPDEST SWAP1 PUSH1 0x1F SWAP2 DUP3 DUP2 GT PUSH3 0x643 JUMPI JUMPDEST POP PUSH1 0x12 PUSH32 0x5377697368466973680000000000000000000000000000000000000000000000 ADD PUSH1 0x3 SSTORE PUSH1 0x4 SWAP6 PUSH3 0xB8 DUP8 SLOAD PUSH3 0x6DD JUMP JUMPDEST DUP4 DUP2 GT PUSH3 0x616 JUMPI JUMPDEST POP PUSH1 0x6 PUSH32 0x5346480000000000000000000000000000000000000000000000000000000000 ADD DUP8 SSTORE PUSH1 0x1 PUSH1 0xA0 PUSH1 0x2 EXP SUB NOT SWAP2 CALLER DUP4 PUSH1 0x8 SLOAD AND OR PUSH1 0x8 SSTORE DUP9 MLOAD SWAP5 PUSH1 0x0 SWAP8 PUSH1 0x0 DUP1 MLOAD PUSH1 0x20 PUSH3 0x3648 DUP4 CODECOPY DUP2 MLOAD SWAP2 MSTORE SWAP7 CALLER DUP11 DUP10 DUP2 DUP1 LOG3 PUSH12 0x33B2E3C9FD0803CE8000000 PUSH1 0xC SSTORE PUSH2 0x100 PUSH2 0xFFFF NOT PUSH1 0xD SLOAD AND OR PUSH1 0xD SSTORE PUSH7 0x11C37937E08000 PUSH1 0x11 SSTORE PUSH1 0x1 SWAP2 DUP3 PUSH1 0x12 SSTORE PUSH10 0xD3C21BCECCEDA1000000 PUSH1 0x13 SSTORE PUSH20 0xEDA73409D4BBD147F4E1295A73A2CA243A529338 DUP8 PUSH1 0x14 SLOAD AND OR PUSH1 0x14 SSTORE PUSH20 0x3C1CD83D8850803C9C42FF5083F56B66B00FBD61 DUP8 PUSH1 0x15 SLOAD AND OR PUSH1 0x15 SSTORE PUSH20 0x63024AC73FE77427F20E8247FA26F470C0D9700B DUP8 PUSH1 0x16 SLOAD AND OR PUSH1 0x16 SSTORE PUSH1 0x2 PUSH1 0x17 SSTORE PUSH1 0x3 PUSH1 0x18 SSTORE PUSH1 0x3 PUSH1 0x19 SSTORE PUSH1 0x2 PUSH1 0x1A SSTORE DUP11 PUSH1 0x1B SSTORE DUP11 PUSH1 0x1C SSTORE DUP11 PUSH1 0x1D SSTORE DUP11 PUSH1 0x1E SSTORE PUSH32 0xC45A015500000000000000000000000000000000000000000000000000000000 DUP3 MSTORE DUP12 DUP11 DUP4 PUSH20 0x10ED43C718714EB63D5AA57B78B54704E256024E SWAP3 DUP2 DUP5 GAS STATICCALL SWAP3 DUP4 ISZERO PUSH3 0x60C JUMPI DUP12 DUP16 DUP16 SWAP3 DUP16 SWAP7 PUSH3 0x5C0 JUMPI JUMPDEST POP MLOAD DUP1 SWAP3 PUSH32 0xAD5C464800000000000000000000000000000000000000000000000000000000 DUP3 MSTORE DUP2 DUP6 GAS STATICCALL SWAP1 DUP2 ISZERO PUSH3 0x56A JUMPI DUP16 SWAP2 DUP16 DUP16 SWAP5 SWAP4 DUP16 SWAP4 DUP7 SWAP4 PUSH3 0x575 JUMPI JUMPDEST POP SWAP1 PUSH1 0x44 SWAP2 MLOAD SWAP6 DUP7 SWAP4 DUP5 SWAP3 PUSH32 0xC9C6539600000000000000000000000000000000000000000000000000000000 DUP5 MSTORE ADDRESS SWAP1 DUP5 ADD MSTORE PUSH1 0x1 PUSH1 0xA0 PUSH1 0x2 EXP SUB SWAP10 DUP11 DUP1 SWAP3 AND PUSH1 0x24 DUP6 ADD MSTORE AND GAS CALL SWAP2 DUP3 ISZERO PUSH3 0x56A JUMPI SWAP3 DUP16 SWAP3 DUP14 SWAP1 DUP16 SWAP12 SWAP11 SWAP10 SWAP9 SWAP8 SWAP6 SWAP4 DUP14 SWAP8 SWAP5 DUP14 SWAP3 PUSH3 0x4EE JUMPI JUMPDEST POP PUSH1 0xB DUP1 SLOAD DUP14 AND SWAP1 SWAP2 OR SWAP1 SSTORE DUP4 AND DUP1 DUP13 MSTORE PUSH1 0x21 DUP3 MSTORE DUP5 DUP13 KECCAK256 DUP1 SLOAD PUSH1 0xFF NOT SWAP1 DUP2 AND DUP9 OR SWAP1 SWAP2 SSTORE ADDRESS DUP1 DUP15 MSTORE SWAP8 DUP4 MSTORE DUP6 DUP14 KECCAK256 DUP1 SLOAD DUP3 AND DUP9 OR SWAP1 SSTORE PUSH1 0x14 SLOAD DUP6 AND DUP14 MSTORE DUP6 DUP14 KECCAK256 DUP1 SLOAD DUP3 AND DUP9 OR SWAP1 SSTORE PUSH1 0x15 SLOAD DUP6 AND DUP14 MSTORE DUP6 DUP14 KECCAK256 DUP1 SLOAD DUP3 AND DUP9 OR SWAP1 SSTORE PUSH1 0x16 SLOAD DUP6 AND DUP14 MSTORE DUP6 DUP14 KECCAK256 DUP1 SLOAD DUP3 AND DUP9 OR SWAP1 SSTORE SWAP7 DUP13 MSTORE SWAP1 DUP1 MSTORE DUP4 DUP12 KECCAK256 DUP1 SLOAD DUP8 AND DUP7 OR SWAP1 SSTORE DUP11 MSTORE DUP3 DUP11 KECCAK256 DUP1 SLOAD DUP7 AND DUP6 OR SWAP1 SSTORE AND DUP1 DUP10 MSTORE SWAP8 KECCAK256 DUP1 SLOAD SWAP1 SWAP3 AND OR SWAP1 SSTORE PUSH3 0x387 SWAP3 SWAP2 PUSH3 0x381 SWAP2 DUP3 SWAP1 PUSH3 0x734 JUMP JUMPDEST PUSH3 0x734 JUMP JUMPDEST DUP2 ISZERO PUSH3 0x46C JUMPI DUP2 SWAP1 PUSH1 0x7 SLOAD AND OR PUSH1 0x7 SSTORE DUP5 DUP8 MLOAD SWAP4 DUP2 DUP1 LOG3 PUSH1 0xC SLOAD SWAP5 ADDRESS ISZERO PUSH3 0x415 JUMPI POP POP POP PUSH32 0xDDF252AD1BE2C89B69C2B068FC378DAA952BA7F163C4A11628F55A4DF523B3EF SWAP1 PUSH3 0x3DD DUP5 PUSH1 0x2 SLOAD PUSH3 0x91E JUMP JUMPDEST PUSH1 0x2 SSTORE ADDRESS DUP4 MSTORE DUP3 DUP2 MSTORE PUSH3 0x3F5 DUP5 DUP7 DUP6 KECCAK256 SLOAD PUSH3 0x91E JUMP JUMPDEST ADDRESS DUP5 MSTORE DUP4 DUP3 MSTORE DUP6 DUP5 KECCAK256 SSTORE DUP5 MLOAD SWAP4 DUP5 MSTORE ADDRESS SWAP4 LOG3 MLOAD PUSH2 0x2C86 SWAP1 DUP2 PUSH3 0x9C2 DUP3 CODECOPY RETURN JUMPDEST SWAP3 PUSH1 0x64 SWAP4 PUSH32 0x8C379A000000000000000000000000000000000000000000000000000000000 DUP5 MSTORE DUP4 ADD MSTORE PUSH1 0x24 DUP3 ADD MSTORE PUSH32 0x45524332303A206D696E7420746F20746865207A65726F206164647265737300 PUSH1 0x44 DUP3 ADD MSTORE REVERT JUMPDEST PUSH1 0x84 DUP8 DUP7 DUP11 MLOAD SWAP2 PUSH32 0x8C379A000000000000000000000000000000000000000000000000000000000 DUP4 MSTORE DUP3 ADD MSTORE PUSH1 0x26 PUSH1 0x24 DUP3 ADD MSTORE PUSH32 0x4F776E61626C653A206E6577206F776E657220697320746865207A65726F2061 PUSH1 0x44 DUP3 ADD MSTORE PUSH32 0x6464726573730000000000000000000000000000000000000000000000000000 PUSH1 0x64 DUP3 ADD MSTORE REVERT JUMPDEST SWAP5 SWAP8 POP SWAP5 POP POP SWAP1 SWAP4 SWAP6 SWAP7 SWAP8 SWAP9 SWAP10 POP DUP2 DUP2 RETURNDATASIZE DUP4 GT PUSH3 0x562 JUMPI JUMPDEST PUSH3 0x513 DUP2 DUP4 PUSH3 0x676 JUMP JUMPDEST DUP2 ADD SUB SLT PUSH3 0x55E JUMPI PUSH3 0x381 SWAP5 DUP16 DUP6 DUP16 SWAP12 SWAP11 SWAP9 SWAP5 SWAP6 DUP16 DUP4 DUP16 SWAP7 DUP16 SWAP1 SWAP11 DUP16 PUSH3 0x387 SWAP16 SWAP13 SWAP12 PUSH3 0x547 PUSH3 0x381 SWAP14 PUSH3 0x6C8 JUMP JUMPDEST SWAP8 POP SWAP6 SWAP9 SWAP12 POP POP SWAP8 SWAP11 SWAP13 SWAP14 POP POP POP SWAP3 SWAP6 SWAP9 PUSH3 0x2D5 JUMP JUMPDEST DUP13 DUP1 REVERT JUMPDEST POP RETURNDATASIZE PUSH3 0x507 JUMP JUMPDEST POP DUP15 MLOAD RETURNDATASIZE DUP15 DUP3 RETURNDATACOPY RETURNDATASIZE SWAP1 REVERT JUMPDEST SWAP5 SWAP6 POP POP POP POP DUP2 DUP2 RETURNDATASIZE DUP4 GT PUSH3 0x5B8 JUMPI JUMPDEST PUSH3 0x592 DUP2 DUP4 PUSH3 0x676 JUMP JUMPDEST DUP2 ADD SUB SLT PUSH3 0x55E JUMPI SWAP1 DUP12 DUP16 DUP16 DUP16 SWAP5 SWAP1 PUSH3 0x5AF PUSH1 0x44 SWAP3 PUSH3 0x6C8 JUMP JUMPDEST SWAP3 SWAP1 SWAP2 PUSH3 0x26D JUMP JUMPDEST POP RETURNDATASIZE PUSH3 0x586 JUMP JUMPDEST SWAP4 SWAP5 SWAP6 POP POP SWAP1 POP DUP2 DUP2 RETURNDATASIZE DUP4 GT PUSH3 0x604 JUMPI JUMPDEST PUSH3 0x5DE DUP2 DUP4 PUSH3 0x676 JUMP JUMPDEST DUP2 ADD SUB SLT PUSH3 0x600 JUMPI SWAP1 DUP13 DUP12 DUP16 SWAP5 SWAP4 PUSH3 0x5F8 SWAP1 PUSH3 0x6C8 JUMP JUMPDEST SWAP5 CODESIZE PUSH3 0x22A JUMP JUMPDEST DUP12 DUP1 REVERT JUMPDEST POP RETURNDATASIZE PUSH3 0x5D2 JUMP JUMPDEST DUP15 MLOAD RETURNDATASIZE DUP15 DUP3 RETURNDATACOPY RETURNDATASIZE SWAP1 REVERT JUMPDEST PUSH1 0x0 DUP9 DUP2 MSTORE DUP7 DUP6 DUP2 DUP4 KECCAK256 SWAP4 ADD DIV DUP3 ADD SWAP2 JUMPDEST DUP3 DUP2 LT PUSH3 0x637 JUMPI POP POP PUSH3 0xC1 JUMP JUMPDEST DUP2 DUP2 SSTORE PUSH1 0x1 ADD PUSH3 0x627 JUMP JUMPDEST PUSH1 0x0 PUSH1 0x3 DUP2 MSTORE DUP6 DUP5 DUP2 DUP4 KECCAK256 SWAP4 ADD DIV DUP3 ADD SWAP2 JUMPDEST DUP3 DUP2 LT PUSH3 0x665 JUMPI POP POP PUSH3 0x81 JUMP JUMPDEST DUP2 DUP2 SSTORE PUSH1 0x1 ADD PUSH3 0x655 JUMP JUMPDEST PUSH1 0x0 DUP1 REVERT JUMPDEST SWAP1 PUSH1 0x1F DUP1 NOT SWAP2 ADD AND DUP2 ADD SWAP1 DUP2 LT PUSH8 0xFFFFFFFFFFFFFFFF DUP3 GT OR PUSH3 0x699 JUMPI PUSH1 0x40 MSTORE JUMP JUMPDEST PUSH32 0x4E487B7100000000000000000000000000000000000000000000000000000000 PUSH1 0x0 MSTORE PUSH1 0x41 PUSH1 0x4 MSTORE PUSH1 0x24 PUSH1 0x0 REVERT JUMPDEST MLOAD SWAP1 PUSH1 0x1 PUSH1 0xA0 PUSH1 0x2 EXP SUB DUP3 AND DUP3 SUB PUSH3 0x671 JUMPI JUMP JUMPDEST SWAP1 PUSH1 0x1 PUSH1 0x2 DUP4 DIV SWAP3 AND DUP1 ISZERO PUSH3 0x729 JUMPI JUMPDEST PUSH1 0x20 DUP4 LT EQ PUSH3 0x6FA JUMPI JUMP JUMPDEST PUSH32 0x4E487B7100000000000000000000000000000000000000000000000000000000 PUSH1 0x0 MSTORE PUSH1 0x22 PUSH1 0x4 MSTORE PUSH1 0x24 PUSH1 0x0 REVERT JUMPDEST SWAP2 PUSH1 0x7F AND SWAP2 PUSH3 0x6EE JUMP JUMPDEST PUSH1 0x1 PUSH1 0xA0 PUSH1 0x2 EXP SUB AND DUP1 ISZERO PUSH3 0x89A JUMPI PUSH1 0x0 DUP2 DUP2 MSTORE PUSH1 0xA PUSH1 0x20 MSTORE PUSH1 0xFF PUSH1 0x40 DUP3 KECCAK256 SLOAD AND PUSH3 0x83C JUMPI DUP2 DUP2 MSTORE PUSH1 0xA PUSH1 0x20 MSTORE PUSH1 0x40 DUP2 KECCAK256 DUP1 SLOAD PUSH1 0xFF NOT AND PUSH1 0x1 OR SWAP1 SSTORE PUSH1 0x9 SLOAD PUSH9 0x10000000000000000 DUP2 LT ISZERO PUSH3 0x80F JUMPI PUSH1 0x1 DUP2 ADD DUP1 PUSH1 0x9 SSTORE DUP2 LT ISZERO PUSH3 0x7E2 JUMPI PUSH1 0x9 DUP3 MSTORE PUSH32 0x6E1540171B6C0C960B71A7020D9F60077F6AF931A8BBF590DA0223DACF75C7AF ADD DUP1 SLOAD PUSH1 0x1 PUSH1 0xA0 PUSH1 0x2 EXP SUB NOT AND DUP4 OR SWAP1 SSTORE PUSH1 0x0 DUP1 MLOAD PUSH1 0x20 PUSH3 0x3648 DUP4 CODECOPY DUP2 MLOAD SWAP2 MSTORE DUP2 DUP1 LOG3 JUMP JUMPDEST PUSH1 0x24 DUP3 PUSH32 0x4E487B7100000000000000000000000000000000000000000000000000000000 DUP2 MSTORE PUSH1 0x32 PUSH1 0x4 MSTORE REVERT JUMPDEST PUSH1 0x24 DUP3 PUSH32 0x4E487B7100000000000000000000000000000000000000000000000000000000 DUP2 MSTORE PUSH1 0x41 PUSH1 0x4 MSTORE REVERT JUMPDEST PUSH1 0x64 PUSH1 0x40 MLOAD PUSH32 0x8C379A000000000000000000000000000000000000000000000000000000000 DUP2 MSTORE PUSH1 0x20 PUSH1 0x4 DUP3 ADD MSTORE PUSH1 0x1C PUSH1 0x24 DUP3 ADD MSTORE PUSH32 0x4F776E61626C653A204F776E6572206973206E6F7420756E6971756500000000 PUSH1 0x44 DUP3 ADD MSTORE REVERT JUMPDEST PUSH1 0x84 PUSH1 0x40 MLOAD PUSH32 0x8C379A000000000000000000000000000000000000000000000000000000000 DUP2 MSTORE PUSH1 0x20 PUSH1 0x4 DUP3 ADD MSTORE PUSH1 0x22 PUSH1 0x24 DUP3 ADD MSTORE PUSH32 0x4F776E61626C653A204F776E657220697320746865207A65726F206164647265 PUSH1 0x44 DUP3 ADD MSTORE PUSH32 0x7373000000000000000000000000000000000000000000000000000000000000 PUSH1 0x64 DUP3 ADD MSTORE REVERT JUMPDEST SWAP1 DUP2 ADD SWAP1 DUP2 DUP2 GT PUSH3 0x992 JUMPI DUP2 LT PUSH3 0x934 JUMPI SWAP1 JUMP JUMPDEST PUSH1 0x64 PUSH1 0x40 MLOAD PUSH32 0x8C379A000000000000000000000000000000000000000000000000000000000 DUP2 MSTORE PUSH1 0x20 PUSH1 0x4 DUP3 ADD MSTORE PUSH1 0x1B PUSH1 0x24 DUP3 ADD MSTORE PUSH32 0x536166654D6174683A206164646974696F6E206F766572666C6F770000000000 PUSH1 0x44 DUP3 ADD MSTORE REVERT JUMPDEST PUSH32 0x4E487B7100000000000000000000000000000000000000000000000000000000 PUSH1 0x0 MSTORE PUSH1 0x11 PUSH1 0x4 MSTORE PUSH1 0x24 PUSH1 0x0 REVERT INVALID PUSH1 0x80 PUSH1 0x40 SWAP1 DUP1 DUP3 MSTORE PUSH1 0x4 SWAP1 DUP2 CALLDATASIZE LT ISZERO PUSH2 0x53 JUMPI JUMPDEST POP POP CALLDATASIZE ISZERO PUSH2 0x20 JUMPI PUSH1 0x0 DUP1 REVERT JUMPDEST CALLVALUE PUSH2 0x27 JUMPI STOP JUMPDEST MLOAD CALLVALUE DUP2 MSTORE PUSH32 0xE1FFFCC4923D04B559F4D29A8BFC6CDA04EB5B0D3C460751C2402C5C5CC9109C PUSH1 0x20 CALLER SWAP3 LOG2 STOP JUMPDEST PUSH1 0x0 SWAP2 PUSH29 0x100000000000000000000000000000000000000000000000000000000 DUP4 CALLDATALOAD DIV SWAP2 DUP3 PUSH4 0x13CF08B EQ PUSH2 0x1E52 JUMPI POP DUP2 PUSH4 0x6FDDE03 EQ PUSH2 0x1D5B JUMPI DUP2 PUSH4 0x95EA7B3 EQ PUSH2 0x1D31 JUMPI DUP2 PUSH4 0xABDC640 EQ PUSH2 0x1D09 JUMPI DUP2 PUSH4 0xD61B519 EQ PUSH2 0x1912 JUMPI DUP2 PUSH4 0x1694505E EQ PUSH2 0x18EA JUMPI DUP2 PUSH4 0x18160DDD EQ PUSH2 0x18CB JUMPI DUP2 PUSH4 0x1B45A47A EQ PUSH2 0x18AC JUMPI DUP2 PUSH4 0x23B872DD EQ PUSH2 0x17D2 JUMPI DUP2 PUSH4 0x2A9AF7BA EQ PUSH2 0x17B3 JUMPI DUP2 PUSH4 0x313CE567 EQ PUSH2 0x1797 JUMPI DUP2 PUSH4 0x39262773 EQ PUSH2 0x1778 JUMPI DUP2 PUSH4 0x39509351 EQ PUSH2 0x1730 JUMPI DUP2 PUSH4 0x3CCFD60B EQ PUSH2 0x14FF JUMPI DUP2 PUSH4 0x553000C1 EQ PUSH2 0x14E0 JUMPI DUP2 PUSH4 0x562E9DF9 EQ PUSH2 0x14B8 JUMPI DUP2 PUSH4 0x70A08231 EQ PUSH2 0x1482 JUMPI DUP2 PUSH4 0x7918447E EQ PUSH2 0x1463 JUMPI DUP2 PUSH4 0x7A594A2B EQ PUSH2 0x143B JUMPI DUP2 PUSH4 0x7D81936C EQ PUSH2 0x141C JUMPI DUP2 PUSH4 0x8198C341 EQ PUSH2 0xF39 JUMPI DUP2 PUSH4 0x85A6A091 EQ PUSH2 0xE24 JUMPI DUP2 PUSH4 0x8DA5CB5B EQ PUSH2 0xDFC JUMPI DUP2 PUSH4 0x933F5E07 EQ PUSH2 0xDDD JUMPI DUP2 PUSH4 0x95D89B41 EQ PUSH2 0xCD7 JUMPI DUP2 PUSH4 0x98951B56 EQ PUSH2 0xBB6 JUMPI DUP2 PUSH4 0x9E5CD74A EQ PUSH2 0xB97 JUMPI DUP2 PUSH4 0xA457C2D7 EQ PUSH2 0xABA JUMPI DUP2 PUSH4 0xA6F2AE3A EQ PUSH2 0xA4F JUMPI DUP2 PUSH4 0xA9059CBB EQ PUSH2 0xA1E JUMPI DUP2 PUSH4 0xB6BBA0AE EQ PUSH2 0x9FF JUMPI DUP2 PUSH4 0xC84AD9A5 EQ PUSH2 0x9DB JUMPI DUP2 PUSH4 0xD7196DD9 EQ PUSH2 0x873 JUMPI DUP2 PUSH4 0xD8A0F828 EQ PUSH2 0x7FB JUMPI DUP2 PUSH4 0xDCE165A6 EQ PUSH2 0x299 JUMPI POP DUP1 PUSH4 0xDD62ED3E EQ PUSH2 0x250 JUMPI PUSH4 0xFE7441E7 EQ PUSH2 0x216 JUMPI DUP1 PUSH2 0x13 JUMP JUMPDEST SWAP1 CALLVALUE PUSH2 0x24C JUMPI PUSH1 0x20 CALLDATASIZE PUSH1 0x3 NOT ADD SLT PUSH2 0x24C JUMPI DUP1 PUSH1 0x20 SWAP3 PUSH1 0x1 PUSH1 0xA0 PUSH1 0x2 EXP SUB PUSH2 0x23C PUSH2 0x212A JUMP JUMPDEST AND DUP2 MSTORE PUSH1 0xE DUP5 MSTORE KECCAK256 SLOAD SWAP1 MLOAD SWAP1 DUP2 MSTORE RETURN JUMPDEST POP DUP1 REVERT JUMPDEST POP SWAP1 CALLVALUE PUSH2 0x24C JUMPI DUP1 PUSH1 0x3 NOT CALLDATASIZE ADD SLT PUSH2 0x24C JUMPI DUP1 PUSH1 0x20 SWAP3 PUSH2 0x26E PUSH2 0x212A JUMP JUMPDEST PUSH2 0x276 PUSH2 0x2145 JUMP JUMPDEST PUSH1 0x1 PUSH1 0xA0 PUSH1 0x2 EXP SUB SWAP2 DUP3 AND DUP4 MSTORE PUSH1 0x1 DUP7 MSTORE DUP4 DUP4 KECCAK256 SWAP2 AND DUP3 MSTORE DUP5 MSTORE KECCAK256 SLOAD SWAP1 MLOAD SWAP1 DUP2 MSTORE RETURN JUMPDEST SWAP1 POP DUP3 CALLVALUE PUSH2 0x7F7 JUMPI PUSH2 0x180 DUP1 PUSH1 0x3 NOT CALLDATASIZE ADD SLT PUSH2 0x7F3 JUMPI DUP4 DUP4 CALLDATALOAD SWAP2 DUP3 ISZERO ISZERO DUP1 SWAP4 SUB PUSH2 0x24C JUMPI PUSH1 0x24 SWAP4 DUP5 CALLDATALOAD SWAP2 DUP3 ISZERO ISZERO DUP1 SWAP4 SUB PUSH2 0x7F3 JUMPI PUSH1 0x44 CALLDATALOAD SWAP5 DUP6 ISZERO ISZERO DUP1 SWAP7 SUB PUSH2 0x7EF JUMPI PUSH1 0x64 CALLDATALOAD SWAP4 DUP5 ISZERO ISZERO SWAP7 DUP8 DUP7 SUB PUSH2 0x7EB JUMPI PUSH1 0xA4 CALLDATALOAD SWAP8 DUP9 ISZERO ISZERO SWAP1 DUP2 DUP11 SUB PUSH2 0x7E7 JUMPI PUSH2 0x144 CALLDATALOAD DUP1 ISZERO ISZERO SWAP11 DUP12 DUP3 SUB PUSH2 0x7E3 JUMPI PUSH2 0x164 CALLDATALOAD SWAP10 PUSH1 0x1 PUSH1 0xA0 PUSH1 0x2 EXP SUB SWAP12 DUP13 DUP13 AND DUP1 SWAP13 SUB PUSH2 0x7E0 JUMPI PUSH1 0xFF DUP12 PUSH2 0x337 SWAP3 CALLER DUP2 MSTORE PUSH1 0xA PUSH1 0x20 MSTORE KECCAK256 SLOAD AND PUSH2 0x21A9 JUMP JUMPDEST PUSH2 0x764 JUMPI JUMPDEST PUSH2 0x6D0 JUMPI JUMPDEST PUSH2 0x660 JUMPI JUMPDEST DUP7 MLOAD SWAP7 PUSH2 0x1C0 DUP9 ADD DUP9 DUP2 LT PUSH8 0xFFFFFFFFFFFFFFFF DUP3 GT OR PUSH2 0x64A JUMPI SWAP1 DUP15 SWAP2 DUP2 MSTORE CALLER DUP10 MSTORE PUSH1 0x20 DUP10 ADD SWAP2 DUP3 MSTORE DUP9 ADD SWAP6 DUP7 MSTORE PUSH1 0x60 DUP9 ADD SWAP5 DUP6 MSTORE PUSH1 0x80 DUP9 ADD SWAP4 DUP5 MSTORE PUSH1 0xA0 DUP9 ADD SWAP2 DUP3 MSTORE PUSH1 0xC0 DUP9 ADD SWAP2 PUSH1 0x84 CALLDATALOAD DUP4 MSTORE PUSH1 0xE0 DUP10 ADD SWAP4 DUP5 MSTORE PUSH2 0x100 DUP10 ADD SWAP5 PUSH1 0xC4 CALLDATALOAD DUP7 MSTORE PUSH2 0x120 DUP11 ADD SWAP7 PUSH1 0xE4 CALLDATALOAD DUP9 MSTORE PUSH2 0x140 DUP12 ADD SWAP9 PUSH2 0x104 CALLDATALOAD DUP11 MSTORE PUSH2 0x160 DUP13 ADD SWAP11 PUSH2 0x124 CALLDATALOAD DUP13 MSTORE DUP13 ADD SWAP15 DUP16 MSTORE PUSH2 0x1A0 DUP13 ADD SWAP13 DUP14 MSTORE PUSH1 0x5 SLOAD PUSH9 0x10000000000000000 DUP2 LT ISZERO PUSH2 0x630 JUMPI DUP1 PUSH1 0x1 PUSH2 0x3FA SWAP3 ADD PUSH1 0x5 SSTORE PUSH2 0x208D JUMP JUMPDEST SWAP13 SWAP1 SWAP13 PUSH2 0x617 JUMPI MLOAD DUP13 SLOAD SWAP6 MLOAD SWAP2 MLOAD SWAP3 MLOAD SWAP4 MLOAD SWAP5 MLOAD ISZERO ISZERO PUSH25 0x1000000000000000000000000000000000000000000000000 MUL PUSH25 0xFF000000000000000000000000000000000000000000000000 AND SWAP5 ISZERO ISZERO PUSH24 0x10000000000000000000000000000000000000000000000 MUL PUSH24 0xFF0000000000000000000000000000000000000000000000 AND SWAP4 ISZERO ISZERO PUSH23 0x100000000000000000000000000000000000000000000 MUL PUSH23 0xFF00000000000000000000000000000000000000000000 AND SWAP3 ISZERO ISZERO PUSH22 0x1000000000000000000000000000000000000000000 MUL PUSH22 0xFF000000000000000000000000000000000000000000 AND SWAP2 ISZERO ISZERO PUSH1 0xA0 PUSH1 0x2 EXP MUL PUSH21 0xFF0000000000000000000000000000000000000000 AND SWAP1 DUP16 AND PUSH25 0xFFFFFFFFFFFFFFFFFFFFFFFFFFFFFFFFFFFFFFFFFFFFFFFFFF NOT SWAP1 SWAP7 AND SWAP6 SWAP1 SWAP6 OR SWAP5 SWAP1 SWAP5 OR SWAP4 SWAP1 SWAP4 OR SWAP3 SWAP1 SWAP3 OR SWAP2 SWAP1 SWAP2 OR OR DUP8 SSTORE MLOAD PUSH1 0x1 DUP8 ADD SSTORE MLOAD PUSH1 0x2 DUP7 ADD DUP1 SLOAD PUSH1 0xFF NOT AND SWAP2 ISZERO ISZERO PUSH1 0xFF AND SWAP2 SWAP1 SWAP2 OR SWAP1 SSTORE MLOAD PUSH1 0x3 DUP6 ADD SSTORE MLOAD DUP9 DUP5 ADD SSTORE MLOAD PUSH1 0x5 DUP4 ADD SSTORE MLOAD PUSH1 0x6 DUP3 ADD SSTORE PUSH1 0x7 ADD SWAP3 MLOAD ISZERO ISZERO PUSH2 0x58E SWAP1 DUP5 SWAP1 PUSH1 0xFF DUP1 NOT DUP4 SLOAD AND SWAP2 ISZERO ISZERO AND OR SWAP1 SSTORE JUMP JUMPDEST MLOAD AND DUP2 SLOAD SWAP1 PUSH2 0x100 MUL PUSH21 0xFFFFFFFFFFFFFFFFFFFFFFFFFFFFFFFFFFFFFFFF00 AND SWAP1 PUSH21 0xFFFFFFFFFFFFFFFFFFFFFFFFFFFFFFFFFFFFFFFF00 NOT AND OR SWAP1 SSTORE PUSH1 0x5 SLOAD SWAP2 PUSH1 0x0 NOT DUP4 ADD SWAP3 DUP4 GT PUSH2 0x603 JUMPI POP POP PUSH32 0x96AA03A7CD4ABA017B05CE697DF0E528A91D045A01285C50E931B0C0C4939CE DUP3 DUP1 LOG2 DUP1 RETURN JUMPDEST PUSH1 0x11 DUP5 SWAP2 PUSH1 0xE0 PUSH1 0x2 EXP PUSH4 0x4E487B71 MUL DUP4 MSTORE MSTORE REVERT JUMPDEST POP POP POP POP POP DUP12 DUP15 DUP1 DUP16 PUSH1 0xE0 PUSH1 0x2 EXP PUSH4 0x4E487B71 MUL DUP3 MSTORE MSTORE REVERT JUMPDEST POP POP POP POP POP DUP12 DUP15 PUSH1 0x41 DUP16 PUSH1 0xE0 PUSH1 0x2 EXP PUSH4 0x4E487B71 MUL DUP4 MSTORE MSTORE REVERT JUMPDEST POP DUP12 DUP15 PUSH1 0x41 DUP16 PUSH1 0xE0 PUSH1 0x2 EXP PUSH4 0x4E487B71 MUL DUP4 MSTORE MSTORE REVERT JUMPDEST DUP8 PUSH2 0x346 JUMPI PUSH1 0x84 DUP13 PUSH1 0x33 DUP14 PUSH1 0x20 DUP12 MLOAD SWAP4 PUSH1 0xE5 PUSH1 0x2 EXP PUSH3 0x461BCD MUL DUP6 MSTORE DUP5 ADD MSTORE DUP3 ADD MSTORE PUSH32 0x4D756C74695369676E617475726557616C6C65743A206E6577206F776E657220 PUSH1 0x44 DUP3 ADD MSTORE PUSH32 0x697320746865207A65726F206164647265737300000000000000000000000000 PUSH1 0x64 DUP3 ADD MSTORE REVERT JUMPDEST PUSH1 0xA PUSH2 0x6F3 PUSH2 0x124 CALLDATALOAD PUSH2 0x6EE PUSH2 0x104 CALLDATALOAD PUSH2 0x6EE PUSH1 0xE4 CALLDATALOAD PUSH1 0xC4 CALLDATALOAD PUSH2 0x21F7 JUMP JUMPDEST PUSH2 0x21F7 JUMP JUMPDEST GT ISZERO PUSH2 0x341 JUMPI PUSH1 0x84 DUP14 PUSH1 0x33 DUP15 PUSH1 0x20 DUP13 MLOAD SWAP4 PUSH1 0xE5 PUSH1 0x2 EXP PUSH3 0x461BCD MUL DUP6 MSTORE DUP5 ADD MSTORE DUP3 ADD MSTORE PUSH32 0x4D756C74695369676E617475726557616C6C65743A204D757374206B65657020 PUSH1 0x44 DUP3 ADD MSTORE PUSH32 0x6665657320617420313025206F72206C65737300000000000000000000000000 PUSH1 0x64 DUP3 ADD MSTORE REVERT JUMPDEST PUSH7 0x11C37937E08000 PUSH1 0x11 SLOAD GT ISZERO PUSH2 0x33C JUMPI PUSH1 0x84 DUP15 PUSH1 0x3C DUP16 PUSH1 0x20 DUP14 MLOAD SWAP4 PUSH1 0xE5 PUSH1 0x2 EXP PUSH3 0x461BCD MUL DUP6 MSTORE DUP5 ADD MSTORE DUP3 ADD MSTORE PUSH32 0x4D756C74695369676E617475726557616C6C65743A204D757374206B65657020 PUSH1 0x44 DUP3 ADD MSTORE PUSH32 0x3530303030303030303030303030303020576569206F72206C65737300000000 PUSH1 0x64 DUP3 ADD MSTORE REVERT JUMPDEST DUP1 REVERT JUMPDEST DUP11 DUP1 REVERT JUMPDEST DUP9 DUP1 REVERT JUMPDEST DUP7 DUP1 REVERT JUMPDEST DUP5 DUP1 REVERT JUMPDEST DUP4 DUP1 REVERT JUMPDEST DUP3 DUP1 REVERT JUMPDEST DUP4 SWAP2 POP PUSH1 0x20 CALLDATASIZE PUSH1 0x3 NOT ADD SLT PUSH2 0x7F7 JUMPI PUSH32 0xC5D4FBADDD2087D369F5CF16AD7544F41EF0DC291B510E4CB1CB6E6EAAE74539 SWAP2 PUSH2 0x86B PUSH1 0x20 SWAP3 CALLER DUP7 MSTORE PUSH1 0xA DUP5 MSTORE PUSH2 0x848 PUSH1 0xFF DUP5 DUP9 KECCAK256 SLOAD AND PUSH2 0x21A9 JUMP JUMPDEST PUSH1 0xD SLOAD PUSH2 0x85B PUSH1 0xFF PUSH2 0x100 DUP4 DIV AND PUSH2 0x215B JUMP JUMPDEST PUSH2 0xFF00 NOT AND PUSH1 0xD SSTORE CALLVALUE SWAP1 CALLDATALOAD PUSH2 0x2274 JUMP JUMPDEST MLOAD CALLVALUE DUP2 MSTORE LOG1 DUP1 RETURN JUMPDEST SWAP1 POP DUP3 CALLVALUE PUSH2 0x7F7 JUMPI DUP3 PUSH1 0x3 NOT CALLDATASIZE ADD SLT PUSH2 0x7F7 JUMPI CALLER DUP4 MSTORE PUSH1 0xA PUSH1 0x20 MSTORE PUSH2 0x89D PUSH1 0xFF DUP3 DUP6 KECCAK256 SLOAD AND PUSH2 0x21A9 JUMP JUMPDEST PUSH1 0x1 PUSH1 0xA0 PUSH1 0x2 EXP SUB SWAP2 PUSH2 0x8B8 DUP4 PUSH1 0x14 SLOAD AND PUSH1 0x1B SLOAD SWAP1 ADDRESS PUSH2 0x2836 JUMP JUMPDEST PUSH2 0x8CA DUP4 PUSH1 0x15 SLOAD AND PUSH1 0x1C SLOAD SWAP1 ADDRESS PUSH2 0x2836 JUMP JUMPDEST PUSH2 0x8DC DUP4 PUSH1 0x16 SLOAD AND PUSH1 0x1D SLOAD SWAP1 ADDRESS PUSH2 0x2836 JUMP JUMPDEST DUP4 DUP1 DUP1 DUP1 PUSH2 0x8FB PUSH2 0x8F2 PUSH1 0x1B SLOAD PUSH1 0x1C SLOAD SWAP1 PUSH2 0x21F7 JUMP JUMPDEST PUSH1 0x1D SLOAD SWAP1 PUSH2 0x21F7 JUMP JUMPDEST SWAP7 DUP2 PUSH1 0x1B SSTORE DUP2 PUSH1 0x1C SSTORE DUP2 PUSH1 0x1D SSTORE PUSH1 0x14 SLOAD AND ADDRESS BALANCE SWAP1 GAS CALL RETURNDATASIZE ISZERO PUSH2 0x9D6 JUMPI RETURNDATASIZE PUSH8 0xFFFFFFFFFFFFFFFF DUP2 GT PUSH2 0x9C0 JUMPI DUP4 MLOAD SWAP1 PUSH2 0x93E PUSH1 0x1F DUP3 ADD PUSH1 0x1F NOT AND PUSH1 0x20 ADD DUP4 PUSH2 0x2252 JUMP JUMPDEST DUP2 MSTORE DUP6 PUSH1 0x20 RETURNDATASIZE SWAP3 ADD RETURNDATACOPY JUMPDEST ISZERO PUSH2 0x97B JUMPI POP PUSH32 0x21A3A3648D0B2AFC084ACD733D71600B506FA4ECA7EF1F5E24718C5E17F4E7FF SWAP2 PUSH1 0x20 SWAP2 MLOAD SWAP1 DUP2 MSTORE LOG1 DUP1 RETURN JUMPDEST PUSH1 0x20 PUSH1 0x64 SWAP3 MLOAD SWAP2 PUSH1 0xE5 PUSH1 0x2 EXP PUSH3 0x461BCD MUL DUP4 MSTORE DUP3 ADD MSTORE PUSH1 0x12 PUSH1 0x24 DUP3 ADD MSTORE PUSH32 0x4661696C656420746F2073656E6420424E420000000000000000000000000000 PUSH1 0x44 DUP3 ADD MSTORE REVERT JUMPDEST PUSH1 0x24 DUP7 PUSH1 0x41 DUP6 PUSH1 0xE0 PUSH1 0x2 EXP PUSH4 0x4E487B71 MUL DUP4 MSTORE MSTORE REVERT JUMPDEST PUSH2 0x948 JUMP JUMPDEST DUP3 DUP5 CALLVALUE PUSH2 0x24C JUMPI DUP2 PUSH1 0x3 NOT CALLDATASIZE ADD SLT PUSH2 0x24C JUMPI PUSH1 0x20 SWAP1 PUSH1 0xFF PUSH1 0xD SLOAD AND SWAP1 MLOAD SWAP1 ISZERO ISZERO DUP2 MSTORE RETURN JUMPDEST DUP3 DUP5 CALLVALUE PUSH2 0x24C JUMPI DUP2 PUSH1 0x3 NOT CALLDATASIZE ADD SLT PUSH2 0x24C JUMPI PUSH1 0x20 SWAP1 PUSH1 0x19 SLOAD SWAP1 MLOAD SWAP1 DUP2 MSTORE RETURN JUMPDEST DUP3 DUP5 CALLVALUE PUSH2 0x24C JUMPI DUP1 PUSH1 0x3 NOT CALLDATASIZE ADD SLT PUSH2 0x24C JUMPI PUSH1 0x20 SWAP1 PUSH2 0xA48 PUSH2 0xA3E PUSH2 0x212A JUMP JUMPDEST PUSH1 0x24 CALLDATALOAD SWAP1 CALLER PUSH2 0x275F JUMP JUMPDEST MLOAD PUSH1 0x1 DUP2 MSTORE RETURN JUMPDEST DUP3 DUP5 DUP2 PUSH1 0x3 NOT CALLDATASIZE ADD SLT PUSH2 0x24C JUMPI PUSH2 0xA80 PUSH2 0xA93 SWAP2 PUSH2 0xA71 PUSH1 0xFF PUSH1 0xD SLOAD AND PUSH2 0x215B JUMP JUMPDEST ADDRESS DUP5 MSTORE DUP4 PUSH1 0x20 MSTORE DUP4 KECCAK256 SLOAD PUSH2 0x2BD1 JUMP JUMPDEST PUSH2 0xA88 PUSH2 0x2C17 JUMP JUMPDEST POP PUSH1 0x64 CALLVALUE SWAP2 DIV PUSH2 0x2274 JUMP JUMPDEST PUSH32 0x6CD8C20496FA31DBA3F83C7ADCA278C356A6CAA5529741A5D2B9B774613C198B DUP2 DUP1 LOG1 DUP1 RETURN JUMPDEST SWAP2 SWAP1 POP CALLVALUE PUSH2 0x7E0 JUMPI DUP3 PUSH1 0x3 NOT CALLDATASIZE ADD SLT PUSH2 0x7E0 JUMPI PUSH2 0xAD5 PUSH2 0x212A JUMP JUMPDEST SWAP2 DUP4 PUSH1 0x24 CALLDATALOAD SWAP3 CALLER DUP2 MSTORE PUSH1 0x1 PUSH1 0x20 MSTORE DUP2 DUP2 KECCAK256 PUSH1 0x1 PUSH1 0xA0 PUSH1 0x2 EXP SUB DUP7 AND DUP3 MSTORE PUSH1 0x20 MSTORE KECCAK256 SLOAD SWAP1 DUP3 DUP3 LT PUSH2 0xB2B JUMPI PUSH1 0x20 DUP6 PUSH2 0xA48 DUP7 PUSH2 0xB24 DUP8 DUP8 PUSH2 0xB1F PUSH2 0xB16 PUSH2 0x2A8D JUMP JUMPDEST DUP3 DUP5 GT ISZERO PUSH2 0x2AC6 JUMP JUMPDEST PUSH2 0x23D7 JUMP JUMPDEST SWAP1 CALLER PUSH2 0x293E JUMP JUMPDEST PUSH1 0x84 SWAP1 PUSH1 0x20 DUP7 MLOAD SWAP2 PUSH1 0xE5 PUSH1 0x2 EXP PUSH3 0x461BCD MUL DUP4 MSTORE DUP3 ADD MSTORE PUSH1 0x25 PUSH1 0x24 DUP3 ADD MSTORE PUSH32 0x45524332303A2064656372656173656420616C6C6F77616E63652062656C6F77 PUSH1 0x44 DUP3 ADD MSTORE PUSH32 0x207A65726F000000000000000000000000000000000000000000000000000000 PUSH1 0x64 DUP3 ADD MSTORE REVERT JUMPDEST DUP3 DUP5 CALLVALUE PUSH2 0x24C JUMPI DUP2 PUSH1 0x3 NOT CALLDATASIZE ADD SLT PUSH2 0x24C JUMPI PUSH1 0x20 SWAP1 PUSH1 0x17 SLOAD SWAP1 MLOAD SWAP1 DUP2 MSTORE RETURN JUMPDEST SWAP1 POP DUP3 CALLVALUE PUSH2 0x7F7 JUMPI PUSH1 0x20 DUP1 PUSH1 0x3 NOT CALLDATASIZE ADD SLT PUSH2 0x7F3 JUMPI DUP3 CALLDATALOAD SWAP3 CALLER DUP6 MSTORE PUSH1 0xA DUP3 MSTORE PUSH2 0xBE4 PUSH1 0xFF DUP5 DUP8 KECCAK256 SLOAD AND PUSH2 0x21A9 JUMP JUMPDEST PUSH2 0xBF1 PUSH1 0x5 SLOAD DUP6 LT PUSH2 0x23E4 JUMP JUMPDEST DUP4 DUP6 MSTORE PUSH1 0x6 DUP3 MSTORE DUP3 DUP6 KECCAK256 CALLER DUP7 MSTORE DUP3 MSTORE PUSH1 0xFF DUP4 DUP7 KECCAK256 SLOAD AND PUSH2 0xC6D JUMPI POP PUSH2 0xC29 PUSH1 0xFF PUSH1 0xA0 PUSH1 0x2 EXP PUSH2 0xC1F DUP7 PUSH2 0x208D JUMP JUMPDEST POP SLOAD DIV AND ISZERO PUSH2 0x2458 JUMP JUMPDEST DUP3 DUP5 MSTORE PUSH1 0x6 DUP2 MSTORE DUP2 DUP5 KECCAK256 SWAP1 CALLER DUP6 MSTORE MSTORE DUP3 KECCAK256 PUSH1 0x1 PUSH1 0xFF NOT DUP3 SLOAD AND OR SWAP1 SSTORE CALLER PUSH32 0x12C8D6025943157CBCB4E904B3E3D97D2AC7EAE9F61F343B2E7CB23BE24BDBB7 DUP4 DUP1 LOG3 DUP1 RETURN JUMPDEST SWAP1 PUSH1 0x84 SWAP3 MLOAD SWAP2 PUSH1 0xE5 PUSH1 0x2 EXP PUSH3 0x461BCD MUL DUP4 MSTORE DUP3 ADD MSTORE PUSH1 0x3C PUSH1 0x24 DUP3 ADD MSTORE PUSH32 0x4D756C74695369676E617475726557616C6C65743A2070726F706F73616C2061 PUSH1 0x44 DUP3 ADD MSTORE PUSH32 0x6C72656164792077617320617070726F766564206279206F776E657200000000 PUSH1 0x64 DUP3 ADD MSTORE REVERT JUMPDEST SWAP1 POP DUP3 CALLVALUE PUSH2 0x7F7 JUMPI DUP3 PUSH1 0x3 NOT CALLDATASIZE ADD SLT PUSH2 0x7F7 JUMPI DUP1 MLOAD SWAP2 DUP4 DUP2 SLOAD SWAP2 PUSH1 0x2 DUP4 DIV SWAP2 PUSH1 0x1 SWAP2 DUP3 DUP6 AND SWAP5 DUP6 ISZERO PUSH2 0xDD3 JUMPI JUMPDEST PUSH1 0x20 SWAP6 DUP7 DUP7 LT DUP2 EQ PUSH2 0xDBD JUMPI DUP6 DUP10 MSTORE SWAP1 DUP2 ISZERO PUSH2 0xD9A JUMPI POP PUSH1 0x1 EQ PUSH2 0xD42 JUMPI JUMPDEST PUSH2 0xD3E DUP8 DUP8 PUSH2 0xD34 DUP3 DUP13 SUB DUP4 PUSH2 0x2252 JUMP JUMPDEST MLOAD SWAP2 DUP3 SWAP2 DUP3 PUSH2 0x20E1 JUMP JUMPDEST SUB SWAP1 RETURN JUMPDEST DUP2 MSTORE SWAP3 SWAP6 POP PUSH32 0x8A35ACFBC15FF81A39AE7D344FD709F28E8600B4AA8C65C6B64BFE7FE36BD19B JUMPDEST DUP3 DUP5 LT PUSH2 0xD87 JUMPI POP POP POP DUP3 PUSH2 0xD3E SWAP5 PUSH2 0xD34 SWAP3 DUP3 ADD ADD SWAP5 DUP7 DUP1 PUSH2 0xD23 JUMP JUMPDEST DUP1 SLOAD DUP7 DUP6 ADD DUP9 ADD MSTORE SWAP3 DUP7 ADD SWAP3 DUP2 ADD PUSH2 0xD69 JUMP JUMPDEST PUSH1 0xFF NOT AND DUP9 DUP8 ADD MSTORE POP POP POP POP ISZERO ISZERO DUP2 MUL DUP4 ADD ADD SWAP3 POP PUSH2 0xD34 DUP3 PUSH2 0xD3E DUP7 DUP1 PUSH2 0xD23 JUMP JUMPDEST PUSH1 0x24 DUP5 PUSH1 0x22 DUP6 PUSH1 0xE0 PUSH1 0x2 EXP PUSH4 0x4E487B71 MUL DUP4 MSTORE MSTORE REVERT JUMPDEST SWAP4 PUSH1 0x7F AND SWAP4 PUSH2 0xD04 JUMP JUMPDEST DUP3 DUP5 CALLVALUE PUSH2 0x24C JUMPI DUP2 PUSH1 0x3 NOT CALLDATASIZE ADD SLT PUSH2 0x24C JUMPI PUSH1 0x20 SWAP1 PUSH1 0x1A SLOAD SWAP1 MLOAD SWAP1 DUP2 MSTORE RETURN JUMPDEST DUP3 DUP5 CALLVALUE PUSH2 0x24C JUMPI DUP2 PUSH1 0x3 NOT CALLDATASIZE ADD SLT PUSH2 0x24C JUMPI PUSH1 0x20 SWAP1 PUSH1 0x1 PUSH1 0xA0 PUSH1 0x2 EXP SUB PUSH1 0x8 SLOAD AND SWAP1 MLOAD SWAP1 DUP2 MSTORE RETURN JUMPDEST SWAP1 POP DUP3 CALLVALUE PUSH2 0x7F7 JUMPI PUSH1 0x20 DUP1 PUSH1 0x3 NOT CALLDATASIZE ADD SLT PUSH2 0x7F3 JUMPI DUP3 CALLDATALOAD SWAP3 CALLER DUP6 MSTORE PUSH1 0xA DUP3 MSTORE PUSH2 0xE52 PUSH1 0xFF DUP5 DUP8 KECCAK256 SLOAD AND PUSH2 0x21A9 JUMP JUMPDEST PUSH2 0xE5F PUSH1 0x5 SLOAD DUP6 LT PUSH2 0x23E4 JUMP JUMPDEST PUSH2 0xE72 PUSH1 0xFF PUSH1 0xA0 PUSH1 0x2 EXP PUSH2 0xC1F DUP8 PUSH2 0x208D JUMP JUMPDEST DUP4 DUP6 MSTORE PUSH1 0x6 DUP3 MSTORE DUP3 DUP6 KECCAK256 CALLER DUP7 MSTORE DUP3 MSTORE PUSH1 0xFF DUP4 DUP7 KECCAK256 SLOAD AND ISZERO PUSH2 0xECF JUMPI POP DUP3 DUP5 MSTORE PUSH1 0x6 DUP2 MSTORE DUP2 DUP5 KECCAK256 SWAP1 CALLER DUP6 MSTORE MSTORE DUP3 KECCAK256 PUSH1 0xFF NOT DUP2 SLOAD AND SWAP1 SSTORE CALLER PUSH32 0xB8B1CBDD07C030BED9E01F4EE5465E3A3FD2AA8F7135C84467C0F3CF203925EB DUP4 DUP1 LOG3 DUP1 RETURN JUMPDEST SWAP1 PUSH1 0x84 SWAP3 MLOAD SWAP2 PUSH1 0xE5 PUSH1 0x2 EXP PUSH3 0x461BCD MUL DUP4 MSTORE DUP3 ADD MSTORE PUSH1 0x2E PUSH1 0x24 DUP3 ADD MSTORE PUSH32 0x4D756C74695369676E617475726557616C6C65743A2050726F706F73616C2069 PUSH1 0x44 DUP3 ADD MSTORE PUSH32 0x73206E6F7420617070726F766564000000000000000000000000000000000000 PUSH1 0x64 DUP3 ADD MSTORE REVERT JUMPDEST SWAP1 POP DUP3 CALLVALUE PUSH2 0x7F7 JUMPI PUSH1 0x60 CALLDATASIZE PUSH1 0x3 NOT ADD SLT PUSH2 0x7F7 JUMPI PUSH2 0xF55 PUSH2 0x212A JUMP JUMPDEST SWAP1 PUSH1 0x24 DUP1 CALLDATALOAD SWAP4 PUSH1 0x44 SWAP1 DUP2 CALLDATALOAD SWAP1 PUSH1 0x1 PUSH1 0xA0 PUSH1 0x2 EXP SUB SWAP3 DUP4 PUSH1 0x7 SLOAD AND SWAP5 CALLER DUP7 SUB PUSH2 0x13B2 JUMPI DUP5 DUP10 SWAP9 AND SWAP5 DUP6 DUP12 MSTORE PUSH1 0x20 SWAP7 PUSH1 0xA DUP9 MSTORE PUSH1 0xFF DUP10 DUP14 KECCAK256 SLOAD AND PUSH2 0x136F JUMPI DUP7 EQ PUSH2 0x132C JUMPI DUP1 PUSH1 0x14 SLOAD AND DUP7 EQ PUSH2 0x12E9 JUMPI DUP1 PUSH1 0x15 SLOAD AND DUP7 EQ PUSH2 0x12A6 JUMPI PUSH1 0x16 SLOAD AND DUP6 EQ PUSH2 0x1263 JUMPI PUSH1 0x4B DUP5 GT PUSH2 0x1220 JUMPI DUP5 DUP11 MSTORE PUSH1 0xE DUP7 MSTORE DUP7 DUP11 KECCAK256 SLOAD PUSH2 0x11DD JUMPI PUSH1 0x13 SLOAD DUP10 GT PUSH2 0x1174 JUMPI POP POP POP PUSH2 0xFE6 PUSH1 0x64 SWAP2 DUP8 PUSH2 0x2BF2 JUMP JUMPDEST PUSH2 0xFEE PUSH2 0x2C17 JUMP JUMPDEST POP DIV SWAP5 PUSH1 0x17 SLOAD SWAP1 PUSH1 0x18 SLOAD PUSH2 0x1002 DUP2 DUP5 PUSH2 0x21F7 JUMP JUMPDEST SWAP3 PUSH2 0x1010 PUSH1 0x19 SLOAD DUP1 SWAP6 PUSH2 0x21F7 JUMP JUMPDEST SWAP1 DUP2 PUSH2 0x1038 JUMPI POP POP POP POP POP PUSH2 0x102B PUSH1 0xE SWAP4 SWAP5 SWAP6 PUSH1 0x1B SLOAD PUSH2 0x2A78 JUMP JUMPDEST PUSH1 0x1B SSTORE JUMPDEST DUP6 MSTORE MSTORE DUP3 KECCAK256 SSTORE DUP1 RETURN JUMPDEST PUSH2 0x1049 SWAP2 SWAP3 SWAP5 SWAP10 SWAP4 SWAP6 SWAP8 SWAP9 POP PUSH2 0x2BB0 JUMP JUMPDEST DUP2 PUSH2 0x1052 PUSH2 0x2C17 JUMP JUMPDEST POP PUSH2 0x105C SWAP2 PUSH2 0x2AF1 JUMP JUMPDEST SWAP3 PUSH2 0x1066 SWAP1 PUSH2 0x2BB0 JUMP JUMPDEST DUP2 PUSH2 0x106F PUSH2 0x2C17 JUMP JUMPDEST POP PUSH2 0x1079 SWAP2 PUSH2 0x2AF1 JUMP JUMPDEST SWAP8 PUSH2 0x1083 SWAP1 PUSH2 0x2BB0 JUMP JUMPDEST SWAP1 PUSH2 0x108C PUSH2 0x2C17 JUMP JUMPDEST POP PUSH2 0x1096 SWAP2 PUSH2 0x2AF1 JUMP JUMPDEST SWAP2 PUSH2 0x10A1 SWAP1 DUP3 PUSH2 0x2BF2 JUMP JUMPDEST PUSH2 0x10A9 PUSH2 0x2C17 JUMP JUMPDEST POP PUSH1 0x64 SWAP1 DIV SWAP7 PUSH2 0x10B9 SWAP1 DUP3 PUSH2 0x2BF2 JUMP JUMPDEST PUSH2 0x10C1 PUSH2 0x2C17 JUMP JUMPDEST POP PUSH1 0x64 SWAP1 DIV SWAP2 PUSH2 0x10D0 SWAP2 PUSH2 0x2BF2 JUMP JUMPDEST PUSH2 0x10D8 PUSH2 0x2C17 JUMP JUMPDEST POP PUSH1 0x64 SWAP1 DIV SWAP2 DUP7 PUSH2 0x10E7 PUSH2 0x2A8D JUMP JUMPDEST PUSH2 0x10F4 SWAP1 DUP4 DUP4 GT ISZERO PUSH2 0x2AC6 JUMP JUMPDEST PUSH2 0x10FD SWAP2 PUSH2 0x23D7 JUMP JUMPDEST DUP2 PUSH2 0x1106 PUSH2 0x2A8D JUMP JUMPDEST PUSH2 0x1113 SWAP1 DUP4 DUP4 GT ISZERO PUSH2 0x2AC6 JUMP JUMPDEST PUSH2 0x111C SWAP2 PUSH2 0x23D7 JUMP JUMPDEST DUP3 PUSH2 0x1125 PUSH2 0x2A8D JUMP JUMPDEST PUSH2 0x1132 SWAP1 DUP4 DUP4 GT ISZERO PUSH2 0x2AC6 JUMP JUMPDEST PUSH2 0x113B SWAP2 PUSH2 0x23D7 JUMP JUMPDEST SWAP6 PUSH1 0x1B SLOAD SWAP1 PUSH2 0x1149 SWAP2 PUSH2 0x2A78 JUMP JUMPDEST PUSH1 0x1B SSTORE PUSH1 0x1C SLOAD SWAP1 PUSH2 0x1159 SWAP2 PUSH2 0x2A78 JUMP JUMPDEST PUSH1 0x1C SSTORE PUSH1 0x1D SLOAD SWAP1 PUSH2 0x1169 SWAP2 PUSH2 0x2A78 JUMP JUMPDEST PUSH1 0x1D SSTORE PUSH1 0xE SWAP2 PUSH2 0x102F JUMP JUMPDEST PUSH1 0x84 SWAP3 SWAP2 PUSH1 0x38 PUSH32 0x416D6F756E742063616E2774206578636565647320746865206D617820747261 SWAP3 DUP9 DUP11 MLOAD SWAP6 PUSH1 0xE5 PUSH1 0x2 EXP PUSH3 0x461BCD MUL DUP8 MSTORE DUP7 ADD MSTORE DUP5 ADD MSTORE DUP3 ADD MSTORE PUSH32 0x6E73616374696F6E20776974686472617720616D6F756E740000000000000000 PUSH1 0x64 DUP3 ADD MSTORE REVERT JUMPDEST PUSH1 0x64 SWAP3 SWAP2 PUSH1 0x1C PUSH32 0x55736572206861732070656E64696E67205769746864726177616C7300000000 SWAP3 DUP9 DUP11 MLOAD SWAP6 PUSH1 0xE5 PUSH1 0x2 EXP PUSH3 0x461BCD MUL DUP8 MSTORE DUP7 ADD MSTORE DUP5 ADD MSTORE DUP3 ADD MSTORE REVERT JUMPDEST PUSH1 0x64 SWAP3 SWAP2 PUSH1 0x19 PUSH32 0x546865206665652063616E6E6F74206578636565642037352500000000000000 SWAP3 DUP9 DUP11 MLOAD SWAP6 PUSH1 0xE5 PUSH1 0x2 EXP PUSH3 0x461BCD MUL DUP8 MSTORE DUP7 ADD MSTORE DUP5 ADD MSTORE DUP3 ADD MSTORE REVERT JUMPDEST PUSH1 0x64 SWAP3 SWAP2 PUSH1 0x1B PUSH32 0x5465616D2063616E2774206D616B65207769746864726177616C730000000000 SWAP3 DUP9 DUP11 MLOAD SWAP6 PUSH1 0xE5 PUSH1 0x2 EXP PUSH3 0x461BCD MUL DUP8 MSTORE DUP7 ADD MSTORE DUP5 ADD MSTORE DUP3 ADD MSTORE REVERT JUMPDEST PUSH1 0x64 DUP5 PUSH32 0x536B796C65722063616E2774206D616B65207769746864726177616C73000000 DUP6 PUSH1 0x1D DUP7 DUP13 DUP15 MLOAD SWAP6 PUSH1 0xE5 PUSH1 0x2 EXP PUSH3 0x461BCD MUL DUP8 MSTORE DUP7 ADD MSTORE DUP5 ADD MSTORE DUP3 ADD MSTORE REVERT JUMPDEST PUSH1 0x64 DUP5 PUSH32 0x48656973656E2063616E2774206D616B65207769746864726177616C73000000 DUP6 PUSH1 0x1D DUP7 DUP13 DUP15 MLOAD SWAP6 PUSH1 0xE5 PUSH1 0x2 EXP PUSH3 0x461BCD MUL DUP8 MSTORE DUP7 ADD MSTORE DUP5 ADD MSTORE DUP3 ADD MSTORE REVERT JUMPDEST PUSH1 0x64 DUP5 PUSH32 0x4261636B656E642063616E2774206D616B65207769746864726177616C730000 DUP6 PUSH1 0x1E DUP7 DUP13 DUP15 MLOAD SWAP6 PUSH1 0xE5 PUSH1 0x2 EXP PUSH3 0x461BCD MUL DUP8 MSTORE DUP7 ADD MSTORE DUP5 ADD MSTORE DUP3 ADD MSTORE REVERT JUMPDEST PUSH1 0x64 DUP6 PUSH32 0x4F776E6572732063616E2774206D616B65207769746864726177616C73000000 DUP7 PUSH1 0x1D DUP8 DUP14 DUP16 MLOAD SWAP6 PUSH1 0xE5 PUSH1 0x2 EXP PUSH3 0x461BCD MUL DUP8 MSTORE DUP7 ADD MSTORE DUP5 ADD MSTORE DUP3 ADD MSTORE REVERT JUMPDEST PUSH1 0x84 SWAP3 SWAP2 PUSH1 0x22 PUSH32 0x4F776E61626C653A2063616C6C6572206973206E6F7420746865206261636B65 SWAP3 PUSH1 0x20 DUP11 MLOAD SWAP6 PUSH1 0xE5 PUSH1 0x2 EXP PUSH3 0x461BCD MUL DUP8 MSTORE DUP7 ADD MSTORE DUP5 ADD MSTORE DUP3 ADD MSTORE PUSH32 0x6E64000000000000000000000000000000000000000000000000000000000000 PUSH1 0x64 DUP3 ADD MSTORE REVERT JUMPDEST DUP3 DUP5 CALLVALUE PUSH2 0x24C JUMPI DUP2 PUSH1 0x3 NOT CALLDATASIZE ADD SLT PUSH2 0x24C JUMPI PUSH1 0x20 SWAP1 PUSH1 0x18 SLOAD SWAP1 MLOAD SWAP1 DUP2 MSTORE RETURN JUMPDEST DUP3 DUP5 CALLVALUE PUSH2 0x24C JUMPI DUP2 PUSH1 0x3 NOT CALLDATASIZE ADD SLT PUSH2 0x24C JUMPI PUSH1 0x20 SWAP1 PUSH1 0x1 PUSH1 0xA0 PUSH1 0x2 EXP SUB PUSH1 0x14 SLOAD AND SWAP1 MLOAD SWAP1 DUP2 MSTORE RETURN JUMPDEST DUP3 DUP5 CALLVALUE PUSH2 0x24C JUMPI DUP2 PUSH1 0x3 NOT CALLDATASIZE ADD SLT PUSH2 0x24C JUMPI PUSH1 0x20 SWAP1 PUSH1 0x11 SLOAD SWAP1 MLOAD SWAP1 DUP2 MSTORE RETURN JUMPDEST DUP3 DUP5 CALLVALUE PUSH2 0x24C JUMPI PUSH1 0x20 CALLDATASIZE PUSH1 0x3 NOT ADD SLT PUSH2 0x24C JUMPI DUP1 PUSH1 0x20 SWAP3 PUSH1 0x1 PUSH1 0xA0 PUSH1 0x2 EXP SUB PUSH2 0x14A9 PUSH2 0x212A JUMP JUMPDEST AND DUP2 MSTORE DUP1 DUP5 MSTORE KECCAK256 SLOAD SWAP1 MLOAD SWAP1 DUP2 MSTORE RETURN JUMPDEST DUP3 DUP5 CALLVALUE PUSH2 0x24C JUMPI DUP2 PUSH1 0x3 NOT CALLDATASIZE ADD SLT PUSH2 0x24C JUMPI PUSH1 0x20 SWAP1 PUSH1 0x1 PUSH1 0xA0 PUSH1 0x2 EXP SUB PUSH1 0x16 SLOAD AND SWAP1 MLOAD SWAP1 DUP2 MSTORE RETURN JUMPDEST DUP3 DUP5 CALLVALUE PUSH2 0x24C JUMPI DUP2 PUSH1 0x3 NOT CALLDATASIZE ADD SLT PUSH2 0x24C JUMPI PUSH1 0x20 SWAP1 PUSH1 0x1D SLOAD SWAP1 MLOAD SWAP1 DUP2 MSTORE RETURN JUMPDEST SWAP1 POP DUP2 PUSH1 0x3 NOT CALLDATASIZE ADD SLT PUSH2 0x24C JUMPI CALLER DUP3 MSTORE PUSH1 0x20 SWAP1 PUSH1 0xF DUP3 MSTORE DUP4 DUP4 KECCAK256 SLOAD PUSH3 0x15180 DUP2 ADD SWAP1 DUP2 DUP2 GT PUSH2 0x1700 JUMPI DUP2 LT PUSH2 0x16BB JUMPI TIMESTAMP GT PUSH2 0x1716 JUMPI JUMPDEST CALLER DUP4 MSTORE PUSH1 0x10 DUP3 MSTORE DUP4 DUP4 KECCAK256 SLOAD PUSH1 0x1 DUP2 ADD SWAP1 DUP2 DUP2 GT PUSH2 0x1700 JUMPI DUP2 LT PUSH2 0x16BB JUMPI CALLER DUP5 MSTORE PUSH1 0x10 DUP4 MSTORE DUP5 DUP5 KECCAK256 SSTORE DUP4 DUP4 KECCAK256 SLOAD PUSH1 0x12 SLOAD LT PUSH2 0x1651 JUMPI PUSH1 0x11 SLOAD CALLVALUE LT PUSH2 0x15C1 JUMPI POP PUSH32 0x5B6B431D4476A211BB7D41C20D1AAB9AE2321DEEE0D20BE3D9FC9B1093FA6E3D SWAP2 SWAP3 CALLER DUP5 MSTORE PUSH1 0xE DUP3 MSTORE DUP1 DUP5 KECCAK256 SLOAD SWAP1 PUSH2 0x15AD DUP3 CALLER ADDRESS PUSH2 0x2836 JUMP JUMPDEST CALLER DUP6 MSTORE PUSH1 0xE DUP4 MSTORE DUP5 DUP2 DUP2 KECCAK256 SSTORE MLOAD SWAP1 DUP2 MSTORE LOG1 DUP1 RETURN JUMPDEST PUSH1 0xA4 SWAP2 DUP5 MLOAD SWAP2 PUSH1 0xE5 PUSH1 0x2 EXP PUSH3 0x461BCD MUL DUP4 MSTORE DUP3 ADD MSTORE PUSH1 0x44 PUSH1 0x24 DUP3 ADD MSTORE PUSH32 0x54686520616D6F756E742073656E74206973206E6F7420657175616C20746F20 PUSH1 0x44 DUP3 ADD MSTORE PUSH32 0x74686520424E4220616D6F756E7420726571756972656420666F722077697468 PUSH1 0x64 DUP3 ADD MSTORE PUSH32 0x6472617700000000000000000000000000000000000000000000000000000000 PUSH1 0x84 DUP3 ADD MSTORE REVERT JUMPDEST PUSH1 0x84 SWAP2 DUP5 MLOAD SWAP2 PUSH1 0xE5 PUSH1 0x2 EXP PUSH3 0x461BCD MUL DUP4 MSTORE DUP3 ADD MSTORE PUSH1 0x30 PUSH1 0x24 DUP3 ADD MSTORE PUSH32 0x596F752063616E6E6F74206D616B65206D6F7265207468616E206F6E65207769 PUSH1 0x44 DUP3 ADD MSTORE PUSH32 0x746864726177616C207065722064617900000000000000000000000000000000 PUSH1 0x64 DUP3 ADD MSTORE REVERT JUMPDEST POP PUSH1 0x64 SWAP2 DUP5 MLOAD SWAP2 PUSH1 0xE5 PUSH1 0x2 EXP PUSH3 0x461BCD MUL DUP4 MSTORE DUP3 ADD MSTORE PUSH1 0x1B PUSH1 0x24 DUP3 ADD MSTORE PUSH32 0x536166654D6174683A206164646974696F6E206F766572666C6F770000000000 PUSH1 0x44 DUP3 ADD MSTORE REVERT JUMPDEST PUSH1 0x24 DUP6 PUSH1 0x11 DUP6 PUSH1 0xE0 PUSH1 0x2 EXP PUSH4 0x4E487B71 MUL DUP4 MSTORE MSTORE REVERT JUMPDEST CALLER DUP4 MSTORE PUSH1 0xF DUP3 MSTORE TIMESTAMP DUP5 DUP5 KECCAK256 SSTORE PUSH1 0x10 DUP3 MSTORE DUP3 DUP5 DUP2 KECCAK256 SSTORE PUSH2 0x1535 JUMP JUMPDEST DUP3 DUP5 CALLVALUE PUSH2 0x24C JUMPI DUP1 PUSH1 0x3 NOT CALLDATASIZE ADD SLT PUSH2 0x24C JUMPI PUSH2 0xA48 PUSH1 0x20 SWAP3 PUSH2 0xB24 PUSH2 0x1753 PUSH2 0x212A JUMP JUMPDEST SWAP2 CALLER DUP2 MSTORE PUSH1 0x1 DUP7 MSTORE DUP5 DUP2 KECCAK256 PUSH1 0x1 PUSH1 0xA0 PUSH1 0x2 EXP SUB DUP5 AND DUP3 MSTORE DUP7 MSTORE DUP5 PUSH1 0x24 CALLDATALOAD SWAP2 KECCAK256 SLOAD PUSH2 0x2A78 JUMP JUMPDEST DUP3 DUP5 CALLVALUE PUSH2 0x24C JUMPI DUP2 PUSH1 0x3 NOT CALLDATASIZE ADD SLT PUSH2 0x24C JUMPI PUSH1 0x20 SWAP1 PUSH1 0x1B SLOAD SWAP1 MLOAD SWAP1 DUP2 MSTORE RETURN JUMPDEST DUP3 DUP5 CALLVALUE PUSH2 0x24C JUMPI DUP2 PUSH1 0x3 NOT CALLDATASIZE ADD SLT PUSH2 0x24C JUMPI PUSH1 0x20 SWAP1 MLOAD PUSH1 0x12 DUP2 MSTORE RETURN JUMPDEST DUP3 DUP5 CALLVALUE PUSH2 0x24C JUMPI DUP2 PUSH1 0x3 NOT CALLDATASIZE ADD SLT PUSH2 0x24C JUMPI PUSH1 0x20 SWAP1 PUSH1 0x1E SLOAD SWAP1 MLOAD SWAP1 DUP2 MSTORE RETURN JUMPDEST SWAP1 POP CALLVALUE PUSH2 0x24C JUMPI PUSH1 0x60 CALLDATASIZE PUSH1 0x3 NOT ADD SLT PUSH2 0x24C JUMPI PUSH2 0x17ED PUSH2 0x212A JUMP JUMPDEST PUSH2 0x17F5 PUSH2 0x2145 JUMP JUMPDEST SWAP2 DUP5 PUSH1 0x44 CALLDATALOAD SWAP5 PUSH1 0x1 PUSH1 0xA0 PUSH1 0x2 EXP SUB DUP5 AND DUP2 MSTORE PUSH1 0x1 PUSH1 0x20 MSTORE DUP2 DUP2 KECCAK256 CALLER DUP3 MSTORE PUSH1 0x20 MSTORE KECCAK256 SLOAD SWAP1 PUSH1 0x0 NOT DUP3 SUB PUSH2 0x1830 JUMPI JUMPDEST PUSH1 0x20 DUP7 PUSH2 0xA48 DUP8 DUP8 DUP8 PUSH2 0x275F JUMP JUMPDEST DUP5 DUP3 LT PUSH2 0x1866 JUMPI POP SWAP2 DUP4 SWAP2 PUSH2 0x185B PUSH2 0x1854 PUSH1 0x20 SWAP8 SWAP7 PUSH2 0xA48 SWAP7 PUSH2 0xB1F PUSH2 0xB16 PUSH2 0x2A8D JUMP JUMPDEST CALLER DUP4 PUSH2 0x293E JUMP JUMPDEST SWAP2 SWAP4 SWAP5 DUP2 SWAP4 POP PUSH2 0x1822 JUMP JUMPDEST PUSH1 0x64 SWAP1 PUSH1 0x20 DUP8 MLOAD SWAP2 PUSH1 0xE5 PUSH1 0x2 EXP PUSH3 0x461BCD MUL DUP4 MSTORE DUP3 ADD MSTORE PUSH1 0x1D PUSH1 0x24 DUP3 ADD MSTORE PUSH32 0x45524332303A20696E73756666696369656E7420616C6C6F77616E6365000000 PUSH1 0x44 DUP3 ADD MSTORE REVERT JUMPDEST DUP3 DUP5 CALLVALUE PUSH2 0x24C JUMPI DUP2 PUSH1 0x3 NOT CALLDATASIZE ADD SLT PUSH2 0x24C JUMPI PUSH1 0x20 SWAP1 PUSH1 0x1C SLOAD SWAP1 MLOAD SWAP1 DUP2 MSTORE RETURN JUMPDEST DUP3 DUP5 CALLVALUE PUSH2 0x24C JUMPI DUP2 PUSH1 0x3 NOT CALLDATASIZE ADD SLT PUSH2 0x24C JUMPI PUSH1 0x20 SWAP1 PUSH1 0x2 SLOAD SWAP1 MLOAD SWAP1 DUP2 MSTORE RETURN JUMPDEST DUP3 DUP5 CALLVALUE PUSH2 0x24C JUMPI DUP2 PUSH1 0x3 NOT CALLDATASIZE ADD SLT PUSH2 0x24C JUMPI PUSH1 0x20 SWAP1 PUSH1 0x1 PUSH1 0xA0 PUSH1 0x2 EXP SUB PUSH1 0xB SLOAD AND SWAP1 MLOAD SWAP1 DUP2 MSTORE RETURN JUMPDEST DUP4 SWAP2 POP CALLVALUE PUSH2 0x7F7 JUMPI PUSH1 0x20 SWAP1 DUP2 PUSH1 0x3 NOT CALLDATASIZE ADD SLT PUSH2 0x7F3 JUMPI DUP1 CALLDATALOAD PUSH2 0x1937 PUSH1 0x5 SLOAD DUP3 LT PUSH2 0x23E4 JUMP JUMPDEST PUSH2 0x1940 DUP2 PUSH2 0x208D JUMP JUMPDEST POP PUSH1 0xFF SWAP2 PUSH2 0x1958 DUP4 PUSH1 0xA0 PUSH1 0x2 EXP DUP1 SWAP5 SLOAD DIV AND ISZERO PUSH2 0x2458 JUMP JUMPDEST PUSH1 0x9 SLOAD DUP8 DUP1 JUMPDEST DUP3 DUP2 LT PUSH2 0x1C8A JUMPI POP LT PUSH2 0x1C1F JUMPI SWAP1 PUSH2 0x1977 PUSH1 0x7 SWAP3 PUSH2 0x208D JUMP JUMPDEST POP SWAP1 PUSH21 0xFF0000000000000000000000000000000000000000 NOT DUP3 SLOAD AND OR DUP1 DUP3 SSTORE DUP6 DUP5 DUP1 PUSH22 0x1000000000000000000000000000000000000000000 DUP5 DIV AND PUSH2 0x1BC5 JUMPI JUMPDEST SWAP2 POP POP PUSH24 0x10000000000000000000000000000000000000000000000 DUP3 SLOAD DIV AND PUSH2 0x1B89 JUMPI JUMPDEST DUP3 PUSH25 0x1000000000000000000000000000000000000000000000000 DUP3 SLOAD DIV AND PUSH2 0x1B53 JUMPI JUMPDEST DUP3 PUSH1 0x2 DUP3 ADD SLOAD AND PUSH2 0x1AF4 JUMPI JUMPDEST ADD DUP1 SLOAD SWAP2 DUP3 AND PUSH2 0x1A1C JUMPI DUP6 DUP1 RETURN JUMPDEST PUSH1 0x1 PUSH1 0xA0 PUSH1 0x2 EXP SUB SWAP3 DUP4 PUSH2 0x100 DUP1 SWAP5 DIV AND SWAP1 DUP2 ISZERO PUSH2 0x1A89 JUMPI POP DUP1 PUSH1 0x1 PUSH1 0xA0 PUSH1 0x2 EXP SUB NOT PUSH1 0x7 SLOAD AND OR PUSH1 0x7 SSTORE DUP7 PUSH32 0x8BE0079C531659141344CD1FD0A4F28419497F9722A3DAAFE3B4186F6B6457E0 DUP2 DUP1 LOG3 SLOAD DIV AND DUP4 MSTORE DUP1 MSTORE DUP2 KECCAK256 DUP1 SLOAD PUSH1 0xFF NOT AND PUSH1 0x1 OR SWAP1 SSTORE DUP2 DUP1 DUP1 DUP1 DUP1 DUP6 DUP1 RETURN JUMPDEST PUSH1 0x84 SWAP1 DUP7 DUP9 MLOAD SWAP2 PUSH1 0xE5 PUSH1 0x2 EXP PUSH3 0x461BCD MUL DUP4 MSTORE DUP3 ADD MSTORE PUSH1 0x26 PUSH1 0x24 DUP3 ADD MSTORE PUSH32 0x4F776E61626C653A206E6577206F776E657220697320746865207A65726F2061 PUSH1 0x44 DUP3 ADD MSTORE PUSH32 0x6464726573730000000000000000000000000000000000000000000000000000 PUSH1 0x64 DUP3 ADD MSTORE REVERT JUMPDEST PUSH32 0xAC9D517045A5EC57DA9F145E5C349535857BAA98B41FA00AEA81886B40B65EE9 PUSH1 0x80 PUSH1 0x3 DUP4 ADD SLOAD DUP7 DUP5 ADD SLOAD PUSH1 0x5 DUP6 ADD SLOAD PUSH1 0x6 DUP7 ADD SLOAD SWAP2 DUP4 PUSH1 0x17 SSTORE DUP1 PUSH1 0x18 SSTORE DUP2 PUSH1 0x19 SSTORE DUP3 PUSH1 0x1A SSTORE DUP12 MLOAD SWAP4 DUP5 MSTORE DUP11 DUP5 ADD MSTORE DUP11 DUP4 ADD MSTORE PUSH1 0x60 DUP3 ADD MSTORE LOG1 PUSH2 0x1A0E JUMP JUMPDEST PUSH32 0x7752C7A6D518AB1CF03B50E7D7FD3DA3258EB319DC343789E0A7BED06C43066C DUP6 PUSH1 0x1 DUP4 ADD SLOAD DUP1 PUSH1 0x11 SSTORE DUP9 MLOAD SWAP1 DUP2 MSTORE LOG1 PUSH2 0x1A02 JUMP JUMPDEST PUSH2 0x1BBC ADDRESS BALANCE PUSH2 0x1B99 PUSH1 0x1E SLOAD PUSH2 0x24CC JUMP JUMPDEST ADDRESS DUP10 MSTORE DUP9 DUP8 MSTORE PUSH1 0x64 PUSH2 0x1BAD DUP10 DUP12 KECCAK256 SLOAD PUSH2 0x2B14 JUMP JUMPDEST PUSH2 0x1BB5 PUSH2 0x2C17 JUMP JUMPDEST POP DIV PUSH2 0x2274 JUMP JUMPDEST DUP7 PUSH1 0x1E SSTORE PUSH2 0x19DE JUMP JUMPDEST PUSH23 0x100000000000000000000000000000000000000000000 PUSH32 0x1B48326D6E9158A921C6006B9D6AD4B9D777C488E9B7924B3E0C8B0B1304604 SWAP4 DIV AND ISZERO ISZERO PUSH1 0xFF NOT PUSH1 0xD SLOAD AND DUP7 DUP3 AND OR PUSH1 0xD SSTORE DUP9 MLOAD SWAP1 DUP2 MSTORE LOG1 DUP8 DUP6 DUP5 PUSH2 0x19B9 JUMP JUMPDEST PUSH1 0x84 DUP5 DUP7 DUP9 MLOAD SWAP2 PUSH1 0xE5 PUSH1 0x2 EXP PUSH3 0x461BCD MUL DUP4 MSTORE DUP3 ADD MSTORE PUSH1 0x35 PUSH1 0x24 DUP3 ADD MSTORE PUSH32 0x4D756C74695369676E617475726557616C6C65743A20617070726F76616C7320 PUSH1 0x44 DUP3 ADD MSTORE PUSH32 0x6973206C657373207468616E2072657175697265640000000000000000000000 PUSH1 0x64 DUP3 ADD MSTORE REVERT JUMPDEST DUP4 DUP11 MSTORE PUSH1 0x6 DUP9 MSTORE DUP9 DUP11 KECCAK256 PUSH1 0x1 PUSH1 0xA0 PUSH1 0x2 EXP SUB DUP3 PUSH32 0x6E1540171B6C0C960B71A7020D9F60077F6AF931A8BBF590DA0223DACF75C7AF ADD SLOAD AND DUP12 MSTORE DUP9 MSTORE DUP6 DUP10 DUP12 KECCAK256 SLOAD AND PUSH2 0x1CF7 JUMPI JUMPDEST PUSH1 0x0 NOT DUP2 EQ PUSH2 0x1CE1 JUMPI PUSH1 0x1 ADD PUSH2 0x195E JUMP JUMPDEST PUSH1 0x24 DUP11 PUSH1 0x11 DUP10 PUSH1 0xE0 PUSH1 0x2 EXP PUSH4 0x4E487B71 MUL DUP4 MSTORE MSTORE REVERT JUMPDEST SWAP1 PUSH1 0x1 DUP2 ADD DUP1 SWAP2 GT PUSH2 0x1CE1 JUMPI SWAP1 PUSH2 0x1CD0 JUMP JUMPDEST DUP3 DUP5 CALLVALUE PUSH2 0x24C JUMPI DUP2 PUSH1 0x3 NOT CALLDATASIZE ADD SLT PUSH2 0x24C JUMPI PUSH1 0x20 SWAP1 PUSH1 0x1 PUSH1 0xA0 PUSH1 0x2 EXP SUB PUSH1 0x15 SLOAD AND SWAP1 MLOAD SWAP1 DUP2 MSTORE RETURN JUMPDEST DUP3 DUP5 CALLVALUE PUSH2 0x24C JUMPI DUP1 PUSH1 0x3 NOT CALLDATASIZE ADD SLT PUSH2 0x24C JUMPI PUSH1 0x20 SWAP1 PUSH2 0xA48 PUSH2 0x1D51 PUSH2 0x212A JUMP JUMPDEST PUSH1 0x24 CALLDATALOAD SWAP1 CALLER PUSH2 0x293E JUMP JUMPDEST SWAP1 POP DUP3 CALLVALUE PUSH2 0x7F7 JUMPI DUP3 PUSH1 0x3 NOT CALLDATASIZE ADD SLT PUSH2 0x7F7 JUMPI DUP1 MLOAD SWAP2 DUP4 PUSH1 0x3 SLOAD PUSH1 0x2 DUP2 DIV SWAP2 PUSH1 0x1 SWAP2 DUP3 DUP2 AND DUP1 ISZERO PUSH2 0x1E48 JUMPI JUMPDEST PUSH1 0x20 SWAP6 DUP7 DUP7 LT DUP3 EQ PUSH2 0x1E32 JUMPI POP DUP5 DUP9 MSTORE SWAP1 DUP2 ISZERO PUSH2 0x1E11 JUMPI POP PUSH1 0x1 EQ PUSH2 0x1DB8 JUMPI JUMPDEST PUSH2 0xD3E DUP7 DUP7 PUSH2 0xD34 DUP3 DUP12 SUB DUP4 PUSH2 0x2252 JUMP JUMPDEST SWAP3 SWAP6 POP PUSH1 0x3 DUP4 MSTORE PUSH32 0xC2575A0E9E593C00F959F8C92F12DB2869C3395A3B0502D05E2516446F71F85B JUMPDEST DUP3 DUP5 LT PUSH2 0x1DFE JUMPI POP POP POP DUP3 PUSH2 0xD3E SWAP5 PUSH2 0xD34 SWAP3 DUP3 ADD ADD SWAP5 DUP7 PUSH2 0x1DA7 JUMP JUMPDEST DUP1 SLOAD DUP7 DUP6 ADD DUP9 ADD MSTORE SWAP3 DUP7 ADD SWAP3 DUP2 ADD PUSH2 0x1DE1 JUMP JUMPDEST PUSH1 0xFF NOT AND DUP8 DUP7 ADD MSTORE POP POP POP ISZERO ISZERO DUP2 MUL DUP4 ADD ADD SWAP3 POP PUSH2 0xD34 DUP3 PUSH2 0xD3E DUP7 PUSH2 0x1DA7 JUMP JUMPDEST DUP4 PUSH1 0x22 PUSH1 0x24 SWAP3 PUSH1 0xE0 PUSH1 0x2 EXP PUSH4 0x4E487B71 MUL DUP4 MSTORE MSTORE REVERT JUMPDEST SWAP4 PUSH1 0x7F AND SWAP4 PUSH2 0x1D87 JUMP JUMPDEST DUP5 DUP5 SWAP3 CALLVALUE PUSH2 0x7F3 JUMPI PUSH1 0x20 CALLDATASIZE PUSH1 0x3 NOT ADD SLT PUSH2 0x7F3 JUMPI CALLDATALOAD PUSH1 0x5 SLOAD DUP2 LT ISZERO PUSH2 0x7F3 JUMPI PUSH1 0x8 SWAP1 PUSH1 0x5 PUSH2 0x1C0 SWAP6 MSTORE MUL DUP1 PUSH32 0x36B6384B5ECA791C62761152D0C79BB0604C104A5FB6F4EB0703F3154BB3DB0 ADD SLOAD PUSH32 0x36B6384B5ECA791C62761152D0C79BB0604C104A5FB6F4EB0703F3154BB3DB1 DUP3 ADD SLOAD SWAP2 PUSH1 0xFF SWAP1 DUP2 PUSH32 0x36B6384B5ECA791C62761152D0C79BB0604C104A5FB6F4EB0703F3154BB3DB2 DUP3 ADD SLOAD AND SWAP4 PUSH32 0x36B6384B5ECA791C62761152D0C79BB0604C104A5FB6F4EB0703F3154BB3DB3 DUP3 ADD SLOAD SWAP5 PUSH32 0x36B6384B5ECA791C62761152D0C79BB0604C104A5FB6F4EB0703F3154BB3DB4 DUP4 ADD SLOAD SWAP1 PUSH32 0x36B6384B5ECA791C62761152D0C79BB0604C104A5FB6F4EB0703F3154BB3DB5 DUP5 ADD SLOAD SWAP3 DUP6 PUSH25 0x1000000000000000000000000000000000000000000000000 PUSH32 0x36B6384B5ECA791C62761152D0C79BB0604C104A5FB6F4EB0703F3154BB3DB7 PUSH32 0x36B6384B5ECA791C62761152D0C79BB0604C104A5FB6F4EB0703F3154BB3DB6 DUP9 ADD SLOAD SWAP8 ADD SLOAD SWAP9 DUP13 PUSH1 0x1 PUSH1 0xA0 PUSH1 0x2 EXP SUB SWAP13 DUP14 DUP4 AND DUP3 MSTORE DUP5 PUSH1 0xA0 PUSH1 0x2 EXP DUP5 DIV AND ISZERO ISZERO PUSH1 0x20 DUP4 ADD MSTORE DUP5 PUSH22 0x1000000000000000000000000000000000000000000 DUP5 DIV AND ISZERO ISZERO SWAP2 ADD MSTORE DUP13 PUSH1 0x60 DUP5 PUSH23 0x100000000000000000000000000000000000000000000 DUP5 DIV AND ISZERO ISZERO SWAP2 ADD MSTORE DUP13 PUSH1 0x80 DUP5 PUSH24 0x10000000000000000000000000000000000000000000000 DUP5 DIV AND ISZERO ISZERO SWAP2 ADD MSTORE DIV AND ISZERO ISZERO PUSH1 0xA0 DUP12 ADD MSTORE PUSH1 0xC0 DUP11 ADD MSTORE ISZERO ISZERO PUSH1 0xE0 DUP10 ADD MSTORE PUSH2 0x100 SWAP6 DUP7 DUP10 ADD MSTORE PUSH2 0x120 DUP9 ADD MSTORE PUSH2 0x140 DUP8 ADD MSTORE PUSH2 0x160 DUP7 ADD MSTORE DUP2 AND ISZERO ISZERO PUSH2 0x180 DUP6 ADD MSTORE DIV AND PUSH2 0x1A0 DUP3 ADD MSTORE RETURN JUMPDEST PUSH1 0x5 SLOAD DUP2 LT ISZERO PUSH2 0x20C8 JUMPI PUSH1 0x8 SWAP1 PUSH1 0x5 PUSH1 0x0 MSTORE MUL PUSH32 0x36B6384B5ECA791C62761152D0C79BB0604C104A5FB6F4EB0703F3154BB3DB0 ADD SWAP1 PUSH1 0x0 SWAP1 JUMP JUMPDEST PUSH1 0xE0 PUSH1 0x2 EXP PUSH4 0x4E487B71 MUL PUSH1 0x0 MSTORE PUSH1 0x32 PUSH1 0x4 MSTORE PUSH1 0x24 PUSH1 0x0 REVERT JUMPDEST PUSH1 0x20 DUP1 DUP3 MSTORE DUP3 MLOAD DUP2 DUP4 ADD DUP2 SWAP1 MSTORE SWAP1 SWAP4 SWAP3 PUSH1 0x0 JUMPDEST DUP3 DUP2 LT PUSH2 0x2116 JUMPI POP POP PUSH1 0x40 SWAP3 SWAP4 POP PUSH1 0x0 DUP4 DUP3 DUP5 ADD ADD MSTORE PUSH1 0x1F DUP1 NOT SWAP2 ADD AND ADD ADD SWAP1 JUMP JUMPDEST DUP2 DUP2 ADD DUP7 ADD MLOAD DUP5 DUP3 ADD PUSH1 0x40 ADD MSTORE DUP6 ADD PUSH2 0x20F4 JUMP JUMPDEST PUSH1 0x4 CALLDATALOAD SWAP1 PUSH1 0x1 PUSH1 0xA0 PUSH1 0x2 EXP SUB DUP3 AND DUP3 SUB PUSH2 0x2140 JUMPI JUMP JUMPDEST PUSH1 0x0 DUP1 REVERT JUMPDEST PUSH1 0x24 CALLDATALOAD SWAP1 PUSH1 0x1 PUSH1 0xA0 PUSH1 0x2 EXP SUB DUP3 AND DUP3 SUB PUSH2 0x2140 JUMPI JUMP JUMPDEST ISZERO PUSH2 0x2162 JUMPI JUMP JUMPDEST PUSH1 0x64 PUSH1 0x40 MLOAD PUSH1 0xE5 PUSH1 0x2 EXP PUSH3 0x461BCD MUL DUP2 MSTORE PUSH1 0x20 PUSH1 0x4 DUP3 ADD MSTORE PUSH1 0x15 PUSH1 0x24 DUP3 ADD MSTORE PUSH32 0x50726573616C652069736E277420656E61626C65640000000000000000000000 PUSH1 0x44 DUP3 ADD MSTORE REVERT JUMPDEST ISZERO PUSH2 0x21B0 JUMPI JUMP JUMPDEST PUSH1 0x64 PUSH1 0x40 MLOAD PUSH1 0xE5 PUSH1 0x2 EXP PUSH3 0x461BCD MUL DUP2 MSTORE PUSH1 0x20 PUSH1 0x4 DUP3 ADD MSTORE PUSH1 0x1F PUSH1 0x24 DUP3 ADD MSTORE PUSH32 0x4F776E61626C653A2063616C6C6572206973206E6F7420616E206F776E657200 PUSH1 0x44 DUP3 ADD MSTORE REVERT JUMPDEST SWAP2 SWAP1 DUP3 ADD DUP1 SWAP3 GT PUSH2 0x2204 JUMPI JUMP JUMPDEST PUSH1 0xE0 PUSH1 0x2 EXP PUSH4 0x4E487B71 MUL PUSH1 0x0 MSTORE PUSH1 0x11 PUSH1 0x4 MSTORE PUSH1 0x24 PUSH1 0x0 REVERT JUMPDEST PUSH1 0x40 DUP2 ADD SWAP1 DUP2 LT PUSH8 0xFFFFFFFFFFFFFFFF DUP3 GT OR PUSH2 0x2239 JUMPI PUSH1 0x40 MSTORE JUMP JUMPDEST PUSH1 0xE0 PUSH1 0x2 EXP PUSH4 0x4E487B71 MUL PUSH1 0x0 MSTORE PUSH1 0x41 PUSH1 0x4 MSTORE PUSH1 0x24 PUSH1 0x0 REVERT JUMPDEST SWAP1 PUSH1 0x1F DUP1 NOT SWAP2 ADD AND DUP2 ADD SWAP1 DUP2 LT PUSH8 0xFFFFFFFFFFFFFFFF DUP3 GT OR PUSH2 0x2239 JUMPI PUSH1 0x40 MSTORE JUMP JUMPDEST PUSH1 0x1 PUSH1 0xA0 PUSH1 0x2 EXP SUB SWAP1 DUP2 PUSH1 0xB SLOAD AND SWAP2 PUSH2 0x229C PUSH1 0x0 SWAP4 ADDRESS DUP6 MSTORE DUP5 PUSH1 0x20 MSTORE PUSH1 0x40 DUP6 KECCAK256 SLOAD SWAP1 ADDRESS PUSH2 0x293E JUMP JUMPDEST PUSH1 0xB SLOAD AND SWAP1 PUSH2 0x12C TIMESTAMP ADD DUP1 TIMESTAMP GT PUSH2 0x23C0 JUMPI TIMESTAMP DUP2 LT PUSH2 0x2379 JUMPI PUSH1 0xC4 PUSH1 0x60 SWAP3 DUP7 PUSH1 0x40 MLOAD SWAP6 DUP7 SWAP5 DUP6 SWAP4 PUSH32 0xF305D71900000000000000000000000000000000000000000000000000000000 DUP6 MSTORE ADDRESS PUSH1 0x4 DUP7 ADD MSTORE PUSH1 0x24 DUP6 ADD MSTORE DUP9 PUSH1 0x44 DUP6 ADD MSTORE DUP9 PUSH1 0x64 DUP6 ADD MSTORE ADDRESS PUSH1 0x84 DUP6 ADD MSTORE PUSH1 0xA4 DUP5 ADD MSTORE GAS CALL DUP1 ISZERO PUSH2 0x236E JUMPI PUSH2 0x2343 JUMPI JUMPDEST POP POP PUSH1 0x20 PUSH32 0xFDB748C915E4E67B4BB23287BF4295A4595CE48B50343214369F72CCFB974CFA SWAP2 PUSH1 0x40 MLOAD SWAP1 DUP2 MSTORE LOG1 JUMP JUMPDEST PUSH1 0x60 SWAP1 DUP2 RETURNDATASIZE DUP2 GT PUSH2 0x2367 JUMPI JUMPDEST PUSH2 0x2359 DUP2 DUP4 PUSH2 0x2252 JUMP JUMPDEST DUP2 ADD SUB SLT PUSH2 0x7E0 JUMPI DUP1 PUSH2 0x2314 JUMP JUMPDEST POP RETURNDATASIZE PUSH2 0x234F JUMP JUMPDEST PUSH1 0x40 MLOAD RETURNDATASIZE DUP5 DUP3 RETURNDATACOPY RETURNDATASIZE SWAP1 REVERT JUMPDEST PUSH1 0x64 PUSH1 0x40 MLOAD PUSH1 0xE5 PUSH1 0x2 EXP PUSH3 0x461BCD MUL DUP2 MSTORE PUSH1 0x20 PUSH1 0x4 DUP3 ADD MSTORE PUSH1 0x1B PUSH1 0x24 DUP3 ADD MSTORE PUSH32 0x536166654D6174683A206164646974696F6E206F766572666C6F770000000000 PUSH1 0x44 DUP3 ADD MSTORE REVERT JUMPDEST PUSH1 0x24 DUP5 PUSH1 0xE0 PUSH1 0x2 EXP PUSH4 0x4E487B71 MUL DUP2 MSTORE PUSH1 0x11 PUSH1 0x4 MSTORE REVERT JUMPDEST SWAP2 SWAP1 DUP3 SUB SWAP2 DUP3 GT PUSH2 0x2204 JUMPI JUMP JUMPDEST ISZERO PUSH2 0x23EB JUMPI JUMP JUMPDEST PUSH1 0x84 PUSH1 0x40 MLOAD PUSH1 0xE5 PUSH1 0x2 EXP PUSH3 0x461BCD MUL DUP2 MSTORE PUSH1 0x20 PUSH1 0x4 DUP3 ADD MSTORE PUSH1 0x2D PUSH1 0x24 DUP3 ADD MSTORE PUSH32 0x4D756C74695369676E617475726557616C6C65743A2070726F706F73616C2064 PUSH1 0x44 DUP3 ADD MSTORE PUSH32 0x6F6573206E6F7420657869737400000000000000000000000000000000000000 PUSH1 0x64 DUP3 ADD MSTORE REVERT JUMPDEST ISZERO PUSH2 0x245F JUMPI JUMP JUMPDEST PUSH1 0x84 PUSH1 0x40 MLOAD PUSH1 0xE5 PUSH1 0x2 EXP PUSH3 0x461BCD MUL DUP2 MSTORE PUSH1 0x20 PUSH1 0x4 DUP3 ADD MSTORE PUSH1 0x33 PUSH1 0x24 DUP3 ADD MSTORE PUSH32 0x4D756C74695369676E617475726557616C6C65743A2070726F706F73616C2077 PUSH1 0x44 DUP3 ADD MSTORE PUSH32 0x617320616C726561647920657865637574656400000000000000000000000000 PUSH1 0x64 DUP3 ADD MSTORE REVERT JUMPDEST PUSH1 0x40 DUP1 MLOAD SWAP2 PUSH8 0xFFFFFFFFFFFFFFFF SWAP1 PUSH1 0x60 DUP5 ADD DUP3 DUP2 GT DUP6 DUP3 LT OR PUSH2 0x2239 JUMPI DUP4 MSTORE PUSH1 0x2 DUP5 MSTORE PUSH1 0x20 DUP1 DUP6 ADD SWAP1 DUP5 CALLDATASIZE DUP4 CALLDATACOPY DUP6 MLOAD ISZERO PUSH2 0x20C8 JUMPI ADDRESS DUP3 MSTORE PUSH1 0x1 PUSH1 0xA0 PUSH1 0x2 EXP SUB SWAP3 DUP4 PUSH1 0xB SLOAD AND SWAP2 DUP7 MLOAD SWAP3 PUSH32 0xAD5C464800000000000000000000000000000000000000000000000000000000 DUP5 MSTORE DUP2 DUP5 PUSH1 0x4 DUP2 DUP5 GAS STATICCALL SWAP4 DUP5 ISZERO PUSH2 0x266C JUMPI PUSH1 0x0 SWAP5 PUSH2 0x2632 JUMPI JUMPDEST POP DUP9 MLOAD SWAP4 PUSH1 0x1 SWAP5 DUP6 LT ISZERO PUSH2 0x20C8 JUMPI PUSH2 0x2570 SWAP2 DUP8 DUP6 SWAP3 AND DUP11 DUP13 ADD MSTORE ADDRESS PUSH2 0x293E JUMP JUMPDEST DUP5 PUSH1 0xB SLOAD AND SWAP5 DUP6 EXTCODESIZE ISZERO PUSH2 0x2140 JUMPI SWAP2 DUP8 SWAP9 SWAP5 SWAP4 SWAP2 SWAP9 MLOAD SWAP9 DUP10 SWAP6 PUSH32 0x791AC94700000000000000000000000000000000000000000000000000000000 DUP8 MSTORE PUSH1 0xA4 DUP8 ADD SWAP3 PUSH1 0x4 DUP9 ADD MSTORE PUSH1 0x0 PUSH1 0x24 DUP9 ADD MSTORE PUSH1 0xA0 PUSH1 0x44 DUP9 ADD MSTORE MLOAD DUP1 SWAP3 MSTORE PUSH1 0xC4 DUP7 ADD SWAP5 SWAP4 PUSH1 0x0 SWAP1 JUMPDEST DUP4 DUP3 LT PUSH2 0x2618 JUMPI POP POP POP POP POP POP SWAP2 DUP2 PUSH1 0x0 DUP2 DUP2 SWAP6 ADDRESS PUSH1 0x64 DUP4 ADD MSTORE TIMESTAMP PUSH1 0x84 DUP4 ADD MSTORE SUB SWAP3 GAS CALL DUP1 ISZERO PUSH2 0x260D JUMPI PUSH2 0x2604 JUMPI POP POP POP JUMP JUMPDEST DUP3 GT PUSH2 0x2239 JUMPI MSTORE JUMP JUMPDEST DUP3 MLOAD RETURNDATASIZE PUSH1 0x0 DUP3 RETURNDATACOPY RETURNDATASIZE SWAP1 REVERT JUMPDEST DUP6 MLOAD DUP2 AND DUP8 MSTORE DUP12 SWAP8 POP SWAP6 DUP3 ADD SWAP6 SWAP5 DUP3 ADD SWAP5 SWAP1 DUP5 ADD SWAP1 PUSH2 0x25D1 JUMP JUMPDEST DUP3 DUP2 DUP2 SWAP7 SWAP4 SWAP7 RETURNDATASIZE DUP4 GT PUSH2 0x2665 JUMPI JUMPDEST PUSH2 0x264A DUP2 DUP4 PUSH2 0x2252 JUMP JUMPDEST DUP2 ADD SUB SLT PUSH2 0x24C JUMPI MLOAD SWAP1 DUP7 DUP3 AND DUP3 SUB PUSH2 0x7E0 JUMPI POP SWAP3 CODESIZE PUSH2 0x2550 JUMP JUMPDEST POP RETURNDATASIZE PUSH2 0x2640 JUMP JUMPDEST DUP9 MLOAD RETURNDATASIZE PUSH1 0x0 DUP3 RETURNDATACOPY RETURNDATASIZE SWAP1 REVERT JUMPDEST ISZERO PUSH2 0x267E JUMPI JUMP JUMPDEST PUSH1 0x84 PUSH1 0x40 MLOAD PUSH1 0xE5 PUSH1 0x2 EXP PUSH3 0x461BCD MUL DUP2 MSTORE PUSH1 0x20 PUSH1 0x4 DUP3 ADD MSTORE PUSH1 0x25 PUSH1 0x24 DUP3 ADD MSTORE PUSH32 0x45524332303A207472616E736665722066726F6D20746865207A65726F206164 PUSH1 0x44 DUP3 ADD MSTORE PUSH32 0x6472657373000000000000000000000000000000000000000000000000000000 PUSH1 0x64 DUP3 ADD MSTORE REVERT JUMPDEST ISZERO PUSH2 0x26F2 JUMPI JUMP JUMPDEST PUSH1 0x84 PUSH1 0x40 MLOAD PUSH1 0xE5 PUSH1 0x2 EXP PUSH3 0x461BCD MUL DUP2 MSTORE PUSH1 0x20 PUSH1 0x4 DUP3 ADD MSTORE PUSH1 0x23 PUSH1 0x24 DUP3 ADD MSTORE PUSH32 0x45524332303A207472616E7366657220746F20746865207A65726F2061646472 PUSH1 0x44 DUP3 ADD MSTORE PUSH32 0x6573730000000000000000000000000000000000000000000000000000000000 PUSH1 0x64 DUP3 ADD MSTORE REVERT JUMPDEST SWAP1 PUSH2 0x27BA SWAP3 SWAP2 PUSH1 0x1 PUSH1 0xA0 PUSH1 0x2 EXP SUB DUP1 DUP3 AND SWAP1 PUSH2 0x277C DUP3 ISZERO ISZERO PUSH2 0x2677 JUMP JUMPDEST DUP4 AND SWAP1 PUSH2 0x278A DUP3 ISZERO ISZERO PUSH2 0x26EB JUMP JUMPDEST PUSH1 0x0 SWAP2 DUP2 DUP4 MSTORE PUSH1 0x1F PUSH1 0x20 MSTORE PUSH1 0xFF PUSH1 0x40 DUP5 KECCAK256 SLOAD AND SWAP1 DUP2 ISZERO PUSH2 0x2825 JUMPI JUMPDEST POP ISZERO SWAP1 DUP2 PUSH2 0x280F JUMPI JUMPDEST POP PUSH2 0x27BC JUMPI JUMPDEST POP PUSH2 0x2836 JUMP JUMPDEST JUMP JUMPDEST PUSH2 0x27DF PUSH1 0x64 PUSH2 0x27CD PUSH1 0x1A SLOAD DUP8 PUSH2 0x2BF2 JUMP JUMPDEST PUSH2 0x27D5 PUSH2 0x2C17 JUMP JUMPDEST POP DIV PUSH1 0x1E SLOAD PUSH2 0x2A78 JUMP JUMPDEST PUSH1 0x1E SSTORE PUSH2 0x2806 ADDRESS BALANCE PUSH2 0x27F0 DUP7 PUSH2 0x24CC JUMP JUMPDEST ADDRESS DUP4 MSTORE DUP3 PUSH1 0x20 MSTORE PUSH1 0x64 PUSH2 0x1BAD PUSH1 0x40 DUP6 KECCAK256 SLOAD PUSH2 0x2B14 JUMP JUMPDEST PUSH1 0x1E SSTORE CODESIZE PUSH2 0x27B4 JUMP JUMPDEST DUP3 MSTORE POP PUSH1 0x21 PUSH1 0x20 MSTORE PUSH1 0x40 DUP2 KECCAK256 SLOAD PUSH1 0xFF AND CODESIZE PUSH2 0x27AE JUMP JUMPDEST DUP4 MSTORE POP PUSH1 0x40 DUP3 KECCAK256 SLOAD PUSH1 0xFF AND CODESIZE PUSH2 0x27A5 JUMP JUMPDEST PUSH1 0x1 PUSH1 0xA0 PUSH1 0x2 EXP SUB DUP1 SWAP2 AND SWAP2 PUSH2 0x284D DUP4 ISZERO ISZERO PUSH2 0x2677 JUMP JUMPDEST AND SWAP2 PUSH2 0x285A DUP4 ISZERO ISZERO PUSH2 0x26EB JUMP JUMPDEST PUSH1 0x0 DUP3 DUP2 MSTORE DUP1 PUSH1 0x20 MSTORE PUSH1 0x40 SWAP1 DUP2 DUP2 KECCAK256 SLOAD DUP4 DUP2 LT PUSH2 0x28D2 JUMPI SWAP2 DUP4 SWAP2 PUSH2 0x28A7 PUSH32 0xDDF252AD1BE2C89B69C2B068FC378DAA952BA7F163C4A11628F55A4DF523B3EF SWAP6 PUSH1 0x20 SWAP6 PUSH2 0xB1F PUSH2 0xB16 PUSH2 0x2A8D JUMP JUMPDEST DUP7 DUP3 MSTORE DUP2 DUP6 MSTORE DUP3 DUP3 KECCAK256 SSTORE DUP7 DUP2 MSTORE DUP2 PUSH2 0x28C2 DUP5 DUP3 DUP5 KECCAK256 SLOAD PUSH2 0x2A78 JUMP JUMPDEST SWAP2 DUP9 DUP2 MSTORE DUP1 DUP7 MSTORE KECCAK256 SSTORE MLOAD SWAP1 DUP2 MSTORE LOG3 JUMP JUMPDEST PUSH1 0x84 DUP4 MLOAD PUSH1 0xE5 PUSH1 0x2 EXP PUSH3 0x461BCD MUL DUP2 MSTORE PUSH1 0x20 PUSH1 0x4 DUP3 ADD MSTORE PUSH1 0x26 PUSH1 0x24 DUP3 ADD MSTORE PUSH32 0x45524332303A207472616E7366657220616D6F756E7420657863656564732062 PUSH1 0x44 DUP3 ADD MSTORE PUSH32 0x616C616E63650000000000000000000000000000000000000000000000000000 PUSH1 0x64 DUP3 ADD MSTORE REVERT JUMPDEST PUSH1 0x1 PUSH1 0xA0 PUSH1 0x2 EXP SUB DUP1 SWAP2 AND SWAP2 DUP3 ISZERO PUSH2 0x2A0C JUMPI AND SWAP2 DUP3 ISZERO PUSH2 0x299F JUMPI PUSH1 0x20 PUSH32 0x8C5BE1E5EBEC7D5BD14F71427D1E84F3DD0314C0F7B2291E5B200AC8C7C3B925 SWAP2 DUP4 PUSH1 0x0 MSTORE PUSH1 0x1 DUP3 MSTORE PUSH1 0x40 PUSH1 0x0 KECCAK256 DUP6 PUSH1 0x0 MSTORE DUP3 MSTORE DUP1 PUSH1 0x40 PUSH1 0x0 KECCAK256 SSTORE PUSH1 0x40 MLOAD SWAP1 DUP2 MSTORE LOG3 JUMP JUMPDEST PUSH1 0x84 PUSH1 0x40 MLOAD PUSH1 0xE5 PUSH1 0x2 EXP PUSH3 0x461BCD MUL DUP2 MSTORE PUSH1 0x20 PUSH1 0x4 DUP3 ADD MSTORE PUSH1 0x22 PUSH1 0x24 DUP3 ADD MSTORE PUSH32 0x45524332303A20617070726F766520746F20746865207A65726F206164647265 PUSH1 0x44 DUP3 ADD MSTORE PUSH32 0x7373000000000000000000000000000000000000000000000000000000000000 PUSH1 0x64 DUP3 ADD MSTORE REVERT JUMPDEST PUSH1 0x84 PUSH1 0x40 MLOAD PUSH1 0xE5 PUSH1 0x2 EXP PUSH3 0x461BCD MUL DUP2 MSTORE PUSH1 0x20 PUSH1 0x4 DUP3 ADD MSTORE PUSH1 0x24 DUP1 DUP3 ADD MSTORE PUSH32 0x45524332303A20617070726F76652066726F6D20746865207A65726F20616464 PUSH1 0x44 DUP3 ADD MSTORE PUSH32 0x7265737300000000000000000000000000000000000000000000000000000000 PUSH1 0x64 DUP3 ADD MSTORE REVERT JUMPDEST SWAP1 PUSH2 0x2A83 SWAP1 DUP3 PUSH2 0x21F7 JUMP JUMPDEST SWAP1 DUP2 LT PUSH2 0x2379 JUMPI SWAP1 JUMP JUMPDEST PUSH1 0x40 MLOAD SWAP1 PUSH2 0x2A9A DUP3 PUSH2 0x221D JUMP JUMPDEST PUSH1 0x1E DUP3 MSTORE PUSH32 0x536166654D6174683A207375627472616374696F6E206F766572666C6F770000 PUSH1 0x20 DUP4 ADD MSTORE JUMP JUMPDEST ISZERO PUSH2 0x2ACE JUMPI POP JUMP JUMPDEST PUSH2 0x2AED SWAP1 PUSH1 0x40 MLOAD SWAP2 DUP3 SWAP2 PUSH1 0xE5 PUSH1 0x2 EXP PUSH3 0x461BCD MUL DUP4 MSTORE PUSH1 0x4 DUP4 ADD PUSH2 0x20E1 JUMP JUMPDEST SUB SWAP1 REVERT JUMPDEST DUP2 ISZERO PUSH2 0x2AFB JUMPI DIV SWAP1 JUMP JUMPDEST PUSH1 0xE0 PUSH1 0x2 EXP PUSH4 0x4E487B71 MUL PUSH1 0x0 MSTORE PUSH1 0x12 PUSH1 0x4 MSTORE PUSH1 0x24 PUSH1 0x0 REVERT JUMPDEST DUP1 ISZERO PUSH2 0x2BAA JUMPI PUSH1 0x1E DUP2 MUL SWAP1 DUP1 DUP3 DIV PUSH1 0x1E SUB PUSH2 0x2204 JUMPI PUSH2 0x2B35 PUSH1 0x1E SWAP2 DUP4 PUSH2 0x2AF1 JUMP JUMPDEST SUB PUSH2 0x2B3D JUMPI SWAP1 JUMP JUMPDEST PUSH1 0x84 PUSH1 0x40 MLOAD PUSH1 0xE5 PUSH1 0x2 EXP PUSH3 0x461BCD MUL DUP2 MSTORE PUSH1 0x20 PUSH1 0x4 DUP3 ADD MSTORE PUSH1 0x21 PUSH1 0x24 DUP3 ADD MSTORE PUSH32 0x536166654D6174683A206D756C7469706C69636174696F6E206F766572666C6F PUSH1 0x44 DUP3 ADD MSTORE PUSH32 0x7700000000000000000000000000000000000000000000000000000000000000 PUSH1 0x64 DUP3 ADD MSTORE REVERT JUMPDEST POP PUSH1 0x0 SWAP1 JUMP JUMPDEST DUP1 ISZERO PUSH2 0x2BAA JUMPI PUSH1 0x64 DUP2 MUL SWAP1 DUP1 DUP3 DIV PUSH1 0x64 SUB PUSH2 0x2204 JUMPI PUSH2 0x2B35 PUSH1 0x64 SWAP2 DUP4 PUSH2 0x2AF1 JUMP JUMPDEST DUP1 ISZERO PUSH2 0x2BAA JUMPI PUSH1 0xA DUP2 MUL SWAP1 DUP1 DUP3 DIV PUSH1 0xA SUB PUSH2 0x2204 JUMPI PUSH2 0x2B35 PUSH1 0xA SWAP2 DUP4 PUSH2 0x2AF1 JUMP JUMPDEST SWAP1 DUP2 ISZERO PUSH2 0x2C10 JUMPI DUP1 DUP3 MUL SWAP2 DUP1 DUP4 DIV DUP3 SUB PUSH2 0x2204 JUMPI PUSH2 0x2B35 SWAP1 DUP4 PUSH2 0x2AF1 JUMP JUMPDEST POP POP PUSH1 0x0 SWAP1 JUMP JUMPDEST PUSH1 0x40 MLOAD SWAP1 PUSH2 0x2C24 DUP3 PUSH2 0x221D JUMP JUMPDEST PUSH1 0x1A DUP3 MSTORE PUSH32 0x536166654D6174683A206469766973696F6E206279207A65726F000000000000 PUSH1 0x20 DUP4 ADD MSTORE JUMP INVALID LOG2 PUSH5 0x6970667358 0x22 SLT KECCAK256 DUP15 0xB8 DUP4 0x4C 0xF6 0xC8 0xAB 0xCC CALLCODE 0xF9 JUMP 0xD5 0x2F JUMPI STOP PUSH2 0xBDE8 PUSH22 0xECD8B76473E9413892BFA8345264736F6C6343000811 STOP CALLER DUP12 0xE0 SMOD SWAP13 MSTORE8 AND MSIZE EQ SGT DIFFICULTY 0xCD 0x1F 0xD0 LOG4 CALLCODE DUP5 NOT 0x49 PUSH32 0x9722A3DAAFE3B4186F6B6457E000000000000000000000000000000000000000 "
		},
		"gasEstimates": {
			"creation": {
				"codeDepositCost": "2279600",
				"executionCost": "infinite",
				"totalCost": "infinite"
			},
			"external": {
				"_poolHeisenDev()": "629",
				"_poolLiquidity()": "585",
				"_poolMarketing()": "541",
				"_poolTeam()": "695",
				"addressHeisenDev()": "858",
				"addressMarketing()": "528",
				"addressTeam()": "792",
				"allowance(address,address)": "1622",
				"approve(address,uint256)": "22430",
				"approveProposal(uint256)": "24099",
				"balanceOf(address)": "1001",
				"buy()": "infinite",
				"decimals()": "401",
				"decreaseAllowance(address,uint256)": "infinite",
				"executeProposal(uint256)": "infinite",
				"firstLiquidity(uint256)": "infinite",
				"increaseAllowance(address,uint256)": "23172",
				"name()": "infinite",
				"owner()": "946",
				"proposals(uint256)": "2615",
				"revokeProposal(uint256)": "24008",
				"salesEnabled()": "1081",
				"submitProposal(bool,bool,bool,bool,uint256,bool,uint256,uint256,uint256,uint256,bool,address)": "infinite",
				"symbol()": "infinite",
				"taxFeeHeisenverse()": "959",
				"taxFeeLiquidity()": "893",
				"taxFeeMarketing()": "805",
				"taxFeeTeam()": "1047",
				"teamPayment()": "infinite",
				"totalSupply()": "519",
				"transfer(address,uint256)": "infinite",
				"transferFrom(address,address,uint256)": "infinite",
				"uniswapV2Router()": "572",
				"withdraw()": "infinite",
				"withdrawAllowance(address)": "1437",
				"withdrawAuthorization(address,uint256,uint256)": "infinite",
				"withdrawPrice()": "761"
			},
			"internal": {
				"_getApprovalCount(uint256)": "infinite",
				"_transfer(address,address,uint256)": "infinite",
				"addLiquidity(uint256,uint256)": "infinite",
				"isUnderDailyWithdrawalLimit(address)": "infinite",
				"swapAndAddLiquidity()": "infinite",
				"swapAndAddLiquidityTokens(uint256)": "infinite",
				"swapTokensForEth(uint256)": "infinite",
				"updateSalesStatus(bool)": "infinite",
				"updateTaxesFees(uint256,uint256,uint256,uint256)": "infinite",
				"updateWithdrawOptions(uint256)": "infinite"
			}
		},
		"methodIdentifiers": {
			"_poolHeisenDev()": "39262773",
			"_poolLiquidity()": "2a9af7ba",
			"_poolMarketing()": "1b45a47a",
			"_poolTeam()": "553000c1",
			"addressHeisenDev()": "7a594a2b",
			"addressMarketing()": "0abdc640",
			"addressTeam()": "562e9df9",
			"allowance(address,address)": "dd62ed3e",
			"approve(address,uint256)": "095ea7b3",
			"approveProposal(uint256)": "98951b56",
			"balanceOf(address)": "70a08231",
			"buy()": "a6f2ae3a",
			"decimals()": "313ce567",
			"decreaseAllowance(address,uint256)": "a457c2d7",
			"executeProposal(uint256)": "0d61b519",
			"firstLiquidity(uint256)": "d8a0f828",
			"increaseAllowance(address,uint256)": "39509351",
			"name()": "06fdde03",
			"owner()": "8da5cb5b",
			"proposals(uint256)": "013cf08b",
			"revokeProposal(uint256)": "85a6a091",
			"salesEnabled()": "c84ad9a5",
			"submitProposal(bool,bool,bool,bool,uint256,bool,uint256,uint256,uint256,uint256,bool,address)": "dce165a6",
			"symbol()": "95d89b41",
			"taxFeeHeisenverse()": "9e5cd74a",
			"taxFeeLiquidity()": "933f5e07",
			"taxFeeMarketing()": "7d81936c",
			"taxFeeTeam()": "b6bba0ae",
			"teamPayment()": "d7196dd9",
			"totalSupply()": "18160ddd",
			"transfer(address,uint256)": "a9059cbb",
			"transferFrom(address,address,uint256)": "23b872dd",
			"uniswapV2Router()": "1694505e",
			"withdraw()": "3ccfd60b",
			"withdrawAllowance(address)": "fe7441e7",
			"withdrawAuthorization(address,uint256,uint256)": "8198c341",
			"withdrawPrice()": "7918447e"
		}
	},
	"abi": [
		{
			"inputs": [
				{
					"internalType": "address",
					"name": "_owner1",
					"type": "address"
				},
				{
					"internalType": "address",
					"name": "_owner2",
					"type": "address"
				},
				{
					"internalType": "address",
					"name": "_owner3",
					"type": "address"
				},
				{
					"internalType": "address",
					"name": "_backend",
					"type": "address"
				}
			],
			"stateMutability": "nonpayable",
			"type": "constructor"
		},
		{
			"anonymous": false,
			"inputs": [
				{
					"indexed": true,
					"internalType": "address",
					"name": "owner",
					"type": "address"
				},
				{
					"indexed": true,
					"internalType": "address",
					"name": "spender",
					"type": "address"
				},
				{
					"indexed": false,
					"internalType": "uint256",
					"name": "value",
					"type": "uint256"
				}
			],
			"name": "Approval",
			"type": "event"
		},
		{
			"anonymous": false,
			"inputs": [
				{
					"indexed": true,
					"internalType": "address",
					"name": "owner",
					"type": "address"
				},
				{
					"indexed": true,
					"internalType": "uint256",
					"name": "proposalId",
					"type": "uint256"
				}
			],
			"name": "ApproveProposal",
			"type": "event"
		},
		{
			"anonymous": false,
			"inputs": [],
			"name": "BuyEgg",
			"type": "event"
		},
		{
			"anonymous": false,
			"inputs": [
				{
					"indexed": true,
					"internalType": "address",
					"name": "sender",
					"type": "address"
				},
				{
					"indexed": false,
					"internalType": "uint256",
					"name": "amount",
					"type": "uint256"
				}
			],
			"name": "Deposit",
			"type": "event"
		},
		{
			"anonymous": false,
			"inputs": [
				{
					"indexed": true,
					"internalType": "address",
					"name": "sender",
					"type": "address"
				},
				{
					"indexed": false,
					"internalType": "uint256",
					"name": "amount",
					"type": "uint256"
				}
			],
			"name": "DepositProposal",
			"type": "event"
		},
		{
			"anonymous": false,
			"inputs": [
				{
					"indexed": false,
					"internalType": "uint256",
					"name": "bnb",
					"type": "uint256"
				}
			],
			"name": "FirstLiquidityAdded",
			"type": "event"
		},
		{
			"anonymous": false,
			"inputs": [
				{
					"indexed": false,
					"internalType": "uint256",
					"name": "bnb",
					"type": "uint256"
				}
			],
			"name": "LiquidityAdded",
			"type": "event"
		},
		{
			"anonymous": false,
			"inputs": [
				{
					"indexed": true,
					"internalType": "address",
					"name": "previousOwner",
					"type": "address"
				},
				{
					"indexed": true,
					"internalType": "address",
					"name": "newOwner",
					"type": "address"
				}
			],
			"name": "OwnershipTransferred",
			"type": "event"
		},
		{
			"anonymous": false,
			"inputs": [
				{
					"indexed": true,
					"internalType": "address",
					"name": "owner",
					"type": "address"
				},
				{
					"indexed": true,
					"internalType": "uint256",
					"name": "proposalId",
					"type": "uint256"
				}
			],
			"name": "RevokeProposal",
			"type": "event"
		},
		{
			"anonymous": false,
			"inputs": [
				{
					"indexed": false,
					"internalType": "bool",
					"name": "status",
					"type": "bool"
				}
			],
			"name": "SalesState",
			"type": "event"
		},
		{
			"anonymous": false,
			"inputs": [
				{
					"indexed": true,
					"internalType": "uint256",
					"name": "proposalId",
					"type": "uint256"
				}
			],
			"name": "SubmitProposal",
			"type": "event"
		},
		{
			"anonymous": false,
			"inputs": [
				{
					"indexed": false,
					"internalType": "uint256",
					"name": "amount",
					"type": "uint256"
				}
			],
			"name": "TeamPayment",
			"type": "event"
		},
		{
			"anonymous": false,
			"inputs": [
				{
					"indexed": true,
					"internalType": "address",
					"name": "from",
					"type": "address"
				},
				{
					"indexed": true,
					"internalType": "address",
					"name": "to",
					"type": "address"
				},
				{
					"indexed": false,
					"internalType": "uint256",
					"name": "value",
					"type": "uint256"
				}
			],
			"name": "Transfer",
			"type": "event"
		},
		{
			"anonymous": false,
			"inputs": [
				{
					"indexed": false,
					"internalType": "uint256",
					"name": "taxFeeHeisenverse",
					"type": "uint256"
				},
				{
					"indexed": false,
					"internalType": "uint256",
					"name": "taxFeeMarketing",
					"type": "uint256"
				},
				{
					"indexed": false,
					"internalType": "uint256",
					"name": "taxFeeTeam",
					"type": "uint256"
				},
				{
					"indexed": false,
					"internalType": "uint256",
					"name": "taxFeeLiquidity",
					"type": "uint256"
				}
			],
			"name": "UpdateTaxesFees",
			"type": "event"
		},
		{
			"anonymous": false,
			"inputs": [
				{
					"indexed": false,
					"internalType": "uint256",
					"name": "withdrawPrice",
					"type": "uint256"
				}
			],
			"name": "UpdateWithdrawOptions",
			"type": "event"
		},
		{
			"anonymous": false,
			"inputs": [
				{
					"indexed": false,
					"internalType": "uint256",
					"name": "amount",
					"type": "uint256"
				}
			],
			"name": "Withdraw",
			"type": "event"
		},
		{
			"inputs": [],
			"name": "_poolHeisenDev",
			"outputs": [
				{
					"internalType": "uint256",
					"name": "",
					"type": "uint256"
				}
			],
			"stateMutability": "view",
			"type": "function"
		},
		{
			"inputs": [],
			"name": "_poolLiquidity",
			"outputs": [
				{
					"internalType": "uint256",
					"name": "",
					"type": "uint256"
				}
			],
			"stateMutability": "view",
			"type": "function"
		},
		{
			"inputs": [],
			"name": "_poolMarketing",
			"outputs": [
				{
					"internalType": "uint256",
					"name": "",
					"type": "uint256"
				}
			],
			"stateMutability": "view",
			"type": "function"
		},
		{
			"inputs": [],
			"name": "_poolTeam",
			"outputs": [
				{
					"internalType": "uint256",
					"name": "",
					"type": "uint256"
				}
			],
			"stateMutability": "view",
			"type": "function"
		},
		{
			"inputs": [],
			"name": "addressHeisenDev",
			"outputs": [
				{
					"internalType": "address payable",
					"name": "",
					"type": "address"
				}
			],
			"stateMutability": "view",
			"type": "function"
		},
		{
			"inputs": [],
			"name": "addressMarketing",
			"outputs": [
				{
					"internalType": "address payable",
					"name": "",
					"type": "address"
				}
			],
			"stateMutability": "view",
			"type": "function"
		},
		{
			"inputs": [],
			"name": "addressTeam",
			"outputs": [
				{
					"internalType": "address payable",
					"name": "",
					"type": "address"
				}
			],
			"stateMutability": "view",
			"type": "function"
		},
		{
			"inputs": [
				{
					"internalType": "address",
					"name": "owner",
					"type": "address"
				},
				{
					"internalType": "address",
					"name": "spender",
					"type": "address"
				}
			],
			"name": "allowance",
			"outputs": [
				{
					"internalType": "uint256",
					"name": "",
					"type": "uint256"
				}
			],
			"stateMutability": "view",
			"type": "function"
		},
		{
			"inputs": [
				{
					"internalType": "address",
					"name": "spender",
					"type": "address"
				},
				{
					"internalType": "uint256",
					"name": "amount",
					"type": "uint256"
				}
			],
			"name": "approve",
			"outputs": [
				{
					"internalType": "bool",
					"name": "",
					"type": "bool"
				}
			],
			"stateMutability": "nonpayable",
			"type": "function"
		},
		{
			"inputs": [
				{
					"internalType": "uint256",
					"name": "_proposalId",
					"type": "uint256"
				}
			],
			"name": "approveProposal",
			"outputs": [],
			"stateMutability": "nonpayable",
			"type": "function"
		},
		{
			"inputs": [
				{
					"internalType": "address",
					"name": "account",
					"type": "address"
				}
			],
			"name": "balanceOf",
			"outputs": [
				{
					"internalType": "uint256",
					"name": "",
					"type": "uint256"
				}
			],
			"stateMutability": "view",
			"type": "function"
		},
		{
			"inputs": [],
			"name": "buy",
			"outputs": [],
			"stateMutability": "payable",
			"type": "function"
		},
		{
			"inputs": [],
			"name": "decimals",
			"outputs": [
				{
					"internalType": "uint8",
					"name": "",
					"type": "uint8"
				}
			],
			"stateMutability": "view",
			"type": "function"
		},
		{
			"inputs": [
				{
					"internalType": "address",
					"name": "spender",
					"type": "address"
				},
				{
					"internalType": "uint256",
					"name": "subtractedValue",
					"type": "uint256"
				}
			],
			"name": "decreaseAllowance",
			"outputs": [
				{
					"internalType": "bool",
					"name": "",
					"type": "bool"
				}
			],
			"stateMutability": "nonpayable",
			"type": "function"
		},
		{
			"inputs": [
				{
					"internalType": "uint256",
					"name": "_proposalId",
					"type": "uint256"
				}
			],
			"name": "executeProposal",
			"outputs": [],
			"stateMutability": "nonpayable",
			"type": "function"
		},
		{
			"inputs": [
				{
					"internalType": "uint256",
					"name": "tokens",
					"type": "uint256"
				}
			],
			"name": "firstLiquidity",
			"outputs": [],
			"stateMutability": "payable",
			"type": "function"
		},
		{
			"inputs": [
				{
					"internalType": "address",
					"name": "spender",
					"type": "address"
				},
				{
					"internalType": "uint256",
					"name": "addedValue",
					"type": "uint256"
				}
			],
			"name": "increaseAllowance",
			"outputs": [
				{
					"internalType": "bool",
					"name": "",
					"type": "bool"
				}
			],
			"stateMutability": "nonpayable",
			"type": "function"
		},
		{
			"inputs": [],
			"name": "name",
			"outputs": [
				{
					"internalType": "string",
					"name": "",
					"type": "string"
				}
			],
			"stateMutability": "view",
			"type": "function"
		},
		{
			"inputs": [],
			"name": "owner",
			"outputs": [
				{
					"internalType": "address",
					"name": "",
					"type": "address"
				}
			],
			"stateMutability": "view",
			"type": "function"
		},
		{
			"inputs": [
				{
					"internalType": "uint256",
					"name": "",
					"type": "uint256"
				}
			],
			"name": "proposals",
			"outputs": [
				{
					"internalType": "address",
					"name": "author",
					"type": "address"
				},
				{
					"internalType": "bool",
					"name": "executed",
					"type": "bool"
				},
				{
					"internalType": "bool",
					"name": "updateSalesStatus",
					"type": "bool"
				},
				{
					"internalType": "bool",
					"name": "salesEnabled",
					"type": "bool"
				},
				{
					"internalType": "bool",
					"name": "swapAndAddLiquidity",
					"type": "bool"
				},
				{
					"internalType": "bool",
					"name": "updateWithdrawOptions",
					"type": "bool"
				},
				{
					"internalType": "uint256",
					"name": "withdrawPrice",
					"type": "uint256"
				},
				{
					"internalType": "bool",
					"name": "updateTaxesFees",
					"type": "bool"
				},
				{
					"internalType": "uint256",
					"name": "heisenVerseTaxFee",
					"type": "uint256"
				},
				{
					"internalType": "uint256",
					"name": "marketingTaxFee",
					"type": "uint256"
				},
				{
					"internalType": "uint256",
					"name": "teamTaxFee",
					"type": "uint256"
				},
				{
					"internalType": "uint256",
					"name": "liquidityTaxFee",
					"type": "uint256"
				},
				{
					"internalType": "bool",
					"name": "transferBackend",
					"type": "bool"
				},
				{
					"internalType": "address",
					"name": "backendAddress",
					"type": "address"
				}
			],
			"stateMutability": "view",
			"type": "function"
		},
		{
			"inputs": [
				{
					"internalType": "uint256",
					"name": "_proposalId",
					"type": "uint256"
				}
			],
			"name": "revokeProposal",
			"outputs": [],
			"stateMutability": "nonpayable",
			"type": "function"
		},
		{
			"inputs": [],
			"name": "salesEnabled",
			"outputs": [
				{
					"internalType": "bool",
					"name": "",
					"type": "bool"
				}
			],
			"stateMutability": "view",
			"type": "function"
		},
		{
			"inputs": [
				{
					"internalType": "bool",
					"name": "_updateEggSales",
					"type": "bool"
				},
				{
					"internalType": "bool",
					"name": "_salesEnabled",
					"type": "bool"
				},
				{
					"internalType": "bool",
					"name": "_swapAndAddLiquidity",
					"type": "bool"
				},
				{
					"internalType": "bool",
					"name": "_updateWithdrawOptions",
					"type": "bool"
				},
				{
					"internalType": "uint256",
					"name": "_withdrawPrice",
					"type": "uint256"
				},
				{
					"internalType": "bool",
					"name": "_updateTaxesFees",
					"type": "bool"
				},
				{
					"internalType": "uint256",
					"name": "_heisenVerseTaxFee",
					"type": "uint256"
				},
				{
					"internalType": "uint256",
					"name": "_marketingTaxFee",
					"type": "uint256"
				},
				{
					"internalType": "uint256",
					"name": "_teamTaxFee",
					"type": "uint256"
				},
				{
					"internalType": "uint256",
					"name": "_liquidityTaxFee",
					"type": "uint256"
				},
				{
					"internalType": "bool",
					"name": "_transferBackend",
					"type": "bool"
				},
				{
					"internalType": "address",
					"name": "_backendAddress",
					"type": "address"
				}
			],
			"name": "submitProposal",
			"outputs": [],
			"stateMutability": "nonpayable",
			"type": "function"
		},
		{
			"inputs": [],
			"name": "symbol",
			"outputs": [
				{
					"internalType": "string",
					"name": "",
					"type": "string"
				}
			],
			"stateMutability": "view",
			"type": "function"
		},
		{
			"inputs": [],
			"name": "taxFeeHeisenverse",
			"outputs": [
				{
					"internalType": "uint256",
					"name": "",
					"type": "uint256"
				}
			],
			"stateMutability": "view",
			"type": "function"
		},
		{
			"inputs": [],
			"name": "taxFeeLiquidity",
			"outputs": [
				{
					"internalType": "uint256",
					"name": "",
					"type": "uint256"
				}
			],
			"stateMutability": "view",
			"type": "function"
		},
		{
			"inputs": [],
			"name": "taxFeeMarketing",
			"outputs": [
				{
					"internalType": "uint256",
					"name": "",
					"type": "uint256"
				}
			],
			"stateMutability": "view",
			"type": "function"
		},
		{
			"inputs": [],
			"name": "taxFeeTeam",
			"outputs": [
				{
					"internalType": "uint256",
					"name": "",
					"type": "uint256"
				}
			],
			"stateMutability": "view",
			"type": "function"
		},
		{
			"inputs": [],
			"name": "teamPayment",
			"outputs": [],
			"stateMutability": "nonpayable",
			"type": "function"
		},
		{
			"inputs": [],
			"name": "totalSupply",
			"outputs": [
				{
					"internalType": "uint256",
					"name": "",
					"type": "uint256"
				}
			],
			"stateMutability": "view",
			"type": "function"
		},
		{
			"inputs": [
				{
					"internalType": "address",
					"name": "to",
					"type": "address"
				},
				{
					"internalType": "uint256",
					"name": "amount",
					"type": "uint256"
				}
			],
			"name": "transfer",
			"outputs": [
				{
					"internalType": "bool",
					"name": "",
					"type": "bool"
				}
			],
			"stateMutability": "nonpayable",
			"type": "function"
		},
		{
			"inputs": [
				{
					"internalType": "address",
					"name": "from",
					"type": "address"
				},
				{
					"internalType": "address",
					"name": "to",
					"type": "address"
				},
				{
					"internalType": "uint256",
					"name": "amount",
					"type": "uint256"
				}
			],
			"name": "transferFrom",
			"outputs": [
				{
					"internalType": "bool",
					"name": "",
					"type": "bool"
				}
			],
			"stateMutability": "nonpayable",
			"type": "function"
		},
		{
			"inputs": [],
			"name": "uniswapV2Router",
			"outputs": [
				{
					"internalType": "contract IUniswapV2Router02",
					"name": "",
					"type": "address"
				}
			],
			"stateMutability": "view",
			"type": "function"
		},
		{
			"inputs": [],
			"name": "withdraw",
			"outputs": [],
			"stateMutability": "payable",
			"type": "function"
		},
		{
			"inputs": [
				{
					"internalType": "address",
					"name": "account",
					"type": "address"
				}
			],
			"name": "withdrawAllowance",
			"outputs": [
				{
					"internalType": "uint256",
					"name": "",
					"type": "uint256"
				}
			],
			"stateMutability": "view",
			"type": "function"
		},
		{
			"inputs": [
				{
					"internalType": "address",
					"name": "to",
					"type": "address"
				},
				{
					"internalType": "uint256",
					"name": "amount",
					"type": "uint256"
				},
				{
					"internalType": "uint256",
					"name": "fee",
					"type": "uint256"
				}
			],
			"name": "withdrawAuthorization",
			"outputs": [],
			"stateMutability": "nonpayable",
			"type": "function"
		},
		{
			"inputs": [],
			"name": "withdrawPrice",
			"outputs": [
				{
					"internalType": "uint256",
					"name": "",
					"type": "uint256"
				}
			],
			"stateMutability": "view",
			"type": "function"
		},
		{
			"stateMutability": "payable",
			"type": "receive"
		}
	]
}